{
	"contracts/Main.sol": {
		"Main": {
			"abi": [
				{
					"inputs": [
						{
							"internalType": "string",
							"name": "_fName",
							"type": "string"
						},
						{
							"internalType": "string",
							"name": "_lName",
							"type": "string"
						},
						{
							"internalType": "string",
							"name": "_pob",
							"type": "string"
						},
						{
							"internalType": "string",
							"name": "_dob",
							"type": "string"
						},
						{
							"internalType": "string",
							"name": "_passNo",
							"type": "string"
						},
						{
							"internalType": "address",
							"name": "_addrs",
							"type": "address"
						},
						{
							"internalType": "string",
							"name": "_sex",
							"type": "string"
						}
					],
					"name": "createPassport",
					"outputs": [],
					"stateMutability": "nonpayable",
					"type": "function"
				},
				{
					"inputs": [],
					"name": "getInt",
					"outputs": [
						{
							"internalType": "uint256",
							"name": "",
							"type": "uint256"
						}
					],
					"stateMutability": "view",
					"type": "function"
				},
				{
					"inputs": [],
					"name": "getPassport",
					"outputs": [
						{
							"components": [
								{
									"internalType": "address",
									"name": "addrs",
									"type": "address"
								},
								{
									"internalType": "string",
									"name": "firstName",
									"type": "string"
								},
								{
									"internalType": "string",
									"name": "sex",
									"type": "string"
								},
								{
									"internalType": "string",
									"name": "lastName",
									"type": "string"
								},
								{
									"internalType": "string",
									"name": "placeOfBirth",
									"type": "string"
								},
								{
									"internalType": "string",
									"name": "DOB",
									"type": "string"
								},
								{
									"internalType": "string",
									"name": "passportNumber",
									"type": "string"
								}
							],
							"internalType": "struct Main.Passport[]",
							"name": "",
							"type": "tuple[]"
						}
					],
					"stateMutability": "view",
					"type": "function"
				},
				{
					"inputs": [],
					"name": "num",
					"outputs": [
						{
							"internalType": "uint256",
							"name": "",
							"type": "uint256"
						}
					],
					"stateMutability": "view",
					"type": "function"
				},
				{
					"inputs": [
						{
							"internalType": "uint256",
							"name": "",
							"type": "uint256"
						}
					],
					"name": "passports",
					"outputs": [
						{
							"internalType": "address",
							"name": "addrs",
							"type": "address"
						},
						{
							"internalType": "string",
							"name": "firstName",
							"type": "string"
						},
						{
							"internalType": "string",
							"name": "sex",
							"type": "string"
						},
						{
							"internalType": "string",
							"name": "lastName",
							"type": "string"
						},
						{
							"internalType": "string",
							"name": "placeOfBirth",
							"type": "string"
						},
						{
							"internalType": "string",
							"name": "DOB",
							"type": "string"
						},
						{
							"internalType": "string",
							"name": "passportNumber",
							"type": "string"
						}
					],
					"stateMutability": "view",
					"type": "function"
				}
			],
			"devdoc": {
				"kind": "dev",
				"methods": {},
				"version": 1
			},
			"evm": {
				"assembly": "    /* \"contracts/Main.sol\":60:945  contract Main {... */\n  mstore(0x40, 0x80)\n    /* \"contracts/Main.sol\":315:317  10 */\n  0x0a\n    /* \"contracts/Main.sol\":294:317  uint256 public num = 10 */\n  0x00\n  sstore\n    /* \"contracts/Main.sol\":60:945  contract Main {... */\n  callvalue\n  dup1\n  iszero\n  tag_1\n  jumpi\n  0x00\n  dup1\n  revert\ntag_1:\n  pop\n  dataSize(sub_0)\n  dup1\n  dataOffset(sub_0)\n  0x00\n  codecopy\n  0x00\n  return\nstop\n\nsub_0: assembly {\n        /* \"contracts/Main.sol\":60:945  contract Main {... */\n      mstore(0x40, 0x80)\n      callvalue\n      dup1\n      iszero\n      tag_1\n      jumpi\n      0x00\n      dup1\n      revert\n    tag_1:\n      pop\n      jumpi(tag_2, lt(calldatasize, 0x04))\n      shr(0xe0, calldataload(0x00))\n      dup1\n      0x4e70b1dc\n      eq\n      tag_3\n      jumpi\n      dup1\n      0x62738998\n      eq\n      tag_4\n      jumpi\n      dup1\n      0x8eb20b0b\n      eq\n      tag_5\n      jumpi\n      dup1\n      0xcb22f5fd\n      eq\n      tag_6\n      jumpi\n      dup1\n      0xec875b6f\n      eq\n      tag_7\n      jumpi\n    tag_2:\n      0x00\n      dup1\n      revert\n        /* \"contracts/Main.sol\":294:317  uint256 public num = 10 */\n    tag_3:\n      tag_8\n      tag_9\n      jump\t// in\n    tag_8:\n      mload(0x40)\n      tag_10\n      swap2\n      swap1\n      tag_11\n      jump\t// in\n    tag_10:\n      mload(0x40)\n      dup1\n      swap2\n      sub\n      swap1\n      return\n        /* \"contracts/Main.sol\":863:940  function getInt() public view returns (uint256) {... */\n    tag_4:\n      tag_12\n      tag_13\n      jump\t// in\n    tag_12:\n      mload(0x40)\n      tag_14\n      swap2\n      swap1\n      tag_11\n      jump\t// in\n    tag_14:\n      mload(0x40)\n      dup1\n      swap2\n      sub\n      swap1\n      return\n        /* \"contracts/Main.sol\":760:857  function getPassport() public view returns(Passport[] memory) {... */\n    tag_5:\n      tag_15\n      tag_16\n      jump\t// in\n    tag_15:\n      mload(0x40)\n      tag_17\n      swap2\n      swap1\n      tag_18\n      jump\t// in\n    tag_17:\n      mload(0x40)\n      dup1\n      swap2\n      sub\n      swap1\n      return\n        /* \"contracts/Main.sol\":326:353  Passport[] public passports */\n    tag_6:\n      tag_19\n      0x04\n      dup1\n      calldatasize\n      sub\n      dup2\n      add\n      swap1\n      tag_20\n      swap2\n      swap1\n      tag_21\n      jump\t// in\n    tag_20:\n      tag_22\n      jump\t// in\n    tag_19:\n      mload(0x40)\n      tag_23\n      swap8\n      swap7\n      swap6\n      swap5\n      swap4\n      swap3\n      swap2\n      swap1\n      tag_24\n      jump\t// in\n    tag_23:\n      mload(0x40)\n      dup1\n      swap2\n      sub\n      swap1\n      return\n        /* \"contracts/Main.sol\":362:754  function createPassport(string memory _fName, string memory _lName, string memory _pob, string memory _dob, string memory _passNo, address _addrs, string memory _sex) public {... */\n    tag_7:\n      tag_25\n      0x04\n      dup1\n      calldatasize\n      sub\n      dup2\n      add\n      swap1\n      tag_26\n      swap2\n      swap1\n      tag_27\n      jump\t// in\n    tag_26:\n      tag_28\n      jump\t// in\n    tag_25:\n      stop\n        /* \"contracts/Main.sol\":294:317  uint256 public num = 10 */\n    tag_9:\n      sload(0x00)\n      dup2\n      jump\t// out\n        /* \"contracts/Main.sol\":863:940  function getInt() public view returns (uint256) {... */\n    tag_13:\n        /* \"contracts/Main.sol\":902:909  uint256 */\n      0x00\n        /* \"contracts/Main.sol\":929:932  num */\n      dup1\n      sload\n        /* \"contracts/Main.sol\":922:932  return num */\n      swap1\n      pop\n        /* \"contracts/Main.sol\":863:940  function getInt() public view returns (uint256) {... */\n      swap1\n      jump\t// out\n        /* \"contracts/Main.sol\":760:857  function getPassport() public view returns(Passport[] memory) {... */\n    tag_16:\n        /* \"contracts/Main.sol\":803:820  Passport[] memory */\n      0x60\n        /* \"contracts/Main.sol\":840:849  passports */\n      0x01\n        /* \"contracts/Main.sol\":833:849  return passports */\n      dup1\n      sload\n      dup1\n      0x20\n      mul\n      0x20\n      add\n      mload(0x40)\n      swap1\n      dup2\n      add\n      0x40\n      mstore\n      dup1\n      swap3\n      swap2\n      swap1\n      dup2\n      dup2\n      mstore\n      0x20\n      add\n      0x00\n      swap1\n    tag_31:\n      dup3\n      dup3\n      lt\n      iszero\n      tag_32\n      jumpi\n      dup4\n      dup3\n      swap1\n      0x00\n      mstore\n      keccak256(0x00, 0x20)\n      swap1\n      0x07\n      mul\n      add\n      mload(0x40)\n      dup1\n      0xe0\n      add\n      0x40\n      mstore\n      swap1\n      dup2\n      0x00\n      dup3\n      add\n      0x00\n      swap1\n      sload\n      swap1\n      0x0100\n      exp\n      swap1\n      div\n      0xffffffffffffffffffffffffffffffffffffffff\n      and\n      0xffffffffffffffffffffffffffffffffffffffff\n      and\n      0xffffffffffffffffffffffffffffffffffffffff\n      and\n      dup2\n      mstore\n      0x20\n      add\n      0x01\n      dup3\n      add\n      dup1\n      sload\n      tag_34\n      swap1\n      tag_35\n      jump\t// in\n    tag_34:\n      dup1\n      0x1f\n      add\n      0x20\n      dup1\n      swap2\n      div\n      mul\n      0x20\n      add\n      mload(0x40)\n      swap1\n      dup2\n      add\n      0x40\n      mstore\n      dup1\n      swap3\n      swap2\n      swap1\n      dup2\n      dup2\n      mstore\n      0x20\n      add\n      dup3\n      dup1\n      sload\n      tag_36\n      swap1\n      tag_35\n      jump\t// in\n    tag_36:\n      dup1\n      iszero\n      tag_37\n      jumpi\n      dup1\n      0x1f\n      lt\n      tag_38\n      jumpi\n      0x0100\n      dup1\n      dup4\n      sload\n      div\n      mul\n      dup4\n      mstore\n      swap2\n      0x20\n      add\n      swap2\n      jump(tag_37)\n    tag_38:\n      dup3\n      add\n      swap2\n      swap1\n      0x00\n      mstore\n      keccak256(0x00, 0x20)\n      swap1\n    tag_39:\n      dup2\n      sload\n      dup2\n      mstore\n      swap1\n      0x01\n      add\n      swap1\n      0x20\n      add\n      dup1\n      dup4\n      gt\n      tag_39\n      jumpi\n      dup3\n      swap1\n      sub\n      0x1f\n      and\n      dup3\n      add\n      swap2\n    tag_37:\n      pop\n      pop\n      pop\n      pop\n      pop\n      dup2\n      mstore\n      0x20\n      add\n      0x02\n      dup3\n      add\n      dup1\n      sload\n      tag_40\n      swap1\n      tag_35\n      jump\t// in\n    tag_40:\n      dup1\n      0x1f\n      add\n      0x20\n      dup1\n      swap2\n      div\n      mul\n      0x20\n      add\n      mload(0x40)\n      swap1\n      dup2\n      add\n      0x40\n      mstore\n      dup1\n      swap3\n      swap2\n      swap1\n      dup2\n      dup2\n      mstore\n      0x20\n      add\n      dup3\n      dup1\n      sload\n      tag_41\n      swap1\n      tag_35\n      jump\t// in\n    tag_41:\n      dup1\n      iszero\n      tag_42\n      jumpi\n      dup1\n      0x1f\n      lt\n      tag_43\n      jumpi\n      0x0100\n      dup1\n      dup4\n      sload\n      div\n      mul\n      dup4\n      mstore\n      swap2\n      0x20\n      add\n      swap2\n      jump(tag_42)\n    tag_43:\n      dup3\n      add\n      swap2\n      swap1\n      0x00\n      mstore\n      keccak256(0x00, 0x20)\n      swap1\n    tag_44:\n      dup2\n      sload\n      dup2\n      mstore\n      swap1\n      0x01\n      add\n      swap1\n      0x20\n      add\n      dup1\n      dup4\n      gt\n      tag_44\n      jumpi\n      dup3\n      swap1\n      sub\n      0x1f\n      and\n      dup3\n      add\n      swap2\n    tag_42:\n      pop\n      pop\n      pop\n      pop\n      pop\n      dup2\n      mstore\n      0x20\n      add\n      0x03\n      dup3\n      add\n      dup1\n      sload\n      tag_45\n      swap1\n      tag_35\n      jump\t// in\n    tag_45:\n      dup1\n      0x1f\n      add\n      0x20\n      dup1\n      swap2\n      div\n      mul\n      0x20\n      add\n      mload(0x40)\n      swap1\n      dup2\n      add\n      0x40\n      mstore\n      dup1\n      swap3\n      swap2\n      swap1\n      dup2\n      dup2\n      mstore\n      0x20\n      add\n      dup3\n      dup1\n      sload\n      tag_46\n      swap1\n      tag_35\n      jump\t// in\n    tag_46:\n      dup1\n      iszero\n      tag_47\n      jumpi\n      dup1\n      0x1f\n      lt\n      tag_48\n      jumpi\n      0x0100\n      dup1\n      dup4\n      sload\n      div\n      mul\n      dup4\n      mstore\n      swap2\n      0x20\n      add\n      swap2\n      jump(tag_47)\n    tag_48:\n      dup3\n      add\n      swap2\n      swap1\n      0x00\n      mstore\n      keccak256(0x00, 0x20)\n      swap1\n    tag_49:\n      dup2\n      sload\n      dup2\n      mstore\n      swap1\n      0x01\n      add\n      swap1\n      0x20\n      add\n      dup1\n      dup4\n      gt\n      tag_49\n      jumpi\n      dup3\n      swap1\n      sub\n      0x1f\n      and\n      dup3\n      add\n      swap2\n    tag_47:\n      pop\n      pop\n      pop\n      pop\n      pop\n      dup2\n      mstore\n      0x20\n      add\n      0x04\n      dup3\n      add\n      dup1\n      sload\n      tag_50\n      swap1\n      tag_35\n      jump\t// in\n    tag_50:\n      dup1\n      0x1f\n      add\n      0x20\n      dup1\n      swap2\n      div\n      mul\n      0x20\n      add\n      mload(0x40)\n      swap1\n      dup2\n      add\n      0x40\n      mstore\n      dup1\n      swap3\n      swap2\n      swap1\n      dup2\n      dup2\n      mstore\n      0x20\n      add\n      dup3\n      dup1\n      sload\n      tag_51\n      swap1\n      tag_35\n      jump\t// in\n    tag_51:\n      dup1\n      iszero\n      tag_52\n      jumpi\n      dup1\n      0x1f\n      lt\n      tag_53\n      jumpi\n      0x0100\n      dup1\n      dup4\n      sload\n      div\n      mul\n      dup4\n      mstore\n      swap2\n      0x20\n      add\n      swap2\n      jump(tag_52)\n    tag_53:\n      dup3\n      add\n      swap2\n      swap1\n      0x00\n      mstore\n      keccak256(0x00, 0x20)\n      swap1\n    tag_54:\n      dup2\n      sload\n      dup2\n      mstore\n      swap1\n      0x01\n      add\n      swap1\n      0x20\n      add\n      dup1\n      dup4\n      gt\n      tag_54\n      jumpi\n      dup3\n      swap1\n      sub\n      0x1f\n      and\n      dup3\n      add\n      swap2\n    tag_52:\n      pop\n      pop\n      pop\n      pop\n      pop\n      dup2\n      mstore\n      0x20\n      add\n      0x05\n      dup3\n      add\n      dup1\n      sload\n      tag_55\n      swap1\n      tag_35\n      jump\t// in\n    tag_55:\n      dup1\n      0x1f\n      add\n      0x20\n      dup1\n      swap2\n      div\n      mul\n      0x20\n      add\n      mload(0x40)\n      swap1\n      dup2\n      add\n      0x40\n      mstore\n      dup1\n      swap3\n      swap2\n      swap1\n      dup2\n      dup2\n      mstore\n      0x20\n      add\n      dup3\n      dup1\n      sload\n      tag_56\n      swap1\n      tag_35\n      jump\t// in\n    tag_56:\n      dup1\n      iszero\n      tag_57\n      jumpi\n      dup1\n      0x1f\n      lt\n      tag_58\n      jumpi\n      0x0100\n      dup1\n      dup4\n      sload\n      div\n      mul\n      dup4\n      mstore\n      swap2\n      0x20\n      add\n      swap2\n      jump(tag_57)\n    tag_58:\n      dup3\n      add\n      swap2\n      swap1\n      0x00\n      mstore\n      keccak256(0x00, 0x20)\n      swap1\n    tag_59:\n      dup2\n      sload\n      dup2\n      mstore\n      swap1\n      0x01\n      add\n      swap1\n      0x20\n      add\n      dup1\n      dup4\n      gt\n      tag_59\n      jumpi\n      dup3\n      swap1\n      sub\n      0x1f\n      and\n      dup3\n      add\n      swap2\n    tag_57:\n      pop\n      pop\n      pop\n      pop\n      pop\n      dup2\n      mstore\n      0x20\n      add\n      0x06\n      dup3\n      add\n      dup1\n      sload\n      tag_60\n      swap1\n      tag_35\n      jump\t// in\n    tag_60:\n      dup1\n      0x1f\n      add\n      0x20\n      dup1\n      swap2\n      div\n      mul\n      0x20\n      add\n      mload(0x40)\n      swap1\n      dup2\n      add\n      0x40\n      mstore\n      dup1\n      swap3\n      swap2\n      swap1\n      dup2\n      dup2\n      mstore\n      0x20\n      add\n      dup3\n      dup1\n      sload\n      tag_61\n      swap1\n      tag_35\n      jump\t// in\n    tag_61:\n      dup1\n      iszero\n      tag_62\n      jumpi\n      dup1\n      0x1f\n      lt\n      tag_63\n      jumpi\n      0x0100\n      dup1\n      dup4\n      sload\n      div\n      mul\n      dup4\n      mstore\n      swap2\n      0x20\n      add\n      swap2\n      jump(tag_62)\n    tag_63:\n      dup3\n      add\n      swap2\n      swap1\n      0x00\n      mstore\n      keccak256(0x00, 0x20)\n      swap1\n    tag_64:\n      dup2\n      sload\n      dup2\n      mstore\n      swap1\n      0x01\n      add\n      swap1\n      0x20\n      add\n      dup1\n      dup4\n      gt\n      tag_64\n      jumpi\n      dup3\n      swap1\n      sub\n      0x1f\n      and\n      dup3\n      add\n      swap2\n    tag_62:\n      pop\n      pop\n      pop\n      pop\n      pop\n      dup2\n      mstore\n      pop\n      pop\n      dup2\n      mstore\n      0x20\n      add\n      swap1\n      0x01\n      add\n      swap1\n      jump(tag_31)\n    tag_32:\n      pop\n      pop\n      pop\n      pop\n      swap1\n      pop\n        /* \"contracts/Main.sol\":760:857  function getPassport() public view returns(Passport[] memory) {... */\n      swap1\n      jump\t// out\n        /* \"contracts/Main.sol\":326:353  Passport[] public passports */\n    tag_22:\n      0x01\n      dup2\n      dup2\n      sload\n      dup2\n      lt\n      tag_65\n      jumpi\n      0x00\n      dup1\n      revert\n    tag_65:\n      swap1\n      0x00\n      mstore\n      keccak256(0x00, 0x20)\n      swap1\n      0x07\n      mul\n      add\n      0x00\n      swap2\n      pop\n      swap1\n      pop\n      dup1\n      0x00\n      add\n      0x00\n      swap1\n      sload\n      swap1\n      0x0100\n      exp\n      swap1\n      div\n      0xffffffffffffffffffffffffffffffffffffffff\n      and\n      swap1\n      dup1\n      0x01\n      add\n      dup1\n      sload\n      tag_67\n      swap1\n      tag_35\n      jump\t// in\n    tag_67:\n      dup1\n      0x1f\n      add\n      0x20\n      dup1\n      swap2\n      div\n      mul\n      0x20\n      add\n      mload(0x40)\n      swap1\n      dup2\n      add\n      0x40\n      mstore\n      dup1\n      swap3\n      swap2\n      swap1\n      dup2\n      dup2\n      mstore\n      0x20\n      add\n      dup3\n      dup1\n      sload\n      tag_68\n      swap1\n      tag_35\n      jump\t// in\n    tag_68:\n      dup1\n      iszero\n      tag_69\n      jumpi\n      dup1\n      0x1f\n      lt\n      tag_70\n      jumpi\n      0x0100\n      dup1\n      dup4\n      sload\n      div\n      mul\n      dup4\n      mstore\n      swap2\n      0x20\n      add\n      swap2\n      jump(tag_69)\n    tag_70:\n      dup3\n      add\n      swap2\n      swap1\n      0x00\n      mstore\n      keccak256(0x00, 0x20)\n      swap1\n    tag_71:\n      dup2\n      sload\n      dup2\n      mstore\n      swap1\n      0x01\n      add\n      swap1\n      0x20\n      add\n      dup1\n      dup4\n      gt\n      tag_71\n      jumpi\n      dup3\n      swap1\n      sub\n      0x1f\n      and\n      dup3\n      add\n      swap2\n    tag_69:\n      pop\n      pop\n      pop\n      pop\n      pop\n      swap1\n      dup1\n      0x02\n      add\n      dup1\n      sload\n      tag_72\n      swap1\n      tag_35\n      jump\t// in\n    tag_72:\n      dup1\n      0x1f\n      add\n      0x20\n      dup1\n      swap2\n      div\n      mul\n      0x20\n      add\n      mload(0x40)\n      swap1\n      dup2\n      add\n      0x40\n      mstore\n      dup1\n      swap3\n      swap2\n      swap1\n      dup2\n      dup2\n      mstore\n      0x20\n      add\n      dup3\n      dup1\n      sload\n      tag_73\n      swap1\n      tag_35\n      jump\t// in\n    tag_73:\n      dup1\n      iszero\n      tag_74\n      jumpi\n      dup1\n      0x1f\n      lt\n      tag_75\n      jumpi\n      0x0100\n      dup1\n      dup4\n      sload\n      div\n      mul\n      dup4\n      mstore\n      swap2\n      0x20\n      add\n      swap2\n      jump(tag_74)\n    tag_75:\n      dup3\n      add\n      swap2\n      swap1\n      0x00\n      mstore\n      keccak256(0x00, 0x20)\n      swap1\n    tag_76:\n      dup2\n      sload\n      dup2\n      mstore\n      swap1\n      0x01\n      add\n      swap1\n      0x20\n      add\n      dup1\n      dup4\n      gt\n      tag_76\n      jumpi\n      dup3\n      swap1\n      sub\n      0x1f\n      and\n      dup3\n      add\n      swap2\n    tag_74:\n      pop\n      pop\n      pop\n      pop\n      pop\n      swap1\n      dup1\n      0x03\n      add\n      dup1\n      sload\n      tag_77\n      swap1\n      tag_35\n      jump\t// in\n    tag_77:\n      dup1\n      0x1f\n      add\n      0x20\n      dup1\n      swap2\n      div\n      mul\n      0x20\n      add\n      mload(0x40)\n      swap1\n      dup2\n      add\n      0x40\n      mstore\n      dup1\n      swap3\n      swap2\n      swap1\n      dup2\n      dup2\n      mstore\n      0x20\n      add\n      dup3\n      dup1\n      sload\n      tag_78\n      swap1\n      tag_35\n      jump\t// in\n    tag_78:\n      dup1\n      iszero\n      tag_79\n      jumpi\n      dup1\n      0x1f\n      lt\n      tag_80\n      jumpi\n      0x0100\n      dup1\n      dup4\n      sload\n      div\n      mul\n      dup4\n      mstore\n      swap2\n      0x20\n      add\n      swap2\n      jump(tag_79)\n    tag_80:\n      dup3\n      add\n      swap2\n      swap1\n      0x00\n      mstore\n      keccak256(0x00, 0x20)\n      swap1\n    tag_81:\n      dup2\n      sload\n      dup2\n      mstore\n      swap1\n      0x01\n      add\n      swap1\n      0x20\n      add\n      dup1\n      dup4\n      gt\n      tag_81\n      jumpi\n      dup3\n      swap1\n      sub\n      0x1f\n      and\n      dup3\n      add\n      swap2\n    tag_79:\n      pop\n      pop\n      pop\n      pop\n      pop\n      swap1\n      dup1\n      0x04\n      add\n      dup1\n      sload\n      tag_82\n      swap1\n      tag_35\n      jump\t// in\n    tag_82:\n      dup1\n      0x1f\n      add\n      0x20\n      dup1\n      swap2\n      div\n      mul\n      0x20\n      add\n      mload(0x40)\n      swap1\n      dup2\n      add\n      0x40\n      mstore\n      dup1\n      swap3\n      swap2\n      swap1\n      dup2\n      dup2\n      mstore\n      0x20\n      add\n      dup3\n      dup1\n      sload\n      tag_83\n      swap1\n      tag_35\n      jump\t// in\n    tag_83:\n      dup1\n      iszero\n      tag_84\n      jumpi\n      dup1\n      0x1f\n      lt\n      tag_85\n      jumpi\n      0x0100\n      dup1\n      dup4\n      sload\n      div\n      mul\n      dup4\n      mstore\n      swap2\n      0x20\n      add\n      swap2\n      jump(tag_84)\n    tag_85:\n      dup3\n      add\n      swap2\n      swap1\n      0x00\n      mstore\n      keccak256(0x00, 0x20)\n      swap1\n    tag_86:\n      dup2\n      sload\n      dup2\n      mstore\n      swap1\n      0x01\n      add\n      swap1\n      0x20\n      add\n      dup1\n      dup4\n      gt\n      tag_86\n      jumpi\n      dup3\n      swap1\n      sub\n      0x1f\n      and\n      dup3\n      add\n      swap2\n    tag_84:\n      pop\n      pop\n      pop\n      pop\n      pop\n      swap1\n      dup1\n      0x05\n      add\n      dup1\n      sload\n      tag_87\n      swap1\n      tag_35\n      jump\t// in\n    tag_87:\n      dup1\n      0x1f\n      add\n      0x20\n      dup1\n      swap2\n      div\n      mul\n      0x20\n      add\n      mload(0x40)\n      swap1\n      dup2\n      add\n      0x40\n      mstore\n      dup1\n      swap3\n      swap2\n      swap1\n      dup2\n      dup2\n      mstore\n      0x20\n      add\n      dup3\n      dup1\n      sload\n      tag_88\n      swap1\n      tag_35\n      jump\t// in\n    tag_88:\n      dup1\n      iszero\n      tag_89\n      jumpi\n      dup1\n      0x1f\n      lt\n      tag_90\n      jumpi\n      0x0100\n      dup1\n      dup4\n      sload\n      div\n      mul\n      dup4\n      mstore\n      swap2\n      0x20\n      add\n      swap2\n      jump(tag_89)\n    tag_90:\n      dup3\n      add\n      swap2\n      swap1\n      0x00\n      mstore\n      keccak256(0x00, 0x20)\n      swap1\n    tag_91:\n      dup2\n      sload\n      dup2\n      mstore\n      swap1\n      0x01\n      add\n      swap1\n      0x20\n      add\n      dup1\n      dup4\n      gt\n      tag_91\n      jumpi\n      dup3\n      swap1\n      sub\n      0x1f\n      and\n      dup3\n      add\n      swap2\n    tag_89:\n      pop\n      pop\n      pop\n      pop\n      pop\n      swap1\n      dup1\n      0x06\n      add\n      dup1\n      sload\n      tag_92\n      swap1\n      tag_35\n      jump\t// in\n    tag_92:\n      dup1\n      0x1f\n      add\n      0x20\n      dup1\n      swap2\n      div\n      mul\n      0x20\n      add\n      mload(0x40)\n      swap1\n      dup2\n      add\n      0x40\n      mstore\n      dup1\n      swap3\n      swap2\n      swap1\n      dup2\n      dup2\n      mstore\n      0x20\n      add\n      dup3\n      dup1\n      sload\n      tag_93\n      swap1\n      tag_35\n      jump\t// in\n    tag_93:\n      dup1\n      iszero\n      tag_94\n      jumpi\n      dup1\n      0x1f\n      lt\n      tag_95\n      jumpi\n      0x0100\n      dup1\n      dup4\n      sload\n      div\n      mul\n      dup4\n      mstore\n      swap2\n      0x20\n      add\n      swap2\n      jump(tag_94)\n    tag_95:\n      dup3\n      add\n      swap2\n      swap1\n      0x00\n      mstore\n      keccak256(0x00, 0x20)\n      swap1\n    tag_96:\n      dup2\n      sload\n      dup2\n      mstore\n      swap1\n      0x01\n      add\n      swap1\n      0x20\n      add\n      dup1\n      dup4\n      gt\n      tag_96\n      jumpi\n      dup3\n      swap1\n      sub\n      0x1f\n      and\n      dup3\n      add\n      swap2\n    tag_94:\n      pop\n      pop\n      pop\n      pop\n      pop\n      swap1\n      pop\n      dup8\n      jump\t// out\n        /* \"contracts/Main.sol\":362:754  function createPassport(string memory _fName, string memory _lName, string memory _pob, string memory _dob, string memory _passNo, address _addrs, string memory _sex) public {... */\n    tag_28:\n        /* \"contracts/Main.sol\":547:574  Passport memory newPassport */\n      0x00\n        /* \"contracts/Main.sol\":577:708  Passport({ firstName: _fName, lastName: _lName, placeOfBirth: _pob, DOB: _dob, passportNumber: _passNo, addrs: _addrs, sex: _sex }) */\n      mload(0x40)\n      dup1\n      0xe0\n      add\n      0x40\n      mstore\n      dup1\n        /* \"contracts/Main.sol\":688:694  _addrs */\n      dup5\n        /* \"contracts/Main.sol\":577:708  Passport({ firstName: _fName, lastName: _lName, placeOfBirth: _pob, DOB: _dob, passportNumber: _passNo, addrs: _addrs, sex: _sex }) */\n      0xffffffffffffffffffffffffffffffffffffffff\n      and\n      dup2\n      mstore\n      0x20\n      add\n        /* \"contracts/Main.sol\":599:605  _fName */\n      dup10\n        /* \"contracts/Main.sol\":577:708  Passport({ firstName: _fName, lastName: _lName, placeOfBirth: _pob, DOB: _dob, passportNumber: _passNo, addrs: _addrs, sex: _sex }) */\n      dup2\n      mstore\n      0x20\n      add\n        /* \"contracts/Main.sol\":701:705  _sex */\n      dup4\n        /* \"contracts/Main.sol\":577:708  Passport({ firstName: _fName, lastName: _lName, placeOfBirth: _pob, DOB: _dob, passportNumber: _passNo, addrs: _addrs, sex: _sex }) */\n      dup2\n      mstore\n      0x20\n      add\n        /* \"contracts/Main.sol\":617:623  _lName */\n      dup9\n        /* \"contracts/Main.sol\":577:708  Passport({ firstName: _fName, lastName: _lName, placeOfBirth: _pob, DOB: _dob, passportNumber: _passNo, addrs: _addrs, sex: _sex }) */\n      dup2\n      mstore\n      0x20\n      add\n        /* \"contracts/Main.sol\":639:643  _pob */\n      dup8\n        /* \"contracts/Main.sol\":577:708  Passport({ firstName: _fName, lastName: _lName, placeOfBirth: _pob, DOB: _dob, passportNumber: _passNo, addrs: _addrs, sex: _sex }) */\n      dup2\n      mstore\n      0x20\n      add\n        /* \"contracts/Main.sol\":650:654  _dob */\n      dup7\n        /* \"contracts/Main.sol\":577:708  Passport({ firstName: _fName, lastName: _lName, placeOfBirth: _pob, DOB: _dob, passportNumber: _passNo, addrs: _addrs, sex: _sex }) */\n      dup2\n      mstore\n      0x20\n      add\n        /* \"contracts/Main.sol\":672:679  _passNo */\n      dup6\n        /* \"contracts/Main.sol\":577:708  Passport({ firstName: _fName, lastName: _lName, placeOfBirth: _pob, DOB: _dob, passportNumber: _passNo, addrs: _addrs, sex: _sex }) */\n      dup2\n      mstore\n      pop\n        /* \"contracts/Main.sol\":547:708  Passport memory newPassport = Passport({ firstName: _fName, lastName: _lName, placeOfBirth: _pob, DOB: _dob, passportNumber: _passNo, addrs: _addrs, sex: _sex }) */\n      swap1\n      pop\n        /* \"contracts/Main.sol\":719:728  passports */\n      0x01\n        /* \"contracts/Main.sol\":734:745  newPassport */\n      dup2\n        /* \"contracts/Main.sol\":719:746  passports.push(newPassport) */\n      swap1\n      dup1\n      0x01\n      dup2\n      sload\n      add\n      dup1\n      dup3\n      sstore\n      dup1\n      swap2\n      pop\n      pop\n      0x01\n      swap1\n      sub\n      swap1\n      0x00\n      mstore\n      keccak256(0x00, 0x20)\n      swap1\n      0x07\n      mul\n      add\n      0x00\n      swap1\n      swap2\n      swap1\n      swap2\n      swap1\n      swap2\n      pop\n      0x00\n      dup3\n      add\n      mload\n      dup2\n      0x00\n      add\n      exp(0x0100, 0x00)\n      dup2\n      sload\n      dup2\n      0xffffffffffffffffffffffffffffffffffffffff\n      mul\n      not\n      and\n      swap1\n      dup4\n      0xffffffffffffffffffffffffffffffffffffffff\n      and\n      mul\n      or\n      swap1\n      sstore\n      pop\n      0x20\n      dup3\n      add\n      mload\n      dup2\n      0x01\n      add\n      swap1\n      dup2\n      tag_99\n      swap2\n      swap1\n      tag_100\n      jump\t// in\n    tag_99:\n      pop\n      0x40\n      dup3\n      add\n      mload\n      dup2\n      0x02\n      add\n      swap1\n      dup2\n      tag_101\n      swap2\n      swap1\n      tag_100\n      jump\t// in\n    tag_101:\n      pop\n      0x60\n      dup3\n      add\n      mload\n      dup2\n      0x03\n      add\n      swap1\n      dup2\n      tag_102\n      swap2\n      swap1\n      tag_100\n      jump\t// in\n    tag_102:\n      pop\n      0x80\n      dup3\n      add\n      mload\n      dup2\n      0x04\n      add\n      swap1\n      dup2\n      tag_103\n      swap2\n      swap1\n      tag_100\n      jump\t// in\n    tag_103:\n      pop\n      0xa0\n      dup3\n      add\n      mload\n      dup2\n      0x05\n      add\n      swap1\n      dup2\n      tag_104\n      swap2\n      swap1\n      tag_100\n      jump\t// in\n    tag_104:\n      pop\n      0xc0\n      dup3\n      add\n      mload\n      dup2\n      0x06\n      add\n      swap1\n      dup2\n      tag_105\n      swap2\n      swap1\n      tag_100\n      jump\t// in\n    tag_105:\n      pop\n      pop\n      pop\n        /* \"contracts/Main.sol\":536:754  {... */\n      pop\n        /* \"contracts/Main.sol\":362:754  function createPassport(string memory _fName, string memory _lName, string memory _pob, string memory _dob, string memory _passNo, address _addrs, string memory _sex) public {... */\n      pop\n      pop\n      pop\n      pop\n      pop\n      pop\n      pop\n      jump\t// out\n        /* \"#utility.yul\":7:84   */\n    tag_106:\n        /* \"#utility.yul\":44:51   */\n      0x00\n        /* \"#utility.yul\":73:78   */\n      dup2\n        /* \"#utility.yul\":62:78   */\n      swap1\n      pop\n        /* \"#utility.yul\":7:84   */\n      swap2\n      swap1\n      pop\n      jump\t// out\n        /* \"#utility.yul\":90:208   */\n    tag_107:\n        /* \"#utility.yul\":177:201   */\n      tag_161\n        /* \"#utility.yul\":195:200   */\n      dup2\n        /* \"#utility.yul\":177:201   */\n      tag_106\n      jump\t// in\n    tag_161:\n        /* \"#utility.yul\":172:175   */\n      dup3\n        /* \"#utility.yul\":165:202   */\n      mstore\n        /* \"#utility.yul\":90:208   */\n      pop\n      pop\n      jump\t// out\n        /* \"#utility.yul\":214:436   */\n    tag_11:\n        /* \"#utility.yul\":307:311   */\n      0x00\n        /* \"#utility.yul\":345:347   */\n      0x20\n        /* \"#utility.yul\":334:343   */\n      dup3\n        /* \"#utility.yul\":330:348   */\n      add\n        /* \"#utility.yul\":322:348   */\n      swap1\n      pop\n        /* \"#utility.yul\":358:429   */\n      tag_163\n        /* \"#utility.yul\":426:427   */\n      0x00\n        /* \"#utility.yul\":415:424   */\n      dup4\n        /* \"#utility.yul\":411:428   */\n      add\n        /* \"#utility.yul\":402:408   */\n      dup5\n        /* \"#utility.yul\":358:429   */\n      tag_107\n      jump\t// in\n    tag_163:\n        /* \"#utility.yul\":214:436   */\n      swap3\n      swap2\n      pop\n      pop\n      jump\t// out\n        /* \"#utility.yul\":442:580   */\n    tag_108:\n        /* \"#utility.yul\":533:539   */\n      0x00\n        /* \"#utility.yul\":567:572   */\n      dup2\n        /* \"#utility.yul\":561:573   */\n      mload\n        /* \"#utility.yul\":551:573   */\n      swap1\n      pop\n        /* \"#utility.yul\":442:580   */\n      swap2\n      swap1\n      pop\n      jump\t// out\n        /* \"#utility.yul\":586:794   */\n    tag_109:\n        /* \"#utility.yul\":709:720   */\n      0x00\n        /* \"#utility.yul\":743:749   */\n      dup3\n        /* \"#utility.yul\":738:741   */\n      dup3\n        /* \"#utility.yul\":731:750   */\n      mstore\n        /* \"#utility.yul\":783:787   */\n      0x20\n        /* \"#utility.yul\":778:781   */\n      dup3\n        /* \"#utility.yul\":774:788   */\n      add\n        /* \"#utility.yul\":759:788   */\n      swap1\n      pop\n        /* \"#utility.yul\":586:794   */\n      swap3\n      swap2\n      pop\n      pop\n      jump\t// out\n        /* \"#utility.yul\":800:956   */\n    tag_110:\n        /* \"#utility.yul\":891:895   */\n      0x00\n        /* \"#utility.yul\":914:917   */\n      dup2\n        /* \"#utility.yul\":906:917   */\n      swap1\n      pop\n        /* \"#utility.yul\":944:948   */\n      0x20\n        /* \"#utility.yul\":939:942   */\n      dup3\n        /* \"#utility.yul\":935:949   */\n      add\n        /* \"#utility.yul\":927:949   */\n      swap1\n      pop\n        /* \"#utility.yul\":800:956   */\n      swap2\n      swap1\n      pop\n      jump\t// out\n        /* \"#utility.yul\":962:1088   */\n    tag_111:\n        /* \"#utility.yul\":999:1006   */\n      0x00\n        /* \"#utility.yul\":1039:1081   */\n      0xffffffffffffffffffffffffffffffffffffffff\n        /* \"#utility.yul\":1032:1037   */\n      dup3\n        /* \"#utility.yul\":1028:1082   */\n      and\n        /* \"#utility.yul\":1017:1082   */\n      swap1\n      pop\n        /* \"#utility.yul\":962:1088   */\n      swap2\n      swap1\n      pop\n      jump\t// out\n        /* \"#utility.yul\":1094:1190   */\n    tag_112:\n        /* \"#utility.yul\":1131:1138   */\n      0x00\n        /* \"#utility.yul\":1160:1184   */\n      tag_169\n        /* \"#utility.yul\":1178:1183   */\n      dup3\n        /* \"#utility.yul\":1160:1184   */\n      tag_111\n      jump\t// in\n    tag_169:\n        /* \"#utility.yul\":1149:1184   */\n      swap1\n      pop\n        /* \"#utility.yul\":1094:1190   */\n      swap2\n      swap1\n      pop\n      jump\t// out\n        /* \"#utility.yul\":1196:1304   */\n    tag_113:\n        /* \"#utility.yul\":1273:1297   */\n      tag_171\n        /* \"#utility.yul\":1291:1296   */\n      dup2\n        /* \"#utility.yul\":1273:1297   */\n      tag_112\n      jump\t// in\n    tag_171:\n        /* \"#utility.yul\":1268:1271   */\n      dup3\n        /* \"#utility.yul\":1261:1298   */\n      mstore\n        /* \"#utility.yul\":1196:1304   */\n      pop\n      pop\n      jump\t// out\n        /* \"#utility.yul\":1310:1409   */\n    tag_114:\n        /* \"#utility.yul\":1362:1368   */\n      0x00\n        /* \"#utility.yul\":1396:1401   */\n      dup2\n        /* \"#utility.yul\":1390:1402   */\n      mload\n        /* \"#utility.yul\":1380:1402   */\n      swap1\n      pop\n        /* \"#utility.yul\":1310:1409   */\n      swap2\n      swap1\n      pop\n      jump\t// out\n        /* \"#utility.yul\":1415:1574   */\n    tag_115:\n        /* \"#utility.yul\":1489:1500   */\n      0x00\n        /* \"#utility.yul\":1523:1529   */\n      dup3\n        /* \"#utility.yul\":1518:1521   */\n      dup3\n        /* \"#utility.yul\":1511:1530   */\n      mstore\n        /* \"#utility.yul\":1563:1567   */\n      0x20\n        /* \"#utility.yul\":1558:1561   */\n      dup3\n        /* \"#utility.yul\":1554:1568   */\n      add\n        /* \"#utility.yul\":1539:1568   */\n      swap1\n      pop\n        /* \"#utility.yul\":1415:1574   */\n      swap3\n      swap2\n      pop\n      pop\n      jump\t// out\n        /* \"#utility.yul\":1580:1719   */\n    tag_116:\n        /* \"#utility.yul\":1669:1675   */\n      dup3\n        /* \"#utility.yul\":1664:1667   */\n      dup2\n        /* \"#utility.yul\":1659:1662   */\n      dup4\n        /* \"#utility.yul\":1653:1676   */\n      mcopy\n        /* \"#utility.yul\":1710:1711   */\n      0x00\n        /* \"#utility.yul\":1701:1707   */\n      dup4\n        /* \"#utility.yul\":1696:1699   */\n      dup4\n        /* \"#utility.yul\":1692:1708   */\n      add\n        /* \"#utility.yul\":1685:1712   */\n      mstore\n        /* \"#utility.yul\":1580:1719   */\n      pop\n      pop\n      pop\n      jump\t// out\n        /* \"#utility.yul\":1725:1827   */\n    tag_117:\n        /* \"#utility.yul\":1766:1772   */\n      0x00\n        /* \"#utility.yul\":1817:1819   */\n      0x1f\n        /* \"#utility.yul\":1813:1820   */\n      not\n        /* \"#utility.yul\":1808:1810   */\n      0x1f\n        /* \"#utility.yul\":1801:1806   */\n      dup4\n        /* \"#utility.yul\":1797:1811   */\n      add\n        /* \"#utility.yul\":1793:1821   */\n      and\n        /* \"#utility.yul\":1783:1821   */\n      swap1\n      pop\n        /* \"#utility.yul\":1725:1827   */\n      swap2\n      swap1\n      pop\n      jump\t// out\n        /* \"#utility.yul\":1833:2190   */\n    tag_118:\n        /* \"#utility.yul\":1911:1914   */\n      0x00\n        /* \"#utility.yul\":1939:1978   */\n      tag_177\n        /* \"#utility.yul\":1972:1977   */\n      dup3\n        /* \"#utility.yul\":1939:1978   */\n      tag_114\n      jump\t// in\n    tag_177:\n        /* \"#utility.yul\":1994:2055   */\n      tag_178\n        /* \"#utility.yul\":2048:2054   */\n      dup2\n        /* \"#utility.yul\":2043:2046   */\n      dup6\n        /* \"#utility.yul\":1994:2055   */\n      tag_115\n      jump\t// in\n    tag_178:\n        /* \"#utility.yul\":1987:2055   */\n      swap4\n      pop\n        /* \"#utility.yul\":2064:2129   */\n      tag_179\n        /* \"#utility.yul\":2122:2128   */\n      dup2\n        /* \"#utility.yul\":2117:2120   */\n      dup6\n        /* \"#utility.yul\":2110:2114   */\n      0x20\n        /* \"#utility.yul\":2103:2108   */\n      dup7\n        /* \"#utility.yul\":2099:2115   */\n      add\n        /* \"#utility.yul\":2064:2129   */\n      tag_116\n      jump\t// in\n    tag_179:\n        /* \"#utility.yul\":2154:2183   */\n      tag_180\n        /* \"#utility.yul\":2176:2182   */\n      dup2\n        /* \"#utility.yul\":2154:2183   */\n      tag_117\n      jump\t// in\n    tag_180:\n        /* \"#utility.yul\":2149:2152   */\n      dup5\n        /* \"#utility.yul\":2145:2184   */\n      add\n        /* \"#utility.yul\":2138:2184   */\n      swap2\n      pop\n        /* \"#utility.yul\":1915:2190   */\n      pop\n        /* \"#utility.yul\":1833:2190   */\n      swap3\n      swap2\n      pop\n      pop\n      jump\t// out\n        /* \"#utility.yul\":2248:4093   */\n    tag_119:\n        /* \"#utility.yul\":2355:2358   */\n      0x00\n        /* \"#utility.yul\":2391:2395   */\n      0xe0\n        /* \"#utility.yul\":2386:2389   */\n      dup4\n        /* \"#utility.yul\":2382:2396   */\n      add\n        /* \"#utility.yul\":2479:2483   */\n      0x00\n        /* \"#utility.yul\":2472:2477   */\n      dup4\n        /* \"#utility.yul\":2468:2484   */\n      add\n        /* \"#utility.yul\":2462:2485   */\n      mload\n        /* \"#utility.yul\":2498:2561   */\n      tag_182\n        /* \"#utility.yul\":2555:2559   */\n      0x00\n        /* \"#utility.yul\":2550:2553   */\n      dup7\n        /* \"#utility.yul\":2546:2560   */\n      add\n        /* \"#utility.yul\":2532:2544   */\n      dup3\n        /* \"#utility.yul\":2498:2561   */\n      tag_113\n      jump\t// in\n    tag_182:\n        /* \"#utility.yul\":2406:2571   */\n      pop\n        /* \"#utility.yul\":2658:2662   */\n      0x20\n        /* \"#utility.yul\":2651:2656   */\n      dup4\n        /* \"#utility.yul\":2647:2663   */\n      add\n        /* \"#utility.yul\":2641:2664   */\n      mload\n        /* \"#utility.yul\":2711:2714   */\n      dup5\n        /* \"#utility.yul\":2705:2709   */\n      dup3\n        /* \"#utility.yul\":2701:2715   */\n      sub\n        /* \"#utility.yul\":2694:2698   */\n      0x20\n        /* \"#utility.yul\":2689:2692   */\n      dup7\n        /* \"#utility.yul\":2685:2699   */\n      add\n        /* \"#utility.yul\":2678:2716   */\n      mstore\n        /* \"#utility.yul\":2737:2810   */\n      tag_183\n        /* \"#utility.yul\":2805:2809   */\n      dup3\n        /* \"#utility.yul\":2791:2803   */\n      dup3\n        /* \"#utility.yul\":2737:2810   */\n      tag_118\n      jump\t// in\n    tag_183:\n        /* \"#utility.yul\":2729:2810   */\n      swap2\n      pop\n        /* \"#utility.yul\":2581:2821   */\n      pop\n        /* \"#utility.yul\":2902:2906   */\n      0x40\n        /* \"#utility.yul\":2895:2900   */\n      dup4\n        /* \"#utility.yul\":2891:2907   */\n      add\n        /* \"#utility.yul\":2885:2908   */\n      mload\n        /* \"#utility.yul\":2955:2958   */\n      dup5\n        /* \"#utility.yul\":2949:2953   */\n      dup3\n        /* \"#utility.yul\":2945:2959   */\n      sub\n        /* \"#utility.yul\":2938:2942   */\n      0x40\n        /* \"#utility.yul\":2933:2936   */\n      dup7\n        /* \"#utility.yul\":2929:2943   */\n      add\n        /* \"#utility.yul\":2922:2960   */\n      mstore\n        /* \"#utility.yul\":2981:3054   */\n      tag_184\n        /* \"#utility.yul\":3049:3053   */\n      dup3\n        /* \"#utility.yul\":3035:3047   */\n      dup3\n        /* \"#utility.yul\":2981:3054   */\n      tag_118\n      jump\t// in\n    tag_184:\n        /* \"#utility.yul\":2973:3054   */\n      swap2\n      pop\n        /* \"#utility.yul\":2831:3065   */\n      pop\n        /* \"#utility.yul\":3151:3155   */\n      0x60\n        /* \"#utility.yul\":3144:3149   */\n      dup4\n        /* \"#utility.yul\":3140:3156   */\n      add\n        /* \"#utility.yul\":3134:3157   */\n      mload\n        /* \"#utility.yul\":3204:3207   */\n      dup5\n        /* \"#utility.yul\":3198:3202   */\n      dup3\n        /* \"#utility.yul\":3194:3208   */\n      sub\n        /* \"#utility.yul\":3187:3191   */\n      0x60\n        /* \"#utility.yul\":3182:3185   */\n      dup7\n        /* \"#utility.yul\":3178:3192   */\n      add\n        /* \"#utility.yul\":3171:3209   */\n      mstore\n        /* \"#utility.yul\":3230:3303   */\n      tag_185\n        /* \"#utility.yul\":3298:3302   */\n      dup3\n        /* \"#utility.yul\":3284:3296   */\n      dup3\n        /* \"#utility.yul\":3230:3303   */\n      tag_118\n      jump\t// in\n    tag_185:\n        /* \"#utility.yul\":3222:3303   */\n      swap2\n      pop\n        /* \"#utility.yul\":3075:3314   */\n      pop\n        /* \"#utility.yul\":3404:3408   */\n      0x80\n        /* \"#utility.yul\":3397:3402   */\n      dup4\n        /* \"#utility.yul\":3393:3409   */\n      add\n        /* \"#utility.yul\":3387:3410   */\n      mload\n        /* \"#utility.yul\":3457:3460   */\n      dup5\n        /* \"#utility.yul\":3451:3455   */\n      dup3\n        /* \"#utility.yul\":3447:3461   */\n      sub\n        /* \"#utility.yul\":3440:3444   */\n      0x80\n        /* \"#utility.yul\":3435:3438   */\n      dup7\n        /* \"#utility.yul\":3431:3445   */\n      add\n        /* \"#utility.yul\":3424:3462   */\n      mstore\n        /* \"#utility.yul\":3483:3556   */\n      tag_186\n        /* \"#utility.yul\":3551:3555   */\n      dup3\n        /* \"#utility.yul\":3537:3549   */\n      dup3\n        /* \"#utility.yul\":3483:3556   */\n      tag_118\n      jump\t// in\n    tag_186:\n        /* \"#utility.yul\":3475:3556   */\n      swap2\n      pop\n        /* \"#utility.yul\":3324:3567   */\n      pop\n        /* \"#utility.yul\":3648:3652   */\n      0xa0\n        /* \"#utility.yul\":3641:3646   */\n      dup4\n        /* \"#utility.yul\":3637:3653   */\n      add\n        /* \"#utility.yul\":3631:3654   */\n      mload\n        /* \"#utility.yul\":3701:3704   */\n      dup5\n        /* \"#utility.yul\":3695:3699   */\n      dup3\n        /* \"#utility.yul\":3691:3705   */\n      sub\n        /* \"#utility.yul\":3684:3688   */\n      0xa0\n        /* \"#utility.yul\":3679:3682   */\n      dup7\n        /* \"#utility.yul\":3675:3689   */\n      add\n        /* \"#utility.yul\":3668:3706   */\n      mstore\n        /* \"#utility.yul\":3727:3800   */\n      tag_187\n        /* \"#utility.yul\":3795:3799   */\n      dup3\n        /* \"#utility.yul\":3781:3793   */\n      dup3\n        /* \"#utility.yul\":3727:3800   */\n      tag_118\n      jump\t// in\n    tag_187:\n        /* \"#utility.yul\":3719:3800   */\n      swap2\n      pop\n        /* \"#utility.yul\":3577:3811   */\n      pop\n        /* \"#utility.yul\":3903:3907   */\n      0xc0\n        /* \"#utility.yul\":3896:3901   */\n      dup4\n        /* \"#utility.yul\":3892:3908   */\n      add\n        /* \"#utility.yul\":3886:3909   */\n      mload\n        /* \"#utility.yul\":3956:3959   */\n      dup5\n        /* \"#utility.yul\":3950:3954   */\n      dup3\n        /* \"#utility.yul\":3946:3960   */\n      sub\n        /* \"#utility.yul\":3939:3943   */\n      0xc0\n        /* \"#utility.yul\":3934:3937   */\n      dup7\n        /* \"#utility.yul\":3930:3944   */\n      add\n        /* \"#utility.yul\":3923:3961   */\n      mstore\n        /* \"#utility.yul\":3982:4055   */\n      tag_188\n        /* \"#utility.yul\":4050:4054   */\n      dup3\n        /* \"#utility.yul\":4036:4048   */\n      dup3\n        /* \"#utility.yul\":3982:4055   */\n      tag_118\n      jump\t// in\n    tag_188:\n        /* \"#utility.yul\":3974:4055   */\n      swap2\n      pop\n        /* \"#utility.yul\":3821:4066   */\n      pop\n        /* \"#utility.yul\":4083:4087   */\n      dup1\n        /* \"#utility.yul\":4076:4087   */\n      swap2\n      pop\n        /* \"#utility.yul\":2360:4093   */\n      pop\n        /* \"#utility.yul\":2248:4093   */\n      swap3\n      swap2\n      pop\n      pop\n      jump\t// out\n        /* \"#utility.yul\":4099:4351   */\n    tag_120:\n        /* \"#utility.yul\":4216:4226   */\n      0x00\n        /* \"#utility.yul\":4251:4345   */\n      tag_190\n        /* \"#utility.yul\":4341:4344   */\n      dup4\n        /* \"#utility.yul\":4333:4339   */\n      dup4\n        /* \"#utility.yul\":4251:4345   */\n      tag_119\n      jump\t// in\n    tag_190:\n        /* \"#utility.yul\":4237:4345   */\n      swap1\n      pop\n        /* \"#utility.yul\":4099:4351   */\n      swap3\n      swap2\n      pop\n      pop\n      jump\t// out\n        /* \"#utility.yul\":4357:4494   */\n    tag_121:\n        /* \"#utility.yul\":4451:4455   */\n      0x00\n        /* \"#utility.yul\":4483:4487   */\n      0x20\n        /* \"#utility.yul\":4478:4481   */\n      dup3\n        /* \"#utility.yul\":4474:4488   */\n      add\n        /* \"#utility.yul\":4466:4488   */\n      swap1\n      pop\n        /* \"#utility.yul\":4357:4494   */\n      swap2\n      swap1\n      pop\n      jump\t// out\n        /* \"#utility.yul\":4556:5659   */\n    tag_122:\n        /* \"#utility.yul\":4723:4726   */\n      0x00\n        /* \"#utility.yul\":4752:4830   */\n      tag_193\n        /* \"#utility.yul\":4824:4829   */\n      dup3\n        /* \"#utility.yul\":4752:4830   */\n      tag_108\n      jump\t// in\n    tag_193:\n        /* \"#utility.yul\":4846:4956   */\n      tag_194\n        /* \"#utility.yul\":4949:4955   */\n      dup2\n        /* \"#utility.yul\":4944:4947   */\n      dup6\n        /* \"#utility.yul\":4846:4956   */\n      tag_109\n      jump\t// in\n    tag_194:\n        /* \"#utility.yul\":4839:4956   */\n      swap4\n      pop\n        /* \"#utility.yul\":4982:4985   */\n      dup4\n        /* \"#utility.yul\":5027:5031   */\n      0x20\n        /* \"#utility.yul\":5019:5025   */\n      dup3\n        /* \"#utility.yul\":5015:5032   */\n      mul\n        /* \"#utility.yul\":5010:5013   */\n      dup6\n        /* \"#utility.yul\":5006:5033   */\n      add\n        /* \"#utility.yul\":5057:5137   */\n      tag_195\n        /* \"#utility.yul\":5131:5136   */\n      dup6\n        /* \"#utility.yul\":5057:5137   */\n      tag_110\n      jump\t// in\n    tag_195:\n        /* \"#utility.yul\":5160:5167   */\n      dup1\n        /* \"#utility.yul\":5191:5192   */\n      0x00\n        /* \"#utility.yul\":5176:5614   */\n    tag_196:\n        /* \"#utility.yul\":5201:5207   */\n      dup6\n        /* \"#utility.yul\":5198:5199   */\n      dup2\n        /* \"#utility.yul\":5195:5208   */\n      lt\n        /* \"#utility.yul\":5176:5614   */\n      iszero\n      tag_198\n      jumpi\n        /* \"#utility.yul\":5272:5281   */\n      dup5\n        /* \"#utility.yul\":5266:5270   */\n      dup5\n        /* \"#utility.yul\":5262:5282   */\n      sub\n        /* \"#utility.yul\":5257:5260   */\n      dup10\n        /* \"#utility.yul\":5250:5283   */\n      mstore\n        /* \"#utility.yul\":5323:5329   */\n      dup2\n        /* \"#utility.yul\":5317:5330   */\n      mload\n        /* \"#utility.yul\":5351:5463   */\n      tag_199\n        /* \"#utility.yul\":5458:5462   */\n      dup6\n        /* \"#utility.yul\":5443:5456   */\n      dup3\n        /* \"#utility.yul\":5351:5463   */\n      tag_120\n      jump\t// in\n    tag_199:\n        /* \"#utility.yul\":5343:5463   */\n      swap5\n      pop\n        /* \"#utility.yul\":5486:5570   */\n      tag_200\n        /* \"#utility.yul\":5563:5569   */\n      dup4\n        /* \"#utility.yul\":5486:5570   */\n      tag_121\n      jump\t// in\n    tag_200:\n        /* \"#utility.yul\":5476:5570   */\n      swap3\n      pop\n        /* \"#utility.yul\":5599:5603   */\n      0x20\n        /* \"#utility.yul\":5594:5597   */\n      dup11\n        /* \"#utility.yul\":5590:5604   */\n      add\n        /* \"#utility.yul\":5583:5604   */\n      swap10\n      pop\n        /* \"#utility.yul\":5236:5614   */\n      pop\n        /* \"#utility.yul\":5223:5224   */\n      0x01\n        /* \"#utility.yul\":5220:5221   */\n      dup2\n        /* \"#utility.yul\":5216:5225   */\n      add\n        /* \"#utility.yul\":5211:5225   */\n      swap1\n      pop\n        /* \"#utility.yul\":5176:5614   */\n      jump(tag_196)\n    tag_198:\n        /* \"#utility.yul\":5180:5194   */\n      pop\n        /* \"#utility.yul\":5630:5634   */\n      dup3\n        /* \"#utility.yul\":5623:5634   */\n      swap8\n      pop\n        /* \"#utility.yul\":5650:5653   */\n      dup8\n        /* \"#utility.yul\":5643:5653   */\n      swap6\n      pop\n        /* \"#utility.yul\":4728:5659   */\n      pop\n      pop\n      pop\n      pop\n      pop\n        /* \"#utility.yul\":4556:5659   */\n      swap3\n      swap2\n      pop\n      pop\n      jump\t// out\n        /* \"#utility.yul\":5665:6134   */\n    tag_18:\n        /* \"#utility.yul\":5856:5860   */\n      0x00\n        /* \"#utility.yul\":5894:5896   */\n      0x20\n        /* \"#utility.yul\":5883:5892   */\n      dup3\n        /* \"#utility.yul\":5879:5897   */\n      add\n        /* \"#utility.yul\":5871:5897   */\n      swap1\n      pop\n        /* \"#utility.yul\":5943:5952   */\n      dup2\n        /* \"#utility.yul\":5937:5941   */\n      dup2\n        /* \"#utility.yul\":5933:5953   */\n      sub\n        /* \"#utility.yul\":5929:5930   */\n      0x00\n        /* \"#utility.yul\":5918:5927   */\n      dup4\n        /* \"#utility.yul\":5914:5931   */\n      add\n        /* \"#utility.yul\":5907:5954   */\n      mstore\n        /* \"#utility.yul\":5971:6127   */\n      tag_202\n        /* \"#utility.yul\":6122:6126   */\n      dup2\n        /* \"#utility.yul\":6113:6119   */\n      dup5\n        /* \"#utility.yul\":5971:6127   */\n      tag_122\n      jump\t// in\n    tag_202:\n        /* \"#utility.yul\":5963:6127   */\n      swap1\n      pop\n        /* \"#utility.yul\":5665:6134   */\n      swap3\n      swap2\n      pop\n      pop\n      jump\t// out\n        /* \"#utility.yul\":6140:6215   */\n    tag_123:\n        /* \"#utility.yul\":6173:6179   */\n      0x00\n        /* \"#utility.yul\":6206:6208   */\n      0x40\n        /* \"#utility.yul\":6200:6209   */\n      mload\n        /* \"#utility.yul\":6190:6209   */\n      swap1\n      pop\n        /* \"#utility.yul\":6140:6215   */\n      swap1\n      jump\t// out\n        /* \"#utility.yul\":6221:6338   */\n    tag_124:\n        /* \"#utility.yul\":6330:6331   */\n      0x00\n        /* \"#utility.yul\":6327:6328   */\n      dup1\n        /* \"#utility.yul\":6320:6332   */\n      revert\n        /* \"#utility.yul\":6344:6461   */\n    tag_125:\n        /* \"#utility.yul\":6453:6454   */\n      0x00\n        /* \"#utility.yul\":6450:6451   */\n      dup1\n        /* \"#utility.yul\":6443:6455   */\n      revert\n        /* \"#utility.yul\":6467:6589   */\n    tag_126:\n        /* \"#utility.yul\":6540:6564   */\n      tag_207\n        /* \"#utility.yul\":6558:6563   */\n      dup2\n        /* \"#utility.yul\":6540:6564   */\n      tag_106\n      jump\t// in\n    tag_207:\n        /* \"#utility.yul\":6533:6538   */\n      dup2\n        /* \"#utility.yul\":6530:6565   */\n      eq\n        /* \"#utility.yul\":6520:6583   */\n      tag_208\n      jumpi\n        /* \"#utility.yul\":6579:6580   */\n      0x00\n        /* \"#utility.yul\":6576:6577   */\n      dup1\n        /* \"#utility.yul\":6569:6581   */\n      revert\n        /* \"#utility.yul\":6520:6583   */\n    tag_208:\n        /* \"#utility.yul\":6467:6589   */\n      pop\n      jump\t// out\n        /* \"#utility.yul\":6595:6734   */\n    tag_127:\n        /* \"#utility.yul\":6641:6646   */\n      0x00\n        /* \"#utility.yul\":6679:6685   */\n      dup2\n        /* \"#utility.yul\":6666:6686   */\n      calldataload\n        /* \"#utility.yul\":6657:6686   */\n      swap1\n      pop\n        /* \"#utility.yul\":6695:6728   */\n      tag_210\n        /* \"#utility.yul\":6722:6727   */\n      dup2\n        /* \"#utility.yul\":6695:6728   */\n      tag_126\n      jump\t// in\n    tag_210:\n        /* \"#utility.yul\":6595:6734   */\n      swap3\n      swap2\n      pop\n      pop\n      jump\t// out\n        /* \"#utility.yul\":6740:7069   */\n    tag_21:\n        /* \"#utility.yul\":6799:6805   */\n      0x00\n        /* \"#utility.yul\":6848:6850   */\n      0x20\n        /* \"#utility.yul\":6836:6845   */\n      dup3\n        /* \"#utility.yul\":6827:6834   */\n      dup5\n        /* \"#utility.yul\":6823:6846   */\n      sub\n        /* \"#utility.yul\":6819:6851   */\n      slt\n        /* \"#utility.yul\":6816:6935   */\n      iszero\n      tag_212\n      jumpi\n        /* \"#utility.yul\":6854:6933   */\n      tag_213\n      tag_124\n      jump\t// in\n    tag_213:\n        /* \"#utility.yul\":6816:6935   */\n    tag_212:\n        /* \"#utility.yul\":6974:6975   */\n      0x00\n        /* \"#utility.yul\":6999:7052   */\n      tag_214\n        /* \"#utility.yul\":7044:7051   */\n      dup5\n        /* \"#utility.yul\":7035:7041   */\n      dup3\n        /* \"#utility.yul\":7024:7033   */\n      dup6\n        /* \"#utility.yul\":7020:7042   */\n      add\n        /* \"#utility.yul\":6999:7052   */\n      tag_127\n      jump\t// in\n    tag_214:\n        /* \"#utility.yul\":6989:7052   */\n      swap2\n      pop\n        /* \"#utility.yul\":6945:7062   */\n      pop\n        /* \"#utility.yul\":6740:7069   */\n      swap3\n      swap2\n      pop\n      pop\n      jump\t// out\n        /* \"#utility.yul\":7075:7193   */\n    tag_128:\n        /* \"#utility.yul\":7162:7186   */\n      tag_216\n        /* \"#utility.yul\":7180:7185   */\n      dup2\n        /* \"#utility.yul\":7162:7186   */\n      tag_112\n      jump\t// in\n    tag_216:\n        /* \"#utility.yul\":7157:7160   */\n      dup3\n        /* \"#utility.yul\":7150:7187   */\n      mstore\n        /* \"#utility.yul\":7075:7193   */\n      pop\n      pop\n      jump\t// out\n        /* \"#utility.yul\":7199:7368   */\n    tag_129:\n        /* \"#utility.yul\":7283:7294   */\n      0x00\n        /* \"#utility.yul\":7317:7323   */\n      dup3\n        /* \"#utility.yul\":7312:7315   */\n      dup3\n        /* \"#utility.yul\":7305:7324   */\n      mstore\n        /* \"#utility.yul\":7357:7361   */\n      0x20\n        /* \"#utility.yul\":7352:7355   */\n      dup3\n        /* \"#utility.yul\":7348:7362   */\n      add\n        /* \"#utility.yul\":7333:7362   */\n      swap1\n      pop\n        /* \"#utility.yul\":7199:7368   */\n      swap3\n      swap2\n      pop\n      pop\n      jump\t// out\n        /* \"#utility.yul\":7374:7751   */\n    tag_130:\n        /* \"#utility.yul\":7462:7465   */\n      0x00\n        /* \"#utility.yul\":7490:7529   */\n      tag_219\n        /* \"#utility.yul\":7523:7528   */\n      dup3\n        /* \"#utility.yul\":7490:7529   */\n      tag_114\n      jump\t// in\n    tag_219:\n        /* \"#utility.yul\":7545:7616   */\n      tag_220\n        /* \"#utility.yul\":7609:7615   */\n      dup2\n        /* \"#utility.yul\":7604:7607   */\n      dup6\n        /* \"#utility.yul\":7545:7616   */\n      tag_129\n      jump\t// in\n    tag_220:\n        /* \"#utility.yul\":7538:7616   */\n      swap4\n      pop\n        /* \"#utility.yul\":7625:7690   */\n      tag_221\n        /* \"#utility.yul\":7683:7689   */\n      dup2\n        /* \"#utility.yul\":7678:7681   */\n      dup6\n        /* \"#utility.yul\":7671:7675   */\n      0x20\n        /* \"#utility.yul\":7664:7669   */\n      dup7\n        /* \"#utility.yul\":7660:7676   */\n      add\n        /* \"#utility.yul\":7625:7690   */\n      tag_116\n      jump\t// in\n    tag_221:\n        /* \"#utility.yul\":7715:7744   */\n      tag_222\n        /* \"#utility.yul\":7737:7743   */\n      dup2\n        /* \"#utility.yul\":7715:7744   */\n      tag_117\n      jump\t// in\n    tag_222:\n        /* \"#utility.yul\":7710:7713   */\n      dup5\n        /* \"#utility.yul\":7706:7745   */\n      add\n        /* \"#utility.yul\":7699:7745   */\n      swap2\n      pop\n        /* \"#utility.yul\":7466:7751   */\n      pop\n        /* \"#utility.yul\":7374:7751   */\n      swap3\n      swap2\n      pop\n      pop\n      jump\t// out\n        /* \"#utility.yul\":7757:9189   */\n    tag_24:\n        /* \"#utility.yul\":8138:8142   */\n      0x00\n        /* \"#utility.yul\":8176:8179   */\n      0xe0\n        /* \"#utility.yul\":8165:8174   */\n      dup3\n        /* \"#utility.yul\":8161:8180   */\n      add\n        /* \"#utility.yul\":8153:8180   */\n      swap1\n      pop\n        /* \"#utility.yul\":8190:8261   */\n      tag_224\n        /* \"#utility.yul\":8258:8259   */\n      0x00\n        /* \"#utility.yul\":8247:8256   */\n      dup4\n        /* \"#utility.yul\":8243:8260   */\n      add\n        /* \"#utility.yul\":8234:8240   */\n      dup11\n        /* \"#utility.yul\":8190:8261   */\n      tag_128\n      jump\t// in\n    tag_224:\n        /* \"#utility.yul\":8308:8317   */\n      dup2\n        /* \"#utility.yul\":8302:8306   */\n      dup2\n        /* \"#utility.yul\":8298:8318   */\n      sub\n        /* \"#utility.yul\":8293:8295   */\n      0x20\n        /* \"#utility.yul\":8282:8291   */\n      dup4\n        /* \"#utility.yul\":8278:8296   */\n      add\n        /* \"#utility.yul\":8271:8319   */\n      mstore\n        /* \"#utility.yul\":8336:8414   */\n      tag_225\n        /* \"#utility.yul\":8409:8413   */\n      dup2\n        /* \"#utility.yul\":8400:8406   */\n      dup10\n        /* \"#utility.yul\":8336:8414   */\n      tag_130\n      jump\t// in\n    tag_225:\n        /* \"#utility.yul\":8328:8414   */\n      swap1\n      pop\n        /* \"#utility.yul\":8461:8470   */\n      dup2\n        /* \"#utility.yul\":8455:8459   */\n      dup2\n        /* \"#utility.yul\":8451:8471   */\n      sub\n        /* \"#utility.yul\":8446:8448   */\n      0x40\n        /* \"#utility.yul\":8435:8444   */\n      dup4\n        /* \"#utility.yul\":8431:8449   */\n      add\n        /* \"#utility.yul\":8424:8472   */\n      mstore\n        /* \"#utility.yul\":8489:8567   */\n      tag_226\n        /* \"#utility.yul\":8562:8566   */\n      dup2\n        /* \"#utility.yul\":8553:8559   */\n      dup9\n        /* \"#utility.yul\":8489:8567   */\n      tag_130\n      jump\t// in\n    tag_226:\n        /* \"#utility.yul\":8481:8567   */\n      swap1\n      pop\n        /* \"#utility.yul\":8614:8623   */\n      dup2\n        /* \"#utility.yul\":8608:8612   */\n      dup2\n        /* \"#utility.yul\":8604:8624   */\n      sub\n        /* \"#utility.yul\":8599:8601   */\n      0x60\n        /* \"#utility.yul\":8588:8597   */\n      dup4\n        /* \"#utility.yul\":8584:8602   */\n      add\n        /* \"#utility.yul\":8577:8625   */\n      mstore\n        /* \"#utility.yul\":8642:8720   */\n      tag_227\n        /* \"#utility.yul\":8715:8719   */\n      dup2\n        /* \"#utility.yul\":8706:8712   */\n      dup8\n        /* \"#utility.yul\":8642:8720   */\n      tag_130\n      jump\t// in\n    tag_227:\n        /* \"#utility.yul\":8634:8720   */\n      swap1\n      pop\n        /* \"#utility.yul\":8768:8777   */\n      dup2\n        /* \"#utility.yul\":8762:8766   */\n      dup2\n        /* \"#utility.yul\":8758:8778   */\n      sub\n        /* \"#utility.yul\":8752:8755   */\n      0x80\n        /* \"#utility.yul\":8741:8750   */\n      dup4\n        /* \"#utility.yul\":8737:8756   */\n      add\n        /* \"#utility.yul\":8730:8779   */\n      mstore\n        /* \"#utility.yul\":8796:8874   */\n      tag_228\n        /* \"#utility.yul\":8869:8873   */\n      dup2\n        /* \"#utility.yul\":8860:8866   */\n      dup7\n        /* \"#utility.yul\":8796:8874   */\n      tag_130\n      jump\t// in\n    tag_228:\n        /* \"#utility.yul\":8788:8874   */\n      swap1\n      pop\n        /* \"#utility.yul\":8922:8931   */\n      dup2\n        /* \"#utility.yul\":8916:8920   */\n      dup2\n        /* \"#utility.yul\":8912:8932   */\n      sub\n        /* \"#utility.yul\":8906:8909   */\n      0xa0\n        /* \"#utility.yul\":8895:8904   */\n      dup4\n        /* \"#utility.yul\":8891:8910   */\n      add\n        /* \"#utility.yul\":8884:8933   */\n      mstore\n        /* \"#utility.yul\":8950:9028   */\n      tag_229\n        /* \"#utility.yul\":9023:9027   */\n      dup2\n        /* \"#utility.yul\":9014:9020   */\n      dup6\n        /* \"#utility.yul\":8950:9028   */\n      tag_130\n      jump\t// in\n    tag_229:\n        /* \"#utility.yul\":8942:9028   */\n      swap1\n      pop\n        /* \"#utility.yul\":9076:9085   */\n      dup2\n        /* \"#utility.yul\":9070:9074   */\n      dup2\n        /* \"#utility.yul\":9066:9086   */\n      sub\n        /* \"#utility.yul\":9060:9063   */\n      0xc0\n        /* \"#utility.yul\":9049:9058   */\n      dup4\n        /* \"#utility.yul\":9045:9064   */\n      add\n        /* \"#utility.yul\":9038:9087   */\n      mstore\n        /* \"#utility.yul\":9104:9182   */\n      tag_230\n        /* \"#utility.yul\":9177:9181   */\n      dup2\n        /* \"#utility.yul\":9168:9174   */\n      dup5\n        /* \"#utility.yul\":9104:9182   */\n      tag_130\n      jump\t// in\n    tag_230:\n        /* \"#utility.yul\":9096:9182   */\n      swap1\n      pop\n        /* \"#utility.yul\":7757:9189   */\n      swap9\n      swap8\n      pop\n      pop\n      pop\n      pop\n      pop\n      pop\n      pop\n      pop\n      jump\t// out\n        /* \"#utility.yul\":9195:9312   */\n    tag_131:\n        /* \"#utility.yul\":9304:9305   */\n      0x00\n        /* \"#utility.yul\":9301:9302   */\n      dup1\n        /* \"#utility.yul\":9294:9306   */\n      revert\n        /* \"#utility.yul\":9318:9435   */\n    tag_132:\n        /* \"#utility.yul\":9427:9428   */\n      0x00\n        /* \"#utility.yul\":9424:9425   */\n      dup1\n        /* \"#utility.yul\":9417:9429   */\n      revert\n        /* \"#utility.yul\":9441:9621   */\n    tag_133:\n        /* \"#utility.yul\":9489:9566   */\n      0x4e487b7100000000000000000000000000000000000000000000000000000000\n        /* \"#utility.yul\":9486:9487   */\n      0x00\n        /* \"#utility.yul\":9479:9567   */\n      mstore\n        /* \"#utility.yul\":9586:9590   */\n      0x41\n        /* \"#utility.yul\":9583:9584   */\n      0x04\n        /* \"#utility.yul\":9576:9591   */\n      mstore\n        /* \"#utility.yul\":9610:9614   */\n      0x24\n        /* \"#utility.yul\":9607:9608   */\n      0x00\n        /* \"#utility.yul\":9600:9615   */\n      revert\n        /* \"#utility.yul\":9627:9908   */\n    tag_134:\n        /* \"#utility.yul\":9710:9737   */\n      tag_235\n        /* \"#utility.yul\":9732:9736   */\n      dup3\n        /* \"#utility.yul\":9710:9737   */\n      tag_117\n      jump\t// in\n    tag_235:\n        /* \"#utility.yul\":9702:9708   */\n      dup2\n        /* \"#utility.yul\":9698:9738   */\n      add\n        /* \"#utility.yul\":9840:9846   */\n      dup2\n        /* \"#utility.yul\":9828:9838   */\n      dup2\n        /* \"#utility.yul\":9825:9847   */\n      lt\n        /* \"#utility.yul\":9804:9822   */\n      0xffffffffffffffff\n        /* \"#utility.yul\":9792:9802   */\n      dup3\n        /* \"#utility.yul\":9789:9823   */\n      gt\n        /* \"#utility.yul\":9786:9848   */\n      or\n        /* \"#utility.yul\":9783:9871   */\n      iszero\n      tag_236\n      jumpi\n        /* \"#utility.yul\":9851:9869   */\n      tag_237\n      tag_133\n      jump\t// in\n    tag_237:\n        /* \"#utility.yul\":9783:9871   */\n    tag_236:\n        /* \"#utility.yul\":9891:9901   */\n      dup1\n        /* \"#utility.yul\":9887:9889   */\n      0x40\n        /* \"#utility.yul\":9880:9902   */\n      mstore\n        /* \"#utility.yul\":9670:9908   */\n      pop\n        /* \"#utility.yul\":9627:9908   */\n      pop\n      pop\n      jump\t// out\n        /* \"#utility.yul\":9914:10043   */\n    tag_135:\n        /* \"#utility.yul\":9948:9954   */\n      0x00\n        /* \"#utility.yul\":9975:9995   */\n      tag_239\n      tag_123\n      jump\t// in\n    tag_239:\n        /* \"#utility.yul\":9965:9995   */\n      swap1\n      pop\n        /* \"#utility.yul\":10004:10037   */\n      tag_240\n        /* \"#utility.yul\":10032:10036   */\n      dup3\n        /* \"#utility.yul\":10024:10030   */\n      dup3\n        /* \"#utility.yul\":10004:10037   */\n      tag_134\n      jump\t// in\n    tag_240:\n        /* \"#utility.yul\":9914:10043   */\n      swap2\n      swap1\n      pop\n      jump\t// out\n        /* \"#utility.yul\":10049:10357   */\n    tag_136:\n        /* \"#utility.yul\":10111:10115   */\n      0x00\n        /* \"#utility.yul\":10201:10219   */\n      0xffffffffffffffff\n        /* \"#utility.yul\":10193:10199   */\n      dup3\n        /* \"#utility.yul\":10190:10220   */\n      gt\n        /* \"#utility.yul\":10187:10243   */\n      iszero\n      tag_242\n      jumpi\n        /* \"#utility.yul\":10223:10241   */\n      tag_243\n      tag_133\n      jump\t// in\n    tag_243:\n        /* \"#utility.yul\":10187:10243   */\n    tag_242:\n        /* \"#utility.yul\":10261:10290   */\n      tag_244\n        /* \"#utility.yul\":10283:10289   */\n      dup3\n        /* \"#utility.yul\":10261:10290   */\n      tag_117\n      jump\t// in\n    tag_244:\n        /* \"#utility.yul\":10253:10290   */\n      swap1\n      pop\n        /* \"#utility.yul\":10345:10349   */\n      0x20\n        /* \"#utility.yul\":10339:10343   */\n      dup2\n        /* \"#utility.yul\":10335:10350   */\n      add\n        /* \"#utility.yul\":10327:10350   */\n      swap1\n      pop\n        /* \"#utility.yul\":10049:10357   */\n      swap2\n      swap1\n      pop\n      jump\t// out\n        /* \"#utility.yul\":10363:10511   */\n    tag_137:\n        /* \"#utility.yul\":10461:10467   */\n      dup3\n        /* \"#utility.yul\":10456:10459   */\n      dup2\n        /* \"#utility.yul\":10451:10454   */\n      dup4\n        /* \"#utility.yul\":10438:10468   */\n      calldatacopy\n        /* \"#utility.yul\":10502:10503   */\n      0x00\n        /* \"#utility.yul\":10493:10499   */\n      dup4\n        /* \"#utility.yul\":10488:10491   */\n      dup4\n        /* \"#utility.yul\":10484:10500   */\n      add\n        /* \"#utility.yul\":10477:10504   */\n      mstore\n        /* \"#utility.yul\":10363:10511   */\n      pop\n      pop\n      pop\n      jump\t// out\n        /* \"#utility.yul\":10517:10942   */\n    tag_138:\n        /* \"#utility.yul\":10595:10600   */\n      0x00\n        /* \"#utility.yul\":10620:10686   */\n      tag_247\n        /* \"#utility.yul\":10636:10685   */\n      tag_248\n        /* \"#utility.yul\":10678:10684   */\n      dup5\n        /* \"#utility.yul\":10636:10685   */\n      tag_136\n      jump\t// in\n    tag_248:\n        /* \"#utility.yul\":10620:10686   */\n      tag_135\n      jump\t// in\n    tag_247:\n        /* \"#utility.yul\":10611:10686   */\n      swap1\n      pop\n        /* \"#utility.yul\":10709:10715   */\n      dup3\n        /* \"#utility.yul\":10702:10707   */\n      dup2\n        /* \"#utility.yul\":10695:10716   */\n      mstore\n        /* \"#utility.yul\":10747:10751   */\n      0x20\n        /* \"#utility.yul\":10740:10745   */\n      dup2\n        /* \"#utility.yul\":10736:10752   */\n      add\n        /* \"#utility.yul\":10785:10788   */\n      dup5\n        /* \"#utility.yul\":10776:10782   */\n      dup5\n        /* \"#utility.yul\":10771:10774   */\n      dup5\n        /* \"#utility.yul\":10767:10783   */\n      add\n        /* \"#utility.yul\":10764:10789   */\n      gt\n        /* \"#utility.yul\":10761:10873   */\n      iszero\n      tag_249\n      jumpi\n        /* \"#utility.yul\":10792:10871   */\n      tag_250\n      tag_132\n      jump\t// in\n    tag_250:\n        /* \"#utility.yul\":10761:10873   */\n    tag_249:\n        /* \"#utility.yul\":10882:10936   */\n      tag_251\n        /* \"#utility.yul\":10929:10935   */\n      dup5\n        /* \"#utility.yul\":10924:10927   */\n      dup3\n        /* \"#utility.yul\":10919:10922   */\n      dup6\n        /* \"#utility.yul\":10882:10936   */\n      tag_137\n      jump\t// in\n    tag_251:\n        /* \"#utility.yul\":10601:10942   */\n      pop\n        /* \"#utility.yul\":10517:10942   */\n      swap4\n      swap3\n      pop\n      pop\n      pop\n      jump\t// out\n        /* \"#utility.yul\":10962:11302   */\n    tag_139:\n        /* \"#utility.yul\":11018:11023   */\n      0x00\n        /* \"#utility.yul\":11067:11070   */\n      dup3\n        /* \"#utility.yul\":11060:11064   */\n      0x1f\n        /* \"#utility.yul\":11052:11058   */\n      dup4\n        /* \"#utility.yul\":11048:11065   */\n      add\n        /* \"#utility.yul\":11044:11071   */\n      slt\n        /* \"#utility.yul\":11034:11156   */\n      tag_253\n      jumpi\n        /* \"#utility.yul\":11075:11154   */\n      tag_254\n      tag_131\n      jump\t// in\n    tag_254:\n        /* \"#utility.yul\":11034:11156   */\n    tag_253:\n        /* \"#utility.yul\":11192:11198   */\n      dup2\n        /* \"#utility.yul\":11179:11199   */\n      calldataload\n        /* \"#utility.yul\":11217:11296   */\n      tag_255\n        /* \"#utility.yul\":11292:11295   */\n      dup5\n        /* \"#utility.yul\":11284:11290   */\n      dup3\n        /* \"#utility.yul\":11277:11281   */\n      0x20\n        /* \"#utility.yul\":11269:11275   */\n      dup7\n        /* \"#utility.yul\":11265:11282   */\n      add\n        /* \"#utility.yul\":11217:11296   */\n      tag_138\n      jump\t// in\n    tag_255:\n        /* \"#utility.yul\":11208:11296   */\n      swap2\n      pop\n        /* \"#utility.yul\":11024:11302   */\n      pop\n        /* \"#utility.yul\":10962:11302   */\n      swap3\n      swap2\n      pop\n      pop\n      jump\t// out\n        /* \"#utility.yul\":11308:11430   */\n    tag_140:\n        /* \"#utility.yul\":11381:11405   */\n      tag_257\n        /* \"#utility.yul\":11399:11404   */\n      dup2\n        /* \"#utility.yul\":11381:11405   */\n      tag_112\n      jump\t// in\n    tag_257:\n        /* \"#utility.yul\":11374:11379   */\n      dup2\n        /* \"#utility.yul\":11371:11406   */\n      eq\n        /* \"#utility.yul\":11361:11424   */\n      tag_258\n      jumpi\n        /* \"#utility.yul\":11420:11421   */\n      0x00\n        /* \"#utility.yul\":11417:11418   */\n      dup1\n        /* \"#utility.yul\":11410:11422   */\n      revert\n        /* \"#utility.yul\":11361:11424   */\n    tag_258:\n        /* \"#utility.yul\":11308:11430   */\n      pop\n      jump\t// out\n        /* \"#utility.yul\":11436:11575   */\n    tag_141:\n        /* \"#utility.yul\":11482:11487   */\n      0x00\n        /* \"#utility.yul\":11520:11526   */\n      dup2\n        /* \"#utility.yul\":11507:11527   */\n      calldataload\n        /* \"#utility.yul\":11498:11527   */\n      swap1\n      pop\n        /* \"#utility.yul\":11536:11569   */\n      tag_260\n        /* \"#utility.yul\":11563:11568   */\n      dup2\n        /* \"#utility.yul\":11536:11569   */\n      tag_140\n      jump\t// in\n    tag_260:\n        /* \"#utility.yul\":11436:11575   */\n      swap3\n      swap2\n      pop\n      pop\n      jump\t// out\n        /* \"#utility.yul\":11581:13864   */\n    tag_27:\n        /* \"#utility.yul\":11754:11760   */\n      0x00\n        /* \"#utility.yul\":11762:11768   */\n      dup1\n        /* \"#utility.yul\":11770:11776   */\n      0x00\n        /* \"#utility.yul\":11778:11784   */\n      dup1\n        /* \"#utility.yul\":11786:11792   */\n      0x00\n        /* \"#utility.yul\":11794:11800   */\n      dup1\n        /* \"#utility.yul\":11802:11808   */\n      0x00\n        /* \"#utility.yul\":11851:11854   */\n      0xe0\n        /* \"#utility.yul\":11839:11848   */\n      dup9\n        /* \"#utility.yul\":11830:11837   */\n      dup11\n        /* \"#utility.yul\":11826:11849   */\n      sub\n        /* \"#utility.yul\":11822:11855   */\n      slt\n        /* \"#utility.yul\":11819:11939   */\n      iszero\n      tag_262\n      jumpi\n        /* \"#utility.yul\":11858:11937   */\n      tag_263\n      tag_124\n      jump\t// in\n    tag_263:\n        /* \"#utility.yul\":11819:11939   */\n    tag_262:\n        /* \"#utility.yul\":12006:12007   */\n      0x00\n        /* \"#utility.yul\":11995:12004   */\n      dup9\n        /* \"#utility.yul\":11991:12008   */\n      add\n        /* \"#utility.yul\":11978:12009   */\n      calldataload\n        /* \"#utility.yul\":12036:12054   */\n      0xffffffffffffffff\n        /* \"#utility.yul\":12028:12034   */\n      dup2\n        /* \"#utility.yul\":12025:12055   */\n      gt\n        /* \"#utility.yul\":12022:12139   */\n      iszero\n      tag_264\n      jumpi\n        /* \"#utility.yul\":12058:12137   */\n      tag_265\n      tag_125\n      jump\t// in\n    tag_265:\n        /* \"#utility.yul\":12022:12139   */\n    tag_264:\n        /* \"#utility.yul\":12163:12226   */\n      tag_266\n        /* \"#utility.yul\":12218:12225   */\n      dup11\n        /* \"#utility.yul\":12209:12215   */\n      dup3\n        /* \"#utility.yul\":12198:12207   */\n      dup12\n        /* \"#utility.yul\":12194:12216   */\n      add\n        /* \"#utility.yul\":12163:12226   */\n      tag_139\n      jump\t// in\n    tag_266:\n        /* \"#utility.yul\":12153:12226   */\n      swap8\n      pop\n        /* \"#utility.yul\":11949:12236   */\n      pop\n        /* \"#utility.yul\":12303:12305   */\n      0x20\n        /* \"#utility.yul\":12292:12301   */\n      dup9\n        /* \"#utility.yul\":12288:12306   */\n      add\n        /* \"#utility.yul\":12275:12307   */\n      calldataload\n        /* \"#utility.yul\":12334:12352   */\n      0xffffffffffffffff\n        /* \"#utility.yul\":12326:12332   */\n      dup2\n        /* \"#utility.yul\":12323:12353   */\n      gt\n        /* \"#utility.yul\":12320:12437   */\n      iszero\n      tag_267\n      jumpi\n        /* \"#utility.yul\":12356:12435   */\n      tag_268\n      tag_125\n      jump\t// in\n    tag_268:\n        /* \"#utility.yul\":12320:12437   */\n    tag_267:\n        /* \"#utility.yul\":12461:12524   */\n      tag_269\n        /* \"#utility.yul\":12516:12523   */\n      dup11\n        /* \"#utility.yul\":12507:12513   */\n      dup3\n        /* \"#utility.yul\":12496:12505   */\n      dup12\n        /* \"#utility.yul\":12492:12514   */\n      add\n        /* \"#utility.yul\":12461:12524   */\n      tag_139\n      jump\t// in\n    tag_269:\n        /* \"#utility.yul\":12451:12524   */\n      swap7\n      pop\n        /* \"#utility.yul\":12246:12534   */\n      pop\n        /* \"#utility.yul\":12601:12603   */\n      0x40\n        /* \"#utility.yul\":12590:12599   */\n      dup9\n        /* \"#utility.yul\":12586:12604   */\n      add\n        /* \"#utility.yul\":12573:12605   */\n      calldataload\n        /* \"#utility.yul\":12632:12650   */\n      0xffffffffffffffff\n        /* \"#utility.yul\":12624:12630   */\n      dup2\n        /* \"#utility.yul\":12621:12651   */\n      gt\n        /* \"#utility.yul\":12618:12735   */\n      iszero\n      tag_270\n      jumpi\n        /* \"#utility.yul\":12654:12733   */\n      tag_271\n      tag_125\n      jump\t// in\n    tag_271:\n        /* \"#utility.yul\":12618:12735   */\n    tag_270:\n        /* \"#utility.yul\":12759:12822   */\n      tag_272\n        /* \"#utility.yul\":12814:12821   */\n      dup11\n        /* \"#utility.yul\":12805:12811   */\n      dup3\n        /* \"#utility.yul\":12794:12803   */\n      dup12\n        /* \"#utility.yul\":12790:12812   */\n      add\n        /* \"#utility.yul\":12759:12822   */\n      tag_139\n      jump\t// in\n    tag_272:\n        /* \"#utility.yul\":12749:12822   */\n      swap6\n      pop\n        /* \"#utility.yul\":12544:12832   */\n      pop\n        /* \"#utility.yul\":12899:12901   */\n      0x60\n        /* \"#utility.yul\":12888:12897   */\n      dup9\n        /* \"#utility.yul\":12884:12902   */\n      add\n        /* \"#utility.yul\":12871:12903   */\n      calldataload\n        /* \"#utility.yul\":12930:12948   */\n      0xffffffffffffffff\n        /* \"#utility.yul\":12922:12928   */\n      dup2\n        /* \"#utility.yul\":12919:12949   */\n      gt\n        /* \"#utility.yul\":12916:13033   */\n      iszero\n      tag_273\n      jumpi\n        /* \"#utility.yul\":12952:13031   */\n      tag_274\n      tag_125\n      jump\t// in\n    tag_274:\n        /* \"#utility.yul\":12916:13033   */\n    tag_273:\n        /* \"#utility.yul\":13057:13120   */\n      tag_275\n        /* \"#utility.yul\":13112:13119   */\n      dup11\n        /* \"#utility.yul\":13103:13109   */\n      dup3\n        /* \"#utility.yul\":13092:13101   */\n      dup12\n        /* \"#utility.yul\":13088:13110   */\n      add\n        /* \"#utility.yul\":13057:13120   */\n      tag_139\n      jump\t// in\n    tag_275:\n        /* \"#utility.yul\":13047:13120   */\n      swap5\n      pop\n        /* \"#utility.yul\":12842:13130   */\n      pop\n        /* \"#utility.yul\":13197:13200   */\n      0x80\n        /* \"#utility.yul\":13186:13195   */\n      dup9\n        /* \"#utility.yul\":13182:13201   */\n      add\n        /* \"#utility.yul\":13169:13202   */\n      calldataload\n        /* \"#utility.yul\":13229:13247   */\n      0xffffffffffffffff\n        /* \"#utility.yul\":13221:13227   */\n      dup2\n        /* \"#utility.yul\":13218:13248   */\n      gt\n        /* \"#utility.yul\":13215:13332   */\n      iszero\n      tag_276\n      jumpi\n        /* \"#utility.yul\":13251:13330   */\n      tag_277\n      tag_125\n      jump\t// in\n    tag_277:\n        /* \"#utility.yul\":13215:13332   */\n    tag_276:\n        /* \"#utility.yul\":13356:13419   */\n      tag_278\n        /* \"#utility.yul\":13411:13418   */\n      dup11\n        /* \"#utility.yul\":13402:13408   */\n      dup3\n        /* \"#utility.yul\":13391:13400   */\n      dup12\n        /* \"#utility.yul\":13387:13409   */\n      add\n        /* \"#utility.yul\":13356:13419   */\n      tag_139\n      jump\t// in\n    tag_278:\n        /* \"#utility.yul\":13346:13419   */\n      swap4\n      pop\n        /* \"#utility.yul\":13140:13429   */\n      pop\n        /* \"#utility.yul\":13468:13471   */\n      0xa0\n        /* \"#utility.yul\":13495:13548   */\n      tag_279\n        /* \"#utility.yul\":13540:13547   */\n      dup11\n        /* \"#utility.yul\":13531:13537   */\n      dup3\n        /* \"#utility.yul\":13520:13529   */\n      dup12\n        /* \"#utility.yul\":13516:13538   */\n      add\n        /* \"#utility.yul\":13495:13548   */\n      tag_141\n      jump\t// in\n    tag_279:\n        /* \"#utility.yul\":13485:13548   */\n      swap3\n      pop\n        /* \"#utility.yul\":13439:13558   */\n      pop\n        /* \"#utility.yul\":13625:13628   */\n      0xc0\n        /* \"#utility.yul\":13614:13623   */\n      dup9\n        /* \"#utility.yul\":13610:13629   */\n      add\n        /* \"#utility.yul\":13597:13630   */\n      calldataload\n        /* \"#utility.yul\":13657:13675   */\n      0xffffffffffffffff\n        /* \"#utility.yul\":13649:13655   */\n      dup2\n        /* \"#utility.yul\":13646:13676   */\n      gt\n        /* \"#utility.yul\":13643:13760   */\n      iszero\n      tag_280\n      jumpi\n        /* \"#utility.yul\":13679:13758   */\n      tag_281\n      tag_125\n      jump\t// in\n    tag_281:\n        /* \"#utility.yul\":13643:13760   */\n    tag_280:\n        /* \"#utility.yul\":13784:13847   */\n      tag_282\n        /* \"#utility.yul\":13839:13846   */\n      dup11\n        /* \"#utility.yul\":13830:13836   */\n      dup3\n        /* \"#utility.yul\":13819:13828   */\n      dup12\n        /* \"#utility.yul\":13815:13837   */\n      add\n        /* \"#utility.yul\":13784:13847   */\n      tag_139\n      jump\t// in\n    tag_282:\n        /* \"#utility.yul\":13774:13847   */\n      swap2\n      pop\n        /* \"#utility.yul\":13568:13857   */\n      pop\n        /* \"#utility.yul\":11581:13864   */\n      swap3\n      swap6\n      swap9\n      swap2\n      swap5\n      swap8\n      pop\n      swap3\n      swap6\n      pop\n      jump\t// out\n        /* \"#utility.yul\":13870:14050   */\n    tag_142:\n        /* \"#utility.yul\":13918:13995   */\n      0x4e487b7100000000000000000000000000000000000000000000000000000000\n        /* \"#utility.yul\":13915:13916   */\n      0x00\n        /* \"#utility.yul\":13908:13996   */\n      mstore\n        /* \"#utility.yul\":14015:14019   */\n      0x22\n        /* \"#utility.yul\":14012:14013   */\n      0x04\n        /* \"#utility.yul\":14005:14020   */\n      mstore\n        /* \"#utility.yul\":14039:14043   */\n      0x24\n        /* \"#utility.yul\":14036:14037   */\n      0x00\n        /* \"#utility.yul\":14029:14044   */\n      revert\n        /* \"#utility.yul\":14056:14376   */\n    tag_35:\n        /* \"#utility.yul\":14100:14106   */\n      0x00\n        /* \"#utility.yul\":14137:14138   */\n      0x02\n        /* \"#utility.yul\":14131:14135   */\n      dup3\n        /* \"#utility.yul\":14127:14139   */\n      div\n        /* \"#utility.yul\":14117:14139   */\n      swap1\n      pop\n        /* \"#utility.yul\":14184:14185   */\n      0x01\n        /* \"#utility.yul\":14178:14182   */\n      dup3\n        /* \"#utility.yul\":14174:14186   */\n      and\n        /* \"#utility.yul\":14205:14223   */\n      dup1\n        /* \"#utility.yul\":14195:14276   */\n      tag_285\n      jumpi\n        /* \"#utility.yul\":14261:14265   */\n      0x7f\n        /* \"#utility.yul\":14253:14259   */\n      dup3\n        /* \"#utility.yul\":14249:14266   */\n      and\n        /* \"#utility.yul\":14239:14266   */\n      swap2\n      pop\n        /* \"#utility.yul\":14195:14276   */\n    tag_285:\n        /* \"#utility.yul\":14323:14325   */\n      0x20\n        /* \"#utility.yul\":14315:14321   */\n      dup3\n        /* \"#utility.yul\":14312:14326   */\n      lt\n        /* \"#utility.yul\":14292:14310   */\n      dup2\n        /* \"#utility.yul\":14289:14327   */\n      sub\n        /* \"#utility.yul\":14286:14370   */\n      tag_286\n      jumpi\n        /* \"#utility.yul\":14342:14360   */\n      tag_287\n      tag_142\n      jump\t// in\n    tag_287:\n        /* \"#utility.yul\":14286:14370   */\n    tag_286:\n        /* \"#utility.yul\":14107:14376   */\n      pop\n        /* \"#utility.yul\":14056:14376   */\n      swap2\n      swap1\n      pop\n      jump\t// out\n        /* \"#utility.yul\":14382:14523   */\n    tag_143:\n        /* \"#utility.yul\":14431:14435   */\n      0x00\n        /* \"#utility.yul\":14454:14457   */\n      dup2\n        /* \"#utility.yul\":14446:14457   */\n      swap1\n      pop\n        /* \"#utility.yul\":14477:14480   */\n      dup2\n        /* \"#utility.yul\":14474:14475   */\n      0x00\n        /* \"#utility.yul\":14467:14481   */\n      mstore\n        /* \"#utility.yul\":14511:14515   */\n      0x20\n        /* \"#utility.yul\":14508:14509   */\n      0x00\n        /* \"#utility.yul\":14498:14516   */\n      keccak256\n        /* \"#utility.yul\":14490:14516   */\n      swap1\n      pop\n        /* \"#utility.yul\":14382:14523   */\n      swap2\n      swap1\n      pop\n      jump\t// out\n        /* \"#utility.yul\":14529:14622   */\n    tag_144:\n        /* \"#utility.yul\":14566:14572   */\n      0x00\n        /* \"#utility.yul\":14613:14615   */\n      0x20\n        /* \"#utility.yul\":14608:14610   */\n      0x1f\n        /* \"#utility.yul\":14601:14606   */\n      dup4\n        /* \"#utility.yul\":14597:14611   */\n      add\n        /* \"#utility.yul\":14593:14616   */\n      div\n        /* \"#utility.yul\":14583:14616   */\n      swap1\n      pop\n        /* \"#utility.yul\":14529:14622   */\n      swap2\n      swap1\n      pop\n      jump\t// out\n        /* \"#utility.yul\":14628:14735   */\n    tag_145:\n        /* \"#utility.yul\":14672:14680   */\n      0x00\n        /* \"#utility.yul\":14722:14727   */\n      dup3\n        /* \"#utility.yul\":14716:14720   */\n      dup3\n        /* \"#utility.yul\":14712:14728   */\n      shl\n        /* \"#utility.yul\":14691:14728   */\n      swap1\n      pop\n        /* \"#utility.yul\":14628:14735   */\n      swap3\n      swap2\n      pop\n      pop\n      jump\t// out\n        /* \"#utility.yul\":14741:15134   */\n    tag_146:\n        /* \"#utility.yul\":14810:14816   */\n      0x00\n        /* \"#utility.yul\":14860:14861   */\n      0x08\n        /* \"#utility.yul\":14848:14858   */\n      dup4\n        /* \"#utility.yul\":14844:14862   */\n      mul\n        /* \"#utility.yul\":14883:14980   */\n      tag_292\n        /* \"#utility.yul\":14913:14979   */\n      0xffffffffffffffffffffffffffffffffffffffffffffffffffffffffffffffff\n        /* \"#utility.yul\":14902:14911   */\n      dup3\n        /* \"#utility.yul\":14883:14980   */\n      tag_145\n      jump\t// in\n    tag_292:\n        /* \"#utility.yul\":15001:15040   */\n      tag_293\n        /* \"#utility.yul\":15031:15039   */\n      dup7\n        /* \"#utility.yul\":15020:15029   */\n      dup4\n        /* \"#utility.yul\":15001:15040   */\n      tag_145\n      jump\t// in\n    tag_293:\n        /* \"#utility.yul\":14989:15040   */\n      swap6\n      pop\n        /* \"#utility.yul\":15073:15077   */\n      dup1\n        /* \"#utility.yul\":15069:15078   */\n      not\n        /* \"#utility.yul\":15062:15067   */\n      dup5\n        /* \"#utility.yul\":15058:15079   */\n      and\n        /* \"#utility.yul\":15049:15079   */\n      swap4\n      pop\n        /* \"#utility.yul\":15122:15126   */\n      dup1\n        /* \"#utility.yul\":15112:15120   */\n      dup7\n        /* \"#utility.yul\":15108:15127   */\n      and\n        /* \"#utility.yul\":15101:15106   */\n      dup5\n        /* \"#utility.yul\":15098:15128   */\n      or\n        /* \"#utility.yul\":15088:15128   */\n      swap3\n      pop\n        /* \"#utility.yul\":14817:15134   */\n      pop\n      pop\n        /* \"#utility.yul\":14741:15134   */\n      swap4\n      swap3\n      pop\n      pop\n      pop\n      jump\t// out\n        /* \"#utility.yul\":15140:15200   */\n    tag_147:\n        /* \"#utility.yul\":15168:15171   */\n      0x00\n        /* \"#utility.yul\":15189:15194   */\n      dup2\n        /* \"#utility.yul\":15182:15194   */\n      swap1\n      pop\n        /* \"#utility.yul\":15140:15200   */\n      swap2\n      swap1\n      pop\n      jump\t// out\n        /* \"#utility.yul\":15206:15348   */\n    tag_148:\n        /* \"#utility.yul\":15256:15265   */\n      0x00\n        /* \"#utility.yul\":15289:15342   */\n      tag_296\n        /* \"#utility.yul\":15307:15341   */\n      tag_297\n        /* \"#utility.yul\":15316:15340   */\n      tag_298\n        /* \"#utility.yul\":15334:15339   */\n      dup5\n        /* \"#utility.yul\":15316:15340   */\n      tag_106\n      jump\t// in\n    tag_298:\n        /* \"#utility.yul\":15307:15341   */\n      tag_147\n      jump\t// in\n    tag_297:\n        /* \"#utility.yul\":15289:15342   */\n      tag_106\n      jump\t// in\n    tag_296:\n        /* \"#utility.yul\":15276:15342   */\n      swap1\n      pop\n        /* \"#utility.yul\":15206:15348   */\n      swap2\n      swap1\n      pop\n      jump\t// out\n        /* \"#utility.yul\":15354:15429   */\n    tag_149:\n        /* \"#utility.yul\":15397:15400   */\n      0x00\n        /* \"#utility.yul\":15418:15423   */\n      dup2\n        /* \"#utility.yul\":15411:15423   */\n      swap1\n      pop\n        /* \"#utility.yul\":15354:15429   */\n      swap2\n      swap1\n      pop\n      jump\t// out\n        /* \"#utility.yul\":15435:15704   */\n    tag_150:\n        /* \"#utility.yul\":15545:15584   */\n      tag_301\n        /* \"#utility.yul\":15576:15583   */\n      dup4\n        /* \"#utility.yul\":15545:15584   */\n      tag_148\n      jump\t// in\n    tag_301:\n        /* \"#utility.yul\":15606:15697   */\n      tag_302\n        /* \"#utility.yul\":15655:15696   */\n      tag_303\n        /* \"#utility.yul\":15679:15695   */\n      dup3\n        /* \"#utility.yul\":15655:15696   */\n      tag_149\n      jump\t// in\n    tag_303:\n        /* \"#utility.yul\":15647:15653   */\n      dup5\n        /* \"#utility.yul\":15640:15644   */\n      dup5\n        /* \"#utility.yul\":15634:15645   */\n      sload\n        /* \"#utility.yul\":15606:15697   */\n      tag_146\n      jump\t// in\n    tag_302:\n        /* \"#utility.yul\":15600:15604   */\n      dup3\n        /* \"#utility.yul\":15593:15698   */\n      sstore\n        /* \"#utility.yul\":15511:15704   */\n      pop\n        /* \"#utility.yul\":15435:15704   */\n      pop\n      pop\n      pop\n      jump\t// out\n        /* \"#utility.yul\":15710:15783   */\n    tag_151:\n        /* \"#utility.yul\":15755:15758   */\n      0x00\n        /* \"#utility.yul\":15710:15783   */\n      swap1\n      jump\t// out\n        /* \"#utility.yul\":15789:15978   */\n    tag_152:\n        /* \"#utility.yul\":15866:15898   */\n      tag_306\n      tag_151\n      jump\t// in\n    tag_306:\n        /* \"#utility.yul\":15907:15972   */\n      tag_307\n        /* \"#utility.yul\":15965:15971   */\n      dup2\n        /* \"#utility.yul\":15957:15963   */\n      dup5\n        /* \"#utility.yul\":15951:15955   */\n      dup5\n        /* \"#utility.yul\":15907:15972   */\n      tag_150\n      jump\t// in\n    tag_307:\n        /* \"#utility.yul\":15842:15978   */\n      pop\n        /* \"#utility.yul\":15789:15978   */\n      pop\n      pop\n      jump\t// out\n        /* \"#utility.yul\":15984:16170   */\n    tag_153:\n        /* \"#utility.yul\":16044:16164   */\n    tag_309:\n        /* \"#utility.yul\":16061:16064   */\n      dup2\n        /* \"#utility.yul\":16054:16059   */\n      dup2\n        /* \"#utility.yul\":16051:16065   */\n      lt\n        /* \"#utility.yul\":16044:16164   */\n      iszero\n      tag_311\n      jumpi\n        /* \"#utility.yul\":16115:16154   */\n      tag_312\n        /* \"#utility.yul\":16152:16153   */\n      0x00\n        /* \"#utility.yul\":16145:16150   */\n      dup3\n        /* \"#utility.yul\":16115:16154   */\n      tag_152\n      jump\t// in\n    tag_312:\n        /* \"#utility.yul\":16088:16089   */\n      0x01\n        /* \"#utility.yul\":16081:16086   */\n      dup2\n        /* \"#utility.yul\":16077:16090   */\n      add\n        /* \"#utility.yul\":16068:16090   */\n      swap1\n      pop\n        /* \"#utility.yul\":16044:16164   */\n      jump(tag_309)\n    tag_311:\n        /* \"#utility.yul\":15984:16170   */\n      pop\n      pop\n      jump\t// out\n        /* \"#utility.yul\":16176:16719   */\n    tag_154:\n        /* \"#utility.yul\":16277:16279   */\n      0x1f\n        /* \"#utility.yul\":16272:16275   */\n      dup3\n        /* \"#utility.yul\":16269:16280   */\n      gt\n        /* \"#utility.yul\":16266:16712   */\n      iszero\n      tag_314\n      jumpi\n        /* \"#utility.yul\":16311:16349   */\n      tag_315\n        /* \"#utility.yul\":16343:16348   */\n      dup2\n        /* \"#utility.yul\":16311:16349   */\n      tag_143\n      jump\t// in\n    tag_315:\n        /* \"#utility.yul\":16395:16424   */\n      tag_316\n        /* \"#utility.yul\":16413:16423   */\n      dup5\n        /* \"#utility.yul\":16395:16424   */\n      tag_144\n      jump\t// in\n    tag_316:\n        /* \"#utility.yul\":16385:16393   */\n      dup2\n        /* \"#utility.yul\":16381:16425   */\n      add\n        /* \"#utility.yul\":16578:16580   */\n      0x20\n        /* \"#utility.yul\":16566:16576   */\n      dup6\n        /* \"#utility.yul\":16563:16581   */\n      lt\n        /* \"#utility.yul\":16560:16609   */\n      iszero\n      tag_317\n      jumpi\n        /* \"#utility.yul\":16599:16607   */\n      dup2\n        /* \"#utility.yul\":16584:16607   */\n      swap1\n      pop\n        /* \"#utility.yul\":16560:16609   */\n    tag_317:\n        /* \"#utility.yul\":16622:16702   */\n      tag_318\n        /* \"#utility.yul\":16678:16700   */\n      tag_319\n        /* \"#utility.yul\":16696:16699   */\n      dup6\n        /* \"#utility.yul\":16678:16700   */\n      tag_144\n      jump\t// in\n    tag_319:\n        /* \"#utility.yul\":16668:16676   */\n      dup4\n        /* \"#utility.yul\":16664:16701   */\n      add\n        /* \"#utility.yul\":16651:16662   */\n      dup3\n        /* \"#utility.yul\":16622:16702   */\n      tag_153\n      jump\t// in\n    tag_318:\n        /* \"#utility.yul\":16281:16712   */\n      pop\n      pop\n        /* \"#utility.yul\":16266:16712   */\n    tag_314:\n        /* \"#utility.yul\":16176:16719   */\n      pop\n      pop\n      pop\n      jump\t// out\n        /* \"#utility.yul\":16725:16842   */\n    tag_155:\n        /* \"#utility.yul\":16779:16787   */\n      0x00\n        /* \"#utility.yul\":16829:16834   */\n      dup3\n        /* \"#utility.yul\":16823:16827   */\n      dup3\n        /* \"#utility.yul\":16819:16835   */\n      shr\n        /* \"#utility.yul\":16798:16835   */\n      swap1\n      pop\n        /* \"#utility.yul\":16725:16842   */\n      swap3\n      swap2\n      pop\n      pop\n      jump\t// out\n        /* \"#utility.yul\":16848:17017   */\n    tag_156:\n        /* \"#utility.yul\":16892:16898   */\n      0x00\n        /* \"#utility.yul\":16925:16976   */\n      tag_322\n        /* \"#utility.yul\":16973:16974   */\n      0x00\n        /* \"#utility.yul\":16969:16975   */\n      not\n        /* \"#utility.yul\":16961:16966   */\n      dup5\n        /* \"#utility.yul\":16958:16959   */\n      0x08\n        /* \"#utility.yul\":16954:16967   */\n      mul\n        /* \"#utility.yul\":16925:16976   */\n      tag_155\n      jump\t// in\n    tag_322:\n        /* \"#utility.yul\":16921:16977   */\n      not\n        /* \"#utility.yul\":17006:17010   */\n      dup1\n        /* \"#utility.yul\":17000:17004   */\n      dup4\n        /* \"#utility.yul\":16996:17011   */\n      and\n        /* \"#utility.yul\":16986:17011   */\n      swap2\n      pop\n        /* \"#utility.yul\":16899:17017   */\n      pop\n        /* \"#utility.yul\":16848:17017   */\n      swap3\n      swap2\n      pop\n      pop\n      jump\t// out\n        /* \"#utility.yul\":17022:17317   */\n    tag_157:\n        /* \"#utility.yul\":17098:17102   */\n      0x00\n        /* \"#utility.yul\":17244:17273   */\n      tag_324\n        /* \"#utility.yul\":17269:17272   */\n      dup4\n        /* \"#utility.yul\":17263:17267   */\n      dup4\n        /* \"#utility.yul\":17244:17273   */\n      tag_156\n      jump\t// in\n    tag_324:\n        /* \"#utility.yul\":17236:17273   */\n      swap2\n      pop\n        /* \"#utility.yul\":17306:17309   */\n      dup3\n        /* \"#utility.yul\":17303:17304   */\n      0x02\n        /* \"#utility.yul\":17299:17310   */\n      mul\n        /* \"#utility.yul\":17293:17297   */\n      dup3\n        /* \"#utility.yul\":17290:17311   */\n      or\n        /* \"#utility.yul\":17282:17311   */\n      swap1\n      pop\n        /* \"#utility.yul\":17022:17317   */\n      swap3\n      swap2\n      pop\n      pop\n      jump\t// out\n        /* \"#utility.yul\":17322:18717   */\n    tag_100:\n        /* \"#utility.yul\":17439:17476   */\n      tag_326\n        /* \"#utility.yul\":17472:17475   */\n      dup3\n        /* \"#utility.yul\":17439:17476   */\n      tag_114\n      jump\t// in\n    tag_326:\n        /* \"#utility.yul\":17541:17559   */\n      0xffffffffffffffff\n        /* \"#utility.yul\":17533:17539   */\n      dup2\n        /* \"#utility.yul\":17530:17560   */\n      gt\n        /* \"#utility.yul\":17527:17583   */\n      iszero\n      tag_327\n      jumpi\n        /* \"#utility.yul\":17563:17581   */\n      tag_328\n      tag_133\n      jump\t// in\n    tag_328:\n        /* \"#utility.yul\":17527:17583   */\n    tag_327:\n        /* \"#utility.yul\":17607:17645   */\n      tag_329\n        /* \"#utility.yul\":17639:17643   */\n      dup3\n        /* \"#utility.yul\":17633:17644   */\n      sload\n        /* \"#utility.yul\":17607:17645   */\n      tag_35\n      jump\t// in\n    tag_329:\n        /* \"#utility.yul\":17692:17759   */\n      tag_330\n        /* \"#utility.yul\":17752:17758   */\n      dup3\n        /* \"#utility.yul\":17744:17750   */\n      dup3\n        /* \"#utility.yul\":17738:17742   */\n      dup6\n        /* \"#utility.yul\":17692:17759   */\n      tag_154\n      jump\t// in\n    tag_330:\n        /* \"#utility.yul\":17786:17787   */\n      0x00\n        /* \"#utility.yul\":17810:17814   */\n      0x20\n        /* \"#utility.yul\":17797:17814   */\n      swap1\n      pop\n        /* \"#utility.yul\":17842:17844   */\n      0x1f\n        /* \"#utility.yul\":17834:17840   */\n      dup4\n        /* \"#utility.yul\":17831:17845   */\n      gt\n        /* \"#utility.yul\":17859:17860   */\n      0x01\n        /* \"#utility.yul\":17854:18472   */\n      dup2\n      eq\n      tag_332\n      jumpi\n        /* \"#utility.yul\":18516:18517   */\n      0x00\n        /* \"#utility.yul\":18533:18539   */\n      dup5\n        /* \"#utility.yul\":18530:18607   */\n      iszero\n      tag_333\n      jumpi\n        /* \"#utility.yul\":18582:18591   */\n      dup3\n        /* \"#utility.yul\":18577:18580   */\n      dup8\n        /* \"#utility.yul\":18573:18592   */\n      add\n        /* \"#utility.yul\":18567:18593   */\n      mload\n        /* \"#utility.yul\":18558:18593   */\n      swap1\n      pop\n        /* \"#utility.yul\":18530:18607   */\n    tag_333:\n        /* \"#utility.yul\":18633:18700   */\n      tag_334\n        /* \"#utility.yul\":18693:18699   */\n      dup6\n        /* \"#utility.yul\":18686:18691   */\n      dup3\n        /* \"#utility.yul\":18633:18700   */\n      tag_157\n      jump\t// in\n    tag_334:\n        /* \"#utility.yul\":18627:18631   */\n      dup7\n        /* \"#utility.yul\":18620:18701   */\n      sstore\n        /* \"#utility.yul\":18489:18711   */\n      pop\n        /* \"#utility.yul\":17824:18711   */\n      jump(tag_331)\n        /* \"#utility.yul\":17854:18472   */\n    tag_332:\n        /* \"#utility.yul\":17906:17910   */\n      0x1f\n        /* \"#utility.yul\":17902:17911   */\n      not\n        /* \"#utility.yul\":17894:17900   */\n      dup5\n        /* \"#utility.yul\":17890:17912   */\n      and\n        /* \"#utility.yul\":17940:17977   */\n      tag_335\n        /* \"#utility.yul\":17972:17976   */\n      dup7\n        /* \"#utility.yul\":17940:17977   */\n      tag_143\n      jump\t// in\n    tag_335:\n        /* \"#utility.yul\":17999:18000   */\n      0x00\n        /* \"#utility.yul\":18013:18221   */\n    tag_336:\n        /* \"#utility.yul\":18027:18034   */\n      dup3\n        /* \"#utility.yul\":18024:18025   */\n      dup2\n        /* \"#utility.yul\":18021:18035   */\n      lt\n        /* \"#utility.yul\":18013:18221   */\n      iszero\n      tag_338\n      jumpi\n        /* \"#utility.yul\":18106:18115   */\n      dup5\n        /* \"#utility.yul\":18101:18104   */\n      dup10\n        /* \"#utility.yul\":18097:18116   */\n      add\n        /* \"#utility.yul\":18091:18117   */\n      mload\n        /* \"#utility.yul\":18083:18089   */\n      dup3\n        /* \"#utility.yul\":18076:18118   */\n      sstore\n        /* \"#utility.yul\":18157:18158   */\n      0x01\n        /* \"#utility.yul\":18149:18155   */\n      dup3\n        /* \"#utility.yul\":18145:18159   */\n      add\n        /* \"#utility.yul\":18135:18159   */\n      swap2\n      pop\n        /* \"#utility.yul\":18204:18206   */\n      0x20\n        /* \"#utility.yul\":18193:18202   */\n      dup6\n        /* \"#utility.yul\":18189:18207   */\n      add\n        /* \"#utility.yul\":18176:18207   */\n      swap5\n      pop\n        /* \"#utility.yul\":18050:18054   */\n      0x20\n        /* \"#utility.yul\":18047:18048   */\n      dup2\n        /* \"#utility.yul\":18043:18055   */\n      add\n        /* \"#utility.yul\":18038:18055   */\n      swap1\n      pop\n        /* \"#utility.yul\":18013:18221   */\n      jump(tag_336)\n    tag_338:\n        /* \"#utility.yul\":18249:18255   */\n      dup7\n        /* \"#utility.yul\":18240:18247   */\n      dup4\n        /* \"#utility.yul\":18237:18256   */\n      lt\n        /* \"#utility.yul\":18234:18413   */\n      iszero\n      tag_339\n      jumpi\n        /* \"#utility.yul\":18307:18316   */\n      dup5\n        /* \"#utility.yul\":18302:18305   */\n      dup10\n        /* \"#utility.yul\":18298:18317   */\n      add\n        /* \"#utility.yul\":18292:18318   */\n      mload\n        /* \"#utility.yul\":18350:18398   */\n      tag_340\n        /* \"#utility.yul\":18392:18396   */\n      0x1f\n        /* \"#utility.yul\":18384:18390   */\n      dup10\n        /* \"#utility.yul\":18380:18397   */\n      and\n        /* \"#utility.yul\":18369:18378   */\n      dup3\n        /* \"#utility.yul\":18350:18398   */\n      tag_156\n      jump\t// in\n    tag_340:\n        /* \"#utility.yul\":18342:18348   */\n      dup4\n        /* \"#utility.yul\":18335:18399   */\n      sstore\n        /* \"#utility.yul\":18257:18413   */\n      pop\n        /* \"#utility.yul\":18234:18413   */\n    tag_339:\n        /* \"#utility.yul\":18459:18460   */\n      0x01\n        /* \"#utility.yul\":18455:18456   */\n      0x02\n        /* \"#utility.yul\":18447:18453   */\n      dup9\n        /* \"#utility.yul\":18443:18457   */\n      mul\n        /* \"#utility.yul\":18439:18461   */\n      add\n        /* \"#utility.yul\":18433:18437   */\n      dup9\n        /* \"#utility.yul\":18426:18462   */\n      sstore\n        /* \"#utility.yul\":17861:18472   */\n      pop\n      pop\n      pop\n        /* \"#utility.yul\":17824:18711   */\n    tag_331:\n      pop\n        /* \"#utility.yul\":17414:18717   */\n      pop\n      pop\n      pop\n        /* \"#utility.yul\":17322:18717   */\n      pop\n      pop\n      jump\t// out\n\n    auxdata: 0xa2646970667358221220000d63898e5ed84ebac000062940ec471d7b53c0fa0dbbd33637189fe3c04a6664736f6c634300081a0033\n}\n",
				"bytecode": {
					"linkReferences": {},
					"object": "6080604052600a5f553480156012575f80fd5b50611360806100205f395ff3fe608060405234801561000f575f80fd5b5060043610610055575f3560e01c80634e70b1dc1461005957806362738998146100775780638eb20b0b14610095578063cb22f5fd146100b3578063ec875b6f146100e9575b5f80fd5b610061610105565b60405161006e9190610a13565b60405180910390f35b61007f61010a565b60405161008c9190610a13565b60405180910390f35b61009d610112565b6040516100aa9190610c52565b60405180910390f35b6100cd60048036038101906100c89190610cad565b610522565b6040516100e09796959493929190610d2f565b60405180910390f35b61010360048036038101906100fe9190610f1c565b6108b2565b005b5f5481565b5f8054905090565b60606001805480602002602001604051908101604052809291908181526020015f905b82821015610519578382905f5260205f2090600702016040518060e00160405290815f82015f9054906101000a900473ffffffffffffffffffffffffffffffffffffffff1673ffffffffffffffffffffffffffffffffffffffff1673ffffffffffffffffffffffffffffffffffffffff1681526020016001820180546101ba9061108e565b80601f01602080910402602001604051908101604052809291908181526020018280546101e69061108e565b80156102315780601f1061020857610100808354040283529160200191610231565b820191905f5260205f20905b81548152906001019060200180831161021457829003601f168201915b5050505050815260200160028201805461024a9061108e565b80601f01602080910402602001604051908101604052809291908181526020018280546102769061108e565b80156102c15780601f10610298576101008083540402835291602001916102c1565b820191905f5260205f20905b8154815290600101906020018083116102a457829003601f168201915b505050505081526020016003820180546102da9061108e565b80601f01602080910402602001604051908101604052809291908181526020018280546103069061108e565b80156103515780601f1061032857610100808354040283529160200191610351565b820191905f5260205f20905b81548152906001019060200180831161033457829003601f168201915b5050505050815260200160048201805461036a9061108e565b80601f01602080910402602001604051908101604052809291908181526020018280546103969061108e565b80156103e15780601f106103b8576101008083540402835291602001916103e1565b820191905f5260205f20905b8154815290600101906020018083116103c457829003601f168201915b505050505081526020016005820180546103fa9061108e565b80601f01602080910402602001604051908101604052809291908181526020018280546104269061108e565b80156104715780601f1061044857610100808354040283529160200191610471565b820191905f5260205f20905b81548152906001019060200180831161045457829003601f168201915b5050505050815260200160068201805461048a9061108e565b80601f01602080910402602001604051908101604052809291908181526020018280546104b69061108e565b80156105015780601f106104d857610100808354040283529160200191610501565b820191905f5260205f20905b8154815290600101906020018083116104e457829003601f168201915b50505050508152505081526020019060010190610135565b50505050905090565b60018181548110610531575f80fd5b905f5260205f2090600702015f91509050805f015f9054906101000a900473ffffffffffffffffffffffffffffffffffffffff16908060010180546105759061108e565b80601f01602080910402602001604051908101604052809291908181526020018280546105a19061108e565b80156105ec5780601f106105c3576101008083540402835291602001916105ec565b820191905f5260205f20905b8154815290600101906020018083116105cf57829003601f168201915b5050505050908060020180546106019061108e565b80601f016020809104026020016040519081016040528092919081815260200182805461062d9061108e565b80156106785780601f1061064f57610100808354040283529160200191610678565b820191905f5260205f20905b81548152906001019060200180831161065b57829003601f168201915b50505050509080600301805461068d9061108e565b80601f01602080910402602001604051908101604052809291908181526020018280546106b99061108e565b80156107045780601f106106db57610100808354040283529160200191610704565b820191905f5260205f20905b8154815290600101906020018083116106e757829003601f168201915b5050505050908060040180546107199061108e565b80601f01602080910402602001604051908101604052809291908181526020018280546107459061108e565b80156107905780601f1061076757610100808354040283529160200191610790565b820191905f5260205f20905b81548152906001019060200180831161077357829003601f168201915b5050505050908060050180546107a59061108e565b80601f01602080910402602001604051908101604052809291908181526020018280546107d19061108e565b801561081c5780601f106107f35761010080835404028352916020019161081c565b820191905f5260205f20905b8154815290600101906020018083116107ff57829003601f168201915b5050505050908060060180546108319061108e565b80601f016020809104026020016040519081016040528092919081815260200182805461085d9061108e565b80156108a85780601f1061087f576101008083540402835291602001916108a8565b820191905f5260205f20905b81548152906001019060200180831161088b57829003601f168201915b5050505050905087565b5f6040518060e001604052808473ffffffffffffffffffffffffffffffffffffffff168152602001898152602001838152602001888152602001878152602001868152602001858152509050600181908060018154018082558091505060019003905f5260205f2090600702015f909190919091505f820151815f015f6101000a81548173ffffffffffffffffffffffffffffffffffffffff021916908373ffffffffffffffffffffffffffffffffffffffff1602179055506020820151816001019081610980919061125b565b506040820151816002019081610996919061125b565b5060608201518160030190816109ac919061125b565b5060808201518160040190816109c2919061125b565b5060a08201518160050190816109d8919061125b565b5060c08201518160060190816109ee919061125b565b5050505050505050505050565b5f819050919050565b610a0d816109fb565b82525050565b5f602082019050610a265f830184610a04565b92915050565b5f81519050919050565b5f82825260208201905092915050565b5f819050602082019050919050565b5f73ffffffffffffffffffffffffffffffffffffffff82169050919050565b5f610a7e82610a55565b9050919050565b610a8e81610a74565b82525050565b5f81519050919050565b5f82825260208201905092915050565b8281835e5f83830152505050565b5f601f19601f8301169050919050565b5f610ad682610a94565b610ae08185610a9e565b9350610af0818560208601610aae565b610af981610abc565b840191505092915050565b5f60e083015f830151610b195f860182610a85565b5060208301518482036020860152610b318282610acc565b91505060408301518482036040860152610b4b8282610acc565b91505060608301518482036060860152610b658282610acc565b91505060808301518482036080860152610b7f8282610acc565b91505060a083015184820360a0860152610b998282610acc565b91505060c083015184820360c0860152610bb38282610acc565b9150508091505092915050565b5f610bcb8383610b04565b905092915050565b5f602082019050919050565b5f610be982610a2c565b610bf38185610a36565b935083602082028501610c0585610a46565b805f5b85811015610c405784840389528151610c218582610bc0565b9450610c2c83610bd3565b925060208a01995050600181019050610c08565b50829750879550505050505092915050565b5f6020820190508181035f830152610c6a8184610bdf565b905092915050565b5f604051905090565b5f80fd5b5f80fd5b610c8c816109fb565b8114610c96575f80fd5b50565b5f81359050610ca781610c83565b92915050565b5f60208284031215610cc257610cc1610c7b565b5b5f610ccf84828501610c99565b91505092915050565b610ce181610a74565b82525050565b5f82825260208201905092915050565b5f610d0182610a94565b610d0b8185610ce7565b9350610d1b818560208601610aae565b610d2481610abc565b840191505092915050565b5f60e082019050610d425f83018a610cd8565b8181036020830152610d548189610cf7565b90508181036040830152610d688188610cf7565b90508181036060830152610d7c8187610cf7565b90508181036080830152610d908186610cf7565b905081810360a0830152610da48185610cf7565b905081810360c0830152610db88184610cf7565b905098975050505050505050565b5f80fd5b5f80fd5b7f4e487b71000000000000000000000000000000000000000000000000000000005f52604160045260245ffd5b610e0482610abc565b810181811067ffffffffffffffff82111715610e2357610e22610dce565b5b80604052505050565b5f610e35610c72565b9050610e418282610dfb565b919050565b5f67ffffffffffffffff821115610e6057610e5f610dce565b5b610e6982610abc565b9050602081019050919050565b828183375f83830152505050565b5f610e96610e9184610e46565b610e2c565b905082815260208101848484011115610eb257610eb1610dca565b5b610ebd848285610e76565b509392505050565b5f82601f830112610ed957610ed8610dc6565b5b8135610ee9848260208601610e84565b91505092915050565b610efb81610a74565b8114610f05575f80fd5b50565b5f81359050610f1681610ef2565b92915050565b5f805f805f805f60e0888a031215610f3757610f36610c7b565b5b5f88013567ffffffffffffffff811115610f5457610f53610c7f565b5b610f608a828b01610ec5565b975050602088013567ffffffffffffffff811115610f8157610f80610c7f565b5b610f8d8a828b01610ec5565b965050604088013567ffffffffffffffff811115610fae57610fad610c7f565b5b610fba8a828b01610ec5565b955050606088013567ffffffffffffffff811115610fdb57610fda610c7f565b5b610fe78a828b01610ec5565b945050608088013567ffffffffffffffff81111561100857611007610c7f565b5b6110148a828b01610ec5565b93505060a06110258a828b01610f08565b92505060c088013567ffffffffffffffff81111561104657611045610c7f565b5b6110528a828b01610ec5565b91505092959891949750929550565b7f4e487b71000000000000000000000000000000000000000000000000000000005f52602260045260245ffd5b5f60028204905060018216806110a557607f821691505b6020821081036110b8576110b7611061565b5b50919050565b5f819050815f5260205f209050919050565b5f6020601f8301049050919050565b5f82821b905092915050565b5f6008830261111a7fffffffffffffffffffffffffffffffffffffffffffffffffffffffffffffffff826110df565b61112486836110df565b95508019841693508086168417925050509392505050565b5f819050919050565b5f61115f61115a611155846109fb565b61113c565b6109fb565b9050919050565b5f819050919050565b61117883611145565b61118c61118482611166565b8484546110eb565b825550505050565b5f90565b6111a0611194565b6111ab81848461116f565b505050565b5b818110156111ce576111c35f82611198565b6001810190506111b1565b5050565b601f821115611213576111e4816110be565b6111ed846110d0565b810160208510156111fc578190505b611210611208856110d0565b8301826111b0565b50505b505050565b5f82821c905092915050565b5f6112335f1984600802611218565b1980831691505092915050565b5f61124b8383611224565b9150826002028217905092915050565b61126482610a94565b67ffffffffffffffff81111561127d5761127c610dce565b5b611287825461108e565b6112928282856111d2565b5f60209050601f8311600181146112c3575f84156112b1578287015190505b6112bb8582611240565b865550611322565b601f1984166112d1866110be565b5f5b828110156112f8578489015182556001820191506020850194506020810190506112d3565b868310156113155784890151611311601f891682611224565b8355505b6001600288020188555050505b50505050505056fea2646970667358221220000d63898e5ed84ebac000062940ec471d7b53c0fa0dbbd33637189fe3c04a6664736f6c634300081a0033",
					"opcodes": "PUSH1 0x80 PUSH1 0x40 MSTORE PUSH1 0xA PUSH0 SSTORE CALLVALUE DUP1 ISZERO PUSH1 0x12 JUMPI PUSH0 DUP1 REVERT JUMPDEST POP PUSH2 0x1360 DUP1 PUSH2 0x20 PUSH0 CODECOPY PUSH0 RETURN INVALID PUSH1 0x80 PUSH1 0x40 MSTORE CALLVALUE DUP1 ISZERO PUSH2 0xF JUMPI PUSH0 DUP1 REVERT JUMPDEST POP PUSH1 0x4 CALLDATASIZE LT PUSH2 0x55 JUMPI PUSH0 CALLDATALOAD PUSH1 0xE0 SHR DUP1 PUSH4 0x4E70B1DC EQ PUSH2 0x59 JUMPI DUP1 PUSH4 0x62738998 EQ PUSH2 0x77 JUMPI DUP1 PUSH4 0x8EB20B0B EQ PUSH2 0x95 JUMPI DUP1 PUSH4 0xCB22F5FD EQ PUSH2 0xB3 JUMPI DUP1 PUSH4 0xEC875B6F EQ PUSH2 0xE9 JUMPI JUMPDEST PUSH0 DUP1 REVERT JUMPDEST PUSH2 0x61 PUSH2 0x105 JUMP JUMPDEST PUSH1 0x40 MLOAD PUSH2 0x6E SWAP2 SWAP1 PUSH2 0xA13 JUMP JUMPDEST PUSH1 0x40 MLOAD DUP1 SWAP2 SUB SWAP1 RETURN JUMPDEST PUSH2 0x7F PUSH2 0x10A JUMP JUMPDEST PUSH1 0x40 MLOAD PUSH2 0x8C SWAP2 SWAP1 PUSH2 0xA13 JUMP JUMPDEST PUSH1 0x40 MLOAD DUP1 SWAP2 SUB SWAP1 RETURN JUMPDEST PUSH2 0x9D PUSH2 0x112 JUMP JUMPDEST PUSH1 0x40 MLOAD PUSH2 0xAA SWAP2 SWAP1 PUSH2 0xC52 JUMP JUMPDEST PUSH1 0x40 MLOAD DUP1 SWAP2 SUB SWAP1 RETURN JUMPDEST PUSH2 0xCD PUSH1 0x4 DUP1 CALLDATASIZE SUB DUP2 ADD SWAP1 PUSH2 0xC8 SWAP2 SWAP1 PUSH2 0xCAD JUMP JUMPDEST PUSH2 0x522 JUMP JUMPDEST PUSH1 0x40 MLOAD PUSH2 0xE0 SWAP8 SWAP7 SWAP6 SWAP5 SWAP4 SWAP3 SWAP2 SWAP1 PUSH2 0xD2F JUMP JUMPDEST PUSH1 0x40 MLOAD DUP1 SWAP2 SUB SWAP1 RETURN JUMPDEST PUSH2 0x103 PUSH1 0x4 DUP1 CALLDATASIZE SUB DUP2 ADD SWAP1 PUSH2 0xFE SWAP2 SWAP1 PUSH2 0xF1C JUMP JUMPDEST PUSH2 0x8B2 JUMP JUMPDEST STOP JUMPDEST PUSH0 SLOAD DUP2 JUMP JUMPDEST PUSH0 DUP1 SLOAD SWAP1 POP SWAP1 JUMP JUMPDEST PUSH1 0x60 PUSH1 0x1 DUP1 SLOAD DUP1 PUSH1 0x20 MUL PUSH1 0x20 ADD PUSH1 0x40 MLOAD SWAP1 DUP2 ADD PUSH1 0x40 MSTORE DUP1 SWAP3 SWAP2 SWAP1 DUP2 DUP2 MSTORE PUSH1 0x20 ADD PUSH0 SWAP1 JUMPDEST DUP3 DUP3 LT ISZERO PUSH2 0x519 JUMPI DUP4 DUP3 SWAP1 PUSH0 MSTORE PUSH1 0x20 PUSH0 KECCAK256 SWAP1 PUSH1 0x7 MUL ADD PUSH1 0x40 MLOAD DUP1 PUSH1 0xE0 ADD PUSH1 0x40 MSTORE SWAP1 DUP2 PUSH0 DUP3 ADD PUSH0 SWAP1 SLOAD SWAP1 PUSH2 0x100 EXP SWAP1 DIV PUSH20 0xFFFFFFFFFFFFFFFFFFFFFFFFFFFFFFFFFFFFFFFF AND PUSH20 0xFFFFFFFFFFFFFFFFFFFFFFFFFFFFFFFFFFFFFFFF AND PUSH20 0xFFFFFFFFFFFFFFFFFFFFFFFFFFFFFFFFFFFFFFFF AND DUP2 MSTORE PUSH1 0x20 ADD PUSH1 0x1 DUP3 ADD DUP1 SLOAD PUSH2 0x1BA SWAP1 PUSH2 0x108E JUMP JUMPDEST DUP1 PUSH1 0x1F ADD PUSH1 0x20 DUP1 SWAP2 DIV MUL PUSH1 0x20 ADD PUSH1 0x40 MLOAD SWAP1 DUP2 ADD PUSH1 0x40 MSTORE DUP1 SWAP3 SWAP2 SWAP1 DUP2 DUP2 MSTORE PUSH1 0x20 ADD DUP3 DUP1 SLOAD PUSH2 0x1E6 SWAP1 PUSH2 0x108E JUMP JUMPDEST DUP1 ISZERO PUSH2 0x231 JUMPI DUP1 PUSH1 0x1F LT PUSH2 0x208 JUMPI PUSH2 0x100 DUP1 DUP4 SLOAD DIV MUL DUP4 MSTORE SWAP2 PUSH1 0x20 ADD SWAP2 PUSH2 0x231 JUMP JUMPDEST DUP3 ADD SWAP2 SWAP1 PUSH0 MSTORE PUSH1 0x20 PUSH0 KECCAK256 SWAP1 JUMPDEST DUP2 SLOAD DUP2 MSTORE SWAP1 PUSH1 0x1 ADD SWAP1 PUSH1 0x20 ADD DUP1 DUP4 GT PUSH2 0x214 JUMPI DUP3 SWAP1 SUB PUSH1 0x1F AND DUP3 ADD SWAP2 JUMPDEST POP POP POP POP POP DUP2 MSTORE PUSH1 0x20 ADD PUSH1 0x2 DUP3 ADD DUP1 SLOAD PUSH2 0x24A SWAP1 PUSH2 0x108E JUMP JUMPDEST DUP1 PUSH1 0x1F ADD PUSH1 0x20 DUP1 SWAP2 DIV MUL PUSH1 0x20 ADD PUSH1 0x40 MLOAD SWAP1 DUP2 ADD PUSH1 0x40 MSTORE DUP1 SWAP3 SWAP2 SWAP1 DUP2 DUP2 MSTORE PUSH1 0x20 ADD DUP3 DUP1 SLOAD PUSH2 0x276 SWAP1 PUSH2 0x108E JUMP JUMPDEST DUP1 ISZERO PUSH2 0x2C1 JUMPI DUP1 PUSH1 0x1F LT PUSH2 0x298 JUMPI PUSH2 0x100 DUP1 DUP4 SLOAD DIV MUL DUP4 MSTORE SWAP2 PUSH1 0x20 ADD SWAP2 PUSH2 0x2C1 JUMP JUMPDEST DUP3 ADD SWAP2 SWAP1 PUSH0 MSTORE PUSH1 0x20 PUSH0 KECCAK256 SWAP1 JUMPDEST DUP2 SLOAD DUP2 MSTORE SWAP1 PUSH1 0x1 ADD SWAP1 PUSH1 0x20 ADD DUP1 DUP4 GT PUSH2 0x2A4 JUMPI DUP3 SWAP1 SUB PUSH1 0x1F AND DUP3 ADD SWAP2 JUMPDEST POP POP POP POP POP DUP2 MSTORE PUSH1 0x20 ADD PUSH1 0x3 DUP3 ADD DUP1 SLOAD PUSH2 0x2DA SWAP1 PUSH2 0x108E JUMP JUMPDEST DUP1 PUSH1 0x1F ADD PUSH1 0x20 DUP1 SWAP2 DIV MUL PUSH1 0x20 ADD PUSH1 0x40 MLOAD SWAP1 DUP2 ADD PUSH1 0x40 MSTORE DUP1 SWAP3 SWAP2 SWAP1 DUP2 DUP2 MSTORE PUSH1 0x20 ADD DUP3 DUP1 SLOAD PUSH2 0x306 SWAP1 PUSH2 0x108E JUMP JUMPDEST DUP1 ISZERO PUSH2 0x351 JUMPI DUP1 PUSH1 0x1F LT PUSH2 0x328 JUMPI PUSH2 0x100 DUP1 DUP4 SLOAD DIV MUL DUP4 MSTORE SWAP2 PUSH1 0x20 ADD SWAP2 PUSH2 0x351 JUMP JUMPDEST DUP3 ADD SWAP2 SWAP1 PUSH0 MSTORE PUSH1 0x20 PUSH0 KECCAK256 SWAP1 JUMPDEST DUP2 SLOAD DUP2 MSTORE SWAP1 PUSH1 0x1 ADD SWAP1 PUSH1 0x20 ADD DUP1 DUP4 GT PUSH2 0x334 JUMPI DUP3 SWAP1 SUB PUSH1 0x1F AND DUP3 ADD SWAP2 JUMPDEST POP POP POP POP POP DUP2 MSTORE PUSH1 0x20 ADD PUSH1 0x4 DUP3 ADD DUP1 SLOAD PUSH2 0x36A SWAP1 PUSH2 0x108E JUMP JUMPDEST DUP1 PUSH1 0x1F ADD PUSH1 0x20 DUP1 SWAP2 DIV MUL PUSH1 0x20 ADD PUSH1 0x40 MLOAD SWAP1 DUP2 ADD PUSH1 0x40 MSTORE DUP1 SWAP3 SWAP2 SWAP1 DUP2 DUP2 MSTORE PUSH1 0x20 ADD DUP3 DUP1 SLOAD PUSH2 0x396 SWAP1 PUSH2 0x108E JUMP JUMPDEST DUP1 ISZERO PUSH2 0x3E1 JUMPI DUP1 PUSH1 0x1F LT PUSH2 0x3B8 JUMPI PUSH2 0x100 DUP1 DUP4 SLOAD DIV MUL DUP4 MSTORE SWAP2 PUSH1 0x20 ADD SWAP2 PUSH2 0x3E1 JUMP JUMPDEST DUP3 ADD SWAP2 SWAP1 PUSH0 MSTORE PUSH1 0x20 PUSH0 KECCAK256 SWAP1 JUMPDEST DUP2 SLOAD DUP2 MSTORE SWAP1 PUSH1 0x1 ADD SWAP1 PUSH1 0x20 ADD DUP1 DUP4 GT PUSH2 0x3C4 JUMPI DUP3 SWAP1 SUB PUSH1 0x1F AND DUP3 ADD SWAP2 JUMPDEST POP POP POP POP POP DUP2 MSTORE PUSH1 0x20 ADD PUSH1 0x5 DUP3 ADD DUP1 SLOAD PUSH2 0x3FA SWAP1 PUSH2 0x108E JUMP JUMPDEST DUP1 PUSH1 0x1F ADD PUSH1 0x20 DUP1 SWAP2 DIV MUL PUSH1 0x20 ADD PUSH1 0x40 MLOAD SWAP1 DUP2 ADD PUSH1 0x40 MSTORE DUP1 SWAP3 SWAP2 SWAP1 DUP2 DUP2 MSTORE PUSH1 0x20 ADD DUP3 DUP1 SLOAD PUSH2 0x426 SWAP1 PUSH2 0x108E JUMP JUMPDEST DUP1 ISZERO PUSH2 0x471 JUMPI DUP1 PUSH1 0x1F LT PUSH2 0x448 JUMPI PUSH2 0x100 DUP1 DUP4 SLOAD DIV MUL DUP4 MSTORE SWAP2 PUSH1 0x20 ADD SWAP2 PUSH2 0x471 JUMP JUMPDEST DUP3 ADD SWAP2 SWAP1 PUSH0 MSTORE PUSH1 0x20 PUSH0 KECCAK256 SWAP1 JUMPDEST DUP2 SLOAD DUP2 MSTORE SWAP1 PUSH1 0x1 ADD SWAP1 PUSH1 0x20 ADD DUP1 DUP4 GT PUSH2 0x454 JUMPI DUP3 SWAP1 SUB PUSH1 0x1F AND DUP3 ADD SWAP2 JUMPDEST POP POP POP POP POP DUP2 MSTORE PUSH1 0x20 ADD PUSH1 0x6 DUP3 ADD DUP1 SLOAD PUSH2 0x48A SWAP1 PUSH2 0x108E JUMP JUMPDEST DUP1 PUSH1 0x1F ADD PUSH1 0x20 DUP1 SWAP2 DIV MUL PUSH1 0x20 ADD PUSH1 0x40 MLOAD SWAP1 DUP2 ADD PUSH1 0x40 MSTORE DUP1 SWAP3 SWAP2 SWAP1 DUP2 DUP2 MSTORE PUSH1 0x20 ADD DUP3 DUP1 SLOAD PUSH2 0x4B6 SWAP1 PUSH2 0x108E JUMP JUMPDEST DUP1 ISZERO PUSH2 0x501 JUMPI DUP1 PUSH1 0x1F LT PUSH2 0x4D8 JUMPI PUSH2 0x100 DUP1 DUP4 SLOAD DIV MUL DUP4 MSTORE SWAP2 PUSH1 0x20 ADD SWAP2 PUSH2 0x501 JUMP JUMPDEST DUP3 ADD SWAP2 SWAP1 PUSH0 MSTORE PUSH1 0x20 PUSH0 KECCAK256 SWAP1 JUMPDEST DUP2 SLOAD DUP2 MSTORE SWAP1 PUSH1 0x1 ADD SWAP1 PUSH1 0x20 ADD DUP1 DUP4 GT PUSH2 0x4E4 JUMPI DUP3 SWAP1 SUB PUSH1 0x1F AND DUP3 ADD SWAP2 JUMPDEST POP POP POP POP POP DUP2 MSTORE POP POP DUP2 MSTORE PUSH1 0x20 ADD SWAP1 PUSH1 0x1 ADD SWAP1 PUSH2 0x135 JUMP JUMPDEST POP POP POP POP SWAP1 POP SWAP1 JUMP JUMPDEST PUSH1 0x1 DUP2 DUP2 SLOAD DUP2 LT PUSH2 0x531 JUMPI PUSH0 DUP1 REVERT JUMPDEST SWAP1 PUSH0 MSTORE PUSH1 0x20 PUSH0 KECCAK256 SWAP1 PUSH1 0x7 MUL ADD PUSH0 SWAP2 POP SWAP1 POP DUP1 PUSH0 ADD PUSH0 SWAP1 SLOAD SWAP1 PUSH2 0x100 EXP SWAP1 DIV PUSH20 0xFFFFFFFFFFFFFFFFFFFFFFFFFFFFFFFFFFFFFFFF AND SWAP1 DUP1 PUSH1 0x1 ADD DUP1 SLOAD PUSH2 0x575 SWAP1 PUSH2 0x108E JUMP JUMPDEST DUP1 PUSH1 0x1F ADD PUSH1 0x20 DUP1 SWAP2 DIV MUL PUSH1 0x20 ADD PUSH1 0x40 MLOAD SWAP1 DUP2 ADD PUSH1 0x40 MSTORE DUP1 SWAP3 SWAP2 SWAP1 DUP2 DUP2 MSTORE PUSH1 0x20 ADD DUP3 DUP1 SLOAD PUSH2 0x5A1 SWAP1 PUSH2 0x108E JUMP JUMPDEST DUP1 ISZERO PUSH2 0x5EC JUMPI DUP1 PUSH1 0x1F LT PUSH2 0x5C3 JUMPI PUSH2 0x100 DUP1 DUP4 SLOAD DIV MUL DUP4 MSTORE SWAP2 PUSH1 0x20 ADD SWAP2 PUSH2 0x5EC JUMP JUMPDEST DUP3 ADD SWAP2 SWAP1 PUSH0 MSTORE PUSH1 0x20 PUSH0 KECCAK256 SWAP1 JUMPDEST DUP2 SLOAD DUP2 MSTORE SWAP1 PUSH1 0x1 ADD SWAP1 PUSH1 0x20 ADD DUP1 DUP4 GT PUSH2 0x5CF JUMPI DUP3 SWAP1 SUB PUSH1 0x1F AND DUP3 ADD SWAP2 JUMPDEST POP POP POP POP POP SWAP1 DUP1 PUSH1 0x2 ADD DUP1 SLOAD PUSH2 0x601 SWAP1 PUSH2 0x108E JUMP JUMPDEST DUP1 PUSH1 0x1F ADD PUSH1 0x20 DUP1 SWAP2 DIV MUL PUSH1 0x20 ADD PUSH1 0x40 MLOAD SWAP1 DUP2 ADD PUSH1 0x40 MSTORE DUP1 SWAP3 SWAP2 SWAP1 DUP2 DUP2 MSTORE PUSH1 0x20 ADD DUP3 DUP1 SLOAD PUSH2 0x62D SWAP1 PUSH2 0x108E JUMP JUMPDEST DUP1 ISZERO PUSH2 0x678 JUMPI DUP1 PUSH1 0x1F LT PUSH2 0x64F JUMPI PUSH2 0x100 DUP1 DUP4 SLOAD DIV MUL DUP4 MSTORE SWAP2 PUSH1 0x20 ADD SWAP2 PUSH2 0x678 JUMP JUMPDEST DUP3 ADD SWAP2 SWAP1 PUSH0 MSTORE PUSH1 0x20 PUSH0 KECCAK256 SWAP1 JUMPDEST DUP2 SLOAD DUP2 MSTORE SWAP1 PUSH1 0x1 ADD SWAP1 PUSH1 0x20 ADD DUP1 DUP4 GT PUSH2 0x65B JUMPI DUP3 SWAP1 SUB PUSH1 0x1F AND DUP3 ADD SWAP2 JUMPDEST POP POP POP POP POP SWAP1 DUP1 PUSH1 0x3 ADD DUP1 SLOAD PUSH2 0x68D SWAP1 PUSH2 0x108E JUMP JUMPDEST DUP1 PUSH1 0x1F ADD PUSH1 0x20 DUP1 SWAP2 DIV MUL PUSH1 0x20 ADD PUSH1 0x40 MLOAD SWAP1 DUP2 ADD PUSH1 0x40 MSTORE DUP1 SWAP3 SWAP2 SWAP1 DUP2 DUP2 MSTORE PUSH1 0x20 ADD DUP3 DUP1 SLOAD PUSH2 0x6B9 SWAP1 PUSH2 0x108E JUMP JUMPDEST DUP1 ISZERO PUSH2 0x704 JUMPI DUP1 PUSH1 0x1F LT PUSH2 0x6DB JUMPI PUSH2 0x100 DUP1 DUP4 SLOAD DIV MUL DUP4 MSTORE SWAP2 PUSH1 0x20 ADD SWAP2 PUSH2 0x704 JUMP JUMPDEST DUP3 ADD SWAP2 SWAP1 PUSH0 MSTORE PUSH1 0x20 PUSH0 KECCAK256 SWAP1 JUMPDEST DUP2 SLOAD DUP2 MSTORE SWAP1 PUSH1 0x1 ADD SWAP1 PUSH1 0x20 ADD DUP1 DUP4 GT PUSH2 0x6E7 JUMPI DUP3 SWAP1 SUB PUSH1 0x1F AND DUP3 ADD SWAP2 JUMPDEST POP POP POP POP POP SWAP1 DUP1 PUSH1 0x4 ADD DUP1 SLOAD PUSH2 0x719 SWAP1 PUSH2 0x108E JUMP JUMPDEST DUP1 PUSH1 0x1F ADD PUSH1 0x20 DUP1 SWAP2 DIV MUL PUSH1 0x20 ADD PUSH1 0x40 MLOAD SWAP1 DUP2 ADD PUSH1 0x40 MSTORE DUP1 SWAP3 SWAP2 SWAP1 DUP2 DUP2 MSTORE PUSH1 0x20 ADD DUP3 DUP1 SLOAD PUSH2 0x745 SWAP1 PUSH2 0x108E JUMP JUMPDEST DUP1 ISZERO PUSH2 0x790 JUMPI DUP1 PUSH1 0x1F LT PUSH2 0x767 JUMPI PUSH2 0x100 DUP1 DUP4 SLOAD DIV MUL DUP4 MSTORE SWAP2 PUSH1 0x20 ADD SWAP2 PUSH2 0x790 JUMP JUMPDEST DUP3 ADD SWAP2 SWAP1 PUSH0 MSTORE PUSH1 0x20 PUSH0 KECCAK256 SWAP1 JUMPDEST DUP2 SLOAD DUP2 MSTORE SWAP1 PUSH1 0x1 ADD SWAP1 PUSH1 0x20 ADD DUP1 DUP4 GT PUSH2 0x773 JUMPI DUP3 SWAP1 SUB PUSH1 0x1F AND DUP3 ADD SWAP2 JUMPDEST POP POP POP POP POP SWAP1 DUP1 PUSH1 0x5 ADD DUP1 SLOAD PUSH2 0x7A5 SWAP1 PUSH2 0x108E JUMP JUMPDEST DUP1 PUSH1 0x1F ADD PUSH1 0x20 DUP1 SWAP2 DIV MUL PUSH1 0x20 ADD PUSH1 0x40 MLOAD SWAP1 DUP2 ADD PUSH1 0x40 MSTORE DUP1 SWAP3 SWAP2 SWAP1 DUP2 DUP2 MSTORE PUSH1 0x20 ADD DUP3 DUP1 SLOAD PUSH2 0x7D1 SWAP1 PUSH2 0x108E JUMP JUMPDEST DUP1 ISZERO PUSH2 0x81C JUMPI DUP1 PUSH1 0x1F LT PUSH2 0x7F3 JUMPI PUSH2 0x100 DUP1 DUP4 SLOAD DIV MUL DUP4 MSTORE SWAP2 PUSH1 0x20 ADD SWAP2 PUSH2 0x81C JUMP JUMPDEST DUP3 ADD SWAP2 SWAP1 PUSH0 MSTORE PUSH1 0x20 PUSH0 KECCAK256 SWAP1 JUMPDEST DUP2 SLOAD DUP2 MSTORE SWAP1 PUSH1 0x1 ADD SWAP1 PUSH1 0x20 ADD DUP1 DUP4 GT PUSH2 0x7FF JUMPI DUP3 SWAP1 SUB PUSH1 0x1F AND DUP3 ADD SWAP2 JUMPDEST POP POP POP POP POP SWAP1 DUP1 PUSH1 0x6 ADD DUP1 SLOAD PUSH2 0x831 SWAP1 PUSH2 0x108E JUMP JUMPDEST DUP1 PUSH1 0x1F ADD PUSH1 0x20 DUP1 SWAP2 DIV MUL PUSH1 0x20 ADD PUSH1 0x40 MLOAD SWAP1 DUP2 ADD PUSH1 0x40 MSTORE DUP1 SWAP3 SWAP2 SWAP1 DUP2 DUP2 MSTORE PUSH1 0x20 ADD DUP3 DUP1 SLOAD PUSH2 0x85D SWAP1 PUSH2 0x108E JUMP JUMPDEST DUP1 ISZERO PUSH2 0x8A8 JUMPI DUP1 PUSH1 0x1F LT PUSH2 0x87F JUMPI PUSH2 0x100 DUP1 DUP4 SLOAD DIV MUL DUP4 MSTORE SWAP2 PUSH1 0x20 ADD SWAP2 PUSH2 0x8A8 JUMP JUMPDEST DUP3 ADD SWAP2 SWAP1 PUSH0 MSTORE PUSH1 0x20 PUSH0 KECCAK256 SWAP1 JUMPDEST DUP2 SLOAD DUP2 MSTORE SWAP1 PUSH1 0x1 ADD SWAP1 PUSH1 0x20 ADD DUP1 DUP4 GT PUSH2 0x88B JUMPI DUP3 SWAP1 SUB PUSH1 0x1F AND DUP3 ADD SWAP2 JUMPDEST POP POP POP POP POP SWAP1 POP DUP8 JUMP JUMPDEST PUSH0 PUSH1 0x40 MLOAD DUP1 PUSH1 0xE0 ADD PUSH1 0x40 MSTORE DUP1 DUP5 PUSH20 0xFFFFFFFFFFFFFFFFFFFFFFFFFFFFFFFFFFFFFFFF AND DUP2 MSTORE PUSH1 0x20 ADD DUP10 DUP2 MSTORE PUSH1 0x20 ADD DUP4 DUP2 MSTORE PUSH1 0x20 ADD DUP9 DUP2 MSTORE PUSH1 0x20 ADD DUP8 DUP2 MSTORE PUSH1 0x20 ADD DUP7 DUP2 MSTORE PUSH1 0x20 ADD DUP6 DUP2 MSTORE POP SWAP1 POP PUSH1 0x1 DUP2 SWAP1 DUP1 PUSH1 0x1 DUP2 SLOAD ADD DUP1 DUP3 SSTORE DUP1 SWAP2 POP POP PUSH1 0x1 SWAP1 SUB SWAP1 PUSH0 MSTORE PUSH1 0x20 PUSH0 KECCAK256 SWAP1 PUSH1 0x7 MUL ADD PUSH0 SWAP1 SWAP2 SWAP1 SWAP2 SWAP1 SWAP2 POP PUSH0 DUP3 ADD MLOAD DUP2 PUSH0 ADD PUSH0 PUSH2 0x100 EXP DUP2 SLOAD DUP2 PUSH20 0xFFFFFFFFFFFFFFFFFFFFFFFFFFFFFFFFFFFFFFFF MUL NOT AND SWAP1 DUP4 PUSH20 0xFFFFFFFFFFFFFFFFFFFFFFFFFFFFFFFFFFFFFFFF AND MUL OR SWAP1 SSTORE POP PUSH1 0x20 DUP3 ADD MLOAD DUP2 PUSH1 0x1 ADD SWAP1 DUP2 PUSH2 0x980 SWAP2 SWAP1 PUSH2 0x125B JUMP JUMPDEST POP PUSH1 0x40 DUP3 ADD MLOAD DUP2 PUSH1 0x2 ADD SWAP1 DUP2 PUSH2 0x996 SWAP2 SWAP1 PUSH2 0x125B JUMP JUMPDEST POP PUSH1 0x60 DUP3 ADD MLOAD DUP2 PUSH1 0x3 ADD SWAP1 DUP2 PUSH2 0x9AC SWAP2 SWAP1 PUSH2 0x125B JUMP JUMPDEST POP PUSH1 0x80 DUP3 ADD MLOAD DUP2 PUSH1 0x4 ADD SWAP1 DUP2 PUSH2 0x9C2 SWAP2 SWAP1 PUSH2 0x125B JUMP JUMPDEST POP PUSH1 0xA0 DUP3 ADD MLOAD DUP2 PUSH1 0x5 ADD SWAP1 DUP2 PUSH2 0x9D8 SWAP2 SWAP1 PUSH2 0x125B JUMP JUMPDEST POP PUSH1 0xC0 DUP3 ADD MLOAD DUP2 PUSH1 0x6 ADD SWAP1 DUP2 PUSH2 0x9EE SWAP2 SWAP1 PUSH2 0x125B JUMP JUMPDEST POP POP POP POP POP POP POP POP POP POP POP JUMP JUMPDEST PUSH0 DUP2 SWAP1 POP SWAP2 SWAP1 POP JUMP JUMPDEST PUSH2 0xA0D DUP2 PUSH2 0x9FB JUMP JUMPDEST DUP3 MSTORE POP POP JUMP JUMPDEST PUSH0 PUSH1 0x20 DUP3 ADD SWAP1 POP PUSH2 0xA26 PUSH0 DUP4 ADD DUP5 PUSH2 0xA04 JUMP JUMPDEST SWAP3 SWAP2 POP POP JUMP JUMPDEST PUSH0 DUP2 MLOAD SWAP1 POP SWAP2 SWAP1 POP JUMP JUMPDEST PUSH0 DUP3 DUP3 MSTORE PUSH1 0x20 DUP3 ADD SWAP1 POP SWAP3 SWAP2 POP POP JUMP JUMPDEST PUSH0 DUP2 SWAP1 POP PUSH1 0x20 DUP3 ADD SWAP1 POP SWAP2 SWAP1 POP JUMP JUMPDEST PUSH0 PUSH20 0xFFFFFFFFFFFFFFFFFFFFFFFFFFFFFFFFFFFFFFFF DUP3 AND SWAP1 POP SWAP2 SWAP1 POP JUMP JUMPDEST PUSH0 PUSH2 0xA7E DUP3 PUSH2 0xA55 JUMP JUMPDEST SWAP1 POP SWAP2 SWAP1 POP JUMP JUMPDEST PUSH2 0xA8E DUP2 PUSH2 0xA74 JUMP JUMPDEST DUP3 MSTORE POP POP JUMP JUMPDEST PUSH0 DUP2 MLOAD SWAP1 POP SWAP2 SWAP1 POP JUMP JUMPDEST PUSH0 DUP3 DUP3 MSTORE PUSH1 0x20 DUP3 ADD SWAP1 POP SWAP3 SWAP2 POP POP JUMP JUMPDEST DUP3 DUP2 DUP4 MCOPY PUSH0 DUP4 DUP4 ADD MSTORE POP POP POP JUMP JUMPDEST PUSH0 PUSH1 0x1F NOT PUSH1 0x1F DUP4 ADD AND SWAP1 POP SWAP2 SWAP1 POP JUMP JUMPDEST PUSH0 PUSH2 0xAD6 DUP3 PUSH2 0xA94 JUMP JUMPDEST PUSH2 0xAE0 DUP2 DUP6 PUSH2 0xA9E JUMP JUMPDEST SWAP4 POP PUSH2 0xAF0 DUP2 DUP6 PUSH1 0x20 DUP7 ADD PUSH2 0xAAE JUMP JUMPDEST PUSH2 0xAF9 DUP2 PUSH2 0xABC JUMP JUMPDEST DUP5 ADD SWAP2 POP POP SWAP3 SWAP2 POP POP JUMP JUMPDEST PUSH0 PUSH1 0xE0 DUP4 ADD PUSH0 DUP4 ADD MLOAD PUSH2 0xB19 PUSH0 DUP7 ADD DUP3 PUSH2 0xA85 JUMP JUMPDEST POP PUSH1 0x20 DUP4 ADD MLOAD DUP5 DUP3 SUB PUSH1 0x20 DUP7 ADD MSTORE PUSH2 0xB31 DUP3 DUP3 PUSH2 0xACC JUMP JUMPDEST SWAP2 POP POP PUSH1 0x40 DUP4 ADD MLOAD DUP5 DUP3 SUB PUSH1 0x40 DUP7 ADD MSTORE PUSH2 0xB4B DUP3 DUP3 PUSH2 0xACC JUMP JUMPDEST SWAP2 POP POP PUSH1 0x60 DUP4 ADD MLOAD DUP5 DUP3 SUB PUSH1 0x60 DUP7 ADD MSTORE PUSH2 0xB65 DUP3 DUP3 PUSH2 0xACC JUMP JUMPDEST SWAP2 POP POP PUSH1 0x80 DUP4 ADD MLOAD DUP5 DUP3 SUB PUSH1 0x80 DUP7 ADD MSTORE PUSH2 0xB7F DUP3 DUP3 PUSH2 0xACC JUMP JUMPDEST SWAP2 POP POP PUSH1 0xA0 DUP4 ADD MLOAD DUP5 DUP3 SUB PUSH1 0xA0 DUP7 ADD MSTORE PUSH2 0xB99 DUP3 DUP3 PUSH2 0xACC JUMP JUMPDEST SWAP2 POP POP PUSH1 0xC0 DUP4 ADD MLOAD DUP5 DUP3 SUB PUSH1 0xC0 DUP7 ADD MSTORE PUSH2 0xBB3 DUP3 DUP3 PUSH2 0xACC JUMP JUMPDEST SWAP2 POP POP DUP1 SWAP2 POP POP SWAP3 SWAP2 POP POP JUMP JUMPDEST PUSH0 PUSH2 0xBCB DUP4 DUP4 PUSH2 0xB04 JUMP JUMPDEST SWAP1 POP SWAP3 SWAP2 POP POP JUMP JUMPDEST PUSH0 PUSH1 0x20 DUP3 ADD SWAP1 POP SWAP2 SWAP1 POP JUMP JUMPDEST PUSH0 PUSH2 0xBE9 DUP3 PUSH2 0xA2C JUMP JUMPDEST PUSH2 0xBF3 DUP2 DUP6 PUSH2 0xA36 JUMP JUMPDEST SWAP4 POP DUP4 PUSH1 0x20 DUP3 MUL DUP6 ADD PUSH2 0xC05 DUP6 PUSH2 0xA46 JUMP JUMPDEST DUP1 PUSH0 JUMPDEST DUP6 DUP2 LT ISZERO PUSH2 0xC40 JUMPI DUP5 DUP5 SUB DUP10 MSTORE DUP2 MLOAD PUSH2 0xC21 DUP6 DUP3 PUSH2 0xBC0 JUMP JUMPDEST SWAP5 POP PUSH2 0xC2C DUP4 PUSH2 0xBD3 JUMP JUMPDEST SWAP3 POP PUSH1 0x20 DUP11 ADD SWAP10 POP POP PUSH1 0x1 DUP2 ADD SWAP1 POP PUSH2 0xC08 JUMP JUMPDEST POP DUP3 SWAP8 POP DUP8 SWAP6 POP POP POP POP POP POP SWAP3 SWAP2 POP POP JUMP JUMPDEST PUSH0 PUSH1 0x20 DUP3 ADD SWAP1 POP DUP2 DUP2 SUB PUSH0 DUP4 ADD MSTORE PUSH2 0xC6A DUP2 DUP5 PUSH2 0xBDF JUMP JUMPDEST SWAP1 POP SWAP3 SWAP2 POP POP JUMP JUMPDEST PUSH0 PUSH1 0x40 MLOAD SWAP1 POP SWAP1 JUMP JUMPDEST PUSH0 DUP1 REVERT JUMPDEST PUSH0 DUP1 REVERT JUMPDEST PUSH2 0xC8C DUP2 PUSH2 0x9FB JUMP JUMPDEST DUP2 EQ PUSH2 0xC96 JUMPI PUSH0 DUP1 REVERT JUMPDEST POP JUMP JUMPDEST PUSH0 DUP2 CALLDATALOAD SWAP1 POP PUSH2 0xCA7 DUP2 PUSH2 0xC83 JUMP JUMPDEST SWAP3 SWAP2 POP POP JUMP JUMPDEST PUSH0 PUSH1 0x20 DUP3 DUP5 SUB SLT ISZERO PUSH2 0xCC2 JUMPI PUSH2 0xCC1 PUSH2 0xC7B JUMP JUMPDEST JUMPDEST PUSH0 PUSH2 0xCCF DUP5 DUP3 DUP6 ADD PUSH2 0xC99 JUMP JUMPDEST SWAP2 POP POP SWAP3 SWAP2 POP POP JUMP JUMPDEST PUSH2 0xCE1 DUP2 PUSH2 0xA74 JUMP JUMPDEST DUP3 MSTORE POP POP JUMP JUMPDEST PUSH0 DUP3 DUP3 MSTORE PUSH1 0x20 DUP3 ADD SWAP1 POP SWAP3 SWAP2 POP POP JUMP JUMPDEST PUSH0 PUSH2 0xD01 DUP3 PUSH2 0xA94 JUMP JUMPDEST PUSH2 0xD0B DUP2 DUP6 PUSH2 0xCE7 JUMP JUMPDEST SWAP4 POP PUSH2 0xD1B DUP2 DUP6 PUSH1 0x20 DUP7 ADD PUSH2 0xAAE JUMP JUMPDEST PUSH2 0xD24 DUP2 PUSH2 0xABC JUMP JUMPDEST DUP5 ADD SWAP2 POP POP SWAP3 SWAP2 POP POP JUMP JUMPDEST PUSH0 PUSH1 0xE0 DUP3 ADD SWAP1 POP PUSH2 0xD42 PUSH0 DUP4 ADD DUP11 PUSH2 0xCD8 JUMP JUMPDEST DUP2 DUP2 SUB PUSH1 0x20 DUP4 ADD MSTORE PUSH2 0xD54 DUP2 DUP10 PUSH2 0xCF7 JUMP JUMPDEST SWAP1 POP DUP2 DUP2 SUB PUSH1 0x40 DUP4 ADD MSTORE PUSH2 0xD68 DUP2 DUP9 PUSH2 0xCF7 JUMP JUMPDEST SWAP1 POP DUP2 DUP2 SUB PUSH1 0x60 DUP4 ADD MSTORE PUSH2 0xD7C DUP2 DUP8 PUSH2 0xCF7 JUMP JUMPDEST SWAP1 POP DUP2 DUP2 SUB PUSH1 0x80 DUP4 ADD MSTORE PUSH2 0xD90 DUP2 DUP7 PUSH2 0xCF7 JUMP JUMPDEST SWAP1 POP DUP2 DUP2 SUB PUSH1 0xA0 DUP4 ADD MSTORE PUSH2 0xDA4 DUP2 DUP6 PUSH2 0xCF7 JUMP JUMPDEST SWAP1 POP DUP2 DUP2 SUB PUSH1 0xC0 DUP4 ADD MSTORE PUSH2 0xDB8 DUP2 DUP5 PUSH2 0xCF7 JUMP JUMPDEST SWAP1 POP SWAP9 SWAP8 POP POP POP POP POP POP POP POP JUMP JUMPDEST PUSH0 DUP1 REVERT JUMPDEST PUSH0 DUP1 REVERT JUMPDEST PUSH32 0x4E487B7100000000000000000000000000000000000000000000000000000000 PUSH0 MSTORE PUSH1 0x41 PUSH1 0x4 MSTORE PUSH1 0x24 PUSH0 REVERT JUMPDEST PUSH2 0xE04 DUP3 PUSH2 0xABC JUMP JUMPDEST DUP2 ADD DUP2 DUP2 LT PUSH8 0xFFFFFFFFFFFFFFFF DUP3 GT OR ISZERO PUSH2 0xE23 JUMPI PUSH2 0xE22 PUSH2 0xDCE JUMP JUMPDEST JUMPDEST DUP1 PUSH1 0x40 MSTORE POP POP POP JUMP JUMPDEST PUSH0 PUSH2 0xE35 PUSH2 0xC72 JUMP JUMPDEST SWAP1 POP PUSH2 0xE41 DUP3 DUP3 PUSH2 0xDFB JUMP JUMPDEST SWAP2 SWAP1 POP JUMP JUMPDEST PUSH0 PUSH8 0xFFFFFFFFFFFFFFFF DUP3 GT ISZERO PUSH2 0xE60 JUMPI PUSH2 0xE5F PUSH2 0xDCE JUMP JUMPDEST JUMPDEST PUSH2 0xE69 DUP3 PUSH2 0xABC JUMP JUMPDEST SWAP1 POP PUSH1 0x20 DUP2 ADD SWAP1 POP SWAP2 SWAP1 POP JUMP JUMPDEST DUP3 DUP2 DUP4 CALLDATACOPY PUSH0 DUP4 DUP4 ADD MSTORE POP POP POP JUMP JUMPDEST PUSH0 PUSH2 0xE96 PUSH2 0xE91 DUP5 PUSH2 0xE46 JUMP JUMPDEST PUSH2 0xE2C JUMP JUMPDEST SWAP1 POP DUP3 DUP2 MSTORE PUSH1 0x20 DUP2 ADD DUP5 DUP5 DUP5 ADD GT ISZERO PUSH2 0xEB2 JUMPI PUSH2 0xEB1 PUSH2 0xDCA JUMP JUMPDEST JUMPDEST PUSH2 0xEBD DUP5 DUP3 DUP6 PUSH2 0xE76 JUMP JUMPDEST POP SWAP4 SWAP3 POP POP POP JUMP JUMPDEST PUSH0 DUP3 PUSH1 0x1F DUP4 ADD SLT PUSH2 0xED9 JUMPI PUSH2 0xED8 PUSH2 0xDC6 JUMP JUMPDEST JUMPDEST DUP2 CALLDATALOAD PUSH2 0xEE9 DUP5 DUP3 PUSH1 0x20 DUP7 ADD PUSH2 0xE84 JUMP JUMPDEST SWAP2 POP POP SWAP3 SWAP2 POP POP JUMP JUMPDEST PUSH2 0xEFB DUP2 PUSH2 0xA74 JUMP JUMPDEST DUP2 EQ PUSH2 0xF05 JUMPI PUSH0 DUP1 REVERT JUMPDEST POP JUMP JUMPDEST PUSH0 DUP2 CALLDATALOAD SWAP1 POP PUSH2 0xF16 DUP2 PUSH2 0xEF2 JUMP JUMPDEST SWAP3 SWAP2 POP POP JUMP JUMPDEST PUSH0 DUP1 PUSH0 DUP1 PUSH0 DUP1 PUSH0 PUSH1 0xE0 DUP9 DUP11 SUB SLT ISZERO PUSH2 0xF37 JUMPI PUSH2 0xF36 PUSH2 0xC7B JUMP JUMPDEST JUMPDEST PUSH0 DUP9 ADD CALLDATALOAD PUSH8 0xFFFFFFFFFFFFFFFF DUP2 GT ISZERO PUSH2 0xF54 JUMPI PUSH2 0xF53 PUSH2 0xC7F JUMP JUMPDEST JUMPDEST PUSH2 0xF60 DUP11 DUP3 DUP12 ADD PUSH2 0xEC5 JUMP JUMPDEST SWAP8 POP POP PUSH1 0x20 DUP9 ADD CALLDATALOAD PUSH8 0xFFFFFFFFFFFFFFFF DUP2 GT ISZERO PUSH2 0xF81 JUMPI PUSH2 0xF80 PUSH2 0xC7F JUMP JUMPDEST JUMPDEST PUSH2 0xF8D DUP11 DUP3 DUP12 ADD PUSH2 0xEC5 JUMP JUMPDEST SWAP7 POP POP PUSH1 0x40 DUP9 ADD CALLDATALOAD PUSH8 0xFFFFFFFFFFFFFFFF DUP2 GT ISZERO PUSH2 0xFAE JUMPI PUSH2 0xFAD PUSH2 0xC7F JUMP JUMPDEST JUMPDEST PUSH2 0xFBA DUP11 DUP3 DUP12 ADD PUSH2 0xEC5 JUMP JUMPDEST SWAP6 POP POP PUSH1 0x60 DUP9 ADD CALLDATALOAD PUSH8 0xFFFFFFFFFFFFFFFF DUP2 GT ISZERO PUSH2 0xFDB JUMPI PUSH2 0xFDA PUSH2 0xC7F JUMP JUMPDEST JUMPDEST PUSH2 0xFE7 DUP11 DUP3 DUP12 ADD PUSH2 0xEC5 JUMP JUMPDEST SWAP5 POP POP PUSH1 0x80 DUP9 ADD CALLDATALOAD PUSH8 0xFFFFFFFFFFFFFFFF DUP2 GT ISZERO PUSH2 0x1008 JUMPI PUSH2 0x1007 PUSH2 0xC7F JUMP JUMPDEST JUMPDEST PUSH2 0x1014 DUP11 DUP3 DUP12 ADD PUSH2 0xEC5 JUMP JUMPDEST SWAP4 POP POP PUSH1 0xA0 PUSH2 0x1025 DUP11 DUP3 DUP12 ADD PUSH2 0xF08 JUMP JUMPDEST SWAP3 POP POP PUSH1 0xC0 DUP9 ADD CALLDATALOAD PUSH8 0xFFFFFFFFFFFFFFFF DUP2 GT ISZERO PUSH2 0x1046 JUMPI PUSH2 0x1045 PUSH2 0xC7F JUMP JUMPDEST JUMPDEST PUSH2 0x1052 DUP11 DUP3 DUP12 ADD PUSH2 0xEC5 JUMP JUMPDEST SWAP2 POP POP SWAP3 SWAP6 SWAP9 SWAP2 SWAP5 SWAP8 POP SWAP3 SWAP6 POP JUMP JUMPDEST PUSH32 0x4E487B7100000000000000000000000000000000000000000000000000000000 PUSH0 MSTORE PUSH1 0x22 PUSH1 0x4 MSTORE PUSH1 0x24 PUSH0 REVERT JUMPDEST PUSH0 PUSH1 0x2 DUP3 DIV SWAP1 POP PUSH1 0x1 DUP3 AND DUP1 PUSH2 0x10A5 JUMPI PUSH1 0x7F DUP3 AND SWAP2 POP JUMPDEST PUSH1 0x20 DUP3 LT DUP2 SUB PUSH2 0x10B8 JUMPI PUSH2 0x10B7 PUSH2 0x1061 JUMP JUMPDEST JUMPDEST POP SWAP2 SWAP1 POP JUMP JUMPDEST PUSH0 DUP2 SWAP1 POP DUP2 PUSH0 MSTORE PUSH1 0x20 PUSH0 KECCAK256 SWAP1 POP SWAP2 SWAP1 POP JUMP JUMPDEST PUSH0 PUSH1 0x20 PUSH1 0x1F DUP4 ADD DIV SWAP1 POP SWAP2 SWAP1 POP JUMP JUMPDEST PUSH0 DUP3 DUP3 SHL SWAP1 POP SWAP3 SWAP2 POP POP JUMP JUMPDEST PUSH0 PUSH1 0x8 DUP4 MUL PUSH2 0x111A PUSH32 0xFFFFFFFFFFFFFFFFFFFFFFFFFFFFFFFFFFFFFFFFFFFFFFFFFFFFFFFFFFFFFFFF DUP3 PUSH2 0x10DF JUMP JUMPDEST PUSH2 0x1124 DUP7 DUP4 PUSH2 0x10DF JUMP JUMPDEST SWAP6 POP DUP1 NOT DUP5 AND SWAP4 POP DUP1 DUP7 AND DUP5 OR SWAP3 POP POP POP SWAP4 SWAP3 POP POP POP JUMP JUMPDEST PUSH0 DUP2 SWAP1 POP SWAP2 SWAP1 POP JUMP JUMPDEST PUSH0 PUSH2 0x115F PUSH2 0x115A PUSH2 0x1155 DUP5 PUSH2 0x9FB JUMP JUMPDEST PUSH2 0x113C JUMP JUMPDEST PUSH2 0x9FB JUMP JUMPDEST SWAP1 POP SWAP2 SWAP1 POP JUMP JUMPDEST PUSH0 DUP2 SWAP1 POP SWAP2 SWAP1 POP JUMP JUMPDEST PUSH2 0x1178 DUP4 PUSH2 0x1145 JUMP JUMPDEST PUSH2 0x118C PUSH2 0x1184 DUP3 PUSH2 0x1166 JUMP JUMPDEST DUP5 DUP5 SLOAD PUSH2 0x10EB JUMP JUMPDEST DUP3 SSTORE POP POP POP POP JUMP JUMPDEST PUSH0 SWAP1 JUMP JUMPDEST PUSH2 0x11A0 PUSH2 0x1194 JUMP JUMPDEST PUSH2 0x11AB DUP2 DUP5 DUP5 PUSH2 0x116F JUMP JUMPDEST POP POP POP JUMP JUMPDEST JUMPDEST DUP2 DUP2 LT ISZERO PUSH2 0x11CE JUMPI PUSH2 0x11C3 PUSH0 DUP3 PUSH2 0x1198 JUMP JUMPDEST PUSH1 0x1 DUP2 ADD SWAP1 POP PUSH2 0x11B1 JUMP JUMPDEST POP POP JUMP JUMPDEST PUSH1 0x1F DUP3 GT ISZERO PUSH2 0x1213 JUMPI PUSH2 0x11E4 DUP2 PUSH2 0x10BE JUMP JUMPDEST PUSH2 0x11ED DUP5 PUSH2 0x10D0 JUMP JUMPDEST DUP2 ADD PUSH1 0x20 DUP6 LT ISZERO PUSH2 0x11FC JUMPI DUP2 SWAP1 POP JUMPDEST PUSH2 0x1210 PUSH2 0x1208 DUP6 PUSH2 0x10D0 JUMP JUMPDEST DUP4 ADD DUP3 PUSH2 0x11B0 JUMP JUMPDEST POP POP JUMPDEST POP POP POP JUMP JUMPDEST PUSH0 DUP3 DUP3 SHR SWAP1 POP SWAP3 SWAP2 POP POP JUMP JUMPDEST PUSH0 PUSH2 0x1233 PUSH0 NOT DUP5 PUSH1 0x8 MUL PUSH2 0x1218 JUMP JUMPDEST NOT DUP1 DUP4 AND SWAP2 POP POP SWAP3 SWAP2 POP POP JUMP JUMPDEST PUSH0 PUSH2 0x124B DUP4 DUP4 PUSH2 0x1224 JUMP JUMPDEST SWAP2 POP DUP3 PUSH1 0x2 MUL DUP3 OR SWAP1 POP SWAP3 SWAP2 POP POP JUMP JUMPDEST PUSH2 0x1264 DUP3 PUSH2 0xA94 JUMP JUMPDEST PUSH8 0xFFFFFFFFFFFFFFFF DUP2 GT ISZERO PUSH2 0x127D JUMPI PUSH2 0x127C PUSH2 0xDCE JUMP JUMPDEST JUMPDEST PUSH2 0x1287 DUP3 SLOAD PUSH2 0x108E JUMP JUMPDEST PUSH2 0x1292 DUP3 DUP3 DUP6 PUSH2 0x11D2 JUMP JUMPDEST PUSH0 PUSH1 0x20 SWAP1 POP PUSH1 0x1F DUP4 GT PUSH1 0x1 DUP2 EQ PUSH2 0x12C3 JUMPI PUSH0 DUP5 ISZERO PUSH2 0x12B1 JUMPI DUP3 DUP8 ADD MLOAD SWAP1 POP JUMPDEST PUSH2 0x12BB DUP6 DUP3 PUSH2 0x1240 JUMP JUMPDEST DUP7 SSTORE POP PUSH2 0x1322 JUMP JUMPDEST PUSH1 0x1F NOT DUP5 AND PUSH2 0x12D1 DUP7 PUSH2 0x10BE JUMP JUMPDEST PUSH0 JUMPDEST DUP3 DUP2 LT ISZERO PUSH2 0x12F8 JUMPI DUP5 DUP10 ADD MLOAD DUP3 SSTORE PUSH1 0x1 DUP3 ADD SWAP2 POP PUSH1 0x20 DUP6 ADD SWAP5 POP PUSH1 0x20 DUP2 ADD SWAP1 POP PUSH2 0x12D3 JUMP JUMPDEST DUP7 DUP4 LT ISZERO PUSH2 0x1315 JUMPI DUP5 DUP10 ADD MLOAD PUSH2 0x1311 PUSH1 0x1F DUP10 AND DUP3 PUSH2 0x1224 JUMP JUMPDEST DUP4 SSTORE POP JUMPDEST PUSH1 0x1 PUSH1 0x2 DUP9 MUL ADD DUP9 SSTORE POP POP POP JUMPDEST POP POP POP POP POP POP JUMP INVALID LOG2 PUSH5 0x6970667358 0x22 SLT KECCAK256 STOP 0xD PUSH4 0x898E5ED8 0x4E 0xBA 0xC0 STOP MOD 0x29 BLOCKHASH 0xEC SELFBALANCE SAR PUSH28 0x53C0FA0DBBD33637189FE3C04A6664736F6C634300081A0033000000 "
				},
				"gasEstimates": {
					"creation": {
						"codeDepositCost": "992000",
						"executionCost": "23130",
						"totalCost": "1015130"
					},
					"external": {
						"createPassport(string,string,string,string,string,address,string)": "infinite",
						"getInt()": "2432",
						"getPassport()": "infinite",
						"num()": "2402",
						"passports(uint256)": "infinite"
					}
				},
				"methodIdentifiers": {
					"createPassport(string,string,string,string,string,address,string)": "ec875b6f",
					"getInt()": "62738998",
					"getPassport()": "8eb20b0b",
					"num()": "4e70b1dc",
					"passports(uint256)": "cb22f5fd"
				}
			},
			"storageLayout": {
				"storage": [
					{
						"astId": 19,
						"contract": "contracts/Main.sol:Main",
						"label": "num",
						"offset": 0,
						"slot": "0",
						"type": "t_uint256"
					},
					{
						"astId": 23,
						"contract": "contracts/Main.sol:Main",
						"label": "passports",
						"offset": 0,
						"slot": "1",
						"type": "t_array(t_struct(Passport)16_storage)dyn_storage"
					}
				],
				"types": {
					"t_address": {
						"encoding": "inplace",
						"label": "address",
						"numberOfBytes": "20"
					},
					"t_array(t_struct(Passport)16_storage)dyn_storage": {
						"base": "t_struct(Passport)16_storage",
						"encoding": "dynamic_array",
						"label": "struct Main.Passport[]",
						"numberOfBytes": "32"
					},
					"t_string_storage": {
						"encoding": "bytes",
						"label": "string",
						"numberOfBytes": "32"
					},
					"t_struct(Passport)16_storage": {
						"encoding": "inplace",
						"label": "struct Main.Passport",
						"members": [
							{
								"astId": 3,
								"contract": "contracts/Main.sol:Main",
								"label": "addrs",
								"offset": 0,
								"slot": "0",
								"type": "t_address"
							},
							{
								"astId": 5,
								"contract": "contracts/Main.sol:Main",
								"label": "firstName",
								"offset": 0,
								"slot": "1",
								"type": "t_string_storage"
							},
							{
								"astId": 7,
								"contract": "contracts/Main.sol:Main",
								"label": "sex",
								"offset": 0,
								"slot": "2",
								"type": "t_string_storage"
							},
							{
								"astId": 9,
								"contract": "contracts/Main.sol:Main",
								"label": "lastName",
								"offset": 0,
								"slot": "3",
								"type": "t_string_storage"
							},
							{
								"astId": 11,
								"contract": "contracts/Main.sol:Main",
								"label": "placeOfBirth",
								"offset": 0,
								"slot": "4",
								"type": "t_string_storage"
							},
							{
								"astId": 13,
								"contract": "contracts/Main.sol:Main",
								"label": "DOB",
								"offset": 0,
								"slot": "5",
								"type": "t_string_storage"
							},
							{
								"astId": 15,
								"contract": "contracts/Main.sol:Main",
								"label": "passportNumber",
								"offset": 0,
								"slot": "6",
								"type": "t_string_storage"
							}
						],
						"numberOfBytes": "224"
					},
					"t_uint256": {
						"encoding": "inplace",
						"label": "uint256",
						"numberOfBytes": "32"
					}
				}
			},
			"userdoc": {
				"kind": "user",
				"methods": {},
				"version": 1
			}
		}
	}
}