{
	"contracts/User.sol": {
		"Main": {
			"abi": [
				{
					"inputs": [],
					"name": "getPassport",
					"outputs": [
						{
							"components": [
								{
									"internalType": "address",
									"name": "addrs",
									"type": "address"
								},
								{
									"internalType": "string",
									"name": "firstName",
									"type": "string"
								},
								{
									"internalType": "string",
									"name": "sex",
									"type": "string"
								},
								{
									"internalType": "string",
									"name": "lastName",
									"type": "string"
								},
								{
									"internalType": "string",
									"name": "placeOfBirth",
									"type": "string"
								},
								{
									"internalType": "string",
									"name": "DOB",
									"type": "string"
								},
								{
									"internalType": "string",
									"name": "passportNumber",
									"type": "string"
								},
								{
									"internalType": "string",
									"name": "nft",
									"type": "string"
								}
							],
							"internalType": "struct Main.Passport[]",
							"name": "",
							"type": "tuple[]"
						}
					],
					"stateMutability": "view",
					"type": "function"
				},
				{
					"inputs": [
						{
							"internalType": "uint256",
							"name": "",
							"type": "uint256"
						}
					],
					"name": "passports",
					"outputs": [
						{
							"internalType": "address",
							"name": "addrs",
							"type": "address"
						},
						{
							"internalType": "string",
							"name": "firstName",
							"type": "string"
						},
						{
							"internalType": "string",
							"name": "sex",
							"type": "string"
						},
						{
							"internalType": "string",
							"name": "lastName",
							"type": "string"
						},
						{
							"internalType": "string",
							"name": "placeOfBirth",
							"type": "string"
						},
						{
							"internalType": "string",
							"name": "DOB",
							"type": "string"
						},
						{
							"internalType": "string",
							"name": "passportNumber",
							"type": "string"
						},
						{
							"internalType": "string",
							"name": "nft",
							"type": "string"
						}
					],
					"stateMutability": "view",
					"type": "function"
				},
				{
					"inputs": [
						{
							"internalType": "string",
							"name": "_fName",
							"type": "string"
						},
						{
							"internalType": "string",
							"name": "_lName",
							"type": "string"
						},
						{
							"internalType": "string",
							"name": "_pob",
							"type": "string"
						},
						{
							"internalType": "string",
							"name": "_dob",
							"type": "string"
						},
						{
							"internalType": "string",
							"name": "_passNo",
							"type": "string"
						},
						{
							"internalType": "string",
							"name": "_nft",
							"type": "string"
						},
						{
							"internalType": "address",
							"name": "_addrs",
							"type": "address"
						},
						{
							"internalType": "string",
							"name": "_sex",
							"type": "string"
						}
					],
					"name": "setPassport",
					"outputs": [],
					"stateMutability": "nonpayable",
					"type": "function"
				}
			],
			"devdoc": {
				"kind": "dev",
				"methods": {},
				"version": 1
			},
			"evm": {
				"assembly": "    /* \"contracts/User.sol\":60:880  contract Main {... */\n  mstore(0x40, 0x80)\n  callvalue\n  dup1\n  iszero\n  tag_1\n  jumpi\n  0x00\n  dup1\n  revert\ntag_1:\n  pop\n  dataSize(sub_0)\n  dup1\n  dataOffset(sub_0)\n  0x00\n  codecopy\n  0x00\n  return\nstop\n\nsub_0: assembly {\n        /* \"contracts/User.sol\":60:880  contract Main {... */\n      mstore(0x40, 0x80)\n      callvalue\n      dup1\n      iszero\n      tag_1\n      jumpi\n      0x00\n      dup1\n      revert\n    tag_1:\n      pop\n      jumpi(tag_2, lt(calldatasize, 0x04))\n      shr(0xe0, calldataload(0x00))\n      dup1\n      0x8eb20b0b\n      eq\n      tag_3\n      jumpi\n      dup1\n      0xb75a2b7a\n      eq\n      tag_4\n      jumpi\n      dup1\n      0xcb22f5fd\n      eq\n      tag_5\n      jumpi\n    tag_2:\n      0x00\n      dup1\n      revert\n        /* \"contracts/User.sol\":779:877  function getPassport() public view  returns(Passport[] memory) {... */\n    tag_3:\n      tag_6\n      tag_7\n      jump\t// in\n    tag_6:\n      mload(0x40)\n      tag_8\n      swap2\n      swap1\n      tag_9\n      jump\t// in\n    tag_8:\n      mload(0x40)\n      dup1\n      swap2\n      sub\n      swap1\n      return\n        /* \"contracts/User.sol\":353:773  function setPassport(string memory _fName, string memory _lName, string memory _pob, string memory _dob, string memory _passNo, string memory _nft, address _addrs, string memory _sex) public {... */\n    tag_4:\n      tag_10\n      0x04\n      dup1\n      calldatasize\n      sub\n      dup2\n      add\n      swap1\n      tag_11\n      swap2\n      swap1\n      tag_12\n      jump\t// in\n    tag_11:\n      tag_13\n      jump\t// in\n    tag_10:\n      stop\n        /* \"contracts/User.sol\":317:344  Passport[] public passports */\n    tag_5:\n      tag_14\n      0x04\n      dup1\n      calldatasize\n      sub\n      dup2\n      add\n      swap1\n      tag_15\n      swap2\n      swap1\n      tag_16\n      jump\t// in\n    tag_15:\n      tag_17\n      jump\t// in\n    tag_14:\n      mload(0x40)\n      tag_18\n      swap9\n      swap8\n      swap7\n      swap6\n      swap5\n      swap4\n      swap3\n      swap2\n      swap1\n      tag_19\n      jump\t// in\n    tag_18:\n      mload(0x40)\n      dup1\n      swap2\n      sub\n      swap1\n      return\n        /* \"contracts/User.sol\":779:877  function getPassport() public view  returns(Passport[] memory) {... */\n    tag_7:\n        /* \"contracts/User.sol\":823:840  Passport[] memory */\n      0x60\n        /* \"contracts/User.sol\":860:869  passports */\n      0x00\n        /* \"contracts/User.sol\":853:869  return passports */\n      dup1\n      sload\n      dup1\n      0x20\n      mul\n      0x20\n      add\n      mload(0x40)\n      swap1\n      dup2\n      add\n      0x40\n      mstore\n      dup1\n      swap3\n      swap2\n      swap1\n      dup2\n      dup2\n      mstore\n      0x20\n      add\n      0x00\n      swap1\n    tag_21:\n      dup3\n      dup3\n      lt\n      iszero\n      tag_22\n      jumpi\n      dup4\n      dup3\n      swap1\n      0x00\n      mstore\n      keccak256(0x00, 0x20)\n      swap1\n      0x08\n      mul\n      add\n      mload(0x40)\n      dup1\n      0x0100\n      add\n      0x40\n      mstore\n      swap1\n      dup2\n      0x00\n      dup3\n      add\n      0x00\n      swap1\n      sload\n      swap1\n      0x0100\n      exp\n      swap1\n      div\n      0xffffffffffffffffffffffffffffffffffffffff\n      and\n      0xffffffffffffffffffffffffffffffffffffffff\n      and\n      0xffffffffffffffffffffffffffffffffffffffff\n      and\n      dup2\n      mstore\n      0x20\n      add\n      0x01\n      dup3\n      add\n      dup1\n      sload\n      tag_24\n      swap1\n      tag_25\n      jump\t// in\n    tag_24:\n      dup1\n      0x1f\n      add\n      0x20\n      dup1\n      swap2\n      div\n      mul\n      0x20\n      add\n      mload(0x40)\n      swap1\n      dup2\n      add\n      0x40\n      mstore\n      dup1\n      swap3\n      swap2\n      swap1\n      dup2\n      dup2\n      mstore\n      0x20\n      add\n      dup3\n      dup1\n      sload\n      tag_26\n      swap1\n      tag_25\n      jump\t// in\n    tag_26:\n      dup1\n      iszero\n      tag_27\n      jumpi\n      dup1\n      0x1f\n      lt\n      tag_28\n      jumpi\n      0x0100\n      dup1\n      dup4\n      sload\n      div\n      mul\n      dup4\n      mstore\n      swap2\n      0x20\n      add\n      swap2\n      jump(tag_27)\n    tag_28:\n      dup3\n      add\n      swap2\n      swap1\n      0x00\n      mstore\n      keccak256(0x00, 0x20)\n      swap1\n    tag_29:\n      dup2\n      sload\n      dup2\n      mstore\n      swap1\n      0x01\n      add\n      swap1\n      0x20\n      add\n      dup1\n      dup4\n      gt\n      tag_29\n      jumpi\n      dup3\n      swap1\n      sub\n      0x1f\n      and\n      dup3\n      add\n      swap2\n    tag_27:\n      pop\n      pop\n      pop\n      pop\n      pop\n      dup2\n      mstore\n      0x20\n      add\n      0x02\n      dup3\n      add\n      dup1\n      sload\n      tag_30\n      swap1\n      tag_25\n      jump\t// in\n    tag_30:\n      dup1\n      0x1f\n      add\n      0x20\n      dup1\n      swap2\n      div\n      mul\n      0x20\n      add\n      mload(0x40)\n      swap1\n      dup2\n      add\n      0x40\n      mstore\n      dup1\n      swap3\n      swap2\n      swap1\n      dup2\n      dup2\n      mstore\n      0x20\n      add\n      dup3\n      dup1\n      sload\n      tag_31\n      swap1\n      tag_25\n      jump\t// in\n    tag_31:\n      dup1\n      iszero\n      tag_32\n      jumpi\n      dup1\n      0x1f\n      lt\n      tag_33\n      jumpi\n      0x0100\n      dup1\n      dup4\n      sload\n      div\n      mul\n      dup4\n      mstore\n      swap2\n      0x20\n      add\n      swap2\n      jump(tag_32)\n    tag_33:\n      dup3\n      add\n      swap2\n      swap1\n      0x00\n      mstore\n      keccak256(0x00, 0x20)\n      swap1\n    tag_34:\n      dup2\n      sload\n      dup2\n      mstore\n      swap1\n      0x01\n      add\n      swap1\n      0x20\n      add\n      dup1\n      dup4\n      gt\n      tag_34\n      jumpi\n      dup3\n      swap1\n      sub\n      0x1f\n      and\n      dup3\n      add\n      swap2\n    tag_32:\n      pop\n      pop\n      pop\n      pop\n      pop\n      dup2\n      mstore\n      0x20\n      add\n      0x03\n      dup3\n      add\n      dup1\n      sload\n      tag_35\n      swap1\n      tag_25\n      jump\t// in\n    tag_35:\n      dup1\n      0x1f\n      add\n      0x20\n      dup1\n      swap2\n      div\n      mul\n      0x20\n      add\n      mload(0x40)\n      swap1\n      dup2\n      add\n      0x40\n      mstore\n      dup1\n      swap3\n      swap2\n      swap1\n      dup2\n      dup2\n      mstore\n      0x20\n      add\n      dup3\n      dup1\n      sload\n      tag_36\n      swap1\n      tag_25\n      jump\t// in\n    tag_36:\n      dup1\n      iszero\n      tag_37\n      jumpi\n      dup1\n      0x1f\n      lt\n      tag_38\n      jumpi\n      0x0100\n      dup1\n      dup4\n      sload\n      div\n      mul\n      dup4\n      mstore\n      swap2\n      0x20\n      add\n      swap2\n      jump(tag_37)\n    tag_38:\n      dup3\n      add\n      swap2\n      swap1\n      0x00\n      mstore\n      keccak256(0x00, 0x20)\n      swap1\n    tag_39:\n      dup2\n      sload\n      dup2\n      mstore\n      swap1\n      0x01\n      add\n      swap1\n      0x20\n      add\n      dup1\n      dup4\n      gt\n      tag_39\n      jumpi\n      dup3\n      swap1\n      sub\n      0x1f\n      and\n      dup3\n      add\n      swap2\n    tag_37:\n      pop\n      pop\n      pop\n      pop\n      pop\n      dup2\n      mstore\n      0x20\n      add\n      0x04\n      dup3\n      add\n      dup1\n      sload\n      tag_40\n      swap1\n      tag_25\n      jump\t// in\n    tag_40:\n      dup1\n      0x1f\n      add\n      0x20\n      dup1\n      swap2\n      div\n      mul\n      0x20\n      add\n      mload(0x40)\n      swap1\n      dup2\n      add\n      0x40\n      mstore\n      dup1\n      swap3\n      swap2\n      swap1\n      dup2\n      dup2\n      mstore\n      0x20\n      add\n      dup3\n      dup1\n      sload\n      tag_41\n      swap1\n      tag_25\n      jump\t// in\n    tag_41:\n      dup1\n      iszero\n      tag_42\n      jumpi\n      dup1\n      0x1f\n      lt\n      tag_43\n      jumpi\n      0x0100\n      dup1\n      dup4\n      sload\n      div\n      mul\n      dup4\n      mstore\n      swap2\n      0x20\n      add\n      swap2\n      jump(tag_42)\n    tag_43:\n      dup3\n      add\n      swap2\n      swap1\n      0x00\n      mstore\n      keccak256(0x00, 0x20)\n      swap1\n    tag_44:\n      dup2\n      sload\n      dup2\n      mstore\n      swap1\n      0x01\n      add\n      swap1\n      0x20\n      add\n      dup1\n      dup4\n      gt\n      tag_44\n      jumpi\n      dup3\n      swap1\n      sub\n      0x1f\n      and\n      dup3\n      add\n      swap2\n    tag_42:\n      pop\n      pop\n      pop\n      pop\n      pop\n      dup2\n      mstore\n      0x20\n      add\n      0x05\n      dup3\n      add\n      dup1\n      sload\n      tag_45\n      swap1\n      tag_25\n      jump\t// in\n    tag_45:\n      dup1\n      0x1f\n      add\n      0x20\n      dup1\n      swap2\n      div\n      mul\n      0x20\n      add\n      mload(0x40)\n      swap1\n      dup2\n      add\n      0x40\n      mstore\n      dup1\n      swap3\n      swap2\n      swap1\n      dup2\n      dup2\n      mstore\n      0x20\n      add\n      dup3\n      dup1\n      sload\n      tag_46\n      swap1\n      tag_25\n      jump\t// in\n    tag_46:\n      dup1\n      iszero\n      tag_47\n      jumpi\n      dup1\n      0x1f\n      lt\n      tag_48\n      jumpi\n      0x0100\n      dup1\n      dup4\n      sload\n      div\n      mul\n      dup4\n      mstore\n      swap2\n      0x20\n      add\n      swap2\n      jump(tag_47)\n    tag_48:\n      dup3\n      add\n      swap2\n      swap1\n      0x00\n      mstore\n      keccak256(0x00, 0x20)\n      swap1\n    tag_49:\n      dup2\n      sload\n      dup2\n      mstore\n      swap1\n      0x01\n      add\n      swap1\n      0x20\n      add\n      dup1\n      dup4\n      gt\n      tag_49\n      jumpi\n      dup3\n      swap1\n      sub\n      0x1f\n      and\n      dup3\n      add\n      swap2\n    tag_47:\n      pop\n      pop\n      pop\n      pop\n      pop\n      dup2\n      mstore\n      0x20\n      add\n      0x06\n      dup3\n      add\n      dup1\n      sload\n      tag_50\n      swap1\n      tag_25\n      jump\t// in\n    tag_50:\n      dup1\n      0x1f\n      add\n      0x20\n      dup1\n      swap2\n      div\n      mul\n      0x20\n      add\n      mload(0x40)\n      swap1\n      dup2\n      add\n      0x40\n      mstore\n      dup1\n      swap3\n      swap2\n      swap1\n      dup2\n      dup2\n      mstore\n      0x20\n      add\n      dup3\n      dup1\n      sload\n      tag_51\n      swap1\n      tag_25\n      jump\t// in\n    tag_51:\n      dup1\n      iszero\n      tag_52\n      jumpi\n      dup1\n      0x1f\n      lt\n      tag_53\n      jumpi\n      0x0100\n      dup1\n      dup4\n      sload\n      div\n      mul\n      dup4\n      mstore\n      swap2\n      0x20\n      add\n      swap2\n      jump(tag_52)\n    tag_53:\n      dup3\n      add\n      swap2\n      swap1\n      0x00\n      mstore\n      keccak256(0x00, 0x20)\n      swap1\n    tag_54:\n      dup2\n      sload\n      dup2\n      mstore\n      swap1\n      0x01\n      add\n      swap1\n      0x20\n      add\n      dup1\n      dup4\n      gt\n      tag_54\n      jumpi\n      dup3\n      swap1\n      sub\n      0x1f\n      and\n      dup3\n      add\n      swap2\n    tag_52:\n      pop\n      pop\n      pop\n      pop\n      pop\n      dup2\n      mstore\n      0x20\n      add\n      0x07\n      dup3\n      add\n      dup1\n      sload\n      tag_55\n      swap1\n      tag_25\n      jump\t// in\n    tag_55:\n      dup1\n      0x1f\n      add\n      0x20\n      dup1\n      swap2\n      div\n      mul\n      0x20\n      add\n      mload(0x40)\n      swap1\n      dup2\n      add\n      0x40\n      mstore\n      dup1\n      swap3\n      swap2\n      swap1\n      dup2\n      dup2\n      mstore\n      0x20\n      add\n      dup3\n      dup1\n      sload\n      tag_56\n      swap1\n      tag_25\n      jump\t// in\n    tag_56:\n      dup1\n      iszero\n      tag_57\n      jumpi\n      dup1\n      0x1f\n      lt\n      tag_58\n      jumpi\n      0x0100\n      dup1\n      dup4\n      sload\n      div\n      mul\n      dup4\n      mstore\n      swap2\n      0x20\n      add\n      swap2\n      jump(tag_57)\n    tag_58:\n      dup3\n      add\n      swap2\n      swap1\n      0x00\n      mstore\n      keccak256(0x00, 0x20)\n      swap1\n    tag_59:\n      dup2\n      sload\n      dup2\n      mstore\n      swap1\n      0x01\n      add\n      swap1\n      0x20\n      add\n      dup1\n      dup4\n      gt\n      tag_59\n      jumpi\n      dup3\n      swap1\n      sub\n      0x1f\n      and\n      dup3\n      add\n      swap2\n    tag_57:\n      pop\n      pop\n      pop\n      pop\n      pop\n      dup2\n      mstore\n      pop\n      pop\n      dup2\n      mstore\n      0x20\n      add\n      swap1\n      0x01\n      add\n      swap1\n      jump(tag_21)\n    tag_22:\n      pop\n      pop\n      pop\n      pop\n      swap1\n      pop\n        /* \"contracts/User.sol\":779:877  function getPassport() public view  returns(Passport[] memory) {... */\n      swap1\n      jump\t// out\n        /* \"contracts/User.sol\":353:773  function setPassport(string memory _fName, string memory _lName, string memory _pob, string memory _dob, string memory _passNo, string memory _nft, address _addrs, string memory _sex) public {... */\n    tag_13:\n        /* \"contracts/User.sol\":555:582  Passport memory newPassport */\n      0x00\n        /* \"contracts/User.sol\":585:727  Passport({ firstName: _fName, lastName: _lName, placeOfBirth: _pob, DOB: _dob, passportNumber: _passNo, nft: _nft, addrs: _addrs, sex: _sex }) */\n      mload(0x40)\n      dup1\n      0x0100\n      add\n      0x40\n      mstore\n      dup1\n        /* \"contracts/User.sol\":707:713  _addrs */\n      dup5\n        /* \"contracts/User.sol\":585:727  Passport({ firstName: _fName, lastName: _lName, placeOfBirth: _pob, DOB: _dob, passportNumber: _passNo, nft: _nft, addrs: _addrs, sex: _sex }) */\n      0xffffffffffffffffffffffffffffffffffffffff\n      and\n      dup2\n      mstore\n      0x20\n      add\n        /* \"contracts/User.sol\":607:613  _fName */\n      dup11\n        /* \"contracts/User.sol\":585:727  Passport({ firstName: _fName, lastName: _lName, placeOfBirth: _pob, DOB: _dob, passportNumber: _passNo, nft: _nft, addrs: _addrs, sex: _sex }) */\n      dup2\n      mstore\n      0x20\n      add\n        /* \"contracts/User.sol\":720:724  _sex */\n      dup4\n        /* \"contracts/User.sol\":585:727  Passport({ firstName: _fName, lastName: _lName, placeOfBirth: _pob, DOB: _dob, passportNumber: _passNo, nft: _nft, addrs: _addrs, sex: _sex }) */\n      dup2\n      mstore\n      0x20\n      add\n        /* \"contracts/User.sol\":625:631  _lName */\n      dup10\n        /* \"contracts/User.sol\":585:727  Passport({ firstName: _fName, lastName: _lName, placeOfBirth: _pob, DOB: _dob, passportNumber: _passNo, nft: _nft, addrs: _addrs, sex: _sex }) */\n      dup2\n      mstore\n      0x20\n      add\n        /* \"contracts/User.sol\":647:651  _pob */\n      dup9\n        /* \"contracts/User.sol\":585:727  Passport({ firstName: _fName, lastName: _lName, placeOfBirth: _pob, DOB: _dob, passportNumber: _passNo, nft: _nft, addrs: _addrs, sex: _sex }) */\n      dup2\n      mstore\n      0x20\n      add\n        /* \"contracts/User.sol\":658:662  _dob */\n      dup8\n        /* \"contracts/User.sol\":585:727  Passport({ firstName: _fName, lastName: _lName, placeOfBirth: _pob, DOB: _dob, passportNumber: _passNo, nft: _nft, addrs: _addrs, sex: _sex }) */\n      dup2\n      mstore\n      0x20\n      add\n        /* \"contracts/User.sol\":680:687  _passNo */\n      dup7\n        /* \"contracts/User.sol\":585:727  Passport({ firstName: _fName, lastName: _lName, placeOfBirth: _pob, DOB: _dob, passportNumber: _passNo, nft: _nft, addrs: _addrs, sex: _sex }) */\n      dup2\n      mstore\n      0x20\n      add\n        /* \"contracts/User.sol\":694:698  _nft */\n      dup6\n        /* \"contracts/User.sol\":585:727  Passport({ firstName: _fName, lastName: _lName, placeOfBirth: _pob, DOB: _dob, passportNumber: _passNo, nft: _nft, addrs: _addrs, sex: _sex }) */\n      dup2\n      mstore\n      pop\n        /* \"contracts/User.sol\":555:727  Passport memory newPassport = Passport({ firstName: _fName, lastName: _lName, placeOfBirth: _pob, DOB: _dob, passportNumber: _passNo, nft: _nft, addrs: _addrs, sex: _sex }) */\n      swap1\n      pop\n        /* \"contracts/User.sol\":738:747  passports */\n      0x00\n        /* \"contracts/User.sol\":753:764  newPassport */\n      dup2\n        /* \"contracts/User.sol\":738:765  passports.push(newPassport) */\n      swap1\n      dup1\n      0x01\n      dup2\n      sload\n      add\n      dup1\n      dup3\n      sstore\n      dup1\n      swap2\n      pop\n      pop\n      0x01\n      swap1\n      sub\n      swap1\n      0x00\n      mstore\n      keccak256(0x00, 0x20)\n      swap1\n      0x08\n      mul\n      add\n      0x00\n      swap1\n      swap2\n      swap1\n      swap2\n      swap1\n      swap2\n      pop\n      0x00\n      dup3\n      add\n      mload\n      dup2\n      0x00\n      add\n      exp(0x0100, 0x00)\n      dup2\n      sload\n      dup2\n      0xffffffffffffffffffffffffffffffffffffffff\n      mul\n      not\n      and\n      swap1\n      dup4\n      0xffffffffffffffffffffffffffffffffffffffff\n      and\n      mul\n      or\n      swap1\n      sstore\n      pop\n      0x20\n      dup3\n      add\n      mload\n      dup2\n      0x01\n      add\n      swap1\n      dup2\n      tag_62\n      swap2\n      swap1\n      tag_63\n      jump\t// in\n    tag_62:\n      pop\n      0x40\n      dup3\n      add\n      mload\n      dup2\n      0x02\n      add\n      swap1\n      dup2\n      tag_64\n      swap2\n      swap1\n      tag_63\n      jump\t// in\n    tag_64:\n      pop\n      0x60\n      dup3\n      add\n      mload\n      dup2\n      0x03\n      add\n      swap1\n      dup2\n      tag_65\n      swap2\n      swap1\n      tag_63\n      jump\t// in\n    tag_65:\n      pop\n      0x80\n      dup3\n      add\n      mload\n      dup2\n      0x04\n      add\n      swap1\n      dup2\n      tag_66\n      swap2\n      swap1\n      tag_63\n      jump\t// in\n    tag_66:\n      pop\n      0xa0\n      dup3\n      add\n      mload\n      dup2\n      0x05\n      add\n      swap1\n      dup2\n      tag_67\n      swap2\n      swap1\n      tag_63\n      jump\t// in\n    tag_67:\n      pop\n      0xc0\n      dup3\n      add\n      mload\n      dup2\n      0x06\n      add\n      swap1\n      dup2\n      tag_68\n      swap2\n      swap1\n      tag_63\n      jump\t// in\n    tag_68:\n      pop\n      0xe0\n      dup3\n      add\n      mload\n      dup2\n      0x07\n      add\n      swap1\n      dup2\n      tag_69\n      swap2\n      swap1\n      tag_63\n      jump\t// in\n    tag_69:\n      pop\n      pop\n      pop\n        /* \"contracts/User.sol\":544:773  {... */\n      pop\n        /* \"contracts/User.sol\":353:773  function setPassport(string memory _fName, string memory _lName, string memory _pob, string memory _dob, string memory _passNo, string memory _nft, address _addrs, string memory _sex) public {... */\n      pop\n      pop\n      pop\n      pop\n      pop\n      pop\n      pop\n      pop\n      jump\t// out\n        /* \"contracts/User.sol\":317:344  Passport[] public passports */\n    tag_17:\n      0x00\n      dup2\n      dup2\n      sload\n      dup2\n      lt\n      tag_70\n      jumpi\n      0x00\n      dup1\n      revert\n    tag_70:\n      swap1\n      0x00\n      mstore\n      keccak256(0x00, 0x20)\n      swap1\n      0x08\n      mul\n      add\n      0x00\n      swap2\n      pop\n      swap1\n      pop\n      dup1\n      0x00\n      add\n      0x00\n      swap1\n      sload\n      swap1\n      0x0100\n      exp\n      swap1\n      div\n      0xffffffffffffffffffffffffffffffffffffffff\n      and\n      swap1\n      dup1\n      0x01\n      add\n      dup1\n      sload\n      tag_72\n      swap1\n      tag_25\n      jump\t// in\n    tag_72:\n      dup1\n      0x1f\n      add\n      0x20\n      dup1\n      swap2\n      div\n      mul\n      0x20\n      add\n      mload(0x40)\n      swap1\n      dup2\n      add\n      0x40\n      mstore\n      dup1\n      swap3\n      swap2\n      swap1\n      dup2\n      dup2\n      mstore\n      0x20\n      add\n      dup3\n      dup1\n      sload\n      tag_73\n      swap1\n      tag_25\n      jump\t// in\n    tag_73:\n      dup1\n      iszero\n      tag_74\n      jumpi\n      dup1\n      0x1f\n      lt\n      tag_75\n      jumpi\n      0x0100\n      dup1\n      dup4\n      sload\n      div\n      mul\n      dup4\n      mstore\n      swap2\n      0x20\n      add\n      swap2\n      jump(tag_74)\n    tag_75:\n      dup3\n      add\n      swap2\n      swap1\n      0x00\n      mstore\n      keccak256(0x00, 0x20)\n      swap1\n    tag_76:\n      dup2\n      sload\n      dup2\n      mstore\n      swap1\n      0x01\n      add\n      swap1\n      0x20\n      add\n      dup1\n      dup4\n      gt\n      tag_76\n      jumpi\n      dup3\n      swap1\n      sub\n      0x1f\n      and\n      dup3\n      add\n      swap2\n    tag_74:\n      pop\n      pop\n      pop\n      pop\n      pop\n      swap1\n      dup1\n      0x02\n      add\n      dup1\n      sload\n      tag_77\n      swap1\n      tag_25\n      jump\t// in\n    tag_77:\n      dup1\n      0x1f\n      add\n      0x20\n      dup1\n      swap2\n      div\n      mul\n      0x20\n      add\n      mload(0x40)\n      swap1\n      dup2\n      add\n      0x40\n      mstore\n      dup1\n      swap3\n      swap2\n      swap1\n      dup2\n      dup2\n      mstore\n      0x20\n      add\n      dup3\n      dup1\n      sload\n      tag_78\n      swap1\n      tag_25\n      jump\t// in\n    tag_78:\n      dup1\n      iszero\n      tag_79\n      jumpi\n      dup1\n      0x1f\n      lt\n      tag_80\n      jumpi\n      0x0100\n      dup1\n      dup4\n      sload\n      div\n      mul\n      dup4\n      mstore\n      swap2\n      0x20\n      add\n      swap2\n      jump(tag_79)\n    tag_80:\n      dup3\n      add\n      swap2\n      swap1\n      0x00\n      mstore\n      keccak256(0x00, 0x20)\n      swap1\n    tag_81:\n      dup2\n      sload\n      dup2\n      mstore\n      swap1\n      0x01\n      add\n      swap1\n      0x20\n      add\n      dup1\n      dup4\n      gt\n      tag_81\n      jumpi\n      dup3\n      swap1\n      sub\n      0x1f\n      and\n      dup3\n      add\n      swap2\n    tag_79:\n      pop\n      pop\n      pop\n      pop\n      pop\n      swap1\n      dup1\n      0x03\n      add\n      dup1\n      sload\n      tag_82\n      swap1\n      tag_25\n      jump\t// in\n    tag_82:\n      dup1\n      0x1f\n      add\n      0x20\n      dup1\n      swap2\n      div\n      mul\n      0x20\n      add\n      mload(0x40)\n      swap1\n      dup2\n      add\n      0x40\n      mstore\n      dup1\n      swap3\n      swap2\n      swap1\n      dup2\n      dup2\n      mstore\n      0x20\n      add\n      dup3\n      dup1\n      sload\n      tag_83\n      swap1\n      tag_25\n      jump\t// in\n    tag_83:\n      dup1\n      iszero\n      tag_84\n      jumpi\n      dup1\n      0x1f\n      lt\n      tag_85\n      jumpi\n      0x0100\n      dup1\n      dup4\n      sload\n      div\n      mul\n      dup4\n      mstore\n      swap2\n      0x20\n      add\n      swap2\n      jump(tag_84)\n    tag_85:\n      dup3\n      add\n      swap2\n      swap1\n      0x00\n      mstore\n      keccak256(0x00, 0x20)\n      swap1\n    tag_86:\n      dup2\n      sload\n      dup2\n      mstore\n      swap1\n      0x01\n      add\n      swap1\n      0x20\n      add\n      dup1\n      dup4\n      gt\n      tag_86\n      jumpi\n      dup3\n      swap1\n      sub\n      0x1f\n      and\n      dup3\n      add\n      swap2\n    tag_84:\n      pop\n      pop\n      pop\n      pop\n      pop\n      swap1\n      dup1\n      0x04\n      add\n      dup1\n      sload\n      tag_87\n      swap1\n      tag_25\n      jump\t// in\n    tag_87:\n      dup1\n      0x1f\n      add\n      0x20\n      dup1\n      swap2\n      div\n      mul\n      0x20\n      add\n      mload(0x40)\n      swap1\n      dup2\n      add\n      0x40\n      mstore\n      dup1\n      swap3\n      swap2\n      swap1\n      dup2\n      dup2\n      mstore\n      0x20\n      add\n      dup3\n      dup1\n      sload\n      tag_88\n      swap1\n      tag_25\n      jump\t// in\n    tag_88:\n      dup1\n      iszero\n      tag_89\n      jumpi\n      dup1\n      0x1f\n      lt\n      tag_90\n      jumpi\n      0x0100\n      dup1\n      dup4\n      sload\n      div\n      mul\n      dup4\n      mstore\n      swap2\n      0x20\n      add\n      swap2\n      jump(tag_89)\n    tag_90:\n      dup3\n      add\n      swap2\n      swap1\n      0x00\n      mstore\n      keccak256(0x00, 0x20)\n      swap1\n    tag_91:\n      dup2\n      sload\n      dup2\n      mstore\n      swap1\n      0x01\n      add\n      swap1\n      0x20\n      add\n      dup1\n      dup4\n      gt\n      tag_91\n      jumpi\n      dup3\n      swap1\n      sub\n      0x1f\n      and\n      dup3\n      add\n      swap2\n    tag_89:\n      pop\n      pop\n      pop\n      pop\n      pop\n      swap1\n      dup1\n      0x05\n      add\n      dup1\n      sload\n      tag_92\n      swap1\n      tag_25\n      jump\t// in\n    tag_92:\n      dup1\n      0x1f\n      add\n      0x20\n      dup1\n      swap2\n      div\n      mul\n      0x20\n      add\n      mload(0x40)\n      swap1\n      dup2\n      add\n      0x40\n      mstore\n      dup1\n      swap3\n      swap2\n      swap1\n      dup2\n      dup2\n      mstore\n      0x20\n      add\n      dup3\n      dup1\n      sload\n      tag_93\n      swap1\n      tag_25\n      jump\t// in\n    tag_93:\n      dup1\n      iszero\n      tag_94\n      jumpi\n      dup1\n      0x1f\n      lt\n      tag_95\n      jumpi\n      0x0100\n      dup1\n      dup4\n      sload\n      div\n      mul\n      dup4\n      mstore\n      swap2\n      0x20\n      add\n      swap2\n      jump(tag_94)\n    tag_95:\n      dup3\n      add\n      swap2\n      swap1\n      0x00\n      mstore\n      keccak256(0x00, 0x20)\n      swap1\n    tag_96:\n      dup2\n      sload\n      dup2\n      mstore\n      swap1\n      0x01\n      add\n      swap1\n      0x20\n      add\n      dup1\n      dup4\n      gt\n      tag_96\n      jumpi\n      dup3\n      swap1\n      sub\n      0x1f\n      and\n      dup3\n      add\n      swap2\n    tag_94:\n      pop\n      pop\n      pop\n      pop\n      pop\n      swap1\n      dup1\n      0x06\n      add\n      dup1\n      sload\n      tag_97\n      swap1\n      tag_25\n      jump\t// in\n    tag_97:\n      dup1\n      0x1f\n      add\n      0x20\n      dup1\n      swap2\n      div\n      mul\n      0x20\n      add\n      mload(0x40)\n      swap1\n      dup2\n      add\n      0x40\n      mstore\n      dup1\n      swap3\n      swap2\n      swap1\n      dup2\n      dup2\n      mstore\n      0x20\n      add\n      dup3\n      dup1\n      sload\n      tag_98\n      swap1\n      tag_25\n      jump\t// in\n    tag_98:\n      dup1\n      iszero\n      tag_99\n      jumpi\n      dup1\n      0x1f\n      lt\n      tag_100\n      jumpi\n      0x0100\n      dup1\n      dup4\n      sload\n      div\n      mul\n      dup4\n      mstore\n      swap2\n      0x20\n      add\n      swap2\n      jump(tag_99)\n    tag_100:\n      dup3\n      add\n      swap2\n      swap1\n      0x00\n      mstore\n      keccak256(0x00, 0x20)\n      swap1\n    tag_101:\n      dup2\n      sload\n      dup2\n      mstore\n      swap1\n      0x01\n      add\n      swap1\n      0x20\n      add\n      dup1\n      dup4\n      gt\n      tag_101\n      jumpi\n      dup3\n      swap1\n      sub\n      0x1f\n      and\n      dup3\n      add\n      swap2\n    tag_99:\n      pop\n      pop\n      pop\n      pop\n      pop\n      swap1\n      dup1\n      0x07\n      add\n      dup1\n      sload\n      tag_102\n      swap1\n      tag_25\n      jump\t// in\n    tag_102:\n      dup1\n      0x1f\n      add\n      0x20\n      dup1\n      swap2\n      div\n      mul\n      0x20\n      add\n      mload(0x40)\n      swap1\n      dup2\n      add\n      0x40\n      mstore\n      dup1\n      swap3\n      swap2\n      swap1\n      dup2\n      dup2\n      mstore\n      0x20\n      add\n      dup3\n      dup1\n      sload\n      tag_103\n      swap1\n      tag_25\n      jump\t// in\n    tag_103:\n      dup1\n      iszero\n      tag_104\n      jumpi\n      dup1\n      0x1f\n      lt\n      tag_105\n      jumpi\n      0x0100\n      dup1\n      dup4\n      sload\n      div\n      mul\n      dup4\n      mstore\n      swap2\n      0x20\n      add\n      swap2\n      jump(tag_104)\n    tag_105:\n      dup3\n      add\n      swap2\n      swap1\n      0x00\n      mstore\n      keccak256(0x00, 0x20)\n      swap1\n    tag_106:\n      dup2\n      sload\n      dup2\n      mstore\n      swap1\n      0x01\n      add\n      swap1\n      0x20\n      add\n      dup1\n      dup4\n      gt\n      tag_106\n      jumpi\n      dup3\n      swap1\n      sub\n      0x1f\n      and\n      dup3\n      add\n      swap2\n    tag_104:\n      pop\n      pop\n      pop\n      pop\n      pop\n      swap1\n      pop\n      dup9\n      jump\t// out\n        /* \"#utility.yul\":7:145   */\n    tag_107:\n        /* \"#utility.yul\":98:104   */\n      0x00\n        /* \"#utility.yul\":132:137   */\n      dup2\n        /* \"#utility.yul\":126:138   */\n      mload\n        /* \"#utility.yul\":116:138   */\n      swap1\n      pop\n        /* \"#utility.yul\":7:145   */\n      swap2\n      swap1\n      pop\n      jump\t// out\n        /* \"#utility.yul\":151:359   */\n    tag_108:\n        /* \"#utility.yul\":274:285   */\n      0x00\n        /* \"#utility.yul\":308:314   */\n      dup3\n        /* \"#utility.yul\":303:306   */\n      dup3\n        /* \"#utility.yul\":296:315   */\n      mstore\n        /* \"#utility.yul\":348:352   */\n      0x20\n        /* \"#utility.yul\":343:346   */\n      dup3\n        /* \"#utility.yul\":339:353   */\n      add\n        /* \"#utility.yul\":324:353   */\n      swap1\n      pop\n        /* \"#utility.yul\":151:359   */\n      swap3\n      swap2\n      pop\n      pop\n      jump\t// out\n        /* \"#utility.yul\":365:521   */\n    tag_109:\n        /* \"#utility.yul\":456:460   */\n      0x00\n        /* \"#utility.yul\":479:482   */\n      dup2\n        /* \"#utility.yul\":471:482   */\n      swap1\n      pop\n        /* \"#utility.yul\":509:513   */\n      0x20\n        /* \"#utility.yul\":504:507   */\n      dup3\n        /* \"#utility.yul\":500:514   */\n      add\n        /* \"#utility.yul\":492:514   */\n      swap1\n      pop\n        /* \"#utility.yul\":365:521   */\n      swap2\n      swap1\n      pop\n      jump\t// out\n        /* \"#utility.yul\":527:653   */\n    tag_110:\n        /* \"#utility.yul\":564:571   */\n      0x00\n        /* \"#utility.yul\":604:646   */\n      0xffffffffffffffffffffffffffffffffffffffff\n        /* \"#utility.yul\":597:602   */\n      dup3\n        /* \"#utility.yul\":593:647   */\n      and\n        /* \"#utility.yul\":582:647   */\n      swap1\n      pop\n        /* \"#utility.yul\":527:653   */\n      swap2\n      swap1\n      pop\n      jump\t// out\n        /* \"#utility.yul\":659:755   */\n    tag_111:\n        /* \"#utility.yul\":696:703   */\n      0x00\n        /* \"#utility.yul\":725:749   */\n      tag_164\n        /* \"#utility.yul\":743:748   */\n      dup3\n        /* \"#utility.yul\":725:749   */\n      tag_110\n      jump\t// in\n    tag_164:\n        /* \"#utility.yul\":714:749   */\n      swap1\n      pop\n        /* \"#utility.yul\":659:755   */\n      swap2\n      swap1\n      pop\n      jump\t// out\n        /* \"#utility.yul\":761:869   */\n    tag_112:\n        /* \"#utility.yul\":838:862   */\n      tag_166\n        /* \"#utility.yul\":856:861   */\n      dup2\n        /* \"#utility.yul\":838:862   */\n      tag_111\n      jump\t// in\n    tag_166:\n        /* \"#utility.yul\":833:836   */\n      dup3\n        /* \"#utility.yul\":826:863   */\n      mstore\n        /* \"#utility.yul\":761:869   */\n      pop\n      pop\n      jump\t// out\n        /* \"#utility.yul\":875:974   */\n    tag_113:\n        /* \"#utility.yul\":927:933   */\n      0x00\n        /* \"#utility.yul\":961:966   */\n      dup2\n        /* \"#utility.yul\":955:967   */\n      mload\n        /* \"#utility.yul\":945:967   */\n      swap1\n      pop\n        /* \"#utility.yul\":875:974   */\n      swap2\n      swap1\n      pop\n      jump\t// out\n        /* \"#utility.yul\":980:1139   */\n    tag_114:\n        /* \"#utility.yul\":1054:1065   */\n      0x00\n        /* \"#utility.yul\":1088:1094   */\n      dup3\n        /* \"#utility.yul\":1083:1086   */\n      dup3\n        /* \"#utility.yul\":1076:1095   */\n      mstore\n        /* \"#utility.yul\":1128:1132   */\n      0x20\n        /* \"#utility.yul\":1123:1126   */\n      dup3\n        /* \"#utility.yul\":1119:1133   */\n      add\n        /* \"#utility.yul\":1104:1133   */\n      swap1\n      pop\n        /* \"#utility.yul\":980:1139   */\n      swap3\n      swap2\n      pop\n      pop\n      jump\t// out\n        /* \"#utility.yul\":1145:1284   */\n    tag_115:\n        /* \"#utility.yul\":1234:1240   */\n      dup3\n        /* \"#utility.yul\":1229:1232   */\n      dup2\n        /* \"#utility.yul\":1224:1227   */\n      dup4\n        /* \"#utility.yul\":1218:1241   */\n      mcopy\n        /* \"#utility.yul\":1275:1276   */\n      0x00\n        /* \"#utility.yul\":1266:1272   */\n      dup4\n        /* \"#utility.yul\":1261:1264   */\n      dup4\n        /* \"#utility.yul\":1257:1273   */\n      add\n        /* \"#utility.yul\":1250:1277   */\n      mstore\n        /* \"#utility.yul\":1145:1284   */\n      pop\n      pop\n      pop\n      jump\t// out\n        /* \"#utility.yul\":1290:1392   */\n    tag_116:\n        /* \"#utility.yul\":1331:1337   */\n      0x00\n        /* \"#utility.yul\":1382:1384   */\n      0x1f\n        /* \"#utility.yul\":1378:1385   */\n      not\n        /* \"#utility.yul\":1373:1375   */\n      0x1f\n        /* \"#utility.yul\":1366:1371   */\n      dup4\n        /* \"#utility.yul\":1362:1376   */\n      add\n        /* \"#utility.yul\":1358:1386   */\n      and\n        /* \"#utility.yul\":1348:1386   */\n      swap1\n      pop\n        /* \"#utility.yul\":1290:1392   */\n      swap2\n      swap1\n      pop\n      jump\t// out\n        /* \"#utility.yul\":1398:1755   */\n    tag_117:\n        /* \"#utility.yul\":1476:1479   */\n      0x00\n        /* \"#utility.yul\":1504:1543   */\n      tag_172\n        /* \"#utility.yul\":1537:1542   */\n      dup3\n        /* \"#utility.yul\":1504:1543   */\n      tag_113\n      jump\t// in\n    tag_172:\n        /* \"#utility.yul\":1559:1620   */\n      tag_173\n        /* \"#utility.yul\":1613:1619   */\n      dup2\n        /* \"#utility.yul\":1608:1611   */\n      dup6\n        /* \"#utility.yul\":1559:1620   */\n      tag_114\n      jump\t// in\n    tag_173:\n        /* \"#utility.yul\":1552:1620   */\n      swap4\n      pop\n        /* \"#utility.yul\":1629:1694   */\n      tag_174\n        /* \"#utility.yul\":1687:1693   */\n      dup2\n        /* \"#utility.yul\":1682:1685   */\n      dup6\n        /* \"#utility.yul\":1675:1679   */\n      0x20\n        /* \"#utility.yul\":1668:1673   */\n      dup7\n        /* \"#utility.yul\":1664:1680   */\n      add\n        /* \"#utility.yul\":1629:1694   */\n      tag_115\n      jump\t// in\n    tag_174:\n        /* \"#utility.yul\":1719:1748   */\n      tag_175\n        /* \"#utility.yul\":1741:1747   */\n      dup2\n        /* \"#utility.yul\":1719:1748   */\n      tag_116\n      jump\t// in\n    tag_175:\n        /* \"#utility.yul\":1714:1717   */\n      dup5\n        /* \"#utility.yul\":1710:1749   */\n      add\n        /* \"#utility.yul\":1703:1749   */\n      swap2\n      pop\n        /* \"#utility.yul\":1480:1755   */\n      pop\n        /* \"#utility.yul\":1398:1755   */\n      swap3\n      swap2\n      pop\n      pop\n      jump\t// out\n        /* \"#utility.yul\":1813:3904   */\n    tag_118:\n        /* \"#utility.yul\":1920:1923   */\n      0x00\n        /* \"#utility.yul\":1956:1962   */\n      0x0100\n        /* \"#utility.yul\":1951:1954   */\n      dup4\n        /* \"#utility.yul\":1947:1963   */\n      add\n        /* \"#utility.yul\":2046:2050   */\n      0x00\n        /* \"#utility.yul\":2039:2044   */\n      dup4\n        /* \"#utility.yul\":2035:2051   */\n      add\n        /* \"#utility.yul\":2029:2052   */\n      mload\n        /* \"#utility.yul\":2065:2128   */\n      tag_177\n        /* \"#utility.yul\":2122:2126   */\n      0x00\n        /* \"#utility.yul\":2117:2120   */\n      dup7\n        /* \"#utility.yul\":2113:2127   */\n      add\n        /* \"#utility.yul\":2099:2111   */\n      dup3\n        /* \"#utility.yul\":2065:2128   */\n      tag_112\n      jump\t// in\n    tag_177:\n        /* \"#utility.yul\":1973:2138   */\n      pop\n        /* \"#utility.yul\":2225:2229   */\n      0x20\n        /* \"#utility.yul\":2218:2223   */\n      dup4\n        /* \"#utility.yul\":2214:2230   */\n      add\n        /* \"#utility.yul\":2208:2231   */\n      mload\n        /* \"#utility.yul\":2278:2281   */\n      dup5\n        /* \"#utility.yul\":2272:2276   */\n      dup3\n        /* \"#utility.yul\":2268:2282   */\n      sub\n        /* \"#utility.yul\":2261:2265   */\n      0x20\n        /* \"#utility.yul\":2256:2259   */\n      dup7\n        /* \"#utility.yul\":2252:2266   */\n      add\n        /* \"#utility.yul\":2245:2283   */\n      mstore\n        /* \"#utility.yul\":2304:2377   */\n      tag_178\n        /* \"#utility.yul\":2372:2376   */\n      dup3\n        /* \"#utility.yul\":2358:2370   */\n      dup3\n        /* \"#utility.yul\":2304:2377   */\n      tag_117\n      jump\t// in\n    tag_178:\n        /* \"#utility.yul\":2296:2377   */\n      swap2\n      pop\n        /* \"#utility.yul\":2148:2388   */\n      pop\n        /* \"#utility.yul\":2469:2473   */\n      0x40\n        /* \"#utility.yul\":2462:2467   */\n      dup4\n        /* \"#utility.yul\":2458:2474   */\n      add\n        /* \"#utility.yul\":2452:2475   */\n      mload\n        /* \"#utility.yul\":2522:2525   */\n      dup5\n        /* \"#utility.yul\":2516:2520   */\n      dup3\n        /* \"#utility.yul\":2512:2526   */\n      sub\n        /* \"#utility.yul\":2505:2509   */\n      0x40\n        /* \"#utility.yul\":2500:2503   */\n      dup7\n        /* \"#utility.yul\":2496:2510   */\n      add\n        /* \"#utility.yul\":2489:2527   */\n      mstore\n        /* \"#utility.yul\":2548:2621   */\n      tag_179\n        /* \"#utility.yul\":2616:2620   */\n      dup3\n        /* \"#utility.yul\":2602:2614   */\n      dup3\n        /* \"#utility.yul\":2548:2621   */\n      tag_117\n      jump\t// in\n    tag_179:\n        /* \"#utility.yul\":2540:2621   */\n      swap2\n      pop\n        /* \"#utility.yul\":2398:2632   */\n      pop\n        /* \"#utility.yul\":2718:2722   */\n      0x60\n        /* \"#utility.yul\":2711:2716   */\n      dup4\n        /* \"#utility.yul\":2707:2723   */\n      add\n        /* \"#utility.yul\":2701:2724   */\n      mload\n        /* \"#utility.yul\":2771:2774   */\n      dup5\n        /* \"#utility.yul\":2765:2769   */\n      dup3\n        /* \"#utility.yul\":2761:2775   */\n      sub\n        /* \"#utility.yul\":2754:2758   */\n      0x60\n        /* \"#utility.yul\":2749:2752   */\n      dup7\n        /* \"#utility.yul\":2745:2759   */\n      add\n        /* \"#utility.yul\":2738:2776   */\n      mstore\n        /* \"#utility.yul\":2797:2870   */\n      tag_180\n        /* \"#utility.yul\":2865:2869   */\n      dup3\n        /* \"#utility.yul\":2851:2863   */\n      dup3\n        /* \"#utility.yul\":2797:2870   */\n      tag_117\n      jump\t// in\n    tag_180:\n        /* \"#utility.yul\":2789:2870   */\n      swap2\n      pop\n        /* \"#utility.yul\":2642:2881   */\n      pop\n        /* \"#utility.yul\":2971:2975   */\n      0x80\n        /* \"#utility.yul\":2964:2969   */\n      dup4\n        /* \"#utility.yul\":2960:2976   */\n      add\n        /* \"#utility.yul\":2954:2977   */\n      mload\n        /* \"#utility.yul\":3024:3027   */\n      dup5\n        /* \"#utility.yul\":3018:3022   */\n      dup3\n        /* \"#utility.yul\":3014:3028   */\n      sub\n        /* \"#utility.yul\":3007:3011   */\n      0x80\n        /* \"#utility.yul\":3002:3005   */\n      dup7\n        /* \"#utility.yul\":2998:3012   */\n      add\n        /* \"#utility.yul\":2991:3029   */\n      mstore\n        /* \"#utility.yul\":3050:3123   */\n      tag_181\n        /* \"#utility.yul\":3118:3122   */\n      dup3\n        /* \"#utility.yul\":3104:3116   */\n      dup3\n        /* \"#utility.yul\":3050:3123   */\n      tag_117\n      jump\t// in\n    tag_181:\n        /* \"#utility.yul\":3042:3123   */\n      swap2\n      pop\n        /* \"#utility.yul\":2891:3134   */\n      pop\n        /* \"#utility.yul\":3215:3219   */\n      0xa0\n        /* \"#utility.yul\":3208:3213   */\n      dup4\n        /* \"#utility.yul\":3204:3220   */\n      add\n        /* \"#utility.yul\":3198:3221   */\n      mload\n        /* \"#utility.yul\":3268:3271   */\n      dup5\n        /* \"#utility.yul\":3262:3266   */\n      dup3\n        /* \"#utility.yul\":3258:3272   */\n      sub\n        /* \"#utility.yul\":3251:3255   */\n      0xa0\n        /* \"#utility.yul\":3246:3249   */\n      dup7\n        /* \"#utility.yul\":3242:3256   */\n      add\n        /* \"#utility.yul\":3235:3273   */\n      mstore\n        /* \"#utility.yul\":3294:3367   */\n      tag_182\n        /* \"#utility.yul\":3362:3366   */\n      dup3\n        /* \"#utility.yul\":3348:3360   */\n      dup3\n        /* \"#utility.yul\":3294:3367   */\n      tag_117\n      jump\t// in\n    tag_182:\n        /* \"#utility.yul\":3286:3367   */\n      swap2\n      pop\n        /* \"#utility.yul\":3144:3378   */\n      pop\n        /* \"#utility.yul\":3470:3474   */\n      0xc0\n        /* \"#utility.yul\":3463:3468   */\n      dup4\n        /* \"#utility.yul\":3459:3475   */\n      add\n        /* \"#utility.yul\":3453:3476   */\n      mload\n        /* \"#utility.yul\":3523:3526   */\n      dup5\n        /* \"#utility.yul\":3517:3521   */\n      dup3\n        /* \"#utility.yul\":3513:3527   */\n      sub\n        /* \"#utility.yul\":3506:3510   */\n      0xc0\n        /* \"#utility.yul\":3501:3504   */\n      dup7\n        /* \"#utility.yul\":3497:3511   */\n      add\n        /* \"#utility.yul\":3490:3528   */\n      mstore\n        /* \"#utility.yul\":3549:3622   */\n      tag_183\n        /* \"#utility.yul\":3617:3621   */\n      dup3\n        /* \"#utility.yul\":3603:3615   */\n      dup3\n        /* \"#utility.yul\":3549:3622   */\n      tag_117\n      jump\t// in\n    tag_183:\n        /* \"#utility.yul\":3541:3622   */\n      swap2\n      pop\n        /* \"#utility.yul\":3388:3633   */\n      pop\n        /* \"#utility.yul\":3714:3718   */\n      0xe0\n        /* \"#utility.yul\":3707:3712   */\n      dup4\n        /* \"#utility.yul\":3703:3719   */\n      add\n        /* \"#utility.yul\":3697:3720   */\n      mload\n        /* \"#utility.yul\":3767:3770   */\n      dup5\n        /* \"#utility.yul\":3761:3765   */\n      dup3\n        /* \"#utility.yul\":3757:3771   */\n      sub\n        /* \"#utility.yul\":3750:3754   */\n      0xe0\n        /* \"#utility.yul\":3745:3748   */\n      dup7\n        /* \"#utility.yul\":3741:3755   */\n      add\n        /* \"#utility.yul\":3734:3772   */\n      mstore\n        /* \"#utility.yul\":3793:3866   */\n      tag_184\n        /* \"#utility.yul\":3861:3865   */\n      dup3\n        /* \"#utility.yul\":3847:3859   */\n      dup3\n        /* \"#utility.yul\":3793:3866   */\n      tag_117\n      jump\t// in\n    tag_184:\n        /* \"#utility.yul\":3785:3866   */\n      swap2\n      pop\n        /* \"#utility.yul\":3643:3877   */\n      pop\n        /* \"#utility.yul\":3894:3898   */\n      dup1\n        /* \"#utility.yul\":3887:3898   */\n      swap2\n      pop\n        /* \"#utility.yul\":1925:3904   */\n      pop\n        /* \"#utility.yul\":1813:3904   */\n      swap3\n      swap2\n      pop\n      pop\n      jump\t// out\n        /* \"#utility.yul\":3910:4162   */\n    tag_119:\n        /* \"#utility.yul\":4027:4037   */\n      0x00\n        /* \"#utility.yul\":4062:4156   */\n      tag_186\n        /* \"#utility.yul\":4152:4155   */\n      dup4\n        /* \"#utility.yul\":4144:4150   */\n      dup4\n        /* \"#utility.yul\":4062:4156   */\n      tag_118\n      jump\t// in\n    tag_186:\n        /* \"#utility.yul\":4048:4156   */\n      swap1\n      pop\n        /* \"#utility.yul\":3910:4162   */\n      swap3\n      swap2\n      pop\n      pop\n      jump\t// out\n        /* \"#utility.yul\":4168:4305   */\n    tag_120:\n        /* \"#utility.yul\":4262:4266   */\n      0x00\n        /* \"#utility.yul\":4294:4298   */\n      0x20\n        /* \"#utility.yul\":4289:4292   */\n      dup3\n        /* \"#utility.yul\":4285:4299   */\n      add\n        /* \"#utility.yul\":4277:4299   */\n      swap1\n      pop\n        /* \"#utility.yul\":4168:4305   */\n      swap2\n      swap1\n      pop\n      jump\t// out\n        /* \"#utility.yul\":4367:5470   */\n    tag_121:\n        /* \"#utility.yul\":4534:4537   */\n      0x00\n        /* \"#utility.yul\":4563:4641   */\n      tag_189\n        /* \"#utility.yul\":4635:4640   */\n      dup3\n        /* \"#utility.yul\":4563:4641   */\n      tag_107\n      jump\t// in\n    tag_189:\n        /* \"#utility.yul\":4657:4767   */\n      tag_190\n        /* \"#utility.yul\":4760:4766   */\n      dup2\n        /* \"#utility.yul\":4755:4758   */\n      dup6\n        /* \"#utility.yul\":4657:4767   */\n      tag_108\n      jump\t// in\n    tag_190:\n        /* \"#utility.yul\":4650:4767   */\n      swap4\n      pop\n        /* \"#utility.yul\":4793:4796   */\n      dup4\n        /* \"#utility.yul\":4838:4842   */\n      0x20\n        /* \"#utility.yul\":4830:4836   */\n      dup3\n        /* \"#utility.yul\":4826:4843   */\n      mul\n        /* \"#utility.yul\":4821:4824   */\n      dup6\n        /* \"#utility.yul\":4817:4844   */\n      add\n        /* \"#utility.yul\":4868:4948   */\n      tag_191\n        /* \"#utility.yul\":4942:4947   */\n      dup6\n        /* \"#utility.yul\":4868:4948   */\n      tag_109\n      jump\t// in\n    tag_191:\n        /* \"#utility.yul\":4971:4978   */\n      dup1\n        /* \"#utility.yul\":5002:5003   */\n      0x00\n        /* \"#utility.yul\":4987:5425   */\n    tag_192:\n        /* \"#utility.yul\":5012:5018   */\n      dup6\n        /* \"#utility.yul\":5009:5010   */\n      dup2\n        /* \"#utility.yul\":5006:5019   */\n      lt\n        /* \"#utility.yul\":4987:5425   */\n      iszero\n      tag_194\n      jumpi\n        /* \"#utility.yul\":5083:5092   */\n      dup5\n        /* \"#utility.yul\":5077:5081   */\n      dup5\n        /* \"#utility.yul\":5073:5093   */\n      sub\n        /* \"#utility.yul\":5068:5071   */\n      dup10\n        /* \"#utility.yul\":5061:5094   */\n      mstore\n        /* \"#utility.yul\":5134:5140   */\n      dup2\n        /* \"#utility.yul\":5128:5141   */\n      mload\n        /* \"#utility.yul\":5162:5274   */\n      tag_195\n        /* \"#utility.yul\":5269:5273   */\n      dup6\n        /* \"#utility.yul\":5254:5267   */\n      dup3\n        /* \"#utility.yul\":5162:5274   */\n      tag_119\n      jump\t// in\n    tag_195:\n        /* \"#utility.yul\":5154:5274   */\n      swap5\n      pop\n        /* \"#utility.yul\":5297:5381   */\n      tag_196\n        /* \"#utility.yul\":5374:5380   */\n      dup4\n        /* \"#utility.yul\":5297:5381   */\n      tag_120\n      jump\t// in\n    tag_196:\n        /* \"#utility.yul\":5287:5381   */\n      swap3\n      pop\n        /* \"#utility.yul\":5410:5414   */\n      0x20\n        /* \"#utility.yul\":5405:5408   */\n      dup11\n        /* \"#utility.yul\":5401:5415   */\n      add\n        /* \"#utility.yul\":5394:5415   */\n      swap10\n      pop\n        /* \"#utility.yul\":5047:5425   */\n      pop\n        /* \"#utility.yul\":5034:5035   */\n      0x01\n        /* \"#utility.yul\":5031:5032   */\n      dup2\n        /* \"#utility.yul\":5027:5036   */\n      add\n        /* \"#utility.yul\":5022:5036   */\n      swap1\n      pop\n        /* \"#utility.yul\":4987:5425   */\n      jump(tag_192)\n    tag_194:\n        /* \"#utility.yul\":4991:5005   */\n      pop\n        /* \"#utility.yul\":5441:5445   */\n      dup3\n        /* \"#utility.yul\":5434:5445   */\n      swap8\n      pop\n        /* \"#utility.yul\":5461:5464   */\n      dup8\n        /* \"#utility.yul\":5454:5464   */\n      swap6\n      pop\n        /* \"#utility.yul\":4539:5470   */\n      pop\n      pop\n      pop\n      pop\n      pop\n        /* \"#utility.yul\":4367:5470   */\n      swap3\n      swap2\n      pop\n      pop\n      jump\t// out\n        /* \"#utility.yul\":5476:5945   */\n    tag_9:\n        /* \"#utility.yul\":5667:5671   */\n      0x00\n        /* \"#utility.yul\":5705:5707   */\n      0x20\n        /* \"#utility.yul\":5694:5703   */\n      dup3\n        /* \"#utility.yul\":5690:5708   */\n      add\n        /* \"#utility.yul\":5682:5708   */\n      swap1\n      pop\n        /* \"#utility.yul\":5754:5763   */\n      dup2\n        /* \"#utility.yul\":5748:5752   */\n      dup2\n        /* \"#utility.yul\":5744:5764   */\n      sub\n        /* \"#utility.yul\":5740:5741   */\n      0x00\n        /* \"#utility.yul\":5729:5738   */\n      dup4\n        /* \"#utility.yul\":5725:5742   */\n      add\n        /* \"#utility.yul\":5718:5765   */\n      mstore\n        /* \"#utility.yul\":5782:5938   */\n      tag_198\n        /* \"#utility.yul\":5933:5937   */\n      dup2\n        /* \"#utility.yul\":5924:5930   */\n      dup5\n        /* \"#utility.yul\":5782:5938   */\n      tag_121\n      jump\t// in\n    tag_198:\n        /* \"#utility.yul\":5774:5938   */\n      swap1\n      pop\n        /* \"#utility.yul\":5476:5945   */\n      swap3\n      swap2\n      pop\n      pop\n      jump\t// out\n        /* \"#utility.yul\":5951:6026   */\n    tag_122:\n        /* \"#utility.yul\":5984:5990   */\n      0x00\n        /* \"#utility.yul\":6017:6019   */\n      0x40\n        /* \"#utility.yul\":6011:6020   */\n      mload\n        /* \"#utility.yul\":6001:6020   */\n      swap1\n      pop\n        /* \"#utility.yul\":5951:6026   */\n      swap1\n      jump\t// out\n        /* \"#utility.yul\":6032:6149   */\n    tag_123:\n        /* \"#utility.yul\":6141:6142   */\n      0x00\n        /* \"#utility.yul\":6138:6139   */\n      dup1\n        /* \"#utility.yul\":6131:6143   */\n      revert\n        /* \"#utility.yul\":6155:6272   */\n    tag_124:\n        /* \"#utility.yul\":6264:6265   */\n      0x00\n        /* \"#utility.yul\":6261:6262   */\n      dup1\n        /* \"#utility.yul\":6254:6266   */\n      revert\n        /* \"#utility.yul\":6278:6395   */\n    tag_125:\n        /* \"#utility.yul\":6387:6388   */\n      0x00\n        /* \"#utility.yul\":6384:6385   */\n      dup1\n        /* \"#utility.yul\":6377:6389   */\n      revert\n        /* \"#utility.yul\":6401:6518   */\n    tag_126:\n        /* \"#utility.yul\":6510:6511   */\n      0x00\n        /* \"#utility.yul\":6507:6508   */\n      dup1\n        /* \"#utility.yul\":6500:6512   */\n      revert\n        /* \"#utility.yul\":6524:6704   */\n    tag_127:\n        /* \"#utility.yul\":6572:6649   */\n      0x4e487b7100000000000000000000000000000000000000000000000000000000\n        /* \"#utility.yul\":6569:6570   */\n      0x00\n        /* \"#utility.yul\":6562:6650   */\n      mstore\n        /* \"#utility.yul\":6669:6673   */\n      0x41\n        /* \"#utility.yul\":6666:6667   */\n      0x04\n        /* \"#utility.yul\":6659:6674   */\n      mstore\n        /* \"#utility.yul\":6693:6697   */\n      0x24\n        /* \"#utility.yul\":6690:6691   */\n      0x00\n        /* \"#utility.yul\":6683:6698   */\n      revert\n        /* \"#utility.yul\":6710:6991   */\n    tag_128:\n        /* \"#utility.yul\":6793:6820   */\n      tag_206\n        /* \"#utility.yul\":6815:6819   */\n      dup3\n        /* \"#utility.yul\":6793:6820   */\n      tag_116\n      jump\t// in\n    tag_206:\n        /* \"#utility.yul\":6785:6791   */\n      dup2\n        /* \"#utility.yul\":6781:6821   */\n      add\n        /* \"#utility.yul\":6923:6929   */\n      dup2\n        /* \"#utility.yul\":6911:6921   */\n      dup2\n        /* \"#utility.yul\":6908:6930   */\n      lt\n        /* \"#utility.yul\":6887:6905   */\n      0xffffffffffffffff\n        /* \"#utility.yul\":6875:6885   */\n      dup3\n        /* \"#utility.yul\":6872:6906   */\n      gt\n        /* \"#utility.yul\":6869:6931   */\n      or\n        /* \"#utility.yul\":6866:6954   */\n      iszero\n      tag_207\n      jumpi\n        /* \"#utility.yul\":6934:6952   */\n      tag_208\n      tag_127\n      jump\t// in\n    tag_208:\n        /* \"#utility.yul\":6866:6954   */\n    tag_207:\n        /* \"#utility.yul\":6974:6984   */\n      dup1\n        /* \"#utility.yul\":6970:6972   */\n      0x40\n        /* \"#utility.yul\":6963:6985   */\n      mstore\n        /* \"#utility.yul\":6753:6991   */\n      pop\n        /* \"#utility.yul\":6710:6991   */\n      pop\n      pop\n      jump\t// out\n        /* \"#utility.yul\":6997:7126   */\n    tag_129:\n        /* \"#utility.yul\":7031:7037   */\n      0x00\n        /* \"#utility.yul\":7058:7078   */\n      tag_210\n      tag_122\n      jump\t// in\n    tag_210:\n        /* \"#utility.yul\":7048:7078   */\n      swap1\n      pop\n        /* \"#utility.yul\":7087:7120   */\n      tag_211\n        /* \"#utility.yul\":7115:7119   */\n      dup3\n        /* \"#utility.yul\":7107:7113   */\n      dup3\n        /* \"#utility.yul\":7087:7120   */\n      tag_128\n      jump\t// in\n    tag_211:\n        /* \"#utility.yul\":6997:7126   */\n      swap2\n      swap1\n      pop\n      jump\t// out\n        /* \"#utility.yul\":7132:7440   */\n    tag_130:\n        /* \"#utility.yul\":7194:7198   */\n      0x00\n        /* \"#utility.yul\":7284:7302   */\n      0xffffffffffffffff\n        /* \"#utility.yul\":7276:7282   */\n      dup3\n        /* \"#utility.yul\":7273:7303   */\n      gt\n        /* \"#utility.yul\":7270:7326   */\n      iszero\n      tag_213\n      jumpi\n        /* \"#utility.yul\":7306:7324   */\n      tag_214\n      tag_127\n      jump\t// in\n    tag_214:\n        /* \"#utility.yul\":7270:7326   */\n    tag_213:\n        /* \"#utility.yul\":7344:7373   */\n      tag_215\n        /* \"#utility.yul\":7366:7372   */\n      dup3\n        /* \"#utility.yul\":7344:7373   */\n      tag_116\n      jump\t// in\n    tag_215:\n        /* \"#utility.yul\":7336:7373   */\n      swap1\n      pop\n        /* \"#utility.yul\":7428:7432   */\n      0x20\n        /* \"#utility.yul\":7422:7426   */\n      dup2\n        /* \"#utility.yul\":7418:7433   */\n      add\n        /* \"#utility.yul\":7410:7433   */\n      swap1\n      pop\n        /* \"#utility.yul\":7132:7440   */\n      swap2\n      swap1\n      pop\n      jump\t// out\n        /* \"#utility.yul\":7446:7594   */\n    tag_131:\n        /* \"#utility.yul\":7544:7550   */\n      dup3\n        /* \"#utility.yul\":7539:7542   */\n      dup2\n        /* \"#utility.yul\":7534:7537   */\n      dup4\n        /* \"#utility.yul\":7521:7551   */\n      calldatacopy\n        /* \"#utility.yul\":7585:7586   */\n      0x00\n        /* \"#utility.yul\":7576:7582   */\n      dup4\n        /* \"#utility.yul\":7571:7574   */\n      dup4\n        /* \"#utility.yul\":7567:7583   */\n      add\n        /* \"#utility.yul\":7560:7587   */\n      mstore\n        /* \"#utility.yul\":7446:7594   */\n      pop\n      pop\n      pop\n      jump\t// out\n        /* \"#utility.yul\":7600:8025   */\n    tag_132:\n        /* \"#utility.yul\":7678:7683   */\n      0x00\n        /* \"#utility.yul\":7703:7769   */\n      tag_218\n        /* \"#utility.yul\":7719:7768   */\n      tag_219\n        /* \"#utility.yul\":7761:7767   */\n      dup5\n        /* \"#utility.yul\":7719:7768   */\n      tag_130\n      jump\t// in\n    tag_219:\n        /* \"#utility.yul\":7703:7769   */\n      tag_129\n      jump\t// in\n    tag_218:\n        /* \"#utility.yul\":7694:7769   */\n      swap1\n      pop\n        /* \"#utility.yul\":7792:7798   */\n      dup3\n        /* \"#utility.yul\":7785:7790   */\n      dup2\n        /* \"#utility.yul\":7778:7799   */\n      mstore\n        /* \"#utility.yul\":7830:7834   */\n      0x20\n        /* \"#utility.yul\":7823:7828   */\n      dup2\n        /* \"#utility.yul\":7819:7835   */\n      add\n        /* \"#utility.yul\":7868:7871   */\n      dup5\n        /* \"#utility.yul\":7859:7865   */\n      dup5\n        /* \"#utility.yul\":7854:7857   */\n      dup5\n        /* \"#utility.yul\":7850:7866   */\n      add\n        /* \"#utility.yul\":7847:7872   */\n      gt\n        /* \"#utility.yul\":7844:7956   */\n      iszero\n      tag_220\n      jumpi\n        /* \"#utility.yul\":7875:7954   */\n      tag_221\n      tag_126\n      jump\t// in\n    tag_221:\n        /* \"#utility.yul\":7844:7956   */\n    tag_220:\n        /* \"#utility.yul\":7965:8019   */\n      tag_222\n        /* \"#utility.yul\":8012:8018   */\n      dup5\n        /* \"#utility.yul\":8007:8010   */\n      dup3\n        /* \"#utility.yul\":8002:8005   */\n      dup6\n        /* \"#utility.yul\":7965:8019   */\n      tag_131\n      jump\t// in\n    tag_222:\n        /* \"#utility.yul\":7684:8025   */\n      pop\n        /* \"#utility.yul\":7600:8025   */\n      swap4\n      swap3\n      pop\n      pop\n      pop\n      jump\t// out\n        /* \"#utility.yul\":8045:8385   */\n    tag_133:\n        /* \"#utility.yul\":8101:8106   */\n      0x00\n        /* \"#utility.yul\":8150:8153   */\n      dup3\n        /* \"#utility.yul\":8143:8147   */\n      0x1f\n        /* \"#utility.yul\":8135:8141   */\n      dup4\n        /* \"#utility.yul\":8131:8148   */\n      add\n        /* \"#utility.yul\":8127:8154   */\n      slt\n        /* \"#utility.yul\":8117:8239   */\n      tag_224\n      jumpi\n        /* \"#utility.yul\":8158:8237   */\n      tag_225\n      tag_125\n      jump\t// in\n    tag_225:\n        /* \"#utility.yul\":8117:8239   */\n    tag_224:\n        /* \"#utility.yul\":8275:8281   */\n      dup2\n        /* \"#utility.yul\":8262:8282   */\n      calldataload\n        /* \"#utility.yul\":8300:8379   */\n      tag_226\n        /* \"#utility.yul\":8375:8378   */\n      dup5\n        /* \"#utility.yul\":8367:8373   */\n      dup3\n        /* \"#utility.yul\":8360:8364   */\n      0x20\n        /* \"#utility.yul\":8352:8358   */\n      dup7\n        /* \"#utility.yul\":8348:8365   */\n      add\n        /* \"#utility.yul\":8300:8379   */\n      tag_132\n      jump\t// in\n    tag_226:\n        /* \"#utility.yul\":8291:8379   */\n      swap2\n      pop\n        /* \"#utility.yul\":8107:8385   */\n      pop\n        /* \"#utility.yul\":8045:8385   */\n      swap3\n      swap2\n      pop\n      pop\n      jump\t// out\n        /* \"#utility.yul\":8391:8513   */\n    tag_134:\n        /* \"#utility.yul\":8464:8488   */\n      tag_228\n        /* \"#utility.yul\":8482:8487   */\n      dup2\n        /* \"#utility.yul\":8464:8488   */\n      tag_111\n      jump\t// in\n    tag_228:\n        /* \"#utility.yul\":8457:8462   */\n      dup2\n        /* \"#utility.yul\":8454:8489   */\n      eq\n        /* \"#utility.yul\":8444:8507   */\n      tag_229\n      jumpi\n        /* \"#utility.yul\":8503:8504   */\n      0x00\n        /* \"#utility.yul\":8500:8501   */\n      dup1\n        /* \"#utility.yul\":8493:8505   */\n      revert\n        /* \"#utility.yul\":8444:8507   */\n    tag_229:\n        /* \"#utility.yul\":8391:8513   */\n      pop\n      jump\t// out\n        /* \"#utility.yul\":8519:8658   */\n    tag_135:\n        /* \"#utility.yul\":8565:8570   */\n      0x00\n        /* \"#utility.yul\":8603:8609   */\n      dup2\n        /* \"#utility.yul\":8590:8610   */\n      calldataload\n        /* \"#utility.yul\":8581:8610   */\n      swap1\n      pop\n        /* \"#utility.yul\":8619:8652   */\n      tag_231\n        /* \"#utility.yul\":8646:8651   */\n      dup2\n        /* \"#utility.yul\":8619:8652   */\n      tag_134\n      jump\t// in\n    tag_231:\n        /* \"#utility.yul\":8519:8658   */\n      swap3\n      swap2\n      pop\n      pop\n      jump\t// out\n        /* \"#utility.yul\":8664:11273   */\n    tag_12:\n        /* \"#utility.yul\":8856:8862   */\n      0x00\n        /* \"#utility.yul\":8864:8870   */\n      dup1\n        /* \"#utility.yul\":8872:8878   */\n      0x00\n        /* \"#utility.yul\":8880:8886   */\n      dup1\n        /* \"#utility.yul\":8888:8894   */\n      0x00\n        /* \"#utility.yul\":8896:8902   */\n      dup1\n        /* \"#utility.yul\":8904:8910   */\n      0x00\n        /* \"#utility.yul\":8912:8918   */\n      dup1\n        /* \"#utility.yul\":8961:8964   */\n      0x0100\n        /* \"#utility.yul\":8949:8958   */\n      dup10\n        /* \"#utility.yul\":8940:8947   */\n      dup12\n        /* \"#utility.yul\":8936:8959   */\n      sub\n        /* \"#utility.yul\":8932:8965   */\n      slt\n        /* \"#utility.yul\":8929:9049   */\n      iszero\n      tag_233\n      jumpi\n        /* \"#utility.yul\":8968:9047   */\n      tag_234\n      tag_123\n      jump\t// in\n    tag_234:\n        /* \"#utility.yul\":8929:9049   */\n    tag_233:\n        /* \"#utility.yul\":9116:9117   */\n      0x00\n        /* \"#utility.yul\":9105:9114   */\n      dup10\n        /* \"#utility.yul\":9101:9118   */\n      add\n        /* \"#utility.yul\":9088:9119   */\n      calldataload\n        /* \"#utility.yul\":9146:9164   */\n      0xffffffffffffffff\n        /* \"#utility.yul\":9138:9144   */\n      dup2\n        /* \"#utility.yul\":9135:9165   */\n      gt\n        /* \"#utility.yul\":9132:9249   */\n      iszero\n      tag_235\n      jumpi\n        /* \"#utility.yul\":9168:9247   */\n      tag_236\n      tag_124\n      jump\t// in\n    tag_236:\n        /* \"#utility.yul\":9132:9249   */\n    tag_235:\n        /* \"#utility.yul\":9273:9336   */\n      tag_237\n        /* \"#utility.yul\":9328:9335   */\n      dup12\n        /* \"#utility.yul\":9319:9325   */\n      dup3\n        /* \"#utility.yul\":9308:9317   */\n      dup13\n        /* \"#utility.yul\":9304:9326   */\n      add\n        /* \"#utility.yul\":9273:9336   */\n      tag_133\n      jump\t// in\n    tag_237:\n        /* \"#utility.yul\":9263:9336   */\n      swap9\n      pop\n        /* \"#utility.yul\":9059:9346   */\n      pop\n        /* \"#utility.yul\":9413:9415   */\n      0x20\n        /* \"#utility.yul\":9402:9411   */\n      dup10\n        /* \"#utility.yul\":9398:9416   */\n      add\n        /* \"#utility.yul\":9385:9417   */\n      calldataload\n        /* \"#utility.yul\":9444:9462   */\n      0xffffffffffffffff\n        /* \"#utility.yul\":9436:9442   */\n      dup2\n        /* \"#utility.yul\":9433:9463   */\n      gt\n        /* \"#utility.yul\":9430:9547   */\n      iszero\n      tag_238\n      jumpi\n        /* \"#utility.yul\":9466:9545   */\n      tag_239\n      tag_124\n      jump\t// in\n    tag_239:\n        /* \"#utility.yul\":9430:9547   */\n    tag_238:\n        /* \"#utility.yul\":9571:9634   */\n      tag_240\n        /* \"#utility.yul\":9626:9633   */\n      dup12\n        /* \"#utility.yul\":9617:9623   */\n      dup3\n        /* \"#utility.yul\":9606:9615   */\n      dup13\n        /* \"#utility.yul\":9602:9624   */\n      add\n        /* \"#utility.yul\":9571:9634   */\n      tag_133\n      jump\t// in\n    tag_240:\n        /* \"#utility.yul\":9561:9634   */\n      swap8\n      pop\n        /* \"#utility.yul\":9356:9644   */\n      pop\n        /* \"#utility.yul\":9711:9713   */\n      0x40\n        /* \"#utility.yul\":9700:9709   */\n      dup10\n        /* \"#utility.yul\":9696:9714   */\n      add\n        /* \"#utility.yul\":9683:9715   */\n      calldataload\n        /* \"#utility.yul\":9742:9760   */\n      0xffffffffffffffff\n        /* \"#utility.yul\":9734:9740   */\n      dup2\n        /* \"#utility.yul\":9731:9761   */\n      gt\n        /* \"#utility.yul\":9728:9845   */\n      iszero\n      tag_241\n      jumpi\n        /* \"#utility.yul\":9764:9843   */\n      tag_242\n      tag_124\n      jump\t// in\n    tag_242:\n        /* \"#utility.yul\":9728:9845   */\n    tag_241:\n        /* \"#utility.yul\":9869:9932   */\n      tag_243\n        /* \"#utility.yul\":9924:9931   */\n      dup12\n        /* \"#utility.yul\":9915:9921   */\n      dup3\n        /* \"#utility.yul\":9904:9913   */\n      dup13\n        /* \"#utility.yul\":9900:9922   */\n      add\n        /* \"#utility.yul\":9869:9932   */\n      tag_133\n      jump\t// in\n    tag_243:\n        /* \"#utility.yul\":9859:9932   */\n      swap7\n      pop\n        /* \"#utility.yul\":9654:9942   */\n      pop\n        /* \"#utility.yul\":10009:10011   */\n      0x60\n        /* \"#utility.yul\":9998:10007   */\n      dup10\n        /* \"#utility.yul\":9994:10012   */\n      add\n        /* \"#utility.yul\":9981:10013   */\n      calldataload\n        /* \"#utility.yul\":10040:10058   */\n      0xffffffffffffffff\n        /* \"#utility.yul\":10032:10038   */\n      dup2\n        /* \"#utility.yul\":10029:10059   */\n      gt\n        /* \"#utility.yul\":10026:10143   */\n      iszero\n      tag_244\n      jumpi\n        /* \"#utility.yul\":10062:10141   */\n      tag_245\n      tag_124\n      jump\t// in\n    tag_245:\n        /* \"#utility.yul\":10026:10143   */\n    tag_244:\n        /* \"#utility.yul\":10167:10230   */\n      tag_246\n        /* \"#utility.yul\":10222:10229   */\n      dup12\n        /* \"#utility.yul\":10213:10219   */\n      dup3\n        /* \"#utility.yul\":10202:10211   */\n      dup13\n        /* \"#utility.yul\":10198:10220   */\n      add\n        /* \"#utility.yul\":10167:10230   */\n      tag_133\n      jump\t// in\n    tag_246:\n        /* \"#utility.yul\":10157:10230   */\n      swap6\n      pop\n        /* \"#utility.yul\":9952:10240   */\n      pop\n        /* \"#utility.yul\":10307:10310   */\n      0x80\n        /* \"#utility.yul\":10296:10305   */\n      dup10\n        /* \"#utility.yul\":10292:10311   */\n      add\n        /* \"#utility.yul\":10279:10312   */\n      calldataload\n        /* \"#utility.yul\":10339:10357   */\n      0xffffffffffffffff\n        /* \"#utility.yul\":10331:10337   */\n      dup2\n        /* \"#utility.yul\":10328:10358   */\n      gt\n        /* \"#utility.yul\":10325:10442   */\n      iszero\n      tag_247\n      jumpi\n        /* \"#utility.yul\":10361:10440   */\n      tag_248\n      tag_124\n      jump\t// in\n    tag_248:\n        /* \"#utility.yul\":10325:10442   */\n    tag_247:\n        /* \"#utility.yul\":10466:10529   */\n      tag_249\n        /* \"#utility.yul\":10521:10528   */\n      dup12\n        /* \"#utility.yul\":10512:10518   */\n      dup3\n        /* \"#utility.yul\":10501:10510   */\n      dup13\n        /* \"#utility.yul\":10497:10519   */\n      add\n        /* \"#utility.yul\":10466:10529   */\n      tag_133\n      jump\t// in\n    tag_249:\n        /* \"#utility.yul\":10456:10529   */\n      swap5\n      pop\n        /* \"#utility.yul\":10250:10539   */\n      pop\n        /* \"#utility.yul\":10606:10609   */\n      0xa0\n        /* \"#utility.yul\":10595:10604   */\n      dup10\n        /* \"#utility.yul\":10591:10610   */\n      add\n        /* \"#utility.yul\":10578:10611   */\n      calldataload\n        /* \"#utility.yul\":10638:10656   */\n      0xffffffffffffffff\n        /* \"#utility.yul\":10630:10636   */\n      dup2\n        /* \"#utility.yul\":10627:10657   */\n      gt\n        /* \"#utility.yul\":10624:10741   */\n      iszero\n      tag_250\n      jumpi\n        /* \"#utility.yul\":10660:10739   */\n      tag_251\n      tag_124\n      jump\t// in\n    tag_251:\n        /* \"#utility.yul\":10624:10741   */\n    tag_250:\n        /* \"#utility.yul\":10765:10828   */\n      tag_252\n        /* \"#utility.yul\":10820:10827   */\n      dup12\n        /* \"#utility.yul\":10811:10817   */\n      dup3\n        /* \"#utility.yul\":10800:10809   */\n      dup13\n        /* \"#utility.yul\":10796:10818   */\n      add\n        /* \"#utility.yul\":10765:10828   */\n      tag_133\n      jump\t// in\n    tag_252:\n        /* \"#utility.yul\":10755:10828   */\n      swap4\n      pop\n        /* \"#utility.yul\":10549:10838   */\n      pop\n        /* \"#utility.yul\":10877:10880   */\n      0xc0\n        /* \"#utility.yul\":10904:10957   */\n      tag_253\n        /* \"#utility.yul\":10949:10956   */\n      dup12\n        /* \"#utility.yul\":10940:10946   */\n      dup3\n        /* \"#utility.yul\":10929:10938   */\n      dup13\n        /* \"#utility.yul\":10925:10947   */\n      add\n        /* \"#utility.yul\":10904:10957   */\n      tag_135\n      jump\t// in\n    tag_253:\n        /* \"#utility.yul\":10894:10957   */\n      swap3\n      pop\n        /* \"#utility.yul\":10848:10967   */\n      pop\n        /* \"#utility.yul\":11034:11037   */\n      0xe0\n        /* \"#utility.yul\":11023:11032   */\n      dup10\n        /* \"#utility.yul\":11019:11038   */\n      add\n        /* \"#utility.yul\":11006:11039   */\n      calldataload\n        /* \"#utility.yul\":11066:11084   */\n      0xffffffffffffffff\n        /* \"#utility.yul\":11058:11064   */\n      dup2\n        /* \"#utility.yul\":11055:11085   */\n      gt\n        /* \"#utility.yul\":11052:11169   */\n      iszero\n      tag_254\n      jumpi\n        /* \"#utility.yul\":11088:11167   */\n      tag_255\n      tag_124\n      jump\t// in\n    tag_255:\n        /* \"#utility.yul\":11052:11169   */\n    tag_254:\n        /* \"#utility.yul\":11193:11256   */\n      tag_256\n        /* \"#utility.yul\":11248:11255   */\n      dup12\n        /* \"#utility.yul\":11239:11245   */\n      dup3\n        /* \"#utility.yul\":11228:11237   */\n      dup13\n        /* \"#utility.yul\":11224:11246   */\n      add\n        /* \"#utility.yul\":11193:11256   */\n      tag_133\n      jump\t// in\n    tag_256:\n        /* \"#utility.yul\":11183:11256   */\n      swap2\n      pop\n        /* \"#utility.yul\":10977:11266   */\n      pop\n        /* \"#utility.yul\":8664:11273   */\n      swap3\n      swap6\n      swap9\n      pop\n      swap3\n      swap6\n      swap9\n      swap1\n      swap4\n      swap7\n      pop\n      jump\t// out\n        /* \"#utility.yul\":11279:11356   */\n    tag_136:\n        /* \"#utility.yul\":11316:11323   */\n      0x00\n        /* \"#utility.yul\":11345:11350   */\n      dup2\n        /* \"#utility.yul\":11334:11350   */\n      swap1\n      pop\n        /* \"#utility.yul\":11279:11356   */\n      swap2\n      swap1\n      pop\n      jump\t// out\n        /* \"#utility.yul\":11362:11484   */\n    tag_137:\n        /* \"#utility.yul\":11435:11459   */\n      tag_259\n        /* \"#utility.yul\":11453:11458   */\n      dup2\n        /* \"#utility.yul\":11435:11459   */\n      tag_136\n      jump\t// in\n    tag_259:\n        /* \"#utility.yul\":11428:11433   */\n      dup2\n        /* \"#utility.yul\":11425:11460   */\n      eq\n        /* \"#utility.yul\":11415:11478   */\n      tag_260\n      jumpi\n        /* \"#utility.yul\":11474:11475   */\n      0x00\n        /* \"#utility.yul\":11471:11472   */\n      dup1\n        /* \"#utility.yul\":11464:11476   */\n      revert\n        /* \"#utility.yul\":11415:11478   */\n    tag_260:\n        /* \"#utility.yul\":11362:11484   */\n      pop\n      jump\t// out\n        /* \"#utility.yul\":11490:11629   */\n    tag_138:\n        /* \"#utility.yul\":11536:11541   */\n      0x00\n        /* \"#utility.yul\":11574:11580   */\n      dup2\n        /* \"#utility.yul\":11561:11581   */\n      calldataload\n        /* \"#utility.yul\":11552:11581   */\n      swap1\n      pop\n        /* \"#utility.yul\":11590:11623   */\n      tag_262\n        /* \"#utility.yul\":11617:11622   */\n      dup2\n        /* \"#utility.yul\":11590:11623   */\n      tag_137\n      jump\t// in\n    tag_262:\n        /* \"#utility.yul\":11490:11629   */\n      swap3\n      swap2\n      pop\n      pop\n      jump\t// out\n        /* \"#utility.yul\":11635:11964   */\n    tag_16:\n        /* \"#utility.yul\":11694:11700   */\n      0x00\n        /* \"#utility.yul\":11743:11745   */\n      0x20\n        /* \"#utility.yul\":11731:11740   */\n      dup3\n        /* \"#utility.yul\":11722:11729   */\n      dup5\n        /* \"#utility.yul\":11718:11741   */\n      sub\n        /* \"#utility.yul\":11714:11746   */\n      slt\n        /* \"#utility.yul\":11711:11830   */\n      iszero\n      tag_264\n      jumpi\n        /* \"#utility.yul\":11749:11828   */\n      tag_265\n      tag_123\n      jump\t// in\n    tag_265:\n        /* \"#utility.yul\":11711:11830   */\n    tag_264:\n        /* \"#utility.yul\":11869:11870   */\n      0x00\n        /* \"#utility.yul\":11894:11947   */\n      tag_266\n        /* \"#utility.yul\":11939:11946   */\n      dup5\n        /* \"#utility.yul\":11930:11936   */\n      dup3\n        /* \"#utility.yul\":11919:11928   */\n      dup6\n        /* \"#utility.yul\":11915:11937   */\n      add\n        /* \"#utility.yul\":11894:11947   */\n      tag_138\n      jump\t// in\n    tag_266:\n        /* \"#utility.yul\":11884:11947   */\n      swap2\n      pop\n        /* \"#utility.yul\":11840:11957   */\n      pop\n        /* \"#utility.yul\":11635:11964   */\n      swap3\n      swap2\n      pop\n      pop\n      jump\t// out\n        /* \"#utility.yul\":11970:12088   */\n    tag_139:\n        /* \"#utility.yul\":12057:12081   */\n      tag_268\n        /* \"#utility.yul\":12075:12080   */\n      dup2\n        /* \"#utility.yul\":12057:12081   */\n      tag_111\n      jump\t// in\n    tag_268:\n        /* \"#utility.yul\":12052:12055   */\n      dup3\n        /* \"#utility.yul\":12045:12082   */\n      mstore\n        /* \"#utility.yul\":11970:12088   */\n      pop\n      pop\n      jump\t// out\n        /* \"#utility.yul\":12094:12263   */\n    tag_140:\n        /* \"#utility.yul\":12178:12189   */\n      0x00\n        /* \"#utility.yul\":12212:12218   */\n      dup3\n        /* \"#utility.yul\":12207:12210   */\n      dup3\n        /* \"#utility.yul\":12200:12219   */\n      mstore\n        /* \"#utility.yul\":12252:12256   */\n      0x20\n        /* \"#utility.yul\":12247:12250   */\n      dup3\n        /* \"#utility.yul\":12243:12257   */\n      add\n        /* \"#utility.yul\":12228:12257   */\n      swap1\n      pop\n        /* \"#utility.yul\":12094:12263   */\n      swap3\n      swap2\n      pop\n      pop\n      jump\t// out\n        /* \"#utility.yul\":12269:12646   */\n    tag_141:\n        /* \"#utility.yul\":12357:12360   */\n      0x00\n        /* \"#utility.yul\":12385:12424   */\n      tag_271\n        /* \"#utility.yul\":12418:12423   */\n      dup3\n        /* \"#utility.yul\":12385:12424   */\n      tag_113\n      jump\t// in\n    tag_271:\n        /* \"#utility.yul\":12440:12511   */\n      tag_272\n        /* \"#utility.yul\":12504:12510   */\n      dup2\n        /* \"#utility.yul\":12499:12502   */\n      dup6\n        /* \"#utility.yul\":12440:12511   */\n      tag_140\n      jump\t// in\n    tag_272:\n        /* \"#utility.yul\":12433:12511   */\n      swap4\n      pop\n        /* \"#utility.yul\":12520:12585   */\n      tag_273\n        /* \"#utility.yul\":12578:12584   */\n      dup2\n        /* \"#utility.yul\":12573:12576   */\n      dup6\n        /* \"#utility.yul\":12566:12570   */\n      0x20\n        /* \"#utility.yul\":12559:12564   */\n      dup7\n        /* \"#utility.yul\":12555:12571   */\n      add\n        /* \"#utility.yul\":12520:12585   */\n      tag_115\n      jump\t// in\n    tag_273:\n        /* \"#utility.yul\":12610:12639   */\n      tag_274\n        /* \"#utility.yul\":12632:12638   */\n      dup2\n        /* \"#utility.yul\":12610:12639   */\n      tag_116\n      jump\t// in\n    tag_274:\n        /* \"#utility.yul\":12605:12608   */\n      dup5\n        /* \"#utility.yul\":12601:12640   */\n      add\n        /* \"#utility.yul\":12594:12640   */\n      swap2\n      pop\n        /* \"#utility.yul\":12361:12646   */\n      pop\n        /* \"#utility.yul\":12269:12646   */\n      swap3\n      swap2\n      pop\n      pop\n      jump\t// out\n        /* \"#utility.yul\":12652:14286   */\n    tag_19:\n        /* \"#utility.yul\":13081:13085   */\n      0x00\n        /* \"#utility.yul\":13119:13122   */\n      0x0100\n        /* \"#utility.yul\":13108:13117   */\n      dup3\n        /* \"#utility.yul\":13104:13123   */\n      add\n        /* \"#utility.yul\":13096:13123   */\n      swap1\n      pop\n        /* \"#utility.yul\":13133:13204   */\n      tag_276\n        /* \"#utility.yul\":13201:13202   */\n      0x00\n        /* \"#utility.yul\":13190:13199   */\n      dup4\n        /* \"#utility.yul\":13186:13203   */\n      add\n        /* \"#utility.yul\":13177:13183   */\n      dup12\n        /* \"#utility.yul\":13133:13204   */\n      tag_139\n      jump\t// in\n    tag_276:\n        /* \"#utility.yul\":13251:13260   */\n      dup2\n        /* \"#utility.yul\":13245:13249   */\n      dup2\n        /* \"#utility.yul\":13241:13261   */\n      sub\n        /* \"#utility.yul\":13236:13238   */\n      0x20\n        /* \"#utility.yul\":13225:13234   */\n      dup4\n        /* \"#utility.yul\":13221:13239   */\n      add\n        /* \"#utility.yul\":13214:13262   */\n      mstore\n        /* \"#utility.yul\":13279:13357   */\n      tag_277\n        /* \"#utility.yul\":13352:13356   */\n      dup2\n        /* \"#utility.yul\":13343:13349   */\n      dup11\n        /* \"#utility.yul\":13279:13357   */\n      tag_141\n      jump\t// in\n    tag_277:\n        /* \"#utility.yul\":13271:13357   */\n      swap1\n      pop\n        /* \"#utility.yul\":13404:13413   */\n      dup2\n        /* \"#utility.yul\":13398:13402   */\n      dup2\n        /* \"#utility.yul\":13394:13414   */\n      sub\n        /* \"#utility.yul\":13389:13391   */\n      0x40\n        /* \"#utility.yul\":13378:13387   */\n      dup4\n        /* \"#utility.yul\":13374:13392   */\n      add\n        /* \"#utility.yul\":13367:13415   */\n      mstore\n        /* \"#utility.yul\":13432:13510   */\n      tag_278\n        /* \"#utility.yul\":13505:13509   */\n      dup2\n        /* \"#utility.yul\":13496:13502   */\n      dup10\n        /* \"#utility.yul\":13432:13510   */\n      tag_141\n      jump\t// in\n    tag_278:\n        /* \"#utility.yul\":13424:13510   */\n      swap1\n      pop\n        /* \"#utility.yul\":13557:13566   */\n      dup2\n        /* \"#utility.yul\":13551:13555   */\n      dup2\n        /* \"#utility.yul\":13547:13567   */\n      sub\n        /* \"#utility.yul\":13542:13544   */\n      0x60\n        /* \"#utility.yul\":13531:13540   */\n      dup4\n        /* \"#utility.yul\":13527:13545   */\n      add\n        /* \"#utility.yul\":13520:13568   */\n      mstore\n        /* \"#utility.yul\":13585:13663   */\n      tag_279\n        /* \"#utility.yul\":13658:13662   */\n      dup2\n        /* \"#utility.yul\":13649:13655   */\n      dup9\n        /* \"#utility.yul\":13585:13663   */\n      tag_141\n      jump\t// in\n    tag_279:\n        /* \"#utility.yul\":13577:13663   */\n      swap1\n      pop\n        /* \"#utility.yul\":13711:13720   */\n      dup2\n        /* \"#utility.yul\":13705:13709   */\n      dup2\n        /* \"#utility.yul\":13701:13721   */\n      sub\n        /* \"#utility.yul\":13695:13698   */\n      0x80\n        /* \"#utility.yul\":13684:13693   */\n      dup4\n        /* \"#utility.yul\":13680:13699   */\n      add\n        /* \"#utility.yul\":13673:13722   */\n      mstore\n        /* \"#utility.yul\":13739:13817   */\n      tag_280\n        /* \"#utility.yul\":13812:13816   */\n      dup2\n        /* \"#utility.yul\":13803:13809   */\n      dup8\n        /* \"#utility.yul\":13739:13817   */\n      tag_141\n      jump\t// in\n    tag_280:\n        /* \"#utility.yul\":13731:13817   */\n      swap1\n      pop\n        /* \"#utility.yul\":13865:13874   */\n      dup2\n        /* \"#utility.yul\":13859:13863   */\n      dup2\n        /* \"#utility.yul\":13855:13875   */\n      sub\n        /* \"#utility.yul\":13849:13852   */\n      0xa0\n        /* \"#utility.yul\":13838:13847   */\n      dup4\n        /* \"#utility.yul\":13834:13853   */\n      add\n        /* \"#utility.yul\":13827:13876   */\n      mstore\n        /* \"#utility.yul\":13893:13971   */\n      tag_281\n        /* \"#utility.yul\":13966:13970   */\n      dup2\n        /* \"#utility.yul\":13957:13963   */\n      dup7\n        /* \"#utility.yul\":13893:13971   */\n      tag_141\n      jump\t// in\n    tag_281:\n        /* \"#utility.yul\":13885:13971   */\n      swap1\n      pop\n        /* \"#utility.yul\":14019:14028   */\n      dup2\n        /* \"#utility.yul\":14013:14017   */\n      dup2\n        /* \"#utility.yul\":14009:14029   */\n      sub\n        /* \"#utility.yul\":14003:14006   */\n      0xc0\n        /* \"#utility.yul\":13992:14001   */\n      dup4\n        /* \"#utility.yul\":13988:14007   */\n      add\n        /* \"#utility.yul\":13981:14030   */\n      mstore\n        /* \"#utility.yul\":14047:14125   */\n      tag_282\n        /* \"#utility.yul\":14120:14124   */\n      dup2\n        /* \"#utility.yul\":14111:14117   */\n      dup6\n        /* \"#utility.yul\":14047:14125   */\n      tag_141\n      jump\t// in\n    tag_282:\n        /* \"#utility.yul\":14039:14125   */\n      swap1\n      pop\n        /* \"#utility.yul\":14173:14182   */\n      dup2\n        /* \"#utility.yul\":14167:14171   */\n      dup2\n        /* \"#utility.yul\":14163:14183   */\n      sub\n        /* \"#utility.yul\":14157:14160   */\n      0xe0\n        /* \"#utility.yul\":14146:14155   */\n      dup4\n        /* \"#utility.yul\":14142:14161   */\n      add\n        /* \"#utility.yul\":14135:14184   */\n      mstore\n        /* \"#utility.yul\":14201:14279   */\n      tag_283\n        /* \"#utility.yul\":14274:14278   */\n      dup2\n        /* \"#utility.yul\":14265:14271   */\n      dup5\n        /* \"#utility.yul\":14201:14279   */\n      tag_141\n      jump\t// in\n    tag_283:\n        /* \"#utility.yul\":14193:14279   */\n      swap1\n      pop\n        /* \"#utility.yul\":12652:14286   */\n      swap10\n      swap9\n      pop\n      pop\n      pop\n      pop\n      pop\n      pop\n      pop\n      pop\n      pop\n      jump\t// out\n        /* \"#utility.yul\":14292:14472   */\n    tag_142:\n        /* \"#utility.yul\":14340:14417   */\n      0x4e487b7100000000000000000000000000000000000000000000000000000000\n        /* \"#utility.yul\":14337:14338   */\n      0x00\n        /* \"#utility.yul\":14330:14418   */\n      mstore\n        /* \"#utility.yul\":14437:14441   */\n      0x22\n        /* \"#utility.yul\":14434:14435   */\n      0x04\n        /* \"#utility.yul\":14427:14442   */\n      mstore\n        /* \"#utility.yul\":14461:14465   */\n      0x24\n        /* \"#utility.yul\":14458:14459   */\n      0x00\n        /* \"#utility.yul\":14451:14466   */\n      revert\n        /* \"#utility.yul\":14478:14798   */\n    tag_25:\n        /* \"#utility.yul\":14522:14528   */\n      0x00\n        /* \"#utility.yul\":14559:14560   */\n      0x02\n        /* \"#utility.yul\":14553:14557   */\n      dup3\n        /* \"#utility.yul\":14549:14561   */\n      div\n        /* \"#utility.yul\":14539:14561   */\n      swap1\n      pop\n        /* \"#utility.yul\":14606:14607   */\n      0x01\n        /* \"#utility.yul\":14600:14604   */\n      dup3\n        /* \"#utility.yul\":14596:14608   */\n      and\n        /* \"#utility.yul\":14627:14645   */\n      dup1\n        /* \"#utility.yul\":14617:14698   */\n      tag_286\n      jumpi\n        /* \"#utility.yul\":14683:14687   */\n      0x7f\n        /* \"#utility.yul\":14675:14681   */\n      dup3\n        /* \"#utility.yul\":14671:14688   */\n      and\n        /* \"#utility.yul\":14661:14688   */\n      swap2\n      pop\n        /* \"#utility.yul\":14617:14698   */\n    tag_286:\n        /* \"#utility.yul\":14745:14747   */\n      0x20\n        /* \"#utility.yul\":14737:14743   */\n      dup3\n        /* \"#utility.yul\":14734:14748   */\n      lt\n        /* \"#utility.yul\":14714:14732   */\n      dup2\n        /* \"#utility.yul\":14711:14749   */\n      sub\n        /* \"#utility.yul\":14708:14792   */\n      tag_287\n      jumpi\n        /* \"#utility.yul\":14764:14782   */\n      tag_288\n      tag_142\n      jump\t// in\n    tag_288:\n        /* \"#utility.yul\":14708:14792   */\n    tag_287:\n        /* \"#utility.yul\":14529:14798   */\n      pop\n        /* \"#utility.yul\":14478:14798   */\n      swap2\n      swap1\n      pop\n      jump\t// out\n        /* \"#utility.yul\":14804:14945   */\n    tag_143:\n        /* \"#utility.yul\":14853:14857   */\n      0x00\n        /* \"#utility.yul\":14876:14879   */\n      dup2\n        /* \"#utility.yul\":14868:14879   */\n      swap1\n      pop\n        /* \"#utility.yul\":14899:14902   */\n      dup2\n        /* \"#utility.yul\":14896:14897   */\n      0x00\n        /* \"#utility.yul\":14889:14903   */\n      mstore\n        /* \"#utility.yul\":14933:14937   */\n      0x20\n        /* \"#utility.yul\":14930:14931   */\n      0x00\n        /* \"#utility.yul\":14920:14938   */\n      keccak256\n        /* \"#utility.yul\":14912:14938   */\n      swap1\n      pop\n        /* \"#utility.yul\":14804:14945   */\n      swap2\n      swap1\n      pop\n      jump\t// out\n        /* \"#utility.yul\":14951:15044   */\n    tag_144:\n        /* \"#utility.yul\":14988:14994   */\n      0x00\n        /* \"#utility.yul\":15035:15037   */\n      0x20\n        /* \"#utility.yul\":15030:15032   */\n      0x1f\n        /* \"#utility.yul\":15023:15028   */\n      dup4\n        /* \"#utility.yul\":15019:15033   */\n      add\n        /* \"#utility.yul\":15015:15038   */\n      div\n        /* \"#utility.yul\":15005:15038   */\n      swap1\n      pop\n        /* \"#utility.yul\":14951:15044   */\n      swap2\n      swap1\n      pop\n      jump\t// out\n        /* \"#utility.yul\":15050:15157   */\n    tag_145:\n        /* \"#utility.yul\":15094:15102   */\n      0x00\n        /* \"#utility.yul\":15144:15149   */\n      dup3\n        /* \"#utility.yul\":15138:15142   */\n      dup3\n        /* \"#utility.yul\":15134:15150   */\n      shl\n        /* \"#utility.yul\":15113:15150   */\n      swap1\n      pop\n        /* \"#utility.yul\":15050:15157   */\n      swap3\n      swap2\n      pop\n      pop\n      jump\t// out\n        /* \"#utility.yul\":15163:15556   */\n    tag_146:\n        /* \"#utility.yul\":15232:15238   */\n      0x00\n        /* \"#utility.yul\":15282:15283   */\n      0x08\n        /* \"#utility.yul\":15270:15280   */\n      dup4\n        /* \"#utility.yul\":15266:15284   */\n      mul\n        /* \"#utility.yul\":15305:15402   */\n      tag_293\n        /* \"#utility.yul\":15335:15401   */\n      0xffffffffffffffffffffffffffffffffffffffffffffffffffffffffffffffff\n        /* \"#utility.yul\":15324:15333   */\n      dup3\n        /* \"#utility.yul\":15305:15402   */\n      tag_145\n      jump\t// in\n    tag_293:\n        /* \"#utility.yul\":15423:15462   */\n      tag_294\n        /* \"#utility.yul\":15453:15461   */\n      dup7\n        /* \"#utility.yul\":15442:15451   */\n      dup4\n        /* \"#utility.yul\":15423:15462   */\n      tag_145\n      jump\t// in\n    tag_294:\n        /* \"#utility.yul\":15411:15462   */\n      swap6\n      pop\n        /* \"#utility.yul\":15495:15499   */\n      dup1\n        /* \"#utility.yul\":15491:15500   */\n      not\n        /* \"#utility.yul\":15484:15489   */\n      dup5\n        /* \"#utility.yul\":15480:15501   */\n      and\n        /* \"#utility.yul\":15471:15501   */\n      swap4\n      pop\n        /* \"#utility.yul\":15544:15548   */\n      dup1\n        /* \"#utility.yul\":15534:15542   */\n      dup7\n        /* \"#utility.yul\":15530:15549   */\n      and\n        /* \"#utility.yul\":15523:15528   */\n      dup5\n        /* \"#utility.yul\":15520:15550   */\n      or\n        /* \"#utility.yul\":15510:15550   */\n      swap3\n      pop\n        /* \"#utility.yul\":15239:15556   */\n      pop\n      pop\n        /* \"#utility.yul\":15163:15556   */\n      swap4\n      swap3\n      pop\n      pop\n      pop\n      jump\t// out\n        /* \"#utility.yul\":15562:15622   */\n    tag_147:\n        /* \"#utility.yul\":15590:15593   */\n      0x00\n        /* \"#utility.yul\":15611:15616   */\n      dup2\n        /* \"#utility.yul\":15604:15616   */\n      swap1\n      pop\n        /* \"#utility.yul\":15562:15622   */\n      swap2\n      swap1\n      pop\n      jump\t// out\n        /* \"#utility.yul\":15628:15770   */\n    tag_148:\n        /* \"#utility.yul\":15678:15687   */\n      0x00\n        /* \"#utility.yul\":15711:15764   */\n      tag_297\n        /* \"#utility.yul\":15729:15763   */\n      tag_298\n        /* \"#utility.yul\":15738:15762   */\n      tag_299\n        /* \"#utility.yul\":15756:15761   */\n      dup5\n        /* \"#utility.yul\":15738:15762   */\n      tag_136\n      jump\t// in\n    tag_299:\n        /* \"#utility.yul\":15729:15763   */\n      tag_147\n      jump\t// in\n    tag_298:\n        /* \"#utility.yul\":15711:15764   */\n      tag_136\n      jump\t// in\n    tag_297:\n        /* \"#utility.yul\":15698:15764   */\n      swap1\n      pop\n        /* \"#utility.yul\":15628:15770   */\n      swap2\n      swap1\n      pop\n      jump\t// out\n        /* \"#utility.yul\":15776:15851   */\n    tag_149:\n        /* \"#utility.yul\":15819:15822   */\n      0x00\n        /* \"#utility.yul\":15840:15845   */\n      dup2\n        /* \"#utility.yul\":15833:15845   */\n      swap1\n      pop\n        /* \"#utility.yul\":15776:15851   */\n      swap2\n      swap1\n      pop\n      jump\t// out\n        /* \"#utility.yul\":15857:16126   */\n    tag_150:\n        /* \"#utility.yul\":15967:16006   */\n      tag_302\n        /* \"#utility.yul\":15998:16005   */\n      dup4\n        /* \"#utility.yul\":15967:16006   */\n      tag_148\n      jump\t// in\n    tag_302:\n        /* \"#utility.yul\":16028:16119   */\n      tag_303\n        /* \"#utility.yul\":16077:16118   */\n      tag_304\n        /* \"#utility.yul\":16101:16117   */\n      dup3\n        /* \"#utility.yul\":16077:16118   */\n      tag_149\n      jump\t// in\n    tag_304:\n        /* \"#utility.yul\":16069:16075   */\n      dup5\n        /* \"#utility.yul\":16062:16066   */\n      dup5\n        /* \"#utility.yul\":16056:16067   */\n      sload\n        /* \"#utility.yul\":16028:16119   */\n      tag_146\n      jump\t// in\n    tag_303:\n        /* \"#utility.yul\":16022:16026   */\n      dup3\n        /* \"#utility.yul\":16015:16120   */\n      sstore\n        /* \"#utility.yul\":15933:16126   */\n      pop\n        /* \"#utility.yul\":15857:16126   */\n      pop\n      pop\n      pop\n      jump\t// out\n        /* \"#utility.yul\":16132:16205   */\n    tag_151:\n        /* \"#utility.yul\":16177:16180   */\n      0x00\n        /* \"#utility.yul\":16132:16205   */\n      swap1\n      jump\t// out\n        /* \"#utility.yul\":16211:16400   */\n    tag_152:\n        /* \"#utility.yul\":16288:16320   */\n      tag_307\n      tag_151\n      jump\t// in\n    tag_307:\n        /* \"#utility.yul\":16329:16394   */\n      tag_308\n        /* \"#utility.yul\":16387:16393   */\n      dup2\n        /* \"#utility.yul\":16379:16385   */\n      dup5\n        /* \"#utility.yul\":16373:16377   */\n      dup5\n        /* \"#utility.yul\":16329:16394   */\n      tag_150\n      jump\t// in\n    tag_308:\n        /* \"#utility.yul\":16264:16400   */\n      pop\n        /* \"#utility.yul\":16211:16400   */\n      pop\n      pop\n      jump\t// out\n        /* \"#utility.yul\":16406:16592   */\n    tag_153:\n        /* \"#utility.yul\":16466:16586   */\n    tag_310:\n        /* \"#utility.yul\":16483:16486   */\n      dup2\n        /* \"#utility.yul\":16476:16481   */\n      dup2\n        /* \"#utility.yul\":16473:16487   */\n      lt\n        /* \"#utility.yul\":16466:16586   */\n      iszero\n      tag_312\n      jumpi\n        /* \"#utility.yul\":16537:16576   */\n      tag_313\n        /* \"#utility.yul\":16574:16575   */\n      0x00\n        /* \"#utility.yul\":16567:16572   */\n      dup3\n        /* \"#utility.yul\":16537:16576   */\n      tag_152\n      jump\t// in\n    tag_313:\n        /* \"#utility.yul\":16510:16511   */\n      0x01\n        /* \"#utility.yul\":16503:16508   */\n      dup2\n        /* \"#utility.yul\":16499:16512   */\n      add\n        /* \"#utility.yul\":16490:16512   */\n      swap1\n      pop\n        /* \"#utility.yul\":16466:16586   */\n      jump(tag_310)\n    tag_312:\n        /* \"#utility.yul\":16406:16592   */\n      pop\n      pop\n      jump\t// out\n        /* \"#utility.yul\":16598:17141   */\n    tag_154:\n        /* \"#utility.yul\":16699:16701   */\n      0x1f\n        /* \"#utility.yul\":16694:16697   */\n      dup3\n        /* \"#utility.yul\":16691:16702   */\n      gt\n        /* \"#utility.yul\":16688:17134   */\n      iszero\n      tag_315\n      jumpi\n        /* \"#utility.yul\":16733:16771   */\n      tag_316\n        /* \"#utility.yul\":16765:16770   */\n      dup2\n        /* \"#utility.yul\":16733:16771   */\n      tag_143\n      jump\t// in\n    tag_316:\n        /* \"#utility.yul\":16817:16846   */\n      tag_317\n        /* \"#utility.yul\":16835:16845   */\n      dup5\n        /* \"#utility.yul\":16817:16846   */\n      tag_144\n      jump\t// in\n    tag_317:\n        /* \"#utility.yul\":16807:16815   */\n      dup2\n        /* \"#utility.yul\":16803:16847   */\n      add\n        /* \"#utility.yul\":17000:17002   */\n      0x20\n        /* \"#utility.yul\":16988:16998   */\n      dup6\n        /* \"#utility.yul\":16985:17003   */\n      lt\n        /* \"#utility.yul\":16982:17031   */\n      iszero\n      tag_318\n      jumpi\n        /* \"#utility.yul\":17021:17029   */\n      dup2\n        /* \"#utility.yul\":17006:17029   */\n      swap1\n      pop\n        /* \"#utility.yul\":16982:17031   */\n    tag_318:\n        /* \"#utility.yul\":17044:17124   */\n      tag_319\n        /* \"#utility.yul\":17100:17122   */\n      tag_320\n        /* \"#utility.yul\":17118:17121   */\n      dup6\n        /* \"#utility.yul\":17100:17122   */\n      tag_144\n      jump\t// in\n    tag_320:\n        /* \"#utility.yul\":17090:17098   */\n      dup4\n        /* \"#utility.yul\":17086:17123   */\n      add\n        /* \"#utility.yul\":17073:17084   */\n      dup3\n        /* \"#utility.yul\":17044:17124   */\n      tag_153\n      jump\t// in\n    tag_319:\n        /* \"#utility.yul\":16703:17134   */\n      pop\n      pop\n        /* \"#utility.yul\":16688:17134   */\n    tag_315:\n        /* \"#utility.yul\":16598:17141   */\n      pop\n      pop\n      pop\n      jump\t// out\n        /* \"#utility.yul\":17147:17264   */\n    tag_155:\n        /* \"#utility.yul\":17201:17209   */\n      0x00\n        /* \"#utility.yul\":17251:17256   */\n      dup3\n        /* \"#utility.yul\":17245:17249   */\n      dup3\n        /* \"#utility.yul\":17241:17257   */\n      shr\n        /* \"#utility.yul\":17220:17257   */\n      swap1\n      pop\n        /* \"#utility.yul\":17147:17264   */\n      swap3\n      swap2\n      pop\n      pop\n      jump\t// out\n        /* \"#utility.yul\":17270:17439   */\n    tag_156:\n        /* \"#utility.yul\":17314:17320   */\n      0x00\n        /* \"#utility.yul\":17347:17398   */\n      tag_323\n        /* \"#utility.yul\":17395:17396   */\n      0x00\n        /* \"#utility.yul\":17391:17397   */\n      not\n        /* \"#utility.yul\":17383:17388   */\n      dup5\n        /* \"#utility.yul\":17380:17381   */\n      0x08\n        /* \"#utility.yul\":17376:17389   */\n      mul\n        /* \"#utility.yul\":17347:17398   */\n      tag_155\n      jump\t// in\n    tag_323:\n        /* \"#utility.yul\":17343:17399   */\n      not\n        /* \"#utility.yul\":17428:17432   */\n      dup1\n        /* \"#utility.yul\":17422:17426   */\n      dup4\n        /* \"#utility.yul\":17418:17433   */\n      and\n        /* \"#utility.yul\":17408:17433   */\n      swap2\n      pop\n        /* \"#utility.yul\":17321:17439   */\n      pop\n        /* \"#utility.yul\":17270:17439   */\n      swap3\n      swap2\n      pop\n      pop\n      jump\t// out\n        /* \"#utility.yul\":17444:17739   */\n    tag_157:\n        /* \"#utility.yul\":17520:17524   */\n      0x00\n        /* \"#utility.yul\":17666:17695   */\n      tag_325\n        /* \"#utility.yul\":17691:17694   */\n      dup4\n        /* \"#utility.yul\":17685:17689   */\n      dup4\n        /* \"#utility.yul\":17666:17695   */\n      tag_156\n      jump\t// in\n    tag_325:\n        /* \"#utility.yul\":17658:17695   */\n      swap2\n      pop\n        /* \"#utility.yul\":17728:17731   */\n      dup3\n        /* \"#utility.yul\":17725:17726   */\n      0x02\n        /* \"#utility.yul\":17721:17732   */\n      mul\n        /* \"#utility.yul\":17715:17719   */\n      dup3\n        /* \"#utility.yul\":17712:17733   */\n      or\n        /* \"#utility.yul\":17704:17733   */\n      swap1\n      pop\n        /* \"#utility.yul\":17444:17739   */\n      swap3\n      swap2\n      pop\n      pop\n      jump\t// out\n        /* \"#utility.yul\":17744:19139   */\n    tag_63:\n        /* \"#utility.yul\":17861:17898   */\n      tag_327\n        /* \"#utility.yul\":17894:17897   */\n      dup3\n        /* \"#utility.yul\":17861:17898   */\n      tag_113\n      jump\t// in\n    tag_327:\n        /* \"#utility.yul\":17963:17981   */\n      0xffffffffffffffff\n        /* \"#utility.yul\":17955:17961   */\n      dup2\n        /* \"#utility.yul\":17952:17982   */\n      gt\n        /* \"#utility.yul\":17949:18005   */\n      iszero\n      tag_328\n      jumpi\n        /* \"#utility.yul\":17985:18003   */\n      tag_329\n      tag_127\n      jump\t// in\n    tag_329:\n        /* \"#utility.yul\":17949:18005   */\n    tag_328:\n        /* \"#utility.yul\":18029:18067   */\n      tag_330\n        /* \"#utility.yul\":18061:18065   */\n      dup3\n        /* \"#utility.yul\":18055:18066   */\n      sload\n        /* \"#utility.yul\":18029:18067   */\n      tag_25\n      jump\t// in\n    tag_330:\n        /* \"#utility.yul\":18114:18181   */\n      tag_331\n        /* \"#utility.yul\":18174:18180   */\n      dup3\n        /* \"#utility.yul\":18166:18172   */\n      dup3\n        /* \"#utility.yul\":18160:18164   */\n      dup6\n        /* \"#utility.yul\":18114:18181   */\n      tag_154\n      jump\t// in\n    tag_331:\n        /* \"#utility.yul\":18208:18209   */\n      0x00\n        /* \"#utility.yul\":18232:18236   */\n      0x20\n        /* \"#utility.yul\":18219:18236   */\n      swap1\n      pop\n        /* \"#utility.yul\":18264:18266   */\n      0x1f\n        /* \"#utility.yul\":18256:18262   */\n      dup4\n        /* \"#utility.yul\":18253:18267   */\n      gt\n        /* \"#utility.yul\":18281:18282   */\n      0x01\n        /* \"#utility.yul\":18276:18894   */\n      dup2\n      eq\n      tag_333\n      jumpi\n        /* \"#utility.yul\":18938:18939   */\n      0x00\n        /* \"#utility.yul\":18955:18961   */\n      dup5\n        /* \"#utility.yul\":18952:19029   */\n      iszero\n      tag_334\n      jumpi\n        /* \"#utility.yul\":19004:19013   */\n      dup3\n        /* \"#utility.yul\":18999:19002   */\n      dup8\n        /* \"#utility.yul\":18995:19014   */\n      add\n        /* \"#utility.yul\":18989:19015   */\n      mload\n        /* \"#utility.yul\":18980:19015   */\n      swap1\n      pop\n        /* \"#utility.yul\":18952:19029   */\n    tag_334:\n        /* \"#utility.yul\":19055:19122   */\n      tag_335\n        /* \"#utility.yul\":19115:19121   */\n      dup6\n        /* \"#utility.yul\":19108:19113   */\n      dup3\n        /* \"#utility.yul\":19055:19122   */\n      tag_157\n      jump\t// in\n    tag_335:\n        /* \"#utility.yul\":19049:19053   */\n      dup7\n        /* \"#utility.yul\":19042:19123   */\n      sstore\n        /* \"#utility.yul\":18911:19133   */\n      pop\n        /* \"#utility.yul\":18246:19133   */\n      jump(tag_332)\n        /* \"#utility.yul\":18276:18894   */\n    tag_333:\n        /* \"#utility.yul\":18328:18332   */\n      0x1f\n        /* \"#utility.yul\":18324:18333   */\n      not\n        /* \"#utility.yul\":18316:18322   */\n      dup5\n        /* \"#utility.yul\":18312:18334   */\n      and\n        /* \"#utility.yul\":18362:18399   */\n      tag_336\n        /* \"#utility.yul\":18394:18398   */\n      dup7\n        /* \"#utility.yul\":18362:18399   */\n      tag_143\n      jump\t// in\n    tag_336:\n        /* \"#utility.yul\":18421:18422   */\n      0x00\n        /* \"#utility.yul\":18435:18643   */\n    tag_337:\n        /* \"#utility.yul\":18449:18456   */\n      dup3\n        /* \"#utility.yul\":18446:18447   */\n      dup2\n        /* \"#utility.yul\":18443:18457   */\n      lt\n        /* \"#utility.yul\":18435:18643   */\n      iszero\n      tag_339\n      jumpi\n        /* \"#utility.yul\":18528:18537   */\n      dup5\n        /* \"#utility.yul\":18523:18526   */\n      dup10\n        /* \"#utility.yul\":18519:18538   */\n      add\n        /* \"#utility.yul\":18513:18539   */\n      mload\n        /* \"#utility.yul\":18505:18511   */\n      dup3\n        /* \"#utility.yul\":18498:18540   */\n      sstore\n        /* \"#utility.yul\":18579:18580   */\n      0x01\n        /* \"#utility.yul\":18571:18577   */\n      dup3\n        /* \"#utility.yul\":18567:18581   */\n      add\n        /* \"#utility.yul\":18557:18581   */\n      swap2\n      pop\n        /* \"#utility.yul\":18626:18628   */\n      0x20\n        /* \"#utility.yul\":18615:18624   */\n      dup6\n        /* \"#utility.yul\":18611:18629   */\n      add\n        /* \"#utility.yul\":18598:18629   */\n      swap5\n      pop\n        /* \"#utility.yul\":18472:18476   */\n      0x20\n        /* \"#utility.yul\":18469:18470   */\n      dup2\n        /* \"#utility.yul\":18465:18477   */\n      add\n        /* \"#utility.yul\":18460:18477   */\n      swap1\n      pop\n        /* \"#utility.yul\":18435:18643   */\n      jump(tag_337)\n    tag_339:\n        /* \"#utility.yul\":18671:18677   */\n      dup7\n        /* \"#utility.yul\":18662:18669   */\n      dup4\n        /* \"#utility.yul\":18659:18678   */\n      lt\n        /* \"#utility.yul\":18656:18835   */\n      iszero\n      tag_340\n      jumpi\n        /* \"#utility.yul\":18729:18738   */\n      dup5\n        /* \"#utility.yul\":18724:18727   */\n      dup10\n        /* \"#utility.yul\":18720:18739   */\n      add\n        /* \"#utility.yul\":18714:18740   */\n      mload\n        /* \"#utility.yul\":18772:18820   */\n      tag_341\n        /* \"#utility.yul\":18814:18818   */\n      0x1f\n        /* \"#utility.yul\":18806:18812   */\n      dup10\n        /* \"#utility.yul\":18802:18819   */\n      and\n        /* \"#utility.yul\":18791:18800   */\n      dup3\n        /* \"#utility.yul\":18772:18820   */\n      tag_156\n      jump\t// in\n    tag_341:\n        /* \"#utility.yul\":18764:18770   */\n      dup4\n        /* \"#utility.yul\":18757:18821   */\n      sstore\n        /* \"#utility.yul\":18679:18835   */\n      pop\n        /* \"#utility.yul\":18656:18835   */\n    tag_340:\n        /* \"#utility.yul\":18881:18882   */\n      0x01\n        /* \"#utility.yul\":18877:18878   */\n      0x02\n        /* \"#utility.yul\":18869:18875   */\n      dup9\n        /* \"#utility.yul\":18865:18879   */\n      mul\n        /* \"#utility.yul\":18861:18883   */\n      add\n        /* \"#utility.yul\":18855:18859   */\n      dup9\n        /* \"#utility.yul\":18848:18884   */\n      sstore\n        /* \"#utility.yul\":18283:18894   */\n      pop\n      pop\n      pop\n        /* \"#utility.yul\":18246:19133   */\n    tag_332:\n      pop\n        /* \"#utility.yul\":17836:19139   */\n      pop\n      pop\n      pop\n        /* \"#utility.yul\":17744:19139   */\n      pop\n      pop\n      jump\t// out\n\n    auxdata: 0xa2646970667358221220d5261aa37d98622983a7829a18fa637da589ed5e8f4855339993cdb4b86d6b5b64736f6c634300081a0033\n}\n",
				"bytecode": {
					"linkReferences": {},
					"object": "6080604052348015600e575f80fd5b506114738061001c5f395ff3fe608060405234801561000f575f80fd5b506004361061003f575f3560e01c80638eb20b0b14610043578063b75a2b7a14610061578063cb22f5fd1461007d575b5f80fd5b61004b6100b4565b6040516100589190610d16565b60405180910390f35b61007b60048036038101906100769190610e9d565b610554565b005b61009760048036038101906100929190611045565b6106ba565b6040516100ab9897969594939291906110c7565b60405180910390f35b60605f805480602002602001604051908101604052809291908181526020015f905b8282101561054b578382905f5260205f209060080201604051806101000160405290815f82015f9054906101000a900473ffffffffffffffffffffffffffffffffffffffff1673ffffffffffffffffffffffffffffffffffffffff1673ffffffffffffffffffffffffffffffffffffffff16815260200160018201805461015c906111a1565b80601f0160208091040260200160405190810160405280929190818152602001828054610188906111a1565b80156101d35780601f106101aa576101008083540402835291602001916101d3565b820191905f5260205f20905b8154815290600101906020018083116101b657829003601f168201915b505050505081526020016002820180546101ec906111a1565b80601f0160208091040260200160405190810160405280929190818152602001828054610218906111a1565b80156102635780601f1061023a57610100808354040283529160200191610263565b820191905f5260205f20905b81548152906001019060200180831161024657829003601f168201915b5050505050815260200160038201805461027c906111a1565b80601f01602080910402602001604051908101604052809291908181526020018280546102a8906111a1565b80156102f35780601f106102ca576101008083540402835291602001916102f3565b820191905f5260205f20905b8154815290600101906020018083116102d657829003601f168201915b5050505050815260200160048201805461030c906111a1565b80601f0160208091040260200160405190810160405280929190818152602001828054610338906111a1565b80156103835780601f1061035a57610100808354040283529160200191610383565b820191905f5260205f20905b81548152906001019060200180831161036657829003601f168201915b5050505050815260200160058201805461039c906111a1565b80601f01602080910402602001604051908101604052809291908181526020018280546103c8906111a1565b80156104135780601f106103ea57610100808354040283529160200191610413565b820191905f5260205f20905b8154815290600101906020018083116103f657829003601f168201915b5050505050815260200160068201805461042c906111a1565b80601f0160208091040260200160405190810160405280929190818152602001828054610458906111a1565b80156104a35780601f1061047a576101008083540402835291602001916104a3565b820191905f5260205f20905b81548152906001019060200180831161048657829003601f168201915b505050505081526020016007820180546104bc906111a1565b80601f01602080910402602001604051908101604052809291908181526020018280546104e8906111a1565b80156105335780601f1061050a57610100808354040283529160200191610533565b820191905f5260205f20905b81548152906001019060200180831161051657829003601f168201915b505050505081525050815260200190600101906100d6565b50505050905090565b5f6040518061010001604052808473ffffffffffffffffffffffffffffffffffffffff1681526020018a81526020018381526020018981526020018881526020018781526020018681526020018581525090505f81908060018154018082558091505060019003905f5260205f2090600802015f909190919091505f820151815f015f6101000a81548173ffffffffffffffffffffffffffffffffffffffff021916908373ffffffffffffffffffffffffffffffffffffffff1602179055506020820151816001019081610628919061136e565b50604082015181600201908161063e919061136e565b506060820151816003019081610654919061136e565b50608082015181600401908161066a919061136e565b5060a0820151816005019081610680919061136e565b5060c0820151816006019081610696919061136e565b5060e08201518160070190816106ac919061136e565b505050505050505050505050565b5f81815481106106c8575f80fd5b905f5260205f2090600802015f91509050805f015f9054906101000a900473ffffffffffffffffffffffffffffffffffffffff169080600101805461070c906111a1565b80601f0160208091040260200160405190810160405280929190818152602001828054610738906111a1565b80156107835780601f1061075a57610100808354040283529160200191610783565b820191905f5260205f20905b81548152906001019060200180831161076657829003601f168201915b505050505090806002018054610798906111a1565b80601f01602080910402602001604051908101604052809291908181526020018280546107c4906111a1565b801561080f5780601f106107e65761010080835404028352916020019161080f565b820191905f5260205f20905b8154815290600101906020018083116107f257829003601f168201915b505050505090806003018054610824906111a1565b80601f0160208091040260200160405190810160405280929190818152602001828054610850906111a1565b801561089b5780601f106108725761010080835404028352916020019161089b565b820191905f5260205f20905b81548152906001019060200180831161087e57829003601f168201915b5050505050908060040180546108b0906111a1565b80601f01602080910402602001604051908101604052809291908181526020018280546108dc906111a1565b80156109275780601f106108fe57610100808354040283529160200191610927565b820191905f5260205f20905b81548152906001019060200180831161090a57829003601f168201915b50505050509080600501805461093c906111a1565b80601f0160208091040260200160405190810160405280929190818152602001828054610968906111a1565b80156109b35780601f1061098a576101008083540402835291602001916109b3565b820191905f5260205f20905b81548152906001019060200180831161099657829003601f168201915b5050505050908060060180546109c8906111a1565b80601f01602080910402602001604051908101604052809291908181526020018280546109f4906111a1565b8015610a3f5780601f10610a1657610100808354040283529160200191610a3f565b820191905f5260205f20905b815481529060010190602001808311610a2257829003601f168201915b505050505090806007018054610a54906111a1565b80601f0160208091040260200160405190810160405280929190818152602001828054610a80906111a1565b8015610acb5780601f10610aa257610100808354040283529160200191610acb565b820191905f5260205f20905b815481529060010190602001808311610aae57829003601f168201915b5050505050905088565b5f81519050919050565b5f82825260208201905092915050565b5f819050602082019050919050565b5f73ffffffffffffffffffffffffffffffffffffffff82169050919050565b5f610b2782610afe565b9050919050565b610b3781610b1d565b82525050565b5f81519050919050565b5f82825260208201905092915050565b8281835e5f83830152505050565b5f601f19601f8301169050919050565b5f610b7f82610b3d565b610b898185610b47565b9350610b99818560208601610b57565b610ba281610b65565b840191505092915050565b5f61010083015f830151610bc35f860182610b2e565b5060208301518482036020860152610bdb8282610b75565b91505060408301518482036040860152610bf58282610b75565b91505060608301518482036060860152610c0f8282610b75565b91505060808301518482036080860152610c298282610b75565b91505060a083015184820360a0860152610c438282610b75565b91505060c083015184820360c0860152610c5d8282610b75565b91505060e083015184820360e0860152610c778282610b75565b9150508091505092915050565b5f610c8f8383610bad565b905092915050565b5f602082019050919050565b5f610cad82610ad5565b610cb78185610adf565b935083602082028501610cc985610aef565b805f5b85811015610d045784840389528151610ce58582610c84565b9450610cf083610c97565b925060208a01995050600181019050610ccc565b50829750879550505050505092915050565b5f6020820190508181035f830152610d2e8184610ca3565b905092915050565b5f604051905090565b5f80fd5b5f80fd5b5f80fd5b5f80fd5b7f4e487b71000000000000000000000000000000000000000000000000000000005f52604160045260245ffd5b610d8582610b65565b810181811067ffffffffffffffff82111715610da457610da3610d4f565b5b80604052505050565b5f610db6610d36565b9050610dc28282610d7c565b919050565b5f67ffffffffffffffff821115610de157610de0610d4f565b5b610dea82610b65565b9050602081019050919050565b828183375f83830152505050565b5f610e17610e1284610dc7565b610dad565b905082815260208101848484011115610e3357610e32610d4b565b5b610e3e848285610df7565b509392505050565b5f82601f830112610e5a57610e59610d47565b5b8135610e6a848260208601610e05565b91505092915050565b610e7c81610b1d565b8114610e86575f80fd5b50565b5f81359050610e9781610e73565b92915050565b5f805f805f805f80610100898b031215610eba57610eb9610d3f565b5b5f89013567ffffffffffffffff811115610ed757610ed6610d43565b5b610ee38b828c01610e46565b985050602089013567ffffffffffffffff811115610f0457610f03610d43565b5b610f108b828c01610e46565b975050604089013567ffffffffffffffff811115610f3157610f30610d43565b5b610f3d8b828c01610e46565b965050606089013567ffffffffffffffff811115610f5e57610f5d610d43565b5b610f6a8b828c01610e46565b955050608089013567ffffffffffffffff811115610f8b57610f8a610d43565b5b610f978b828c01610e46565b94505060a089013567ffffffffffffffff811115610fb857610fb7610d43565b5b610fc48b828c01610e46565b93505060c0610fd58b828c01610e89565b92505060e089013567ffffffffffffffff811115610ff657610ff5610d43565b5b6110028b828c01610e46565b9150509295985092959890939650565b5f819050919050565b61102481611012565b811461102e575f80fd5b50565b5f8135905061103f8161101b565b92915050565b5f6020828403121561105a57611059610d3f565b5b5f61106784828501611031565b91505092915050565b61107981610b1d565b82525050565b5f82825260208201905092915050565b5f61109982610b3d565b6110a3818561107f565b93506110b3818560208601610b57565b6110bc81610b65565b840191505092915050565b5f610100820190506110db5f83018b611070565b81810360208301526110ed818a61108f565b90508181036040830152611101818961108f565b90508181036060830152611115818861108f565b90508181036080830152611129818761108f565b905081810360a083015261113d818661108f565b905081810360c0830152611151818561108f565b905081810360e0830152611165818461108f565b90509998505050505050505050565b7f4e487b71000000000000000000000000000000000000000000000000000000005f52602260045260245ffd5b5f60028204905060018216806111b857607f821691505b6020821081036111cb576111ca611174565b5b50919050565b5f819050815f5260205f209050919050565b5f6020601f8301049050919050565b5f82821b905092915050565b5f6008830261122d7fffffffffffffffffffffffffffffffffffffffffffffffffffffffffffffffff826111f2565b61123786836111f2565b95508019841693508086168417925050509392505050565b5f819050919050565b5f61127261126d61126884611012565b61124f565b611012565b9050919050565b5f819050919050565b61128b83611258565b61129f61129782611279565b8484546111fe565b825550505050565b5f90565b6112b36112a7565b6112be818484611282565b505050565b5b818110156112e1576112d65f826112ab565b6001810190506112c4565b5050565b601f821115611326576112f7816111d1565b611300846111e3565b8101602085101561130f578190505b61132361131b856111e3565b8301826112c3565b50505b505050565b5f82821c905092915050565b5f6113465f198460080261132b565b1980831691505092915050565b5f61135e8383611337565b9150826002028217905092915050565b61137782610b3d565b67ffffffffffffffff8111156113905761138f610d4f565b5b61139a82546111a1565b6113a58282856112e5565b5f60209050601f8311600181146113d6575f84156113c4578287015190505b6113ce8582611353565b865550611435565b601f1984166113e4866111d1565b5f5b8281101561140b578489015182556001820191506020850194506020810190506113e6565b868310156114285784890151611424601f891682611337565b8355505b6001600288020188555050505b50505050505056fea2646970667358221220d5261aa37d98622983a7829a18fa637da589ed5e8f4855339993cdb4b86d6b5b64736f6c634300081a0033",
					"opcodes": "PUSH1 0x80 PUSH1 0x40 MSTORE CALLVALUE DUP1 ISZERO PUSH1 0xE JUMPI PUSH0 DUP1 REVERT JUMPDEST POP PUSH2 0x1473 DUP1 PUSH2 0x1C PUSH0 CODECOPY PUSH0 RETURN INVALID PUSH1 0x80 PUSH1 0x40 MSTORE CALLVALUE DUP1 ISZERO PUSH2 0xF JUMPI PUSH0 DUP1 REVERT JUMPDEST POP PUSH1 0x4 CALLDATASIZE LT PUSH2 0x3F JUMPI PUSH0 CALLDATALOAD PUSH1 0xE0 SHR DUP1 PUSH4 0x8EB20B0B EQ PUSH2 0x43 JUMPI DUP1 PUSH4 0xB75A2B7A EQ PUSH2 0x61 JUMPI DUP1 PUSH4 0xCB22F5FD EQ PUSH2 0x7D JUMPI JUMPDEST PUSH0 DUP1 REVERT JUMPDEST PUSH2 0x4B PUSH2 0xB4 JUMP JUMPDEST PUSH1 0x40 MLOAD PUSH2 0x58 SWAP2 SWAP1 PUSH2 0xD16 JUMP JUMPDEST PUSH1 0x40 MLOAD DUP1 SWAP2 SUB SWAP1 RETURN JUMPDEST PUSH2 0x7B PUSH1 0x4 DUP1 CALLDATASIZE SUB DUP2 ADD SWAP1 PUSH2 0x76 SWAP2 SWAP1 PUSH2 0xE9D JUMP JUMPDEST PUSH2 0x554 JUMP JUMPDEST STOP JUMPDEST PUSH2 0x97 PUSH1 0x4 DUP1 CALLDATASIZE SUB DUP2 ADD SWAP1 PUSH2 0x92 SWAP2 SWAP1 PUSH2 0x1045 JUMP JUMPDEST PUSH2 0x6BA JUMP JUMPDEST PUSH1 0x40 MLOAD PUSH2 0xAB SWAP9 SWAP8 SWAP7 SWAP6 SWAP5 SWAP4 SWAP3 SWAP2 SWAP1 PUSH2 0x10C7 JUMP JUMPDEST PUSH1 0x40 MLOAD DUP1 SWAP2 SUB SWAP1 RETURN JUMPDEST PUSH1 0x60 PUSH0 DUP1 SLOAD DUP1 PUSH1 0x20 MUL PUSH1 0x20 ADD PUSH1 0x40 MLOAD SWAP1 DUP2 ADD PUSH1 0x40 MSTORE DUP1 SWAP3 SWAP2 SWAP1 DUP2 DUP2 MSTORE PUSH1 0x20 ADD PUSH0 SWAP1 JUMPDEST DUP3 DUP3 LT ISZERO PUSH2 0x54B JUMPI DUP4 DUP3 SWAP1 PUSH0 MSTORE PUSH1 0x20 PUSH0 KECCAK256 SWAP1 PUSH1 0x8 MUL ADD PUSH1 0x40 MLOAD DUP1 PUSH2 0x100 ADD PUSH1 0x40 MSTORE SWAP1 DUP2 PUSH0 DUP3 ADD PUSH0 SWAP1 SLOAD SWAP1 PUSH2 0x100 EXP SWAP1 DIV PUSH20 0xFFFFFFFFFFFFFFFFFFFFFFFFFFFFFFFFFFFFFFFF AND PUSH20 0xFFFFFFFFFFFFFFFFFFFFFFFFFFFFFFFFFFFFFFFF AND PUSH20 0xFFFFFFFFFFFFFFFFFFFFFFFFFFFFFFFFFFFFFFFF AND DUP2 MSTORE PUSH1 0x20 ADD PUSH1 0x1 DUP3 ADD DUP1 SLOAD PUSH2 0x15C SWAP1 PUSH2 0x11A1 JUMP JUMPDEST DUP1 PUSH1 0x1F ADD PUSH1 0x20 DUP1 SWAP2 DIV MUL PUSH1 0x20 ADD PUSH1 0x40 MLOAD SWAP1 DUP2 ADD PUSH1 0x40 MSTORE DUP1 SWAP3 SWAP2 SWAP1 DUP2 DUP2 MSTORE PUSH1 0x20 ADD DUP3 DUP1 SLOAD PUSH2 0x188 SWAP1 PUSH2 0x11A1 JUMP JUMPDEST DUP1 ISZERO PUSH2 0x1D3 JUMPI DUP1 PUSH1 0x1F LT PUSH2 0x1AA JUMPI PUSH2 0x100 DUP1 DUP4 SLOAD DIV MUL DUP4 MSTORE SWAP2 PUSH1 0x20 ADD SWAP2 PUSH2 0x1D3 JUMP JUMPDEST DUP3 ADD SWAP2 SWAP1 PUSH0 MSTORE PUSH1 0x20 PUSH0 KECCAK256 SWAP1 JUMPDEST DUP2 SLOAD DUP2 MSTORE SWAP1 PUSH1 0x1 ADD SWAP1 PUSH1 0x20 ADD DUP1 DUP4 GT PUSH2 0x1B6 JUMPI DUP3 SWAP1 SUB PUSH1 0x1F AND DUP3 ADD SWAP2 JUMPDEST POP POP POP POP POP DUP2 MSTORE PUSH1 0x20 ADD PUSH1 0x2 DUP3 ADD DUP1 SLOAD PUSH2 0x1EC SWAP1 PUSH2 0x11A1 JUMP JUMPDEST DUP1 PUSH1 0x1F ADD PUSH1 0x20 DUP1 SWAP2 DIV MUL PUSH1 0x20 ADD PUSH1 0x40 MLOAD SWAP1 DUP2 ADD PUSH1 0x40 MSTORE DUP1 SWAP3 SWAP2 SWAP1 DUP2 DUP2 MSTORE PUSH1 0x20 ADD DUP3 DUP1 SLOAD PUSH2 0x218 SWAP1 PUSH2 0x11A1 JUMP JUMPDEST DUP1 ISZERO PUSH2 0x263 JUMPI DUP1 PUSH1 0x1F LT PUSH2 0x23A JUMPI PUSH2 0x100 DUP1 DUP4 SLOAD DIV MUL DUP4 MSTORE SWAP2 PUSH1 0x20 ADD SWAP2 PUSH2 0x263 JUMP JUMPDEST DUP3 ADD SWAP2 SWAP1 PUSH0 MSTORE PUSH1 0x20 PUSH0 KECCAK256 SWAP1 JUMPDEST DUP2 SLOAD DUP2 MSTORE SWAP1 PUSH1 0x1 ADD SWAP1 PUSH1 0x20 ADD DUP1 DUP4 GT PUSH2 0x246 JUMPI DUP3 SWAP1 SUB PUSH1 0x1F AND DUP3 ADD SWAP2 JUMPDEST POP POP POP POP POP DUP2 MSTORE PUSH1 0x20 ADD PUSH1 0x3 DUP3 ADD DUP1 SLOAD PUSH2 0x27C SWAP1 PUSH2 0x11A1 JUMP JUMPDEST DUP1 PUSH1 0x1F ADD PUSH1 0x20 DUP1 SWAP2 DIV MUL PUSH1 0x20 ADD PUSH1 0x40 MLOAD SWAP1 DUP2 ADD PUSH1 0x40 MSTORE DUP1 SWAP3 SWAP2 SWAP1 DUP2 DUP2 MSTORE PUSH1 0x20 ADD DUP3 DUP1 SLOAD PUSH2 0x2A8 SWAP1 PUSH2 0x11A1 JUMP JUMPDEST DUP1 ISZERO PUSH2 0x2F3 JUMPI DUP1 PUSH1 0x1F LT PUSH2 0x2CA JUMPI PUSH2 0x100 DUP1 DUP4 SLOAD DIV MUL DUP4 MSTORE SWAP2 PUSH1 0x20 ADD SWAP2 PUSH2 0x2F3 JUMP JUMPDEST DUP3 ADD SWAP2 SWAP1 PUSH0 MSTORE PUSH1 0x20 PUSH0 KECCAK256 SWAP1 JUMPDEST DUP2 SLOAD DUP2 MSTORE SWAP1 PUSH1 0x1 ADD SWAP1 PUSH1 0x20 ADD DUP1 DUP4 GT PUSH2 0x2D6 JUMPI DUP3 SWAP1 SUB PUSH1 0x1F AND DUP3 ADD SWAP2 JUMPDEST POP POP POP POP POP DUP2 MSTORE PUSH1 0x20 ADD PUSH1 0x4 DUP3 ADD DUP1 SLOAD PUSH2 0x30C SWAP1 PUSH2 0x11A1 JUMP JUMPDEST DUP1 PUSH1 0x1F ADD PUSH1 0x20 DUP1 SWAP2 DIV MUL PUSH1 0x20 ADD PUSH1 0x40 MLOAD SWAP1 DUP2 ADD PUSH1 0x40 MSTORE DUP1 SWAP3 SWAP2 SWAP1 DUP2 DUP2 MSTORE PUSH1 0x20 ADD DUP3 DUP1 SLOAD PUSH2 0x338 SWAP1 PUSH2 0x11A1 JUMP JUMPDEST DUP1 ISZERO PUSH2 0x383 JUMPI DUP1 PUSH1 0x1F LT PUSH2 0x35A JUMPI PUSH2 0x100 DUP1 DUP4 SLOAD DIV MUL DUP4 MSTORE SWAP2 PUSH1 0x20 ADD SWAP2 PUSH2 0x383 JUMP JUMPDEST DUP3 ADD SWAP2 SWAP1 PUSH0 MSTORE PUSH1 0x20 PUSH0 KECCAK256 SWAP1 JUMPDEST DUP2 SLOAD DUP2 MSTORE SWAP1 PUSH1 0x1 ADD SWAP1 PUSH1 0x20 ADD DUP1 DUP4 GT PUSH2 0x366 JUMPI DUP3 SWAP1 SUB PUSH1 0x1F AND DUP3 ADD SWAP2 JUMPDEST POP POP POP POP POP DUP2 MSTORE PUSH1 0x20 ADD PUSH1 0x5 DUP3 ADD DUP1 SLOAD PUSH2 0x39C SWAP1 PUSH2 0x11A1 JUMP JUMPDEST DUP1 PUSH1 0x1F ADD PUSH1 0x20 DUP1 SWAP2 DIV MUL PUSH1 0x20 ADD PUSH1 0x40 MLOAD SWAP1 DUP2 ADD PUSH1 0x40 MSTORE DUP1 SWAP3 SWAP2 SWAP1 DUP2 DUP2 MSTORE PUSH1 0x20 ADD DUP3 DUP1 SLOAD PUSH2 0x3C8 SWAP1 PUSH2 0x11A1 JUMP JUMPDEST DUP1 ISZERO PUSH2 0x413 JUMPI DUP1 PUSH1 0x1F LT PUSH2 0x3EA JUMPI PUSH2 0x100 DUP1 DUP4 SLOAD DIV MUL DUP4 MSTORE SWAP2 PUSH1 0x20 ADD SWAP2 PUSH2 0x413 JUMP JUMPDEST DUP3 ADD SWAP2 SWAP1 PUSH0 MSTORE PUSH1 0x20 PUSH0 KECCAK256 SWAP1 JUMPDEST DUP2 SLOAD DUP2 MSTORE SWAP1 PUSH1 0x1 ADD SWAP1 PUSH1 0x20 ADD DUP1 DUP4 GT PUSH2 0x3F6 JUMPI DUP3 SWAP1 SUB PUSH1 0x1F AND DUP3 ADD SWAP2 JUMPDEST POP POP POP POP POP DUP2 MSTORE PUSH1 0x20 ADD PUSH1 0x6 DUP3 ADD DUP1 SLOAD PUSH2 0x42C SWAP1 PUSH2 0x11A1 JUMP JUMPDEST DUP1 PUSH1 0x1F ADD PUSH1 0x20 DUP1 SWAP2 DIV MUL PUSH1 0x20 ADD PUSH1 0x40 MLOAD SWAP1 DUP2 ADD PUSH1 0x40 MSTORE DUP1 SWAP3 SWAP2 SWAP1 DUP2 DUP2 MSTORE PUSH1 0x20 ADD DUP3 DUP1 SLOAD PUSH2 0x458 SWAP1 PUSH2 0x11A1 JUMP JUMPDEST DUP1 ISZERO PUSH2 0x4A3 JUMPI DUP1 PUSH1 0x1F LT PUSH2 0x47A JUMPI PUSH2 0x100 DUP1 DUP4 SLOAD DIV MUL DUP4 MSTORE SWAP2 PUSH1 0x20 ADD SWAP2 PUSH2 0x4A3 JUMP JUMPDEST DUP3 ADD SWAP2 SWAP1 PUSH0 MSTORE PUSH1 0x20 PUSH0 KECCAK256 SWAP1 JUMPDEST DUP2 SLOAD DUP2 MSTORE SWAP1 PUSH1 0x1 ADD SWAP1 PUSH1 0x20 ADD DUP1 DUP4 GT PUSH2 0x486 JUMPI DUP3 SWAP1 SUB PUSH1 0x1F AND DUP3 ADD SWAP2 JUMPDEST POP POP POP POP POP DUP2 MSTORE PUSH1 0x20 ADD PUSH1 0x7 DUP3 ADD DUP1 SLOAD PUSH2 0x4BC SWAP1 PUSH2 0x11A1 JUMP JUMPDEST DUP1 PUSH1 0x1F ADD PUSH1 0x20 DUP1 SWAP2 DIV MUL PUSH1 0x20 ADD PUSH1 0x40 MLOAD SWAP1 DUP2 ADD PUSH1 0x40 MSTORE DUP1 SWAP3 SWAP2 SWAP1 DUP2 DUP2 MSTORE PUSH1 0x20 ADD DUP3 DUP1 SLOAD PUSH2 0x4E8 SWAP1 PUSH2 0x11A1 JUMP JUMPDEST DUP1 ISZERO PUSH2 0x533 JUMPI DUP1 PUSH1 0x1F LT PUSH2 0x50A JUMPI PUSH2 0x100 DUP1 DUP4 SLOAD DIV MUL DUP4 MSTORE SWAP2 PUSH1 0x20 ADD SWAP2 PUSH2 0x533 JUMP JUMPDEST DUP3 ADD SWAP2 SWAP1 PUSH0 MSTORE PUSH1 0x20 PUSH0 KECCAK256 SWAP1 JUMPDEST DUP2 SLOAD DUP2 MSTORE SWAP1 PUSH1 0x1 ADD SWAP1 PUSH1 0x20 ADD DUP1 DUP4 GT PUSH2 0x516 JUMPI DUP3 SWAP1 SUB PUSH1 0x1F AND DUP3 ADD SWAP2 JUMPDEST POP POP POP POP POP DUP2 MSTORE POP POP DUP2 MSTORE PUSH1 0x20 ADD SWAP1 PUSH1 0x1 ADD SWAP1 PUSH2 0xD6 JUMP JUMPDEST POP POP POP POP SWAP1 POP SWAP1 JUMP JUMPDEST PUSH0 PUSH1 0x40 MLOAD DUP1 PUSH2 0x100 ADD PUSH1 0x40 MSTORE DUP1 DUP5 PUSH20 0xFFFFFFFFFFFFFFFFFFFFFFFFFFFFFFFFFFFFFFFF AND DUP2 MSTORE PUSH1 0x20 ADD DUP11 DUP2 MSTORE PUSH1 0x20 ADD DUP4 DUP2 MSTORE PUSH1 0x20 ADD DUP10 DUP2 MSTORE PUSH1 0x20 ADD DUP9 DUP2 MSTORE PUSH1 0x20 ADD DUP8 DUP2 MSTORE PUSH1 0x20 ADD DUP7 DUP2 MSTORE PUSH1 0x20 ADD DUP6 DUP2 MSTORE POP SWAP1 POP PUSH0 DUP2 SWAP1 DUP1 PUSH1 0x1 DUP2 SLOAD ADD DUP1 DUP3 SSTORE DUP1 SWAP2 POP POP PUSH1 0x1 SWAP1 SUB SWAP1 PUSH0 MSTORE PUSH1 0x20 PUSH0 KECCAK256 SWAP1 PUSH1 0x8 MUL ADD PUSH0 SWAP1 SWAP2 SWAP1 SWAP2 SWAP1 SWAP2 POP PUSH0 DUP3 ADD MLOAD DUP2 PUSH0 ADD PUSH0 PUSH2 0x100 EXP DUP2 SLOAD DUP2 PUSH20 0xFFFFFFFFFFFFFFFFFFFFFFFFFFFFFFFFFFFFFFFF MUL NOT AND SWAP1 DUP4 PUSH20 0xFFFFFFFFFFFFFFFFFFFFFFFFFFFFFFFFFFFFFFFF AND MUL OR SWAP1 SSTORE POP PUSH1 0x20 DUP3 ADD MLOAD DUP2 PUSH1 0x1 ADD SWAP1 DUP2 PUSH2 0x628 SWAP2 SWAP1 PUSH2 0x136E JUMP JUMPDEST POP PUSH1 0x40 DUP3 ADD MLOAD DUP2 PUSH1 0x2 ADD SWAP1 DUP2 PUSH2 0x63E SWAP2 SWAP1 PUSH2 0x136E JUMP JUMPDEST POP PUSH1 0x60 DUP3 ADD MLOAD DUP2 PUSH1 0x3 ADD SWAP1 DUP2 PUSH2 0x654 SWAP2 SWAP1 PUSH2 0x136E JUMP JUMPDEST POP PUSH1 0x80 DUP3 ADD MLOAD DUP2 PUSH1 0x4 ADD SWAP1 DUP2 PUSH2 0x66A SWAP2 SWAP1 PUSH2 0x136E JUMP JUMPDEST POP PUSH1 0xA0 DUP3 ADD MLOAD DUP2 PUSH1 0x5 ADD SWAP1 DUP2 PUSH2 0x680 SWAP2 SWAP1 PUSH2 0x136E JUMP JUMPDEST POP PUSH1 0xC0 DUP3 ADD MLOAD DUP2 PUSH1 0x6 ADD SWAP1 DUP2 PUSH2 0x696 SWAP2 SWAP1 PUSH2 0x136E JUMP JUMPDEST POP PUSH1 0xE0 DUP3 ADD MLOAD DUP2 PUSH1 0x7 ADD SWAP1 DUP2 PUSH2 0x6AC SWAP2 SWAP1 PUSH2 0x136E JUMP JUMPDEST POP POP POP POP POP POP POP POP POP POP POP POP JUMP JUMPDEST PUSH0 DUP2 DUP2 SLOAD DUP2 LT PUSH2 0x6C8 JUMPI PUSH0 DUP1 REVERT JUMPDEST SWAP1 PUSH0 MSTORE PUSH1 0x20 PUSH0 KECCAK256 SWAP1 PUSH1 0x8 MUL ADD PUSH0 SWAP2 POP SWAP1 POP DUP1 PUSH0 ADD PUSH0 SWAP1 SLOAD SWAP1 PUSH2 0x100 EXP SWAP1 DIV PUSH20 0xFFFFFFFFFFFFFFFFFFFFFFFFFFFFFFFFFFFFFFFF AND SWAP1 DUP1 PUSH1 0x1 ADD DUP1 SLOAD PUSH2 0x70C SWAP1 PUSH2 0x11A1 JUMP JUMPDEST DUP1 PUSH1 0x1F ADD PUSH1 0x20 DUP1 SWAP2 DIV MUL PUSH1 0x20 ADD PUSH1 0x40 MLOAD SWAP1 DUP2 ADD PUSH1 0x40 MSTORE DUP1 SWAP3 SWAP2 SWAP1 DUP2 DUP2 MSTORE PUSH1 0x20 ADD DUP3 DUP1 SLOAD PUSH2 0x738 SWAP1 PUSH2 0x11A1 JUMP JUMPDEST DUP1 ISZERO PUSH2 0x783 JUMPI DUP1 PUSH1 0x1F LT PUSH2 0x75A JUMPI PUSH2 0x100 DUP1 DUP4 SLOAD DIV MUL DUP4 MSTORE SWAP2 PUSH1 0x20 ADD SWAP2 PUSH2 0x783 JUMP JUMPDEST DUP3 ADD SWAP2 SWAP1 PUSH0 MSTORE PUSH1 0x20 PUSH0 KECCAK256 SWAP1 JUMPDEST DUP2 SLOAD DUP2 MSTORE SWAP1 PUSH1 0x1 ADD SWAP1 PUSH1 0x20 ADD DUP1 DUP4 GT PUSH2 0x766 JUMPI DUP3 SWAP1 SUB PUSH1 0x1F AND DUP3 ADD SWAP2 JUMPDEST POP POP POP POP POP SWAP1 DUP1 PUSH1 0x2 ADD DUP1 SLOAD PUSH2 0x798 SWAP1 PUSH2 0x11A1 JUMP JUMPDEST DUP1 PUSH1 0x1F ADD PUSH1 0x20 DUP1 SWAP2 DIV MUL PUSH1 0x20 ADD PUSH1 0x40 MLOAD SWAP1 DUP2 ADD PUSH1 0x40 MSTORE DUP1 SWAP3 SWAP2 SWAP1 DUP2 DUP2 MSTORE PUSH1 0x20 ADD DUP3 DUP1 SLOAD PUSH2 0x7C4 SWAP1 PUSH2 0x11A1 JUMP JUMPDEST DUP1 ISZERO PUSH2 0x80F JUMPI DUP1 PUSH1 0x1F LT PUSH2 0x7E6 JUMPI PUSH2 0x100 DUP1 DUP4 SLOAD DIV MUL DUP4 MSTORE SWAP2 PUSH1 0x20 ADD SWAP2 PUSH2 0x80F JUMP JUMPDEST DUP3 ADD SWAP2 SWAP1 PUSH0 MSTORE PUSH1 0x20 PUSH0 KECCAK256 SWAP1 JUMPDEST DUP2 SLOAD DUP2 MSTORE SWAP1 PUSH1 0x1 ADD SWAP1 PUSH1 0x20 ADD DUP1 DUP4 GT PUSH2 0x7F2 JUMPI DUP3 SWAP1 SUB PUSH1 0x1F AND DUP3 ADD SWAP2 JUMPDEST POP POP POP POP POP SWAP1 DUP1 PUSH1 0x3 ADD DUP1 SLOAD PUSH2 0x824 SWAP1 PUSH2 0x11A1 JUMP JUMPDEST DUP1 PUSH1 0x1F ADD PUSH1 0x20 DUP1 SWAP2 DIV MUL PUSH1 0x20 ADD PUSH1 0x40 MLOAD SWAP1 DUP2 ADD PUSH1 0x40 MSTORE DUP1 SWAP3 SWAP2 SWAP1 DUP2 DUP2 MSTORE PUSH1 0x20 ADD DUP3 DUP1 SLOAD PUSH2 0x850 SWAP1 PUSH2 0x11A1 JUMP JUMPDEST DUP1 ISZERO PUSH2 0x89B JUMPI DUP1 PUSH1 0x1F LT PUSH2 0x872 JUMPI PUSH2 0x100 DUP1 DUP4 SLOAD DIV MUL DUP4 MSTORE SWAP2 PUSH1 0x20 ADD SWAP2 PUSH2 0x89B JUMP JUMPDEST DUP3 ADD SWAP2 SWAP1 PUSH0 MSTORE PUSH1 0x20 PUSH0 KECCAK256 SWAP1 JUMPDEST DUP2 SLOAD DUP2 MSTORE SWAP1 PUSH1 0x1 ADD SWAP1 PUSH1 0x20 ADD DUP1 DUP4 GT PUSH2 0x87E JUMPI DUP3 SWAP1 SUB PUSH1 0x1F AND DUP3 ADD SWAP2 JUMPDEST POP POP POP POP POP SWAP1 DUP1 PUSH1 0x4 ADD DUP1 SLOAD PUSH2 0x8B0 SWAP1 PUSH2 0x11A1 JUMP JUMPDEST DUP1 PUSH1 0x1F ADD PUSH1 0x20 DUP1 SWAP2 DIV MUL PUSH1 0x20 ADD PUSH1 0x40 MLOAD SWAP1 DUP2 ADD PUSH1 0x40 MSTORE DUP1 SWAP3 SWAP2 SWAP1 DUP2 DUP2 MSTORE PUSH1 0x20 ADD DUP3 DUP1 SLOAD PUSH2 0x8DC SWAP1 PUSH2 0x11A1 JUMP JUMPDEST DUP1 ISZERO PUSH2 0x927 JUMPI DUP1 PUSH1 0x1F LT PUSH2 0x8FE JUMPI PUSH2 0x100 DUP1 DUP4 SLOAD DIV MUL DUP4 MSTORE SWAP2 PUSH1 0x20 ADD SWAP2 PUSH2 0x927 JUMP JUMPDEST DUP3 ADD SWAP2 SWAP1 PUSH0 MSTORE PUSH1 0x20 PUSH0 KECCAK256 SWAP1 JUMPDEST DUP2 SLOAD DUP2 MSTORE SWAP1 PUSH1 0x1 ADD SWAP1 PUSH1 0x20 ADD DUP1 DUP4 GT PUSH2 0x90A JUMPI DUP3 SWAP1 SUB PUSH1 0x1F AND DUP3 ADD SWAP2 JUMPDEST POP POP POP POP POP SWAP1 DUP1 PUSH1 0x5 ADD DUP1 SLOAD PUSH2 0x93C SWAP1 PUSH2 0x11A1 JUMP JUMPDEST DUP1 PUSH1 0x1F ADD PUSH1 0x20 DUP1 SWAP2 DIV MUL PUSH1 0x20 ADD PUSH1 0x40 MLOAD SWAP1 DUP2 ADD PUSH1 0x40 MSTORE DUP1 SWAP3 SWAP2 SWAP1 DUP2 DUP2 MSTORE PUSH1 0x20 ADD DUP3 DUP1 SLOAD PUSH2 0x968 SWAP1 PUSH2 0x11A1 JUMP JUMPDEST DUP1 ISZERO PUSH2 0x9B3 JUMPI DUP1 PUSH1 0x1F LT PUSH2 0x98A JUMPI PUSH2 0x100 DUP1 DUP4 SLOAD DIV MUL DUP4 MSTORE SWAP2 PUSH1 0x20 ADD SWAP2 PUSH2 0x9B3 JUMP JUMPDEST DUP3 ADD SWAP2 SWAP1 PUSH0 MSTORE PUSH1 0x20 PUSH0 KECCAK256 SWAP1 JUMPDEST DUP2 SLOAD DUP2 MSTORE SWAP1 PUSH1 0x1 ADD SWAP1 PUSH1 0x20 ADD DUP1 DUP4 GT PUSH2 0x996 JUMPI DUP3 SWAP1 SUB PUSH1 0x1F AND DUP3 ADD SWAP2 JUMPDEST POP POP POP POP POP SWAP1 DUP1 PUSH1 0x6 ADD DUP1 SLOAD PUSH2 0x9C8 SWAP1 PUSH2 0x11A1 JUMP JUMPDEST DUP1 PUSH1 0x1F ADD PUSH1 0x20 DUP1 SWAP2 DIV MUL PUSH1 0x20 ADD PUSH1 0x40 MLOAD SWAP1 DUP2 ADD PUSH1 0x40 MSTORE DUP1 SWAP3 SWAP2 SWAP1 DUP2 DUP2 MSTORE PUSH1 0x20 ADD DUP3 DUP1 SLOAD PUSH2 0x9F4 SWAP1 PUSH2 0x11A1 JUMP JUMPDEST DUP1 ISZERO PUSH2 0xA3F JUMPI DUP1 PUSH1 0x1F LT PUSH2 0xA16 JUMPI PUSH2 0x100 DUP1 DUP4 SLOAD DIV MUL DUP4 MSTORE SWAP2 PUSH1 0x20 ADD SWAP2 PUSH2 0xA3F JUMP JUMPDEST DUP3 ADD SWAP2 SWAP1 PUSH0 MSTORE PUSH1 0x20 PUSH0 KECCAK256 SWAP1 JUMPDEST DUP2 SLOAD DUP2 MSTORE SWAP1 PUSH1 0x1 ADD SWAP1 PUSH1 0x20 ADD DUP1 DUP4 GT PUSH2 0xA22 JUMPI DUP3 SWAP1 SUB PUSH1 0x1F AND DUP3 ADD SWAP2 JUMPDEST POP POP POP POP POP SWAP1 DUP1 PUSH1 0x7 ADD DUP1 SLOAD PUSH2 0xA54 SWAP1 PUSH2 0x11A1 JUMP JUMPDEST DUP1 PUSH1 0x1F ADD PUSH1 0x20 DUP1 SWAP2 DIV MUL PUSH1 0x20 ADD PUSH1 0x40 MLOAD SWAP1 DUP2 ADD PUSH1 0x40 MSTORE DUP1 SWAP3 SWAP2 SWAP1 DUP2 DUP2 MSTORE PUSH1 0x20 ADD DUP3 DUP1 SLOAD PUSH2 0xA80 SWAP1 PUSH2 0x11A1 JUMP JUMPDEST DUP1 ISZERO PUSH2 0xACB JUMPI DUP1 PUSH1 0x1F LT PUSH2 0xAA2 JUMPI PUSH2 0x100 DUP1 DUP4 SLOAD DIV MUL DUP4 MSTORE SWAP2 PUSH1 0x20 ADD SWAP2 PUSH2 0xACB JUMP JUMPDEST DUP3 ADD SWAP2 SWAP1 PUSH0 MSTORE PUSH1 0x20 PUSH0 KECCAK256 SWAP1 JUMPDEST DUP2 SLOAD DUP2 MSTORE SWAP1 PUSH1 0x1 ADD SWAP1 PUSH1 0x20 ADD DUP1 DUP4 GT PUSH2 0xAAE JUMPI DUP3 SWAP1 SUB PUSH1 0x1F AND DUP3 ADD SWAP2 JUMPDEST POP POP POP POP POP SWAP1 POP DUP9 JUMP JUMPDEST PUSH0 DUP2 MLOAD SWAP1 POP SWAP2 SWAP1 POP JUMP JUMPDEST PUSH0 DUP3 DUP3 MSTORE PUSH1 0x20 DUP3 ADD SWAP1 POP SWAP3 SWAP2 POP POP JUMP JUMPDEST PUSH0 DUP2 SWAP1 POP PUSH1 0x20 DUP3 ADD SWAP1 POP SWAP2 SWAP1 POP JUMP JUMPDEST PUSH0 PUSH20 0xFFFFFFFFFFFFFFFFFFFFFFFFFFFFFFFFFFFFFFFF DUP3 AND SWAP1 POP SWAP2 SWAP1 POP JUMP JUMPDEST PUSH0 PUSH2 0xB27 DUP3 PUSH2 0xAFE JUMP JUMPDEST SWAP1 POP SWAP2 SWAP1 POP JUMP JUMPDEST PUSH2 0xB37 DUP2 PUSH2 0xB1D JUMP JUMPDEST DUP3 MSTORE POP POP JUMP JUMPDEST PUSH0 DUP2 MLOAD SWAP1 POP SWAP2 SWAP1 POP JUMP JUMPDEST PUSH0 DUP3 DUP3 MSTORE PUSH1 0x20 DUP3 ADD SWAP1 POP SWAP3 SWAP2 POP POP JUMP JUMPDEST DUP3 DUP2 DUP4 MCOPY PUSH0 DUP4 DUP4 ADD MSTORE POP POP POP JUMP JUMPDEST PUSH0 PUSH1 0x1F NOT PUSH1 0x1F DUP4 ADD AND SWAP1 POP SWAP2 SWAP1 POP JUMP JUMPDEST PUSH0 PUSH2 0xB7F DUP3 PUSH2 0xB3D JUMP JUMPDEST PUSH2 0xB89 DUP2 DUP6 PUSH2 0xB47 JUMP JUMPDEST SWAP4 POP PUSH2 0xB99 DUP2 DUP6 PUSH1 0x20 DUP7 ADD PUSH2 0xB57 JUMP JUMPDEST PUSH2 0xBA2 DUP2 PUSH2 0xB65 JUMP JUMPDEST DUP5 ADD SWAP2 POP POP SWAP3 SWAP2 POP POP JUMP JUMPDEST PUSH0 PUSH2 0x100 DUP4 ADD PUSH0 DUP4 ADD MLOAD PUSH2 0xBC3 PUSH0 DUP7 ADD DUP3 PUSH2 0xB2E JUMP JUMPDEST POP PUSH1 0x20 DUP4 ADD MLOAD DUP5 DUP3 SUB PUSH1 0x20 DUP7 ADD MSTORE PUSH2 0xBDB DUP3 DUP3 PUSH2 0xB75 JUMP JUMPDEST SWAP2 POP POP PUSH1 0x40 DUP4 ADD MLOAD DUP5 DUP3 SUB PUSH1 0x40 DUP7 ADD MSTORE PUSH2 0xBF5 DUP3 DUP3 PUSH2 0xB75 JUMP JUMPDEST SWAP2 POP POP PUSH1 0x60 DUP4 ADD MLOAD DUP5 DUP3 SUB PUSH1 0x60 DUP7 ADD MSTORE PUSH2 0xC0F DUP3 DUP3 PUSH2 0xB75 JUMP JUMPDEST SWAP2 POP POP PUSH1 0x80 DUP4 ADD MLOAD DUP5 DUP3 SUB PUSH1 0x80 DUP7 ADD MSTORE PUSH2 0xC29 DUP3 DUP3 PUSH2 0xB75 JUMP JUMPDEST SWAP2 POP POP PUSH1 0xA0 DUP4 ADD MLOAD DUP5 DUP3 SUB PUSH1 0xA0 DUP7 ADD MSTORE PUSH2 0xC43 DUP3 DUP3 PUSH2 0xB75 JUMP JUMPDEST SWAP2 POP POP PUSH1 0xC0 DUP4 ADD MLOAD DUP5 DUP3 SUB PUSH1 0xC0 DUP7 ADD MSTORE PUSH2 0xC5D DUP3 DUP3 PUSH2 0xB75 JUMP JUMPDEST SWAP2 POP POP PUSH1 0xE0 DUP4 ADD MLOAD DUP5 DUP3 SUB PUSH1 0xE0 DUP7 ADD MSTORE PUSH2 0xC77 DUP3 DUP3 PUSH2 0xB75 JUMP JUMPDEST SWAP2 POP POP DUP1 SWAP2 POP POP SWAP3 SWAP2 POP POP JUMP JUMPDEST PUSH0 PUSH2 0xC8F DUP4 DUP4 PUSH2 0xBAD JUMP JUMPDEST SWAP1 POP SWAP3 SWAP2 POP POP JUMP JUMPDEST PUSH0 PUSH1 0x20 DUP3 ADD SWAP1 POP SWAP2 SWAP1 POP JUMP JUMPDEST PUSH0 PUSH2 0xCAD DUP3 PUSH2 0xAD5 JUMP JUMPDEST PUSH2 0xCB7 DUP2 DUP6 PUSH2 0xADF JUMP JUMPDEST SWAP4 POP DUP4 PUSH1 0x20 DUP3 MUL DUP6 ADD PUSH2 0xCC9 DUP6 PUSH2 0xAEF JUMP JUMPDEST DUP1 PUSH0 JUMPDEST DUP6 DUP2 LT ISZERO PUSH2 0xD04 JUMPI DUP5 DUP5 SUB DUP10 MSTORE DUP2 MLOAD PUSH2 0xCE5 DUP6 DUP3 PUSH2 0xC84 JUMP JUMPDEST SWAP5 POP PUSH2 0xCF0 DUP4 PUSH2 0xC97 JUMP JUMPDEST SWAP3 POP PUSH1 0x20 DUP11 ADD SWAP10 POP POP PUSH1 0x1 DUP2 ADD SWAP1 POP PUSH2 0xCCC JUMP JUMPDEST POP DUP3 SWAP8 POP DUP8 SWAP6 POP POP POP POP POP POP SWAP3 SWAP2 POP POP JUMP JUMPDEST PUSH0 PUSH1 0x20 DUP3 ADD SWAP1 POP DUP2 DUP2 SUB PUSH0 DUP4 ADD MSTORE PUSH2 0xD2E DUP2 DUP5 PUSH2 0xCA3 JUMP JUMPDEST SWAP1 POP SWAP3 SWAP2 POP POP JUMP JUMPDEST PUSH0 PUSH1 0x40 MLOAD SWAP1 POP SWAP1 JUMP JUMPDEST PUSH0 DUP1 REVERT JUMPDEST PUSH0 DUP1 REVERT JUMPDEST PUSH0 DUP1 REVERT JUMPDEST PUSH0 DUP1 REVERT JUMPDEST PUSH32 0x4E487B7100000000000000000000000000000000000000000000000000000000 PUSH0 MSTORE PUSH1 0x41 PUSH1 0x4 MSTORE PUSH1 0x24 PUSH0 REVERT JUMPDEST PUSH2 0xD85 DUP3 PUSH2 0xB65 JUMP JUMPDEST DUP2 ADD DUP2 DUP2 LT PUSH8 0xFFFFFFFFFFFFFFFF DUP3 GT OR ISZERO PUSH2 0xDA4 JUMPI PUSH2 0xDA3 PUSH2 0xD4F JUMP JUMPDEST JUMPDEST DUP1 PUSH1 0x40 MSTORE POP POP POP JUMP JUMPDEST PUSH0 PUSH2 0xDB6 PUSH2 0xD36 JUMP JUMPDEST SWAP1 POP PUSH2 0xDC2 DUP3 DUP3 PUSH2 0xD7C JUMP JUMPDEST SWAP2 SWAP1 POP JUMP JUMPDEST PUSH0 PUSH8 0xFFFFFFFFFFFFFFFF DUP3 GT ISZERO PUSH2 0xDE1 JUMPI PUSH2 0xDE0 PUSH2 0xD4F JUMP JUMPDEST JUMPDEST PUSH2 0xDEA DUP3 PUSH2 0xB65 JUMP JUMPDEST SWAP1 POP PUSH1 0x20 DUP2 ADD SWAP1 POP SWAP2 SWAP1 POP JUMP JUMPDEST DUP3 DUP2 DUP4 CALLDATACOPY PUSH0 DUP4 DUP4 ADD MSTORE POP POP POP JUMP JUMPDEST PUSH0 PUSH2 0xE17 PUSH2 0xE12 DUP5 PUSH2 0xDC7 JUMP JUMPDEST PUSH2 0xDAD JUMP JUMPDEST SWAP1 POP DUP3 DUP2 MSTORE PUSH1 0x20 DUP2 ADD DUP5 DUP5 DUP5 ADD GT ISZERO PUSH2 0xE33 JUMPI PUSH2 0xE32 PUSH2 0xD4B JUMP JUMPDEST JUMPDEST PUSH2 0xE3E DUP5 DUP3 DUP6 PUSH2 0xDF7 JUMP JUMPDEST POP SWAP4 SWAP3 POP POP POP JUMP JUMPDEST PUSH0 DUP3 PUSH1 0x1F DUP4 ADD SLT PUSH2 0xE5A JUMPI PUSH2 0xE59 PUSH2 0xD47 JUMP JUMPDEST JUMPDEST DUP2 CALLDATALOAD PUSH2 0xE6A DUP5 DUP3 PUSH1 0x20 DUP7 ADD PUSH2 0xE05 JUMP JUMPDEST SWAP2 POP POP SWAP3 SWAP2 POP POP JUMP JUMPDEST PUSH2 0xE7C DUP2 PUSH2 0xB1D JUMP JUMPDEST DUP2 EQ PUSH2 0xE86 JUMPI PUSH0 DUP1 REVERT JUMPDEST POP JUMP JUMPDEST PUSH0 DUP2 CALLDATALOAD SWAP1 POP PUSH2 0xE97 DUP2 PUSH2 0xE73 JUMP JUMPDEST SWAP3 SWAP2 POP POP JUMP JUMPDEST PUSH0 DUP1 PUSH0 DUP1 PUSH0 DUP1 PUSH0 DUP1 PUSH2 0x100 DUP10 DUP12 SUB SLT ISZERO PUSH2 0xEBA JUMPI PUSH2 0xEB9 PUSH2 0xD3F JUMP JUMPDEST JUMPDEST PUSH0 DUP10 ADD CALLDATALOAD PUSH8 0xFFFFFFFFFFFFFFFF DUP2 GT ISZERO PUSH2 0xED7 JUMPI PUSH2 0xED6 PUSH2 0xD43 JUMP JUMPDEST JUMPDEST PUSH2 0xEE3 DUP12 DUP3 DUP13 ADD PUSH2 0xE46 JUMP JUMPDEST SWAP9 POP POP PUSH1 0x20 DUP10 ADD CALLDATALOAD PUSH8 0xFFFFFFFFFFFFFFFF DUP2 GT ISZERO PUSH2 0xF04 JUMPI PUSH2 0xF03 PUSH2 0xD43 JUMP JUMPDEST JUMPDEST PUSH2 0xF10 DUP12 DUP3 DUP13 ADD PUSH2 0xE46 JUMP JUMPDEST SWAP8 POP POP PUSH1 0x40 DUP10 ADD CALLDATALOAD PUSH8 0xFFFFFFFFFFFFFFFF DUP2 GT ISZERO PUSH2 0xF31 JUMPI PUSH2 0xF30 PUSH2 0xD43 JUMP JUMPDEST JUMPDEST PUSH2 0xF3D DUP12 DUP3 DUP13 ADD PUSH2 0xE46 JUMP JUMPDEST SWAP7 POP POP PUSH1 0x60 DUP10 ADD CALLDATALOAD PUSH8 0xFFFFFFFFFFFFFFFF DUP2 GT ISZERO PUSH2 0xF5E JUMPI PUSH2 0xF5D PUSH2 0xD43 JUMP JUMPDEST JUMPDEST PUSH2 0xF6A DUP12 DUP3 DUP13 ADD PUSH2 0xE46 JUMP JUMPDEST SWAP6 POP POP PUSH1 0x80 DUP10 ADD CALLDATALOAD PUSH8 0xFFFFFFFFFFFFFFFF DUP2 GT ISZERO PUSH2 0xF8B JUMPI PUSH2 0xF8A PUSH2 0xD43 JUMP JUMPDEST JUMPDEST PUSH2 0xF97 DUP12 DUP3 DUP13 ADD PUSH2 0xE46 JUMP JUMPDEST SWAP5 POP POP PUSH1 0xA0 DUP10 ADD CALLDATALOAD PUSH8 0xFFFFFFFFFFFFFFFF DUP2 GT ISZERO PUSH2 0xFB8 JUMPI PUSH2 0xFB7 PUSH2 0xD43 JUMP JUMPDEST JUMPDEST PUSH2 0xFC4 DUP12 DUP3 DUP13 ADD PUSH2 0xE46 JUMP JUMPDEST SWAP4 POP POP PUSH1 0xC0 PUSH2 0xFD5 DUP12 DUP3 DUP13 ADD PUSH2 0xE89 JUMP JUMPDEST SWAP3 POP POP PUSH1 0xE0 DUP10 ADD CALLDATALOAD PUSH8 0xFFFFFFFFFFFFFFFF DUP2 GT ISZERO PUSH2 0xFF6 JUMPI PUSH2 0xFF5 PUSH2 0xD43 JUMP JUMPDEST JUMPDEST PUSH2 0x1002 DUP12 DUP3 DUP13 ADD PUSH2 0xE46 JUMP JUMPDEST SWAP2 POP POP SWAP3 SWAP6 SWAP9 POP SWAP3 SWAP6 SWAP9 SWAP1 SWAP4 SWAP7 POP JUMP JUMPDEST PUSH0 DUP2 SWAP1 POP SWAP2 SWAP1 POP JUMP JUMPDEST PUSH2 0x1024 DUP2 PUSH2 0x1012 JUMP JUMPDEST DUP2 EQ PUSH2 0x102E JUMPI PUSH0 DUP1 REVERT JUMPDEST POP JUMP JUMPDEST PUSH0 DUP2 CALLDATALOAD SWAP1 POP PUSH2 0x103F DUP2 PUSH2 0x101B JUMP JUMPDEST SWAP3 SWAP2 POP POP JUMP JUMPDEST PUSH0 PUSH1 0x20 DUP3 DUP5 SUB SLT ISZERO PUSH2 0x105A JUMPI PUSH2 0x1059 PUSH2 0xD3F JUMP JUMPDEST JUMPDEST PUSH0 PUSH2 0x1067 DUP5 DUP3 DUP6 ADD PUSH2 0x1031 JUMP JUMPDEST SWAP2 POP POP SWAP3 SWAP2 POP POP JUMP JUMPDEST PUSH2 0x1079 DUP2 PUSH2 0xB1D JUMP JUMPDEST DUP3 MSTORE POP POP JUMP JUMPDEST PUSH0 DUP3 DUP3 MSTORE PUSH1 0x20 DUP3 ADD SWAP1 POP SWAP3 SWAP2 POP POP JUMP JUMPDEST PUSH0 PUSH2 0x1099 DUP3 PUSH2 0xB3D JUMP JUMPDEST PUSH2 0x10A3 DUP2 DUP6 PUSH2 0x107F JUMP JUMPDEST SWAP4 POP PUSH2 0x10B3 DUP2 DUP6 PUSH1 0x20 DUP7 ADD PUSH2 0xB57 JUMP JUMPDEST PUSH2 0x10BC DUP2 PUSH2 0xB65 JUMP JUMPDEST DUP5 ADD SWAP2 POP POP SWAP3 SWAP2 POP POP JUMP JUMPDEST PUSH0 PUSH2 0x100 DUP3 ADD SWAP1 POP PUSH2 0x10DB PUSH0 DUP4 ADD DUP12 PUSH2 0x1070 JUMP JUMPDEST DUP2 DUP2 SUB PUSH1 0x20 DUP4 ADD MSTORE PUSH2 0x10ED DUP2 DUP11 PUSH2 0x108F JUMP JUMPDEST SWAP1 POP DUP2 DUP2 SUB PUSH1 0x40 DUP4 ADD MSTORE PUSH2 0x1101 DUP2 DUP10 PUSH2 0x108F JUMP JUMPDEST SWAP1 POP DUP2 DUP2 SUB PUSH1 0x60 DUP4 ADD MSTORE PUSH2 0x1115 DUP2 DUP9 PUSH2 0x108F JUMP JUMPDEST SWAP1 POP DUP2 DUP2 SUB PUSH1 0x80 DUP4 ADD MSTORE PUSH2 0x1129 DUP2 DUP8 PUSH2 0x108F JUMP JUMPDEST SWAP1 POP DUP2 DUP2 SUB PUSH1 0xA0 DUP4 ADD MSTORE PUSH2 0x113D DUP2 DUP7 PUSH2 0x108F JUMP JUMPDEST SWAP1 POP DUP2 DUP2 SUB PUSH1 0xC0 DUP4 ADD MSTORE PUSH2 0x1151 DUP2 DUP6 PUSH2 0x108F JUMP JUMPDEST SWAP1 POP DUP2 DUP2 SUB PUSH1 0xE0 DUP4 ADD MSTORE PUSH2 0x1165 DUP2 DUP5 PUSH2 0x108F JUMP JUMPDEST SWAP1 POP SWAP10 SWAP9 POP POP POP POP POP POP POP POP POP JUMP JUMPDEST PUSH32 0x4E487B7100000000000000000000000000000000000000000000000000000000 PUSH0 MSTORE PUSH1 0x22 PUSH1 0x4 MSTORE PUSH1 0x24 PUSH0 REVERT JUMPDEST PUSH0 PUSH1 0x2 DUP3 DIV SWAP1 POP PUSH1 0x1 DUP3 AND DUP1 PUSH2 0x11B8 JUMPI PUSH1 0x7F DUP3 AND SWAP2 POP JUMPDEST PUSH1 0x20 DUP3 LT DUP2 SUB PUSH2 0x11CB JUMPI PUSH2 0x11CA PUSH2 0x1174 JUMP JUMPDEST JUMPDEST POP SWAP2 SWAP1 POP JUMP JUMPDEST PUSH0 DUP2 SWAP1 POP DUP2 PUSH0 MSTORE PUSH1 0x20 PUSH0 KECCAK256 SWAP1 POP SWAP2 SWAP1 POP JUMP JUMPDEST PUSH0 PUSH1 0x20 PUSH1 0x1F DUP4 ADD DIV SWAP1 POP SWAP2 SWAP1 POP JUMP JUMPDEST PUSH0 DUP3 DUP3 SHL SWAP1 POP SWAP3 SWAP2 POP POP JUMP JUMPDEST PUSH0 PUSH1 0x8 DUP4 MUL PUSH2 0x122D PUSH32 0xFFFFFFFFFFFFFFFFFFFFFFFFFFFFFFFFFFFFFFFFFFFFFFFFFFFFFFFFFFFFFFFF DUP3 PUSH2 0x11F2 JUMP JUMPDEST PUSH2 0x1237 DUP7 DUP4 PUSH2 0x11F2 JUMP JUMPDEST SWAP6 POP DUP1 NOT DUP5 AND SWAP4 POP DUP1 DUP7 AND DUP5 OR SWAP3 POP POP POP SWAP4 SWAP3 POP POP POP JUMP JUMPDEST PUSH0 DUP2 SWAP1 POP SWAP2 SWAP1 POP JUMP JUMPDEST PUSH0 PUSH2 0x1272 PUSH2 0x126D PUSH2 0x1268 DUP5 PUSH2 0x1012 JUMP JUMPDEST PUSH2 0x124F JUMP JUMPDEST PUSH2 0x1012 JUMP JUMPDEST SWAP1 POP SWAP2 SWAP1 POP JUMP JUMPDEST PUSH0 DUP2 SWAP1 POP SWAP2 SWAP1 POP JUMP JUMPDEST PUSH2 0x128B DUP4 PUSH2 0x1258 JUMP JUMPDEST PUSH2 0x129F PUSH2 0x1297 DUP3 PUSH2 0x1279 JUMP JUMPDEST DUP5 DUP5 SLOAD PUSH2 0x11FE JUMP JUMPDEST DUP3 SSTORE POP POP POP POP JUMP JUMPDEST PUSH0 SWAP1 JUMP JUMPDEST PUSH2 0x12B3 PUSH2 0x12A7 JUMP JUMPDEST PUSH2 0x12BE DUP2 DUP5 DUP5 PUSH2 0x1282 JUMP JUMPDEST POP POP POP JUMP JUMPDEST JUMPDEST DUP2 DUP2 LT ISZERO PUSH2 0x12E1 JUMPI PUSH2 0x12D6 PUSH0 DUP3 PUSH2 0x12AB JUMP JUMPDEST PUSH1 0x1 DUP2 ADD SWAP1 POP PUSH2 0x12C4 JUMP JUMPDEST POP POP JUMP JUMPDEST PUSH1 0x1F DUP3 GT ISZERO PUSH2 0x1326 JUMPI PUSH2 0x12F7 DUP2 PUSH2 0x11D1 JUMP JUMPDEST PUSH2 0x1300 DUP5 PUSH2 0x11E3 JUMP JUMPDEST DUP2 ADD PUSH1 0x20 DUP6 LT ISZERO PUSH2 0x130F JUMPI DUP2 SWAP1 POP JUMPDEST PUSH2 0x1323 PUSH2 0x131B DUP6 PUSH2 0x11E3 JUMP JUMPDEST DUP4 ADD DUP3 PUSH2 0x12C3 JUMP JUMPDEST POP POP JUMPDEST POP POP POP JUMP JUMPDEST PUSH0 DUP3 DUP3 SHR SWAP1 POP SWAP3 SWAP2 POP POP JUMP JUMPDEST PUSH0 PUSH2 0x1346 PUSH0 NOT DUP5 PUSH1 0x8 MUL PUSH2 0x132B JUMP JUMPDEST NOT DUP1 DUP4 AND SWAP2 POP POP SWAP3 SWAP2 POP POP JUMP JUMPDEST PUSH0 PUSH2 0x135E DUP4 DUP4 PUSH2 0x1337 JUMP JUMPDEST SWAP2 POP DUP3 PUSH1 0x2 MUL DUP3 OR SWAP1 POP SWAP3 SWAP2 POP POP JUMP JUMPDEST PUSH2 0x1377 DUP3 PUSH2 0xB3D JUMP JUMPDEST PUSH8 0xFFFFFFFFFFFFFFFF DUP2 GT ISZERO PUSH2 0x1390 JUMPI PUSH2 0x138F PUSH2 0xD4F JUMP JUMPDEST JUMPDEST PUSH2 0x139A DUP3 SLOAD PUSH2 0x11A1 JUMP JUMPDEST PUSH2 0x13A5 DUP3 DUP3 DUP6 PUSH2 0x12E5 JUMP JUMPDEST PUSH0 PUSH1 0x20 SWAP1 POP PUSH1 0x1F DUP4 GT PUSH1 0x1 DUP2 EQ PUSH2 0x13D6 JUMPI PUSH0 DUP5 ISZERO PUSH2 0x13C4 JUMPI DUP3 DUP8 ADD MLOAD SWAP1 POP JUMPDEST PUSH2 0x13CE DUP6 DUP3 PUSH2 0x1353 JUMP JUMPDEST DUP7 SSTORE POP PUSH2 0x1435 JUMP JUMPDEST PUSH1 0x1F NOT DUP5 AND PUSH2 0x13E4 DUP7 PUSH2 0x11D1 JUMP JUMPDEST PUSH0 JUMPDEST DUP3 DUP2 LT ISZERO PUSH2 0x140B JUMPI DUP5 DUP10 ADD MLOAD DUP3 SSTORE PUSH1 0x1 DUP3 ADD SWAP2 POP PUSH1 0x20 DUP6 ADD SWAP5 POP PUSH1 0x20 DUP2 ADD SWAP1 POP PUSH2 0x13E6 JUMP JUMPDEST DUP7 DUP4 LT ISZERO PUSH2 0x1428 JUMPI DUP5 DUP10 ADD MLOAD PUSH2 0x1424 PUSH1 0x1F DUP10 AND DUP3 PUSH2 0x1337 JUMP JUMPDEST DUP4 SSTORE POP JUMPDEST PUSH1 0x1 PUSH1 0x2 DUP9 MUL ADD DUP9 SSTORE POP POP POP JUMPDEST POP POP POP POP POP POP JUMP INVALID LOG2 PUSH5 0x6970667358 0x22 SLT KECCAK256 0xD5 0x26 BYTE LOG3 PUSH30 0x98622983A7829A18FA637DA589ED5E8F4855339993CDB4B86D6B5B64736F PUSH13 0x634300081A0033000000000000 "
				},
				"gasEstimates": {
					"creation": {
						"codeDepositCost": "1047000",
						"executionCost": "1085",
						"totalCost": "1048085"
					},
					"external": {
						"getPassport()": "infinite",
						"passports(uint256)": "infinite",
						"setPassport(string,string,string,string,string,string,address,string)": "infinite"
					}
				},
				"methodIdentifiers": {
					"getPassport()": "8eb20b0b",
					"passports(uint256)": "cb22f5fd",
					"setPassport(string,string,string,string,string,string,address,string)": "b75a2b7a"
				}
			},
			"storageLayout": {
				"storage": [
					{
						"astId": 22,
						"contract": "contracts/User.sol:Main",
						"label": "passports",
						"offset": 0,
						"slot": "0",
						"type": "t_array(t_struct(Passport)18_storage)dyn_storage"
					}
				],
				"types": {
					"t_address": {
						"encoding": "inplace",
						"label": "address",
						"numberOfBytes": "20"
					},
					"t_array(t_struct(Passport)18_storage)dyn_storage": {
						"base": "t_struct(Passport)18_storage",
						"encoding": "dynamic_array",
						"label": "struct Main.Passport[]",
						"numberOfBytes": "32"
					},
					"t_string_storage": {
						"encoding": "bytes",
						"label": "string",
						"numberOfBytes": "32"
					},
					"t_struct(Passport)18_storage": {
						"encoding": "inplace",
						"label": "struct Main.Passport",
						"members": [
							{
								"astId": 3,
								"contract": "contracts/User.sol:Main",
								"label": "addrs",
								"offset": 0,
								"slot": "0",
								"type": "t_address"
							},
							{
								"astId": 5,
								"contract": "contracts/User.sol:Main",
								"label": "firstName",
								"offset": 0,
								"slot": "1",
								"type": "t_string_storage"
							},
							{
								"astId": 7,
								"contract": "contracts/User.sol:Main",
								"label": "sex",
								"offset": 0,
								"slot": "2",
								"type": "t_string_storage"
							},
							{
								"astId": 9,
								"contract": "contracts/User.sol:Main",
								"label": "lastName",
								"offset": 0,
								"slot": "3",
								"type": "t_string_storage"
							},
							{
								"astId": 11,
								"contract": "contracts/User.sol:Main",
								"label": "placeOfBirth",
								"offset": 0,
								"slot": "4",
								"type": "t_string_storage"
							},
							{
								"astId": 13,
								"contract": "contracts/User.sol:Main",
								"label": "DOB",
								"offset": 0,
								"slot": "5",
								"type": "t_string_storage"
							},
							{
								"astId": 15,
								"contract": "contracts/User.sol:Main",
								"label": "passportNumber",
								"offset": 0,
								"slot": "6",
								"type": "t_string_storage"
							},
							{
								"astId": 17,
								"contract": "contracts/User.sol:Main",
								"label": "nft",
								"offset": 0,
								"slot": "7",
								"type": "t_string_storage"
							}
						],
						"numberOfBytes": "256"
					}
				}
			},
			"userdoc": {
				"kind": "user",
				"methods": {},
				"version": 1
			}
		}
	}
}