{
	"contracts/SubContract.sol": {
		"Sub": {
			"abi": [
				{
					"inputs": [],
					"name": "DOB",
					"outputs": [
						{
							"internalType": "string",
							"name": "",
							"type": "string"
						}
					],
					"stateMutability": "view",
					"type": "function"
				},
				{
					"inputs": [],
					"name": "firstName",
					"outputs": [
						{
							"internalType": "string",
							"name": "",
							"type": "string"
						}
					],
					"stateMutability": "view",
					"type": "function"
				},
				{
					"inputs": [],
					"name": "lastName",
					"outputs": [
						{
							"internalType": "string",
							"name": "",
							"type": "string"
						}
					],
					"stateMutability": "view",
					"type": "function"
				},
				{
					"inputs": [],
					"name": "nft",
					"outputs": [
						{
							"internalType": "string",
							"name": "",
							"type": "string"
						}
					],
					"stateMutability": "view",
					"type": "function"
				},
				{
					"inputs": [],
					"name": "passportNumber",
					"outputs": [
						{
							"internalType": "string",
							"name": "",
							"type": "string"
						}
					],
					"stateMutability": "view",
					"type": "function"
				},
				{
					"inputs": [],
					"name": "placeOfBirth",
					"outputs": [
						{
							"internalType": "string",
							"name": "",
							"type": "string"
						}
					],
					"stateMutability": "view",
					"type": "function"
				},
				{
					"inputs": [
						{
							"internalType": "string",
							"name": "_fName",
							"type": "string"
						},
						{
							"internalType": "string",
							"name": "_lName",
							"type": "string"
						},
						{
							"internalType": "string",
							"name": "_pob",
							"type": "string"
						},
						{
							"internalType": "string",
							"name": "_dob",
							"type": "string"
						},
						{
							"internalType": "string",
							"name": "_passNo",
							"type": "string"
						},
						{
							"internalType": "string",
							"name": "_nft",
							"type": "string"
						}
					],
					"name": "setUserDetails",
					"outputs": [],
					"stateMutability": "nonpayable",
					"type": "function"
				}
			],
			"devdoc": {
				"kind": "dev",
				"methods": {},
				"version": 1
			},
			"evm": {
				"assembly": "    /* \"contracts/SubContract.sol\":58:588  contract Sub {... */\n  mstore(0x40, 0x80)\n  callvalue\n  dup1\n  iszero\n  tag_1\n  jumpi\n  0x00\n  dup1\n  revert\ntag_1:\n  pop\n  dataSize(sub_0)\n  dup1\n  dataOffset(sub_0)\n  0x00\n  codecopy\n  0x00\n  return\nstop\n\nsub_0: assembly {\n        /* \"contracts/SubContract.sol\":58:588  contract Sub {... */\n      mstore(0x40, 0x80)\n      callvalue\n      dup1\n      iszero\n      tag_1\n      jumpi\n      0x00\n      dup1\n      revert\n    tag_1:\n      pop\n      jumpi(tag_2, lt(calldatasize, 0x04))\n      shr(0xe0, calldataload(0x00))\n      dup1\n      0x47ccca02\n      gt\n      tag_10\n      jumpi\n      dup1\n      0x47ccca02\n      eq\n      tag_6\n      jumpi\n      dup1\n      0x56f18b89\n      eq\n      tag_7\n      jumpi\n      dup1\n      0x9ab03dcb\n      eq\n      tag_8\n      jumpi\n      dup1\n      0xaeb7c415\n      eq\n      tag_9\n      jumpi\n      jump(tag_2)\n    tag_10:\n      dup1\n      0x0d5dd706\n      eq\n      tag_3\n      jumpi\n      dup1\n      0x3e277877\n      eq\n      tag_4\n      jumpi\n      dup1\n      0x4589fe0c\n      eq\n      tag_5\n      jumpi\n    tag_2:\n      0x00\n      dup1\n      revert\n        /* \"contracts/SubContract.sol\":255:585  function setUserDetails(string memory _fName, string memory _lName, string memory _pob, string memory _dob, string memory _passNo, string memory _nft) public {... */\n    tag_3:\n      tag_11\n      0x04\n      dup1\n      calldatasize\n      sub\n      dup2\n      add\n      swap1\n      tag_12\n      swap2\n      swap1\n      tag_13\n      jump\t// in\n    tag_12:\n      tag_14\n      jump\t// in\n    tag_11:\n      stop\n        /* \"contracts/SubContract.sol\":170:187  string public DOB */\n    tag_4:\n      tag_15\n      tag_16\n      jump\t// in\n    tag_15:\n      mload(0x40)\n      tag_17\n      swap2\n      swap1\n      tag_18\n      jump\t// in\n    tag_17:\n      mload(0x40)\n      dup1\n      swap2\n      sub\n      swap1\n      return\n        /* \"contracts/SubContract.sol\":78:101  string public firstName */\n    tag_5:\n      tag_19\n      tag_20\n      jump\t// in\n    tag_19:\n      mload(0x40)\n      tag_21\n      swap2\n      swap1\n      tag_18\n      jump\t// in\n    tag_21:\n      mload(0x40)\n      dup1\n      swap2\n      sub\n      swap1\n      return\n        /* \"contracts/SubContract.sol\":229:246  string public nft */\n    tag_6:\n      tag_22\n      tag_23\n      jump\t// in\n    tag_22:\n      mload(0x40)\n      tag_24\n      swap2\n      swap1\n      tag_18\n      jump\t// in\n    tag_24:\n      mload(0x40)\n      dup1\n      swap2\n      sub\n      swap1\n      return\n        /* \"contracts/SubContract.sol\":194:222  string public passportNumber */\n    tag_7:\n      tag_25\n      tag_26\n      jump\t// in\n    tag_25:\n      mload(0x40)\n      tag_27\n      swap2\n      swap1\n      tag_18\n      jump\t// in\n    tag_27:\n      mload(0x40)\n      dup1\n      swap2\n      sub\n      swap1\n      return\n        /* \"contracts/SubContract.sol\":108:130  string public lastName */\n    tag_8:\n      tag_28\n      tag_29\n      jump\t// in\n    tag_28:\n      mload(0x40)\n      tag_30\n      swap2\n      swap1\n      tag_18\n      jump\t// in\n    tag_30:\n      mload(0x40)\n      dup1\n      swap2\n      sub\n      swap1\n      return\n        /* \"contracts/SubContract.sol\":137:163  string public placeOfBirth */\n    tag_9:\n      tag_31\n      tag_32\n      jump\t// in\n    tag_31:\n      mload(0x40)\n      tag_33\n      swap2\n      swap1\n      tag_18\n      jump\t// in\n    tag_33:\n      mload(0x40)\n      dup1\n      swap2\n      sub\n      swap1\n      return\n        /* \"contracts/SubContract.sol\":255:585  function setUserDetails(string memory _fName, string memory _lName, string memory _pob, string memory _dob, string memory _passNo, string memory _nft) public {... */\n    tag_14:\n        /* \"contracts/SubContract.sol\":436:442  _fName */\n      dup6\n        /* \"contracts/SubContract.sol\":424:433  firstName */\n      0x00\n        /* \"contracts/SubContract.sol\":424:442  firstName = _fName */\n      swap1\n      dup2\n      tag_35\n      swap2\n      swap1\n      tag_36\n      jump\t// in\n    tag_35:\n      pop\n        /* \"contracts/SubContract.sol\":464:470  _lName */\n      dup5\n        /* \"contracts/SubContract.sol\":453:461  lastName */\n      0x01\n        /* \"contracts/SubContract.sol\":453:470  lastName = _lName */\n      swap1\n      dup2\n      tag_37\n      swap2\n      swap1\n      tag_36\n      jump\t// in\n    tag_37:\n      pop\n        /* \"contracts/SubContract.sol\":496:500  _pob */\n      dup4\n        /* \"contracts/SubContract.sol\":481:493  placeOfBirth */\n      0x02\n        /* \"contracts/SubContract.sol\":481:500  placeOfBirth = _pob */\n      swap1\n      dup2\n      tag_38\n      swap2\n      swap1\n      tag_36\n      jump\t// in\n    tag_38:\n      pop\n        /* \"contracts/SubContract.sol\":517:521  _dob */\n      dup3\n        /* \"contracts/SubContract.sol\":511:514  DOB */\n      0x03\n        /* \"contracts/SubContract.sol\":511:521  DOB = _dob */\n      swap1\n      dup2\n      tag_39\n      swap2\n      swap1\n      tag_36\n      jump\t// in\n    tag_39:\n      pop\n        /* \"contracts/SubContract.sol\":549:556  _passNo */\n      dup2\n        /* \"contracts/SubContract.sol\":532:546  passportNumber */\n      0x04\n        /* \"contracts/SubContract.sol\":532:556  passportNumber = _passNo */\n      swap1\n      dup2\n      tag_40\n      swap2\n      swap1\n      tag_36\n      jump\t// in\n    tag_40:\n      pop\n        /* \"contracts/SubContract.sol\":573:577  _nft */\n      dup1\n        /* \"contracts/SubContract.sol\":567:570  nft */\n      0x05\n        /* \"contracts/SubContract.sol\":567:577  nft = _nft */\n      swap1\n      dup2\n      tag_41\n      swap2\n      swap1\n      tag_36\n      jump\t// in\n    tag_41:\n      pop\n        /* \"contracts/SubContract.sol\":255:585  function setUserDetails(string memory _fName, string memory _lName, string memory _pob, string memory _dob, string memory _passNo, string memory _nft) public {... */\n      pop\n      pop\n      pop\n      pop\n      pop\n      pop\n      jump\t// out\n        /* \"contracts/SubContract.sol\":170:187  string public DOB */\n    tag_16:\n      0x03\n      dup1\n      sload\n      tag_42\n      swap1\n      tag_43\n      jump\t// in\n    tag_42:\n      dup1\n      0x1f\n      add\n      0x20\n      dup1\n      swap2\n      div\n      mul\n      0x20\n      add\n      mload(0x40)\n      swap1\n      dup2\n      add\n      0x40\n      mstore\n      dup1\n      swap3\n      swap2\n      swap1\n      dup2\n      dup2\n      mstore\n      0x20\n      add\n      dup3\n      dup1\n      sload\n      tag_44\n      swap1\n      tag_43\n      jump\t// in\n    tag_44:\n      dup1\n      iszero\n      tag_45\n      jumpi\n      dup1\n      0x1f\n      lt\n      tag_46\n      jumpi\n      0x0100\n      dup1\n      dup4\n      sload\n      div\n      mul\n      dup4\n      mstore\n      swap2\n      0x20\n      add\n      swap2\n      jump(tag_45)\n    tag_46:\n      dup3\n      add\n      swap2\n      swap1\n      0x00\n      mstore\n      keccak256(0x00, 0x20)\n      swap1\n    tag_47:\n      dup2\n      sload\n      dup2\n      mstore\n      swap1\n      0x01\n      add\n      swap1\n      0x20\n      add\n      dup1\n      dup4\n      gt\n      tag_47\n      jumpi\n      dup3\n      swap1\n      sub\n      0x1f\n      and\n      dup3\n      add\n      swap2\n    tag_45:\n      pop\n      pop\n      pop\n      pop\n      pop\n      dup2\n      jump\t// out\n        /* \"contracts/SubContract.sol\":78:101  string public firstName */\n    tag_20:\n      0x00\n      dup1\n      sload\n      tag_48\n      swap1\n      tag_43\n      jump\t// in\n    tag_48:\n      dup1\n      0x1f\n      add\n      0x20\n      dup1\n      swap2\n      div\n      mul\n      0x20\n      add\n      mload(0x40)\n      swap1\n      dup2\n      add\n      0x40\n      mstore\n      dup1\n      swap3\n      swap2\n      swap1\n      dup2\n      dup2\n      mstore\n      0x20\n      add\n      dup3\n      dup1\n      sload\n      tag_49\n      swap1\n      tag_43\n      jump\t// in\n    tag_49:\n      dup1\n      iszero\n      tag_50\n      jumpi\n      dup1\n      0x1f\n      lt\n      tag_51\n      jumpi\n      0x0100\n      dup1\n      dup4\n      sload\n      div\n      mul\n      dup4\n      mstore\n      swap2\n      0x20\n      add\n      swap2\n      jump(tag_50)\n    tag_51:\n      dup3\n      add\n      swap2\n      swap1\n      0x00\n      mstore\n      keccak256(0x00, 0x20)\n      swap1\n    tag_52:\n      dup2\n      sload\n      dup2\n      mstore\n      swap1\n      0x01\n      add\n      swap1\n      0x20\n      add\n      dup1\n      dup4\n      gt\n      tag_52\n      jumpi\n      dup3\n      swap1\n      sub\n      0x1f\n      and\n      dup3\n      add\n      swap2\n    tag_50:\n      pop\n      pop\n      pop\n      pop\n      pop\n      dup2\n      jump\t// out\n        /* \"contracts/SubContract.sol\":229:246  string public nft */\n    tag_23:\n      0x05\n      dup1\n      sload\n      tag_53\n      swap1\n      tag_43\n      jump\t// in\n    tag_53:\n      dup1\n      0x1f\n      add\n      0x20\n      dup1\n      swap2\n      div\n      mul\n      0x20\n      add\n      mload(0x40)\n      swap1\n      dup2\n      add\n      0x40\n      mstore\n      dup1\n      swap3\n      swap2\n      swap1\n      dup2\n      dup2\n      mstore\n      0x20\n      add\n      dup3\n      dup1\n      sload\n      tag_54\n      swap1\n      tag_43\n      jump\t// in\n    tag_54:\n      dup1\n      iszero\n      tag_55\n      jumpi\n      dup1\n      0x1f\n      lt\n      tag_56\n      jumpi\n      0x0100\n      dup1\n      dup4\n      sload\n      div\n      mul\n      dup4\n      mstore\n      swap2\n      0x20\n      add\n      swap2\n      jump(tag_55)\n    tag_56:\n      dup3\n      add\n      swap2\n      swap1\n      0x00\n      mstore\n      keccak256(0x00, 0x20)\n      swap1\n    tag_57:\n      dup2\n      sload\n      dup2\n      mstore\n      swap1\n      0x01\n      add\n      swap1\n      0x20\n      add\n      dup1\n      dup4\n      gt\n      tag_57\n      jumpi\n      dup3\n      swap1\n      sub\n      0x1f\n      and\n      dup3\n      add\n      swap2\n    tag_55:\n      pop\n      pop\n      pop\n      pop\n      pop\n      dup2\n      jump\t// out\n        /* \"contracts/SubContract.sol\":194:222  string public passportNumber */\n    tag_26:\n      0x04\n      dup1\n      sload\n      tag_58\n      swap1\n      tag_43\n      jump\t// in\n    tag_58:\n      dup1\n      0x1f\n      add\n      0x20\n      dup1\n      swap2\n      div\n      mul\n      0x20\n      add\n      mload(0x40)\n      swap1\n      dup2\n      add\n      0x40\n      mstore\n      dup1\n      swap3\n      swap2\n      swap1\n      dup2\n      dup2\n      mstore\n      0x20\n      add\n      dup3\n      dup1\n      sload\n      tag_59\n      swap1\n      tag_43\n      jump\t// in\n    tag_59:\n      dup1\n      iszero\n      tag_60\n      jumpi\n      dup1\n      0x1f\n      lt\n      tag_61\n      jumpi\n      0x0100\n      dup1\n      dup4\n      sload\n      div\n      mul\n      dup4\n      mstore\n      swap2\n      0x20\n      add\n      swap2\n      jump(tag_60)\n    tag_61:\n      dup3\n      add\n      swap2\n      swap1\n      0x00\n      mstore\n      keccak256(0x00, 0x20)\n      swap1\n    tag_62:\n      dup2\n      sload\n      dup2\n      mstore\n      swap1\n      0x01\n      add\n      swap1\n      0x20\n      add\n      dup1\n      dup4\n      gt\n      tag_62\n      jumpi\n      dup3\n      swap1\n      sub\n      0x1f\n      and\n      dup3\n      add\n      swap2\n    tag_60:\n      pop\n      pop\n      pop\n      pop\n      pop\n      dup2\n      jump\t// out\n        /* \"contracts/SubContract.sol\":108:130  string public lastName */\n    tag_29:\n      0x01\n      dup1\n      sload\n      tag_63\n      swap1\n      tag_43\n      jump\t// in\n    tag_63:\n      dup1\n      0x1f\n      add\n      0x20\n      dup1\n      swap2\n      div\n      mul\n      0x20\n      add\n      mload(0x40)\n      swap1\n      dup2\n      add\n      0x40\n      mstore\n      dup1\n      swap3\n      swap2\n      swap1\n      dup2\n      dup2\n      mstore\n      0x20\n      add\n      dup3\n      dup1\n      sload\n      tag_64\n      swap1\n      tag_43\n      jump\t// in\n    tag_64:\n      dup1\n      iszero\n      tag_65\n      jumpi\n      dup1\n      0x1f\n      lt\n      tag_66\n      jumpi\n      0x0100\n      dup1\n      dup4\n      sload\n      div\n      mul\n      dup4\n      mstore\n      swap2\n      0x20\n      add\n      swap2\n      jump(tag_65)\n    tag_66:\n      dup3\n      add\n      swap2\n      swap1\n      0x00\n      mstore\n      keccak256(0x00, 0x20)\n      swap1\n    tag_67:\n      dup2\n      sload\n      dup2\n      mstore\n      swap1\n      0x01\n      add\n      swap1\n      0x20\n      add\n      dup1\n      dup4\n      gt\n      tag_67\n      jumpi\n      dup3\n      swap1\n      sub\n      0x1f\n      and\n      dup3\n      add\n      swap2\n    tag_65:\n      pop\n      pop\n      pop\n      pop\n      pop\n      dup2\n      jump\t// out\n        /* \"contracts/SubContract.sol\":137:163  string public placeOfBirth */\n    tag_32:\n      0x02\n      dup1\n      sload\n      tag_68\n      swap1\n      tag_43\n      jump\t// in\n    tag_68:\n      dup1\n      0x1f\n      add\n      0x20\n      dup1\n      swap2\n      div\n      mul\n      0x20\n      add\n      mload(0x40)\n      swap1\n      dup2\n      add\n      0x40\n      mstore\n      dup1\n      swap3\n      swap2\n      swap1\n      dup2\n      dup2\n      mstore\n      0x20\n      add\n      dup3\n      dup1\n      sload\n      tag_69\n      swap1\n      tag_43\n      jump\t// in\n    tag_69:\n      dup1\n      iszero\n      tag_70\n      jumpi\n      dup1\n      0x1f\n      lt\n      tag_71\n      jumpi\n      0x0100\n      dup1\n      dup4\n      sload\n      div\n      mul\n      dup4\n      mstore\n      swap2\n      0x20\n      add\n      swap2\n      jump(tag_70)\n    tag_71:\n      dup3\n      add\n      swap2\n      swap1\n      0x00\n      mstore\n      keccak256(0x00, 0x20)\n      swap1\n    tag_72:\n      dup2\n      sload\n      dup2\n      mstore\n      swap1\n      0x01\n      add\n      swap1\n      0x20\n      add\n      dup1\n      dup4\n      gt\n      tag_72\n      jumpi\n      dup3\n      swap1\n      sub\n      0x1f\n      and\n      dup3\n      add\n      swap2\n    tag_70:\n      pop\n      pop\n      pop\n      pop\n      pop\n      dup2\n      jump\t// out\n        /* \"#utility.yul\":7:82   */\n    tag_73:\n        /* \"#utility.yul\":40:46   */\n      0x00\n        /* \"#utility.yul\":73:75   */\n      0x40\n        /* \"#utility.yul\":67:76   */\n      mload\n        /* \"#utility.yul\":57:76   */\n      swap1\n      pop\n        /* \"#utility.yul\":7:82   */\n      swap1\n      jump\t// out\n        /* \"#utility.yul\":88:205   */\n    tag_74:\n        /* \"#utility.yul\":197:198   */\n      0x00\n        /* \"#utility.yul\":194:195   */\n      dup1\n        /* \"#utility.yul\":187:199   */\n      revert\n        /* \"#utility.yul\":211:328   */\n    tag_75:\n        /* \"#utility.yul\":320:321   */\n      0x00\n        /* \"#utility.yul\":317:318   */\n      dup1\n        /* \"#utility.yul\":310:322   */\n      revert\n        /* \"#utility.yul\":334:451   */\n    tag_76:\n        /* \"#utility.yul\":443:444   */\n      0x00\n        /* \"#utility.yul\":440:441   */\n      dup1\n        /* \"#utility.yul\":433:445   */\n      revert\n        /* \"#utility.yul\":457:574   */\n    tag_77:\n        /* \"#utility.yul\":566:567   */\n      0x00\n        /* \"#utility.yul\":563:564   */\n      dup1\n        /* \"#utility.yul\":556:568   */\n      revert\n        /* \"#utility.yul\":580:682   */\n    tag_78:\n        /* \"#utility.yul\":621:627   */\n      0x00\n        /* \"#utility.yul\":672:674   */\n      0x1f\n        /* \"#utility.yul\":668:675   */\n      not\n        /* \"#utility.yul\":663:665   */\n      0x1f\n        /* \"#utility.yul\":656:661   */\n      dup4\n        /* \"#utility.yul\":652:666   */\n      add\n        /* \"#utility.yul\":648:676   */\n      and\n        /* \"#utility.yul\":638:676   */\n      swap1\n      pop\n        /* \"#utility.yul\":580:682   */\n      swap2\n      swap1\n      pop\n      jump\t// out\n        /* \"#utility.yul\":688:868   */\n    tag_79:\n        /* \"#utility.yul\":736:813   */\n      0x4e487b7100000000000000000000000000000000000000000000000000000000\n        /* \"#utility.yul\":733:734   */\n      0x00\n        /* \"#utility.yul\":726:814   */\n      mstore\n        /* \"#utility.yul\":833:837   */\n      0x41\n        /* \"#utility.yul\":830:831   */\n      0x04\n        /* \"#utility.yul\":823:838   */\n      mstore\n        /* \"#utility.yul\":857:861   */\n      0x24\n        /* \"#utility.yul\":854:855   */\n      0x00\n        /* \"#utility.yul\":847:862   */\n      revert\n        /* \"#utility.yul\":874:1155   */\n    tag_80:\n        /* \"#utility.yul\":957:984   */\n      tag_116\n        /* \"#utility.yul\":979:983   */\n      dup3\n        /* \"#utility.yul\":957:984   */\n      tag_78\n      jump\t// in\n    tag_116:\n        /* \"#utility.yul\":949:955   */\n      dup2\n        /* \"#utility.yul\":945:985   */\n      add\n        /* \"#utility.yul\":1087:1093   */\n      dup2\n        /* \"#utility.yul\":1075:1085   */\n      dup2\n        /* \"#utility.yul\":1072:1094   */\n      lt\n        /* \"#utility.yul\":1051:1069   */\n      0xffffffffffffffff\n        /* \"#utility.yul\":1039:1049   */\n      dup3\n        /* \"#utility.yul\":1036:1070   */\n      gt\n        /* \"#utility.yul\":1033:1095   */\n      or\n        /* \"#utility.yul\":1030:1118   */\n      iszero\n      tag_117\n      jumpi\n        /* \"#utility.yul\":1098:1116   */\n      tag_118\n      tag_79\n      jump\t// in\n    tag_118:\n        /* \"#utility.yul\":1030:1118   */\n    tag_117:\n        /* \"#utility.yul\":1138:1148   */\n      dup1\n        /* \"#utility.yul\":1134:1136   */\n      0x40\n        /* \"#utility.yul\":1127:1149   */\n      mstore\n        /* \"#utility.yul\":917:1155   */\n      pop\n        /* \"#utility.yul\":874:1155   */\n      pop\n      pop\n      jump\t// out\n        /* \"#utility.yul\":1161:1290   */\n    tag_81:\n        /* \"#utility.yul\":1195:1201   */\n      0x00\n        /* \"#utility.yul\":1222:1242   */\n      tag_120\n      tag_73\n      jump\t// in\n    tag_120:\n        /* \"#utility.yul\":1212:1242   */\n      swap1\n      pop\n        /* \"#utility.yul\":1251:1284   */\n      tag_121\n        /* \"#utility.yul\":1279:1283   */\n      dup3\n        /* \"#utility.yul\":1271:1277   */\n      dup3\n        /* \"#utility.yul\":1251:1284   */\n      tag_80\n      jump\t// in\n    tag_121:\n        /* \"#utility.yul\":1161:1290   */\n      swap2\n      swap1\n      pop\n      jump\t// out\n        /* \"#utility.yul\":1296:1604   */\n    tag_82:\n        /* \"#utility.yul\":1358:1362   */\n      0x00\n        /* \"#utility.yul\":1448:1466   */\n      0xffffffffffffffff\n        /* \"#utility.yul\":1440:1446   */\n      dup3\n        /* \"#utility.yul\":1437:1467   */\n      gt\n        /* \"#utility.yul\":1434:1490   */\n      iszero\n      tag_123\n      jumpi\n        /* \"#utility.yul\":1470:1488   */\n      tag_124\n      tag_79\n      jump\t// in\n    tag_124:\n        /* \"#utility.yul\":1434:1490   */\n    tag_123:\n        /* \"#utility.yul\":1508:1537   */\n      tag_125\n        /* \"#utility.yul\":1530:1536   */\n      dup3\n        /* \"#utility.yul\":1508:1537   */\n      tag_78\n      jump\t// in\n    tag_125:\n        /* \"#utility.yul\":1500:1537   */\n      swap1\n      pop\n        /* \"#utility.yul\":1592:1596   */\n      0x20\n        /* \"#utility.yul\":1586:1590   */\n      dup2\n        /* \"#utility.yul\":1582:1597   */\n      add\n        /* \"#utility.yul\":1574:1597   */\n      swap1\n      pop\n        /* \"#utility.yul\":1296:1604   */\n      swap2\n      swap1\n      pop\n      jump\t// out\n        /* \"#utility.yul\":1610:1758   */\n    tag_83:\n        /* \"#utility.yul\":1708:1714   */\n      dup3\n        /* \"#utility.yul\":1703:1706   */\n      dup2\n        /* \"#utility.yul\":1698:1701   */\n      dup4\n        /* \"#utility.yul\":1685:1715   */\n      calldatacopy\n        /* \"#utility.yul\":1749:1750   */\n      0x00\n        /* \"#utility.yul\":1740:1746   */\n      dup4\n        /* \"#utility.yul\":1735:1738   */\n      dup4\n        /* \"#utility.yul\":1731:1747   */\n      add\n        /* \"#utility.yul\":1724:1751   */\n      mstore\n        /* \"#utility.yul\":1610:1758   */\n      pop\n      pop\n      pop\n      jump\t// out\n        /* \"#utility.yul\":1764:2189   */\n    tag_84:\n        /* \"#utility.yul\":1842:1847   */\n      0x00\n        /* \"#utility.yul\":1867:1933   */\n      tag_128\n        /* \"#utility.yul\":1883:1932   */\n      tag_129\n        /* \"#utility.yul\":1925:1931   */\n      dup5\n        /* \"#utility.yul\":1883:1932   */\n      tag_82\n      jump\t// in\n    tag_129:\n        /* \"#utility.yul\":1867:1933   */\n      tag_81\n      jump\t// in\n    tag_128:\n        /* \"#utility.yul\":1858:1933   */\n      swap1\n      pop\n        /* \"#utility.yul\":1956:1962   */\n      dup3\n        /* \"#utility.yul\":1949:1954   */\n      dup2\n        /* \"#utility.yul\":1942:1963   */\n      mstore\n        /* \"#utility.yul\":1994:1998   */\n      0x20\n        /* \"#utility.yul\":1987:1992   */\n      dup2\n        /* \"#utility.yul\":1983:1999   */\n      add\n        /* \"#utility.yul\":2032:2035   */\n      dup5\n        /* \"#utility.yul\":2023:2029   */\n      dup5\n        /* \"#utility.yul\":2018:2021   */\n      dup5\n        /* \"#utility.yul\":2014:2030   */\n      add\n        /* \"#utility.yul\":2011:2036   */\n      gt\n        /* \"#utility.yul\":2008:2120   */\n      iszero\n      tag_130\n      jumpi\n        /* \"#utility.yul\":2039:2118   */\n      tag_131\n      tag_77\n      jump\t// in\n    tag_131:\n        /* \"#utility.yul\":2008:2120   */\n    tag_130:\n        /* \"#utility.yul\":2129:2183   */\n      tag_132\n        /* \"#utility.yul\":2176:2182   */\n      dup5\n        /* \"#utility.yul\":2171:2174   */\n      dup3\n        /* \"#utility.yul\":2166:2169   */\n      dup6\n        /* \"#utility.yul\":2129:2183   */\n      tag_83\n      jump\t// in\n    tag_132:\n        /* \"#utility.yul\":1848:2189   */\n      pop\n        /* \"#utility.yul\":1764:2189   */\n      swap4\n      swap3\n      pop\n      pop\n      pop\n      jump\t// out\n        /* \"#utility.yul\":2209:2549   */\n    tag_85:\n        /* \"#utility.yul\":2265:2270   */\n      0x00\n        /* \"#utility.yul\":2314:2317   */\n      dup3\n        /* \"#utility.yul\":2307:2311   */\n      0x1f\n        /* \"#utility.yul\":2299:2305   */\n      dup4\n        /* \"#utility.yul\":2295:2312   */\n      add\n        /* \"#utility.yul\":2291:2318   */\n      slt\n        /* \"#utility.yul\":2281:2403   */\n      tag_134\n      jumpi\n        /* \"#utility.yul\":2322:2401   */\n      tag_135\n      tag_76\n      jump\t// in\n    tag_135:\n        /* \"#utility.yul\":2281:2403   */\n    tag_134:\n        /* \"#utility.yul\":2439:2445   */\n      dup2\n        /* \"#utility.yul\":2426:2446   */\n      calldataload\n        /* \"#utility.yul\":2464:2543   */\n      tag_136\n        /* \"#utility.yul\":2539:2542   */\n      dup5\n        /* \"#utility.yul\":2531:2537   */\n      dup3\n        /* \"#utility.yul\":2524:2528   */\n      0x20\n        /* \"#utility.yul\":2516:2522   */\n      dup7\n        /* \"#utility.yul\":2512:2529   */\n      add\n        /* \"#utility.yul\":2464:2543   */\n      tag_84\n      jump\t// in\n    tag_136:\n        /* \"#utility.yul\":2455:2543   */\n      swap2\n      pop\n        /* \"#utility.yul\":2271:2549   */\n      pop\n        /* \"#utility.yul\":2209:2549   */\n      swap3\n      swap2\n      pop\n      pop\n      jump\t// out\n        /* \"#utility.yul\":2555:4692   */\n    tag_13:\n        /* \"#utility.yul\":2719:2725   */\n      0x00\n        /* \"#utility.yul\":2727:2733   */\n      dup1\n        /* \"#utility.yul\":2735:2741   */\n      0x00\n        /* \"#utility.yul\":2743:2749   */\n      dup1\n        /* \"#utility.yul\":2751:2757   */\n      0x00\n        /* \"#utility.yul\":2759:2765   */\n      dup1\n        /* \"#utility.yul\":2808:2811   */\n      0xc0\n        /* \"#utility.yul\":2796:2805   */\n      dup8\n        /* \"#utility.yul\":2787:2794   */\n      dup10\n        /* \"#utility.yul\":2783:2806   */\n      sub\n        /* \"#utility.yul\":2779:2812   */\n      slt\n        /* \"#utility.yul\":2776:2896   */\n      iszero\n      tag_138\n      jumpi\n        /* \"#utility.yul\":2815:2894   */\n      tag_139\n      tag_74\n      jump\t// in\n    tag_139:\n        /* \"#utility.yul\":2776:2896   */\n    tag_138:\n        /* \"#utility.yul\":2963:2964   */\n      0x00\n        /* \"#utility.yul\":2952:2961   */\n      dup8\n        /* \"#utility.yul\":2948:2965   */\n      add\n        /* \"#utility.yul\":2935:2966   */\n      calldataload\n        /* \"#utility.yul\":2993:3011   */\n      0xffffffffffffffff\n        /* \"#utility.yul\":2985:2991   */\n      dup2\n        /* \"#utility.yul\":2982:3012   */\n      gt\n        /* \"#utility.yul\":2979:3096   */\n      iszero\n      tag_140\n      jumpi\n        /* \"#utility.yul\":3015:3094   */\n      tag_141\n      tag_75\n      jump\t// in\n    tag_141:\n        /* \"#utility.yul\":2979:3096   */\n    tag_140:\n        /* \"#utility.yul\":3120:3183   */\n      tag_142\n        /* \"#utility.yul\":3175:3182   */\n      dup10\n        /* \"#utility.yul\":3166:3172   */\n      dup3\n        /* \"#utility.yul\":3155:3164   */\n      dup11\n        /* \"#utility.yul\":3151:3173   */\n      add\n        /* \"#utility.yul\":3120:3183   */\n      tag_85\n      jump\t// in\n    tag_142:\n        /* \"#utility.yul\":3110:3183   */\n      swap7\n      pop\n        /* \"#utility.yul\":2906:3193   */\n      pop\n        /* \"#utility.yul\":3260:3262   */\n      0x20\n        /* \"#utility.yul\":3249:3258   */\n      dup8\n        /* \"#utility.yul\":3245:3263   */\n      add\n        /* \"#utility.yul\":3232:3264   */\n      calldataload\n        /* \"#utility.yul\":3291:3309   */\n      0xffffffffffffffff\n        /* \"#utility.yul\":3283:3289   */\n      dup2\n        /* \"#utility.yul\":3280:3310   */\n      gt\n        /* \"#utility.yul\":3277:3394   */\n      iszero\n      tag_143\n      jumpi\n        /* \"#utility.yul\":3313:3392   */\n      tag_144\n      tag_75\n      jump\t// in\n    tag_144:\n        /* \"#utility.yul\":3277:3394   */\n    tag_143:\n        /* \"#utility.yul\":3418:3481   */\n      tag_145\n        /* \"#utility.yul\":3473:3480   */\n      dup10\n        /* \"#utility.yul\":3464:3470   */\n      dup3\n        /* \"#utility.yul\":3453:3462   */\n      dup11\n        /* \"#utility.yul\":3449:3471   */\n      add\n        /* \"#utility.yul\":3418:3481   */\n      tag_85\n      jump\t// in\n    tag_145:\n        /* \"#utility.yul\":3408:3481   */\n      swap6\n      pop\n        /* \"#utility.yul\":3203:3491   */\n      pop\n        /* \"#utility.yul\":3558:3560   */\n      0x40\n        /* \"#utility.yul\":3547:3556   */\n      dup8\n        /* \"#utility.yul\":3543:3561   */\n      add\n        /* \"#utility.yul\":3530:3562   */\n      calldataload\n        /* \"#utility.yul\":3589:3607   */\n      0xffffffffffffffff\n        /* \"#utility.yul\":3581:3587   */\n      dup2\n        /* \"#utility.yul\":3578:3608   */\n      gt\n        /* \"#utility.yul\":3575:3692   */\n      iszero\n      tag_146\n      jumpi\n        /* \"#utility.yul\":3611:3690   */\n      tag_147\n      tag_75\n      jump\t// in\n    tag_147:\n        /* \"#utility.yul\":3575:3692   */\n    tag_146:\n        /* \"#utility.yul\":3716:3779   */\n      tag_148\n        /* \"#utility.yul\":3771:3778   */\n      dup10\n        /* \"#utility.yul\":3762:3768   */\n      dup3\n        /* \"#utility.yul\":3751:3760   */\n      dup11\n        /* \"#utility.yul\":3747:3769   */\n      add\n        /* \"#utility.yul\":3716:3779   */\n      tag_85\n      jump\t// in\n    tag_148:\n        /* \"#utility.yul\":3706:3779   */\n      swap5\n      pop\n        /* \"#utility.yul\":3501:3789   */\n      pop\n        /* \"#utility.yul\":3856:3858   */\n      0x60\n        /* \"#utility.yul\":3845:3854   */\n      dup8\n        /* \"#utility.yul\":3841:3859   */\n      add\n        /* \"#utility.yul\":3828:3860   */\n      calldataload\n        /* \"#utility.yul\":3887:3905   */\n      0xffffffffffffffff\n        /* \"#utility.yul\":3879:3885   */\n      dup2\n        /* \"#utility.yul\":3876:3906   */\n      gt\n        /* \"#utility.yul\":3873:3990   */\n      iszero\n      tag_149\n      jumpi\n        /* \"#utility.yul\":3909:3988   */\n      tag_150\n      tag_75\n      jump\t// in\n    tag_150:\n        /* \"#utility.yul\":3873:3990   */\n    tag_149:\n        /* \"#utility.yul\":4014:4077   */\n      tag_151\n        /* \"#utility.yul\":4069:4076   */\n      dup10\n        /* \"#utility.yul\":4060:4066   */\n      dup3\n        /* \"#utility.yul\":4049:4058   */\n      dup11\n        /* \"#utility.yul\":4045:4067   */\n      add\n        /* \"#utility.yul\":4014:4077   */\n      tag_85\n      jump\t// in\n    tag_151:\n        /* \"#utility.yul\":4004:4077   */\n      swap4\n      pop\n        /* \"#utility.yul\":3799:4087   */\n      pop\n        /* \"#utility.yul\":4154:4157   */\n      0x80\n        /* \"#utility.yul\":4143:4152   */\n      dup8\n        /* \"#utility.yul\":4139:4158   */\n      add\n        /* \"#utility.yul\":4126:4159   */\n      calldataload\n        /* \"#utility.yul\":4186:4204   */\n      0xffffffffffffffff\n        /* \"#utility.yul\":4178:4184   */\n      dup2\n        /* \"#utility.yul\":4175:4205   */\n      gt\n        /* \"#utility.yul\":4172:4289   */\n      iszero\n      tag_152\n      jumpi\n        /* \"#utility.yul\":4208:4287   */\n      tag_153\n      tag_75\n      jump\t// in\n    tag_153:\n        /* \"#utility.yul\":4172:4289   */\n    tag_152:\n        /* \"#utility.yul\":4313:4376   */\n      tag_154\n        /* \"#utility.yul\":4368:4375   */\n      dup10\n        /* \"#utility.yul\":4359:4365   */\n      dup3\n        /* \"#utility.yul\":4348:4357   */\n      dup11\n        /* \"#utility.yul\":4344:4366   */\n      add\n        /* \"#utility.yul\":4313:4376   */\n      tag_85\n      jump\t// in\n    tag_154:\n        /* \"#utility.yul\":4303:4376   */\n      swap3\n      pop\n        /* \"#utility.yul\":4097:4386   */\n      pop\n        /* \"#utility.yul\":4453:4456   */\n      0xa0\n        /* \"#utility.yul\":4442:4451   */\n      dup8\n        /* \"#utility.yul\":4438:4457   */\n      add\n        /* \"#utility.yul\":4425:4458   */\n      calldataload\n        /* \"#utility.yul\":4485:4503   */\n      0xffffffffffffffff\n        /* \"#utility.yul\":4477:4483   */\n      dup2\n        /* \"#utility.yul\":4474:4504   */\n      gt\n        /* \"#utility.yul\":4471:4588   */\n      iszero\n      tag_155\n      jumpi\n        /* \"#utility.yul\":4507:4586   */\n      tag_156\n      tag_75\n      jump\t// in\n    tag_156:\n        /* \"#utility.yul\":4471:4588   */\n    tag_155:\n        /* \"#utility.yul\":4612:4675   */\n      tag_157\n        /* \"#utility.yul\":4667:4674   */\n      dup10\n        /* \"#utility.yul\":4658:4664   */\n      dup3\n        /* \"#utility.yul\":4647:4656   */\n      dup11\n        /* \"#utility.yul\":4643:4665   */\n      add\n        /* \"#utility.yul\":4612:4675   */\n      tag_85\n      jump\t// in\n    tag_157:\n        /* \"#utility.yul\":4602:4675   */\n      swap2\n      pop\n        /* \"#utility.yul\":4396:4685   */\n      pop\n        /* \"#utility.yul\":2555:4692   */\n      swap3\n      swap6\n      pop\n      swap3\n      swap6\n      pop\n      swap3\n      swap6\n      jump\t// out\n        /* \"#utility.yul\":4698:4797   */\n    tag_86:\n        /* \"#utility.yul\":4750:4756   */\n      0x00\n        /* \"#utility.yul\":4784:4789   */\n      dup2\n        /* \"#utility.yul\":4778:4790   */\n      mload\n        /* \"#utility.yul\":4768:4790   */\n      swap1\n      pop\n        /* \"#utility.yul\":4698:4797   */\n      swap2\n      swap1\n      pop\n      jump\t// out\n        /* \"#utility.yul\":4803:4972   */\n    tag_87:\n        /* \"#utility.yul\":4887:4898   */\n      0x00\n        /* \"#utility.yul\":4921:4927   */\n      dup3\n        /* \"#utility.yul\":4916:4919   */\n      dup3\n        /* \"#utility.yul\":4909:4928   */\n      mstore\n        /* \"#utility.yul\":4961:4965   */\n      0x20\n        /* \"#utility.yul\":4956:4959   */\n      dup3\n        /* \"#utility.yul\":4952:4966   */\n      add\n        /* \"#utility.yul\":4937:4966   */\n      swap1\n      pop\n        /* \"#utility.yul\":4803:4972   */\n      swap3\n      swap2\n      pop\n      pop\n      jump\t// out\n        /* \"#utility.yul\":4978:5117   */\n    tag_88:\n        /* \"#utility.yul\":5067:5073   */\n      dup3\n        /* \"#utility.yul\":5062:5065   */\n      dup2\n        /* \"#utility.yul\":5057:5060   */\n      dup4\n        /* \"#utility.yul\":5051:5074   */\n      mcopy\n        /* \"#utility.yul\":5108:5109   */\n      0x00\n        /* \"#utility.yul\":5099:5105   */\n      dup4\n        /* \"#utility.yul\":5094:5097   */\n      dup4\n        /* \"#utility.yul\":5090:5106   */\n      add\n        /* \"#utility.yul\":5083:5110   */\n      mstore\n        /* \"#utility.yul\":4978:5117   */\n      pop\n      pop\n      pop\n      jump\t// out\n        /* \"#utility.yul\":5123:5500   */\n    tag_89:\n        /* \"#utility.yul\":5211:5214   */\n      0x00\n        /* \"#utility.yul\":5239:5278   */\n      tag_162\n        /* \"#utility.yul\":5272:5277   */\n      dup3\n        /* \"#utility.yul\":5239:5278   */\n      tag_86\n      jump\t// in\n    tag_162:\n        /* \"#utility.yul\":5294:5365   */\n      tag_163\n        /* \"#utility.yul\":5358:5364   */\n      dup2\n        /* \"#utility.yul\":5353:5356   */\n      dup6\n        /* \"#utility.yul\":5294:5365   */\n      tag_87\n      jump\t// in\n    tag_163:\n        /* \"#utility.yul\":5287:5365   */\n      swap4\n      pop\n        /* \"#utility.yul\":5374:5439   */\n      tag_164\n        /* \"#utility.yul\":5432:5438   */\n      dup2\n        /* \"#utility.yul\":5427:5430   */\n      dup6\n        /* \"#utility.yul\":5420:5424   */\n      0x20\n        /* \"#utility.yul\":5413:5418   */\n      dup7\n        /* \"#utility.yul\":5409:5425   */\n      add\n        /* \"#utility.yul\":5374:5439   */\n      tag_88\n      jump\t// in\n    tag_164:\n        /* \"#utility.yul\":5464:5493   */\n      tag_165\n        /* \"#utility.yul\":5486:5492   */\n      dup2\n        /* \"#utility.yul\":5464:5493   */\n      tag_78\n      jump\t// in\n    tag_165:\n        /* \"#utility.yul\":5459:5462   */\n      dup5\n        /* \"#utility.yul\":5455:5494   */\n      add\n        /* \"#utility.yul\":5448:5494   */\n      swap2\n      pop\n        /* \"#utility.yul\":5215:5500   */\n      pop\n        /* \"#utility.yul\":5123:5500   */\n      swap3\n      swap2\n      pop\n      pop\n      jump\t// out\n        /* \"#utility.yul\":5506:5819   */\n    tag_18:\n        /* \"#utility.yul\":5619:5623   */\n      0x00\n        /* \"#utility.yul\":5657:5659   */\n      0x20\n        /* \"#utility.yul\":5646:5655   */\n      dup3\n        /* \"#utility.yul\":5642:5660   */\n      add\n        /* \"#utility.yul\":5634:5660   */\n      swap1\n      pop\n        /* \"#utility.yul\":5706:5715   */\n      dup2\n        /* \"#utility.yul\":5700:5704   */\n      dup2\n        /* \"#utility.yul\":5696:5716   */\n      sub\n        /* \"#utility.yul\":5692:5693   */\n      0x00\n        /* \"#utility.yul\":5681:5690   */\n      dup4\n        /* \"#utility.yul\":5677:5694   */\n      add\n        /* \"#utility.yul\":5670:5717   */\n      mstore\n        /* \"#utility.yul\":5734:5812   */\n      tag_167\n        /* \"#utility.yul\":5807:5811   */\n      dup2\n        /* \"#utility.yul\":5798:5804   */\n      dup5\n        /* \"#utility.yul\":5734:5812   */\n      tag_89\n      jump\t// in\n    tag_167:\n        /* \"#utility.yul\":5726:5812   */\n      swap1\n      pop\n        /* \"#utility.yul\":5506:5819   */\n      swap3\n      swap2\n      pop\n      pop\n      jump\t// out\n        /* \"#utility.yul\":5825:6005   */\n    tag_90:\n        /* \"#utility.yul\":5873:5950   */\n      0x4e487b7100000000000000000000000000000000000000000000000000000000\n        /* \"#utility.yul\":5870:5871   */\n      0x00\n        /* \"#utility.yul\":5863:5951   */\n      mstore\n        /* \"#utility.yul\":5970:5974   */\n      0x22\n        /* \"#utility.yul\":5967:5968   */\n      0x04\n        /* \"#utility.yul\":5960:5975   */\n      mstore\n        /* \"#utility.yul\":5994:5998   */\n      0x24\n        /* \"#utility.yul\":5991:5992   */\n      0x00\n        /* \"#utility.yul\":5984:5999   */\n      revert\n        /* \"#utility.yul\":6011:6331   */\n    tag_43:\n        /* \"#utility.yul\":6055:6061   */\n      0x00\n        /* \"#utility.yul\":6092:6093   */\n      0x02\n        /* \"#utility.yul\":6086:6090   */\n      dup3\n        /* \"#utility.yul\":6082:6094   */\n      div\n        /* \"#utility.yul\":6072:6094   */\n      swap1\n      pop\n        /* \"#utility.yul\":6139:6140   */\n      0x01\n        /* \"#utility.yul\":6133:6137   */\n      dup3\n        /* \"#utility.yul\":6129:6141   */\n      and\n        /* \"#utility.yul\":6160:6178   */\n      dup1\n        /* \"#utility.yul\":6150:6231   */\n      tag_170\n      jumpi\n        /* \"#utility.yul\":6216:6220   */\n      0x7f\n        /* \"#utility.yul\":6208:6214   */\n      dup3\n        /* \"#utility.yul\":6204:6221   */\n      and\n        /* \"#utility.yul\":6194:6221   */\n      swap2\n      pop\n        /* \"#utility.yul\":6150:6231   */\n    tag_170:\n        /* \"#utility.yul\":6278:6280   */\n      0x20\n        /* \"#utility.yul\":6270:6276   */\n      dup3\n        /* \"#utility.yul\":6267:6281   */\n      lt\n        /* \"#utility.yul\":6247:6265   */\n      dup2\n        /* \"#utility.yul\":6244:6282   */\n      sub\n        /* \"#utility.yul\":6241:6325   */\n      tag_171\n      jumpi\n        /* \"#utility.yul\":6297:6315   */\n      tag_172\n      tag_90\n      jump\t// in\n    tag_172:\n        /* \"#utility.yul\":6241:6325   */\n    tag_171:\n        /* \"#utility.yul\":6062:6331   */\n      pop\n        /* \"#utility.yul\":6011:6331   */\n      swap2\n      swap1\n      pop\n      jump\t// out\n        /* \"#utility.yul\":6337:6478   */\n    tag_91:\n        /* \"#utility.yul\":6386:6390   */\n      0x00\n        /* \"#utility.yul\":6409:6412   */\n      dup2\n        /* \"#utility.yul\":6401:6412   */\n      swap1\n      pop\n        /* \"#utility.yul\":6432:6435   */\n      dup2\n        /* \"#utility.yul\":6429:6430   */\n      0x00\n        /* \"#utility.yul\":6422:6436   */\n      mstore\n        /* \"#utility.yul\":6466:6470   */\n      0x20\n        /* \"#utility.yul\":6463:6464   */\n      0x00\n        /* \"#utility.yul\":6453:6471   */\n      keccak256\n        /* \"#utility.yul\":6445:6471   */\n      swap1\n      pop\n        /* \"#utility.yul\":6337:6478   */\n      swap2\n      swap1\n      pop\n      jump\t// out\n        /* \"#utility.yul\":6484:6577   */\n    tag_92:\n        /* \"#utility.yul\":6521:6527   */\n      0x00\n        /* \"#utility.yul\":6568:6570   */\n      0x20\n        /* \"#utility.yul\":6563:6565   */\n      0x1f\n        /* \"#utility.yul\":6556:6561   */\n      dup4\n        /* \"#utility.yul\":6552:6566   */\n      add\n        /* \"#utility.yul\":6548:6571   */\n      div\n        /* \"#utility.yul\":6538:6571   */\n      swap1\n      pop\n        /* \"#utility.yul\":6484:6577   */\n      swap2\n      swap1\n      pop\n      jump\t// out\n        /* \"#utility.yul\":6583:6690   */\n    tag_93:\n        /* \"#utility.yul\":6627:6635   */\n      0x00\n        /* \"#utility.yul\":6677:6682   */\n      dup3\n        /* \"#utility.yul\":6671:6675   */\n      dup3\n        /* \"#utility.yul\":6667:6683   */\n      shl\n        /* \"#utility.yul\":6646:6683   */\n      swap1\n      pop\n        /* \"#utility.yul\":6583:6690   */\n      swap3\n      swap2\n      pop\n      pop\n      jump\t// out\n        /* \"#utility.yul\":6696:7089   */\n    tag_94:\n        /* \"#utility.yul\":6765:6771   */\n      0x00\n        /* \"#utility.yul\":6815:6816   */\n      0x08\n        /* \"#utility.yul\":6803:6813   */\n      dup4\n        /* \"#utility.yul\":6799:6817   */\n      mul\n        /* \"#utility.yul\":6838:6935   */\n      tag_177\n        /* \"#utility.yul\":6868:6934   */\n      0xffffffffffffffffffffffffffffffffffffffffffffffffffffffffffffffff\n        /* \"#utility.yul\":6857:6866   */\n      dup3\n        /* \"#utility.yul\":6838:6935   */\n      tag_93\n      jump\t// in\n    tag_177:\n        /* \"#utility.yul\":6956:6995   */\n      tag_178\n        /* \"#utility.yul\":6986:6994   */\n      dup7\n        /* \"#utility.yul\":6975:6984   */\n      dup4\n        /* \"#utility.yul\":6956:6995   */\n      tag_93\n      jump\t// in\n    tag_178:\n        /* \"#utility.yul\":6944:6995   */\n      swap6\n      pop\n        /* \"#utility.yul\":7028:7032   */\n      dup1\n        /* \"#utility.yul\":7024:7033   */\n      not\n        /* \"#utility.yul\":7017:7022   */\n      dup5\n        /* \"#utility.yul\":7013:7034   */\n      and\n        /* \"#utility.yul\":7004:7034   */\n      swap4\n      pop\n        /* \"#utility.yul\":7077:7081   */\n      dup1\n        /* \"#utility.yul\":7067:7075   */\n      dup7\n        /* \"#utility.yul\":7063:7082   */\n      and\n        /* \"#utility.yul\":7056:7061   */\n      dup5\n        /* \"#utility.yul\":7053:7083   */\n      or\n        /* \"#utility.yul\":7043:7083   */\n      swap3\n      pop\n        /* \"#utility.yul\":6772:7089   */\n      pop\n      pop\n        /* \"#utility.yul\":6696:7089   */\n      swap4\n      swap3\n      pop\n      pop\n      pop\n      jump\t// out\n        /* \"#utility.yul\":7095:7172   */\n    tag_95:\n        /* \"#utility.yul\":7132:7139   */\n      0x00\n        /* \"#utility.yul\":7161:7166   */\n      dup2\n        /* \"#utility.yul\":7150:7166   */\n      swap1\n      pop\n        /* \"#utility.yul\":7095:7172   */\n      swap2\n      swap1\n      pop\n      jump\t// out\n        /* \"#utility.yul\":7178:7238   */\n    tag_96:\n        /* \"#utility.yul\":7206:7209   */\n      0x00\n        /* \"#utility.yul\":7227:7232   */\n      dup2\n        /* \"#utility.yul\":7220:7232   */\n      swap1\n      pop\n        /* \"#utility.yul\":7178:7238   */\n      swap2\n      swap1\n      pop\n      jump\t// out\n        /* \"#utility.yul\":7244:7386   */\n    tag_97:\n        /* \"#utility.yul\":7294:7303   */\n      0x00\n        /* \"#utility.yul\":7327:7380   */\n      tag_182\n        /* \"#utility.yul\":7345:7379   */\n      tag_183\n        /* \"#utility.yul\":7354:7378   */\n      tag_184\n        /* \"#utility.yul\":7372:7377   */\n      dup5\n        /* \"#utility.yul\":7354:7378   */\n      tag_95\n      jump\t// in\n    tag_184:\n        /* \"#utility.yul\":7345:7379   */\n      tag_96\n      jump\t// in\n    tag_183:\n        /* \"#utility.yul\":7327:7380   */\n      tag_95\n      jump\t// in\n    tag_182:\n        /* \"#utility.yul\":7314:7380   */\n      swap1\n      pop\n        /* \"#utility.yul\":7244:7386   */\n      swap2\n      swap1\n      pop\n      jump\t// out\n        /* \"#utility.yul\":7392:7467   */\n    tag_98:\n        /* \"#utility.yul\":7435:7438   */\n      0x00\n        /* \"#utility.yul\":7456:7461   */\n      dup2\n        /* \"#utility.yul\":7449:7461   */\n      swap1\n      pop\n        /* \"#utility.yul\":7392:7467   */\n      swap2\n      swap1\n      pop\n      jump\t// out\n        /* \"#utility.yul\":7473:7742   */\n    tag_99:\n        /* \"#utility.yul\":7583:7622   */\n      tag_187\n        /* \"#utility.yul\":7614:7621   */\n      dup4\n        /* \"#utility.yul\":7583:7622   */\n      tag_97\n      jump\t// in\n    tag_187:\n        /* \"#utility.yul\":7644:7735   */\n      tag_188\n        /* \"#utility.yul\":7693:7734   */\n      tag_189\n        /* \"#utility.yul\":7717:7733   */\n      dup3\n        /* \"#utility.yul\":7693:7734   */\n      tag_98\n      jump\t// in\n    tag_189:\n        /* \"#utility.yul\":7685:7691   */\n      dup5\n        /* \"#utility.yul\":7678:7682   */\n      dup5\n        /* \"#utility.yul\":7672:7683   */\n      sload\n        /* \"#utility.yul\":7644:7735   */\n      tag_94\n      jump\t// in\n    tag_188:\n        /* \"#utility.yul\":7638:7642   */\n      dup3\n        /* \"#utility.yul\":7631:7736   */\n      sstore\n        /* \"#utility.yul\":7549:7742   */\n      pop\n        /* \"#utility.yul\":7473:7742   */\n      pop\n      pop\n      pop\n      jump\t// out\n        /* \"#utility.yul\":7748:7821   */\n    tag_100:\n        /* \"#utility.yul\":7793:7796   */\n      0x00\n        /* \"#utility.yul\":7748:7821   */\n      swap1\n      jump\t// out\n        /* \"#utility.yul\":7827:8016   */\n    tag_101:\n        /* \"#utility.yul\":7904:7936   */\n      tag_192\n      tag_100\n      jump\t// in\n    tag_192:\n        /* \"#utility.yul\":7945:8010   */\n      tag_193\n        /* \"#utility.yul\":8003:8009   */\n      dup2\n        /* \"#utility.yul\":7995:8001   */\n      dup5\n        /* \"#utility.yul\":7989:7993   */\n      dup5\n        /* \"#utility.yul\":7945:8010   */\n      tag_99\n      jump\t// in\n    tag_193:\n        /* \"#utility.yul\":7880:8016   */\n      pop\n        /* \"#utility.yul\":7827:8016   */\n      pop\n      pop\n      jump\t// out\n        /* \"#utility.yul\":8022:8208   */\n    tag_102:\n        /* \"#utility.yul\":8082:8202   */\n    tag_195:\n        /* \"#utility.yul\":8099:8102   */\n      dup2\n        /* \"#utility.yul\":8092:8097   */\n      dup2\n        /* \"#utility.yul\":8089:8103   */\n      lt\n        /* \"#utility.yul\":8082:8202   */\n      iszero\n      tag_197\n      jumpi\n        /* \"#utility.yul\":8153:8192   */\n      tag_198\n        /* \"#utility.yul\":8190:8191   */\n      0x00\n        /* \"#utility.yul\":8183:8188   */\n      dup3\n        /* \"#utility.yul\":8153:8192   */\n      tag_101\n      jump\t// in\n    tag_198:\n        /* \"#utility.yul\":8126:8127   */\n      0x01\n        /* \"#utility.yul\":8119:8124   */\n      dup2\n        /* \"#utility.yul\":8115:8128   */\n      add\n        /* \"#utility.yul\":8106:8128   */\n      swap1\n      pop\n        /* \"#utility.yul\":8082:8202   */\n      jump(tag_195)\n    tag_197:\n        /* \"#utility.yul\":8022:8208   */\n      pop\n      pop\n      jump\t// out\n        /* \"#utility.yul\":8214:8757   */\n    tag_103:\n        /* \"#utility.yul\":8315:8317   */\n      0x1f\n        /* \"#utility.yul\":8310:8313   */\n      dup3\n        /* \"#utility.yul\":8307:8318   */\n      gt\n        /* \"#utility.yul\":8304:8750   */\n      iszero\n      tag_200\n      jumpi\n        /* \"#utility.yul\":8349:8387   */\n      tag_201\n        /* \"#utility.yul\":8381:8386   */\n      dup2\n        /* \"#utility.yul\":8349:8387   */\n      tag_91\n      jump\t// in\n    tag_201:\n        /* \"#utility.yul\":8433:8462   */\n      tag_202\n        /* \"#utility.yul\":8451:8461   */\n      dup5\n        /* \"#utility.yul\":8433:8462   */\n      tag_92\n      jump\t// in\n    tag_202:\n        /* \"#utility.yul\":8423:8431   */\n      dup2\n        /* \"#utility.yul\":8419:8463   */\n      add\n        /* \"#utility.yul\":8616:8618   */\n      0x20\n        /* \"#utility.yul\":8604:8614   */\n      dup6\n        /* \"#utility.yul\":8601:8619   */\n      lt\n        /* \"#utility.yul\":8598:8647   */\n      iszero\n      tag_203\n      jumpi\n        /* \"#utility.yul\":8637:8645   */\n      dup2\n        /* \"#utility.yul\":8622:8645   */\n      swap1\n      pop\n        /* \"#utility.yul\":8598:8647   */\n    tag_203:\n        /* \"#utility.yul\":8660:8740   */\n      tag_204\n        /* \"#utility.yul\":8716:8738   */\n      tag_205\n        /* \"#utility.yul\":8734:8737   */\n      dup6\n        /* \"#utility.yul\":8716:8738   */\n      tag_92\n      jump\t// in\n    tag_205:\n        /* \"#utility.yul\":8706:8714   */\n      dup4\n        /* \"#utility.yul\":8702:8739   */\n      add\n        /* \"#utility.yul\":8689:8700   */\n      dup3\n        /* \"#utility.yul\":8660:8740   */\n      tag_102\n      jump\t// in\n    tag_204:\n        /* \"#utility.yul\":8319:8750   */\n      pop\n      pop\n        /* \"#utility.yul\":8304:8750   */\n    tag_200:\n        /* \"#utility.yul\":8214:8757   */\n      pop\n      pop\n      pop\n      jump\t// out\n        /* \"#utility.yul\":8763:8880   */\n    tag_104:\n        /* \"#utility.yul\":8817:8825   */\n      0x00\n        /* \"#utility.yul\":8867:8872   */\n      dup3\n        /* \"#utility.yul\":8861:8865   */\n      dup3\n        /* \"#utility.yul\":8857:8873   */\n      shr\n        /* \"#utility.yul\":8836:8873   */\n      swap1\n      pop\n        /* \"#utility.yul\":8763:8880   */\n      swap3\n      swap2\n      pop\n      pop\n      jump\t// out\n        /* \"#utility.yul\":8886:9055   */\n    tag_105:\n        /* \"#utility.yul\":8930:8936   */\n      0x00\n        /* \"#utility.yul\":8963:9014   */\n      tag_208\n        /* \"#utility.yul\":9011:9012   */\n      0x00\n        /* \"#utility.yul\":9007:9013   */\n      not\n        /* \"#utility.yul\":8999:9004   */\n      dup5\n        /* \"#utility.yul\":8996:8997   */\n      0x08\n        /* \"#utility.yul\":8992:9005   */\n      mul\n        /* \"#utility.yul\":8963:9014   */\n      tag_104\n      jump\t// in\n    tag_208:\n        /* \"#utility.yul\":8959:9015   */\n      not\n        /* \"#utility.yul\":9044:9048   */\n      dup1\n        /* \"#utility.yul\":9038:9042   */\n      dup4\n        /* \"#utility.yul\":9034:9049   */\n      and\n        /* \"#utility.yul\":9024:9049   */\n      swap2\n      pop\n        /* \"#utility.yul\":8937:9055   */\n      pop\n        /* \"#utility.yul\":8886:9055   */\n      swap3\n      swap2\n      pop\n      pop\n      jump\t// out\n        /* \"#utility.yul\":9060:9355   */\n    tag_106:\n        /* \"#utility.yul\":9136:9140   */\n      0x00\n        /* \"#utility.yul\":9282:9311   */\n      tag_210\n        /* \"#utility.yul\":9307:9310   */\n      dup4\n        /* \"#utility.yul\":9301:9305   */\n      dup4\n        /* \"#utility.yul\":9282:9311   */\n      tag_105\n      jump\t// in\n    tag_210:\n        /* \"#utility.yul\":9274:9311   */\n      swap2\n      pop\n        /* \"#utility.yul\":9344:9347   */\n      dup3\n        /* \"#utility.yul\":9341:9342   */\n      0x02\n        /* \"#utility.yul\":9337:9348   */\n      mul\n        /* \"#utility.yul\":9331:9335   */\n      dup3\n        /* \"#utility.yul\":9328:9349   */\n      or\n        /* \"#utility.yul\":9320:9349   */\n      swap1\n      pop\n        /* \"#utility.yul\":9060:9355   */\n      swap3\n      swap2\n      pop\n      pop\n      jump\t// out\n        /* \"#utility.yul\":9360:10755   */\n    tag_36:\n        /* \"#utility.yul\":9477:9514   */\n      tag_212\n        /* \"#utility.yul\":9510:9513   */\n      dup3\n        /* \"#utility.yul\":9477:9514   */\n      tag_86\n      jump\t// in\n    tag_212:\n        /* \"#utility.yul\":9579:9597   */\n      0xffffffffffffffff\n        /* \"#utility.yul\":9571:9577   */\n      dup2\n        /* \"#utility.yul\":9568:9598   */\n      gt\n        /* \"#utility.yul\":9565:9621   */\n      iszero\n      tag_213\n      jumpi\n        /* \"#utility.yul\":9601:9619   */\n      tag_214\n      tag_79\n      jump\t// in\n    tag_214:\n        /* \"#utility.yul\":9565:9621   */\n    tag_213:\n        /* \"#utility.yul\":9645:9683   */\n      tag_215\n        /* \"#utility.yul\":9677:9681   */\n      dup3\n        /* \"#utility.yul\":9671:9682   */\n      sload\n        /* \"#utility.yul\":9645:9683   */\n      tag_43\n      jump\t// in\n    tag_215:\n        /* \"#utility.yul\":9730:9797   */\n      tag_216\n        /* \"#utility.yul\":9790:9796   */\n      dup3\n        /* \"#utility.yul\":9782:9788   */\n      dup3\n        /* \"#utility.yul\":9776:9780   */\n      dup6\n        /* \"#utility.yul\":9730:9797   */\n      tag_103\n      jump\t// in\n    tag_216:\n        /* \"#utility.yul\":9824:9825   */\n      0x00\n        /* \"#utility.yul\":9848:9852   */\n      0x20\n        /* \"#utility.yul\":9835:9852   */\n      swap1\n      pop\n        /* \"#utility.yul\":9880:9882   */\n      0x1f\n        /* \"#utility.yul\":9872:9878   */\n      dup4\n        /* \"#utility.yul\":9869:9883   */\n      gt\n        /* \"#utility.yul\":9897:9898   */\n      0x01\n        /* \"#utility.yul\":9892:10510   */\n      dup2\n      eq\n      tag_218\n      jumpi\n        /* \"#utility.yul\":10554:10555   */\n      0x00\n        /* \"#utility.yul\":10571:10577   */\n      dup5\n        /* \"#utility.yul\":10568:10645   */\n      iszero\n      tag_219\n      jumpi\n        /* \"#utility.yul\":10620:10629   */\n      dup3\n        /* \"#utility.yul\":10615:10618   */\n      dup8\n        /* \"#utility.yul\":10611:10630   */\n      add\n        /* \"#utility.yul\":10605:10631   */\n      mload\n        /* \"#utility.yul\":10596:10631   */\n      swap1\n      pop\n        /* \"#utility.yul\":10568:10645   */\n    tag_219:\n        /* \"#utility.yul\":10671:10738   */\n      tag_220\n        /* \"#utility.yul\":10731:10737   */\n      dup6\n        /* \"#utility.yul\":10724:10729   */\n      dup3\n        /* \"#utility.yul\":10671:10738   */\n      tag_106\n      jump\t// in\n    tag_220:\n        /* \"#utility.yul\":10665:10669   */\n      dup7\n        /* \"#utility.yul\":10658:10739   */\n      sstore\n        /* \"#utility.yul\":10527:10749   */\n      pop\n        /* \"#utility.yul\":9862:10749   */\n      jump(tag_217)\n        /* \"#utility.yul\":9892:10510   */\n    tag_218:\n        /* \"#utility.yul\":9944:9948   */\n      0x1f\n        /* \"#utility.yul\":9940:9949   */\n      not\n        /* \"#utility.yul\":9932:9938   */\n      dup5\n        /* \"#utility.yul\":9928:9950   */\n      and\n        /* \"#utility.yul\":9978:10015   */\n      tag_221\n        /* \"#utility.yul\":10010:10014   */\n      dup7\n        /* \"#utility.yul\":9978:10015   */\n      tag_91\n      jump\t// in\n    tag_221:\n        /* \"#utility.yul\":10037:10038   */\n      0x00\n        /* \"#utility.yul\":10051:10259   */\n    tag_222:\n        /* \"#utility.yul\":10065:10072   */\n      dup3\n        /* \"#utility.yul\":10062:10063   */\n      dup2\n        /* \"#utility.yul\":10059:10073   */\n      lt\n        /* \"#utility.yul\":10051:10259   */\n      iszero\n      tag_224\n      jumpi\n        /* \"#utility.yul\":10144:10153   */\n      dup5\n        /* \"#utility.yul\":10139:10142   */\n      dup10\n        /* \"#utility.yul\":10135:10154   */\n      add\n        /* \"#utility.yul\":10129:10155   */\n      mload\n        /* \"#utility.yul\":10121:10127   */\n      dup3\n        /* \"#utility.yul\":10114:10156   */\n      sstore\n        /* \"#utility.yul\":10195:10196   */\n      0x01\n        /* \"#utility.yul\":10187:10193   */\n      dup3\n        /* \"#utility.yul\":10183:10197   */\n      add\n        /* \"#utility.yul\":10173:10197   */\n      swap2\n      pop\n        /* \"#utility.yul\":10242:10244   */\n      0x20\n        /* \"#utility.yul\":10231:10240   */\n      dup6\n        /* \"#utility.yul\":10227:10245   */\n      add\n        /* \"#utility.yul\":10214:10245   */\n      swap5\n      pop\n        /* \"#utility.yul\":10088:10092   */\n      0x20\n        /* \"#utility.yul\":10085:10086   */\n      dup2\n        /* \"#utility.yul\":10081:10093   */\n      add\n        /* \"#utility.yul\":10076:10093   */\n      swap1\n      pop\n        /* \"#utility.yul\":10051:10259   */\n      jump(tag_222)\n    tag_224:\n        /* \"#utility.yul\":10287:10293   */\n      dup7\n        /* \"#utility.yul\":10278:10285   */\n      dup4\n        /* \"#utility.yul\":10275:10294   */\n      lt\n        /* \"#utility.yul\":10272:10451   */\n      iszero\n      tag_225\n      jumpi\n        /* \"#utility.yul\":10345:10354   */\n      dup5\n        /* \"#utility.yul\":10340:10343   */\n      dup10\n        /* \"#utility.yul\":10336:10355   */\n      add\n        /* \"#utility.yul\":10330:10356   */\n      mload\n        /* \"#utility.yul\":10388:10436   */\n      tag_226\n        /* \"#utility.yul\":10430:10434   */\n      0x1f\n        /* \"#utility.yul\":10422:10428   */\n      dup10\n        /* \"#utility.yul\":10418:10435   */\n      and\n        /* \"#utility.yul\":10407:10416   */\n      dup3\n        /* \"#utility.yul\":10388:10436   */\n      tag_105\n      jump\t// in\n    tag_226:\n        /* \"#utility.yul\":10380:10386   */\n      dup4\n        /* \"#utility.yul\":10373:10437   */\n      sstore\n        /* \"#utility.yul\":10295:10451   */\n      pop\n        /* \"#utility.yul\":10272:10451   */\n    tag_225:\n        /* \"#utility.yul\":10497:10498   */\n      0x01\n        /* \"#utility.yul\":10493:10494   */\n      0x02\n        /* \"#utility.yul\":10485:10491   */\n      dup9\n        /* \"#utility.yul\":10481:10495   */\n      mul\n        /* \"#utility.yul\":10477:10499   */\n      add\n        /* \"#utility.yul\":10471:10475   */\n      dup9\n        /* \"#utility.yul\":10464:10500   */\n      sstore\n        /* \"#utility.yul\":9899:10510   */\n      pop\n      pop\n      pop\n        /* \"#utility.yul\":9862:10749   */\n    tag_217:\n      pop\n        /* \"#utility.yul\":9452:10755   */\n      pop\n      pop\n      pop\n        /* \"#utility.yul\":9360:10755   */\n      pop\n      pop\n      jump\t// out\n\n    auxdata: 0xa264697066735822122002d26e816fdda0990a9d1d0dde6cf8efc345b2e3ec7762bdfd9370a2fb4df69364736f6c634300081a0033\n}\n",
				"bytecode": {
					"linkReferences": {},
					"object": "6080604052348015600e575f80fd5b50610b038061001c5f395ff3fe608060405234801561000f575f80fd5b506004361061007b575f3560e01c806347ccca021161005957806347ccca02146100d757806356f18b89146100f55780639ab03dcb14610113578063aeb7c415146101315761007b565b80630d5dd7061461007f5780633e2778771461009b5780634589fe0c146100b9575b5f80fd5b6100996004803603810190610094919061064a565b61014f565b005b6100a36101b6565b6040516100b091906107db565b60405180910390f35b6100c1610242565b6040516100ce91906107db565b60405180910390f35b6100df6102cd565b6040516100ec91906107db565b60405180910390f35b6100fd610359565b60405161010a91906107db565b60405180910390f35b61011b6103e5565b60405161012891906107db565b60405180910390f35b610139610471565b60405161014691906107db565b60405180910390f35b855f908161015d91906109fe565b50846001908161016d91906109fe565b50836002908161017d91906109fe565b50826003908161018d91906109fe565b50816004908161019d91906109fe565b5080600590816101ad91906109fe565b50505050505050565b600380546101c390610828565b80601f01602080910402602001604051908101604052809291908181526020018280546101ef90610828565b801561023a5780601f106102115761010080835404028352916020019161023a565b820191905f5260205f20905b81548152906001019060200180831161021d57829003601f168201915b505050505081565b5f805461024e90610828565b80601f016020809104026020016040519081016040528092919081815260200182805461027a90610828565b80156102c55780601f1061029c576101008083540402835291602001916102c5565b820191905f5260205f20905b8154815290600101906020018083116102a857829003601f168201915b505050505081565b600580546102da90610828565b80601f016020809104026020016040519081016040528092919081815260200182805461030690610828565b80156103515780601f1061032857610100808354040283529160200191610351565b820191905f5260205f20905b81548152906001019060200180831161033457829003601f168201915b505050505081565b6004805461036690610828565b80601f016020809104026020016040519081016040528092919081815260200182805461039290610828565b80156103dd5780601f106103b4576101008083540402835291602001916103dd565b820191905f5260205f20905b8154815290600101906020018083116103c057829003601f168201915b505050505081565b600180546103f290610828565b80601f016020809104026020016040519081016040528092919081815260200182805461041e90610828565b80156104695780601f1061044057610100808354040283529160200191610469565b820191905f5260205f20905b81548152906001019060200180831161044c57829003601f168201915b505050505081565b6002805461047e90610828565b80601f01602080910402602001604051908101604052809291908181526020018280546104aa90610828565b80156104f55780601f106104cc576101008083540402835291602001916104f5565b820191905f5260205f20905b8154815290600101906020018083116104d857829003601f168201915b505050505081565b5f604051905090565b5f80fd5b5f80fd5b5f80fd5b5f80fd5b5f601f19601f8301169050919050565b7f4e487b71000000000000000000000000000000000000000000000000000000005f52604160045260245ffd5b61055c82610516565b810181811067ffffffffffffffff8211171561057b5761057a610526565b5b80604052505050565b5f61058d6104fd565b90506105998282610553565b919050565b5f67ffffffffffffffff8211156105b8576105b7610526565b5b6105c182610516565b9050602081019050919050565b828183375f83830152505050565b5f6105ee6105e98461059e565b610584565b90508281526020810184848401111561060a57610609610512565b5b6106158482856105ce565b509392505050565b5f82601f8301126106315761063061050e565b5b81356106418482602086016105dc565b91505092915050565b5f805f805f8060c0878903121561066457610663610506565b5b5f87013567ffffffffffffffff8111156106815761068061050a565b5b61068d89828a0161061d565b965050602087013567ffffffffffffffff8111156106ae576106ad61050a565b5b6106ba89828a0161061d565b955050604087013567ffffffffffffffff8111156106db576106da61050a565b5b6106e789828a0161061d565b945050606087013567ffffffffffffffff8111156107085761070761050a565b5b61071489828a0161061d565b935050608087013567ffffffffffffffff8111156107355761073461050a565b5b61074189828a0161061d565b92505060a087013567ffffffffffffffff8111156107625761076161050a565b5b61076e89828a0161061d565b9150509295509295509295565b5f81519050919050565b5f82825260208201905092915050565b8281835e5f83830152505050565b5f6107ad8261077b565b6107b78185610785565b93506107c7818560208601610795565b6107d081610516565b840191505092915050565b5f6020820190508181035f8301526107f381846107a3565b905092915050565b7f4e487b71000000000000000000000000000000000000000000000000000000005f52602260045260245ffd5b5f600282049050600182168061083f57607f821691505b602082108103610852576108516107fb565b5b50919050565b5f819050815f5260205f209050919050565b5f6020601f8301049050919050565b5f82821b905092915050565b5f600883026108b47fffffffffffffffffffffffffffffffffffffffffffffffffffffffffffffffff82610879565b6108be8683610879565b95508019841693508086168417925050509392505050565b5f819050919050565b5f819050919050565b5f6109026108fd6108f8846108d6565b6108df565b6108d6565b9050919050565b5f819050919050565b61091b836108e8565b61092f61092782610909565b848454610885565b825550505050565b5f90565b610943610937565b61094e818484610912565b505050565b5b81811015610971576109665f8261093b565b600181019050610954565b5050565b601f8211156109b65761098781610858565b6109908461086a565b8101602085101561099f578190505b6109b36109ab8561086a565b830182610953565b50505b505050565b5f82821c905092915050565b5f6109d65f19846008026109bb565b1980831691505092915050565b5f6109ee83836109c7565b9150826002028217905092915050565b610a078261077b565b67ffffffffffffffff811115610a2057610a1f610526565b5b610a2a8254610828565b610a35828285610975565b5f60209050601f831160018114610a66575f8415610a54578287015190505b610a5e85826109e3565b865550610ac5565b601f198416610a7486610858565b5f5b82811015610a9b57848901518255600182019150602085019450602081019050610a76565b86831015610ab85784890151610ab4601f8916826109c7565b8355505b6001600288020188555050505b50505050505056fea264697066735822122002d26e816fdda0990a9d1d0dde6cf8efc345b2e3ec7762bdfd9370a2fb4df69364736f6c634300081a0033",
					"opcodes": "PUSH1 0x80 PUSH1 0x40 MSTORE CALLVALUE DUP1 ISZERO PUSH1 0xE JUMPI PUSH0 DUP1 REVERT JUMPDEST POP PUSH2 0xB03 DUP1 PUSH2 0x1C PUSH0 CODECOPY PUSH0 RETURN INVALID PUSH1 0x80 PUSH1 0x40 MSTORE CALLVALUE DUP1 ISZERO PUSH2 0xF JUMPI PUSH0 DUP1 REVERT JUMPDEST POP PUSH1 0x4 CALLDATASIZE LT PUSH2 0x7B JUMPI PUSH0 CALLDATALOAD PUSH1 0xE0 SHR DUP1 PUSH4 0x47CCCA02 GT PUSH2 0x59 JUMPI DUP1 PUSH4 0x47CCCA02 EQ PUSH2 0xD7 JUMPI DUP1 PUSH4 0x56F18B89 EQ PUSH2 0xF5 JUMPI DUP1 PUSH4 0x9AB03DCB EQ PUSH2 0x113 JUMPI DUP1 PUSH4 0xAEB7C415 EQ PUSH2 0x131 JUMPI PUSH2 0x7B JUMP JUMPDEST DUP1 PUSH4 0xD5DD706 EQ PUSH2 0x7F JUMPI DUP1 PUSH4 0x3E277877 EQ PUSH2 0x9B JUMPI DUP1 PUSH4 0x4589FE0C EQ PUSH2 0xB9 JUMPI JUMPDEST PUSH0 DUP1 REVERT JUMPDEST PUSH2 0x99 PUSH1 0x4 DUP1 CALLDATASIZE SUB DUP2 ADD SWAP1 PUSH2 0x94 SWAP2 SWAP1 PUSH2 0x64A JUMP JUMPDEST PUSH2 0x14F JUMP JUMPDEST STOP JUMPDEST PUSH2 0xA3 PUSH2 0x1B6 JUMP JUMPDEST PUSH1 0x40 MLOAD PUSH2 0xB0 SWAP2 SWAP1 PUSH2 0x7DB JUMP JUMPDEST PUSH1 0x40 MLOAD DUP1 SWAP2 SUB SWAP1 RETURN JUMPDEST PUSH2 0xC1 PUSH2 0x242 JUMP JUMPDEST PUSH1 0x40 MLOAD PUSH2 0xCE SWAP2 SWAP1 PUSH2 0x7DB JUMP JUMPDEST PUSH1 0x40 MLOAD DUP1 SWAP2 SUB SWAP1 RETURN JUMPDEST PUSH2 0xDF PUSH2 0x2CD JUMP JUMPDEST PUSH1 0x40 MLOAD PUSH2 0xEC SWAP2 SWAP1 PUSH2 0x7DB JUMP JUMPDEST PUSH1 0x40 MLOAD DUP1 SWAP2 SUB SWAP1 RETURN JUMPDEST PUSH2 0xFD PUSH2 0x359 JUMP JUMPDEST PUSH1 0x40 MLOAD PUSH2 0x10A SWAP2 SWAP1 PUSH2 0x7DB JUMP JUMPDEST PUSH1 0x40 MLOAD DUP1 SWAP2 SUB SWAP1 RETURN JUMPDEST PUSH2 0x11B PUSH2 0x3E5 JUMP JUMPDEST PUSH1 0x40 MLOAD PUSH2 0x128 SWAP2 SWAP1 PUSH2 0x7DB JUMP JUMPDEST PUSH1 0x40 MLOAD DUP1 SWAP2 SUB SWAP1 RETURN JUMPDEST PUSH2 0x139 PUSH2 0x471 JUMP JUMPDEST PUSH1 0x40 MLOAD PUSH2 0x146 SWAP2 SWAP1 PUSH2 0x7DB JUMP JUMPDEST PUSH1 0x40 MLOAD DUP1 SWAP2 SUB SWAP1 RETURN JUMPDEST DUP6 PUSH0 SWAP1 DUP2 PUSH2 0x15D SWAP2 SWAP1 PUSH2 0x9FE JUMP JUMPDEST POP DUP5 PUSH1 0x1 SWAP1 DUP2 PUSH2 0x16D SWAP2 SWAP1 PUSH2 0x9FE JUMP JUMPDEST POP DUP4 PUSH1 0x2 SWAP1 DUP2 PUSH2 0x17D SWAP2 SWAP1 PUSH2 0x9FE JUMP JUMPDEST POP DUP3 PUSH1 0x3 SWAP1 DUP2 PUSH2 0x18D SWAP2 SWAP1 PUSH2 0x9FE JUMP JUMPDEST POP DUP2 PUSH1 0x4 SWAP1 DUP2 PUSH2 0x19D SWAP2 SWAP1 PUSH2 0x9FE JUMP JUMPDEST POP DUP1 PUSH1 0x5 SWAP1 DUP2 PUSH2 0x1AD SWAP2 SWAP1 PUSH2 0x9FE JUMP JUMPDEST POP POP POP POP POP POP POP JUMP JUMPDEST PUSH1 0x3 DUP1 SLOAD PUSH2 0x1C3 SWAP1 PUSH2 0x828 JUMP JUMPDEST DUP1 PUSH1 0x1F ADD PUSH1 0x20 DUP1 SWAP2 DIV MUL PUSH1 0x20 ADD PUSH1 0x40 MLOAD SWAP1 DUP2 ADD PUSH1 0x40 MSTORE DUP1 SWAP3 SWAP2 SWAP1 DUP2 DUP2 MSTORE PUSH1 0x20 ADD DUP3 DUP1 SLOAD PUSH2 0x1EF SWAP1 PUSH2 0x828 JUMP JUMPDEST DUP1 ISZERO PUSH2 0x23A JUMPI DUP1 PUSH1 0x1F LT PUSH2 0x211 JUMPI PUSH2 0x100 DUP1 DUP4 SLOAD DIV MUL DUP4 MSTORE SWAP2 PUSH1 0x20 ADD SWAP2 PUSH2 0x23A JUMP JUMPDEST DUP3 ADD SWAP2 SWAP1 PUSH0 MSTORE PUSH1 0x20 PUSH0 KECCAK256 SWAP1 JUMPDEST DUP2 SLOAD DUP2 MSTORE SWAP1 PUSH1 0x1 ADD SWAP1 PUSH1 0x20 ADD DUP1 DUP4 GT PUSH2 0x21D JUMPI DUP3 SWAP1 SUB PUSH1 0x1F AND DUP3 ADD SWAP2 JUMPDEST POP POP POP POP POP DUP2 JUMP JUMPDEST PUSH0 DUP1 SLOAD PUSH2 0x24E SWAP1 PUSH2 0x828 JUMP JUMPDEST DUP1 PUSH1 0x1F ADD PUSH1 0x20 DUP1 SWAP2 DIV MUL PUSH1 0x20 ADD PUSH1 0x40 MLOAD SWAP1 DUP2 ADD PUSH1 0x40 MSTORE DUP1 SWAP3 SWAP2 SWAP1 DUP2 DUP2 MSTORE PUSH1 0x20 ADD DUP3 DUP1 SLOAD PUSH2 0x27A SWAP1 PUSH2 0x828 JUMP JUMPDEST DUP1 ISZERO PUSH2 0x2C5 JUMPI DUP1 PUSH1 0x1F LT PUSH2 0x29C JUMPI PUSH2 0x100 DUP1 DUP4 SLOAD DIV MUL DUP4 MSTORE SWAP2 PUSH1 0x20 ADD SWAP2 PUSH2 0x2C5 JUMP JUMPDEST DUP3 ADD SWAP2 SWAP1 PUSH0 MSTORE PUSH1 0x20 PUSH0 KECCAK256 SWAP1 JUMPDEST DUP2 SLOAD DUP2 MSTORE SWAP1 PUSH1 0x1 ADD SWAP1 PUSH1 0x20 ADD DUP1 DUP4 GT PUSH2 0x2A8 JUMPI DUP3 SWAP1 SUB PUSH1 0x1F AND DUP3 ADD SWAP2 JUMPDEST POP POP POP POP POP DUP2 JUMP JUMPDEST PUSH1 0x5 DUP1 SLOAD PUSH2 0x2DA SWAP1 PUSH2 0x828 JUMP JUMPDEST DUP1 PUSH1 0x1F ADD PUSH1 0x20 DUP1 SWAP2 DIV MUL PUSH1 0x20 ADD PUSH1 0x40 MLOAD SWAP1 DUP2 ADD PUSH1 0x40 MSTORE DUP1 SWAP3 SWAP2 SWAP1 DUP2 DUP2 MSTORE PUSH1 0x20 ADD DUP3 DUP1 SLOAD PUSH2 0x306 SWAP1 PUSH2 0x828 JUMP JUMPDEST DUP1 ISZERO PUSH2 0x351 JUMPI DUP1 PUSH1 0x1F LT PUSH2 0x328 JUMPI PUSH2 0x100 DUP1 DUP4 SLOAD DIV MUL DUP4 MSTORE SWAP2 PUSH1 0x20 ADD SWAP2 PUSH2 0x351 JUMP JUMPDEST DUP3 ADD SWAP2 SWAP1 PUSH0 MSTORE PUSH1 0x20 PUSH0 KECCAK256 SWAP1 JUMPDEST DUP2 SLOAD DUP2 MSTORE SWAP1 PUSH1 0x1 ADD SWAP1 PUSH1 0x20 ADD DUP1 DUP4 GT PUSH2 0x334 JUMPI DUP3 SWAP1 SUB PUSH1 0x1F AND DUP3 ADD SWAP2 JUMPDEST POP POP POP POP POP DUP2 JUMP JUMPDEST PUSH1 0x4 DUP1 SLOAD PUSH2 0x366 SWAP1 PUSH2 0x828 JUMP JUMPDEST DUP1 PUSH1 0x1F ADD PUSH1 0x20 DUP1 SWAP2 DIV MUL PUSH1 0x20 ADD PUSH1 0x40 MLOAD SWAP1 DUP2 ADD PUSH1 0x40 MSTORE DUP1 SWAP3 SWAP2 SWAP1 DUP2 DUP2 MSTORE PUSH1 0x20 ADD DUP3 DUP1 SLOAD PUSH2 0x392 SWAP1 PUSH2 0x828 JUMP JUMPDEST DUP1 ISZERO PUSH2 0x3DD JUMPI DUP1 PUSH1 0x1F LT PUSH2 0x3B4 JUMPI PUSH2 0x100 DUP1 DUP4 SLOAD DIV MUL DUP4 MSTORE SWAP2 PUSH1 0x20 ADD SWAP2 PUSH2 0x3DD JUMP JUMPDEST DUP3 ADD SWAP2 SWAP1 PUSH0 MSTORE PUSH1 0x20 PUSH0 KECCAK256 SWAP1 JUMPDEST DUP2 SLOAD DUP2 MSTORE SWAP1 PUSH1 0x1 ADD SWAP1 PUSH1 0x20 ADD DUP1 DUP4 GT PUSH2 0x3C0 JUMPI DUP3 SWAP1 SUB PUSH1 0x1F AND DUP3 ADD SWAP2 JUMPDEST POP POP POP POP POP DUP2 JUMP JUMPDEST PUSH1 0x1 DUP1 SLOAD PUSH2 0x3F2 SWAP1 PUSH2 0x828 JUMP JUMPDEST DUP1 PUSH1 0x1F ADD PUSH1 0x20 DUP1 SWAP2 DIV MUL PUSH1 0x20 ADD PUSH1 0x40 MLOAD SWAP1 DUP2 ADD PUSH1 0x40 MSTORE DUP1 SWAP3 SWAP2 SWAP1 DUP2 DUP2 MSTORE PUSH1 0x20 ADD DUP3 DUP1 SLOAD PUSH2 0x41E SWAP1 PUSH2 0x828 JUMP JUMPDEST DUP1 ISZERO PUSH2 0x469 JUMPI DUP1 PUSH1 0x1F LT PUSH2 0x440 JUMPI PUSH2 0x100 DUP1 DUP4 SLOAD DIV MUL DUP4 MSTORE SWAP2 PUSH1 0x20 ADD SWAP2 PUSH2 0x469 JUMP JUMPDEST DUP3 ADD SWAP2 SWAP1 PUSH0 MSTORE PUSH1 0x20 PUSH0 KECCAK256 SWAP1 JUMPDEST DUP2 SLOAD DUP2 MSTORE SWAP1 PUSH1 0x1 ADD SWAP1 PUSH1 0x20 ADD DUP1 DUP4 GT PUSH2 0x44C JUMPI DUP3 SWAP1 SUB PUSH1 0x1F AND DUP3 ADD SWAP2 JUMPDEST POP POP POP POP POP DUP2 JUMP JUMPDEST PUSH1 0x2 DUP1 SLOAD PUSH2 0x47E SWAP1 PUSH2 0x828 JUMP JUMPDEST DUP1 PUSH1 0x1F ADD PUSH1 0x20 DUP1 SWAP2 DIV MUL PUSH1 0x20 ADD PUSH1 0x40 MLOAD SWAP1 DUP2 ADD PUSH1 0x40 MSTORE DUP1 SWAP3 SWAP2 SWAP1 DUP2 DUP2 MSTORE PUSH1 0x20 ADD DUP3 DUP1 SLOAD PUSH2 0x4AA SWAP1 PUSH2 0x828 JUMP JUMPDEST DUP1 ISZERO PUSH2 0x4F5 JUMPI DUP1 PUSH1 0x1F LT PUSH2 0x4CC JUMPI PUSH2 0x100 DUP1 DUP4 SLOAD DIV MUL DUP4 MSTORE SWAP2 PUSH1 0x20 ADD SWAP2 PUSH2 0x4F5 JUMP JUMPDEST DUP3 ADD SWAP2 SWAP1 PUSH0 MSTORE PUSH1 0x20 PUSH0 KECCAK256 SWAP1 JUMPDEST DUP2 SLOAD DUP2 MSTORE SWAP1 PUSH1 0x1 ADD SWAP1 PUSH1 0x20 ADD DUP1 DUP4 GT PUSH2 0x4D8 JUMPI DUP3 SWAP1 SUB PUSH1 0x1F AND DUP3 ADD SWAP2 JUMPDEST POP POP POP POP POP DUP2 JUMP JUMPDEST PUSH0 PUSH1 0x40 MLOAD SWAP1 POP SWAP1 JUMP JUMPDEST PUSH0 DUP1 REVERT JUMPDEST PUSH0 DUP1 REVERT JUMPDEST PUSH0 DUP1 REVERT JUMPDEST PUSH0 DUP1 REVERT JUMPDEST PUSH0 PUSH1 0x1F NOT PUSH1 0x1F DUP4 ADD AND SWAP1 POP SWAP2 SWAP1 POP JUMP JUMPDEST PUSH32 0x4E487B7100000000000000000000000000000000000000000000000000000000 PUSH0 MSTORE PUSH1 0x41 PUSH1 0x4 MSTORE PUSH1 0x24 PUSH0 REVERT JUMPDEST PUSH2 0x55C DUP3 PUSH2 0x516 JUMP JUMPDEST DUP2 ADD DUP2 DUP2 LT PUSH8 0xFFFFFFFFFFFFFFFF DUP3 GT OR ISZERO PUSH2 0x57B JUMPI PUSH2 0x57A PUSH2 0x526 JUMP JUMPDEST JUMPDEST DUP1 PUSH1 0x40 MSTORE POP POP POP JUMP JUMPDEST PUSH0 PUSH2 0x58D PUSH2 0x4FD JUMP JUMPDEST SWAP1 POP PUSH2 0x599 DUP3 DUP3 PUSH2 0x553 JUMP JUMPDEST SWAP2 SWAP1 POP JUMP JUMPDEST PUSH0 PUSH8 0xFFFFFFFFFFFFFFFF DUP3 GT ISZERO PUSH2 0x5B8 JUMPI PUSH2 0x5B7 PUSH2 0x526 JUMP JUMPDEST JUMPDEST PUSH2 0x5C1 DUP3 PUSH2 0x516 JUMP JUMPDEST SWAP1 POP PUSH1 0x20 DUP2 ADD SWAP1 POP SWAP2 SWAP1 POP JUMP JUMPDEST DUP3 DUP2 DUP4 CALLDATACOPY PUSH0 DUP4 DUP4 ADD MSTORE POP POP POP JUMP JUMPDEST PUSH0 PUSH2 0x5EE PUSH2 0x5E9 DUP5 PUSH2 0x59E JUMP JUMPDEST PUSH2 0x584 JUMP JUMPDEST SWAP1 POP DUP3 DUP2 MSTORE PUSH1 0x20 DUP2 ADD DUP5 DUP5 DUP5 ADD GT ISZERO PUSH2 0x60A JUMPI PUSH2 0x609 PUSH2 0x512 JUMP JUMPDEST JUMPDEST PUSH2 0x615 DUP5 DUP3 DUP6 PUSH2 0x5CE JUMP JUMPDEST POP SWAP4 SWAP3 POP POP POP JUMP JUMPDEST PUSH0 DUP3 PUSH1 0x1F DUP4 ADD SLT PUSH2 0x631 JUMPI PUSH2 0x630 PUSH2 0x50E JUMP JUMPDEST JUMPDEST DUP2 CALLDATALOAD PUSH2 0x641 DUP5 DUP3 PUSH1 0x20 DUP7 ADD PUSH2 0x5DC JUMP JUMPDEST SWAP2 POP POP SWAP3 SWAP2 POP POP JUMP JUMPDEST PUSH0 DUP1 PUSH0 DUP1 PUSH0 DUP1 PUSH1 0xC0 DUP8 DUP10 SUB SLT ISZERO PUSH2 0x664 JUMPI PUSH2 0x663 PUSH2 0x506 JUMP JUMPDEST JUMPDEST PUSH0 DUP8 ADD CALLDATALOAD PUSH8 0xFFFFFFFFFFFFFFFF DUP2 GT ISZERO PUSH2 0x681 JUMPI PUSH2 0x680 PUSH2 0x50A JUMP JUMPDEST JUMPDEST PUSH2 0x68D DUP10 DUP3 DUP11 ADD PUSH2 0x61D JUMP JUMPDEST SWAP7 POP POP PUSH1 0x20 DUP8 ADD CALLDATALOAD PUSH8 0xFFFFFFFFFFFFFFFF DUP2 GT ISZERO PUSH2 0x6AE JUMPI PUSH2 0x6AD PUSH2 0x50A JUMP JUMPDEST JUMPDEST PUSH2 0x6BA DUP10 DUP3 DUP11 ADD PUSH2 0x61D JUMP JUMPDEST SWAP6 POP POP PUSH1 0x40 DUP8 ADD CALLDATALOAD PUSH8 0xFFFFFFFFFFFFFFFF DUP2 GT ISZERO PUSH2 0x6DB JUMPI PUSH2 0x6DA PUSH2 0x50A JUMP JUMPDEST JUMPDEST PUSH2 0x6E7 DUP10 DUP3 DUP11 ADD PUSH2 0x61D JUMP JUMPDEST SWAP5 POP POP PUSH1 0x60 DUP8 ADD CALLDATALOAD PUSH8 0xFFFFFFFFFFFFFFFF DUP2 GT ISZERO PUSH2 0x708 JUMPI PUSH2 0x707 PUSH2 0x50A JUMP JUMPDEST JUMPDEST PUSH2 0x714 DUP10 DUP3 DUP11 ADD PUSH2 0x61D JUMP JUMPDEST SWAP4 POP POP PUSH1 0x80 DUP8 ADD CALLDATALOAD PUSH8 0xFFFFFFFFFFFFFFFF DUP2 GT ISZERO PUSH2 0x735 JUMPI PUSH2 0x734 PUSH2 0x50A JUMP JUMPDEST JUMPDEST PUSH2 0x741 DUP10 DUP3 DUP11 ADD PUSH2 0x61D JUMP JUMPDEST SWAP3 POP POP PUSH1 0xA0 DUP8 ADD CALLDATALOAD PUSH8 0xFFFFFFFFFFFFFFFF DUP2 GT ISZERO PUSH2 0x762 JUMPI PUSH2 0x761 PUSH2 0x50A JUMP JUMPDEST JUMPDEST PUSH2 0x76E DUP10 DUP3 DUP11 ADD PUSH2 0x61D JUMP JUMPDEST SWAP2 POP POP SWAP3 SWAP6 POP SWAP3 SWAP6 POP SWAP3 SWAP6 JUMP JUMPDEST PUSH0 DUP2 MLOAD SWAP1 POP SWAP2 SWAP1 POP JUMP JUMPDEST PUSH0 DUP3 DUP3 MSTORE PUSH1 0x20 DUP3 ADD SWAP1 POP SWAP3 SWAP2 POP POP JUMP JUMPDEST DUP3 DUP2 DUP4 MCOPY PUSH0 DUP4 DUP4 ADD MSTORE POP POP POP JUMP JUMPDEST PUSH0 PUSH2 0x7AD DUP3 PUSH2 0x77B JUMP JUMPDEST PUSH2 0x7B7 DUP2 DUP6 PUSH2 0x785 JUMP JUMPDEST SWAP4 POP PUSH2 0x7C7 DUP2 DUP6 PUSH1 0x20 DUP7 ADD PUSH2 0x795 JUMP JUMPDEST PUSH2 0x7D0 DUP2 PUSH2 0x516 JUMP JUMPDEST DUP5 ADD SWAP2 POP POP SWAP3 SWAP2 POP POP JUMP JUMPDEST PUSH0 PUSH1 0x20 DUP3 ADD SWAP1 POP DUP2 DUP2 SUB PUSH0 DUP4 ADD MSTORE PUSH2 0x7F3 DUP2 DUP5 PUSH2 0x7A3 JUMP JUMPDEST SWAP1 POP SWAP3 SWAP2 POP POP JUMP JUMPDEST PUSH32 0x4E487B7100000000000000000000000000000000000000000000000000000000 PUSH0 MSTORE PUSH1 0x22 PUSH1 0x4 MSTORE PUSH1 0x24 PUSH0 REVERT JUMPDEST PUSH0 PUSH1 0x2 DUP3 DIV SWAP1 POP PUSH1 0x1 DUP3 AND DUP1 PUSH2 0x83F JUMPI PUSH1 0x7F DUP3 AND SWAP2 POP JUMPDEST PUSH1 0x20 DUP3 LT DUP2 SUB PUSH2 0x852 JUMPI PUSH2 0x851 PUSH2 0x7FB JUMP JUMPDEST JUMPDEST POP SWAP2 SWAP1 POP JUMP JUMPDEST PUSH0 DUP2 SWAP1 POP DUP2 PUSH0 MSTORE PUSH1 0x20 PUSH0 KECCAK256 SWAP1 POP SWAP2 SWAP1 POP JUMP JUMPDEST PUSH0 PUSH1 0x20 PUSH1 0x1F DUP4 ADD DIV SWAP1 POP SWAP2 SWAP1 POP JUMP JUMPDEST PUSH0 DUP3 DUP3 SHL SWAP1 POP SWAP3 SWAP2 POP POP JUMP JUMPDEST PUSH0 PUSH1 0x8 DUP4 MUL PUSH2 0x8B4 PUSH32 0xFFFFFFFFFFFFFFFFFFFFFFFFFFFFFFFFFFFFFFFFFFFFFFFFFFFFFFFFFFFFFFFF DUP3 PUSH2 0x879 JUMP JUMPDEST PUSH2 0x8BE DUP7 DUP4 PUSH2 0x879 JUMP JUMPDEST SWAP6 POP DUP1 NOT DUP5 AND SWAP4 POP DUP1 DUP7 AND DUP5 OR SWAP3 POP POP POP SWAP4 SWAP3 POP POP POP JUMP JUMPDEST PUSH0 DUP2 SWAP1 POP SWAP2 SWAP1 POP JUMP JUMPDEST PUSH0 DUP2 SWAP1 POP SWAP2 SWAP1 POP JUMP JUMPDEST PUSH0 PUSH2 0x902 PUSH2 0x8FD PUSH2 0x8F8 DUP5 PUSH2 0x8D6 JUMP JUMPDEST PUSH2 0x8DF JUMP JUMPDEST PUSH2 0x8D6 JUMP JUMPDEST SWAP1 POP SWAP2 SWAP1 POP JUMP JUMPDEST PUSH0 DUP2 SWAP1 POP SWAP2 SWAP1 POP JUMP JUMPDEST PUSH2 0x91B DUP4 PUSH2 0x8E8 JUMP JUMPDEST PUSH2 0x92F PUSH2 0x927 DUP3 PUSH2 0x909 JUMP JUMPDEST DUP5 DUP5 SLOAD PUSH2 0x885 JUMP JUMPDEST DUP3 SSTORE POP POP POP POP JUMP JUMPDEST PUSH0 SWAP1 JUMP JUMPDEST PUSH2 0x943 PUSH2 0x937 JUMP JUMPDEST PUSH2 0x94E DUP2 DUP5 DUP5 PUSH2 0x912 JUMP JUMPDEST POP POP POP JUMP JUMPDEST JUMPDEST DUP2 DUP2 LT ISZERO PUSH2 0x971 JUMPI PUSH2 0x966 PUSH0 DUP3 PUSH2 0x93B JUMP JUMPDEST PUSH1 0x1 DUP2 ADD SWAP1 POP PUSH2 0x954 JUMP JUMPDEST POP POP JUMP JUMPDEST PUSH1 0x1F DUP3 GT ISZERO PUSH2 0x9B6 JUMPI PUSH2 0x987 DUP2 PUSH2 0x858 JUMP JUMPDEST PUSH2 0x990 DUP5 PUSH2 0x86A JUMP JUMPDEST DUP2 ADD PUSH1 0x20 DUP6 LT ISZERO PUSH2 0x99F JUMPI DUP2 SWAP1 POP JUMPDEST PUSH2 0x9B3 PUSH2 0x9AB DUP6 PUSH2 0x86A JUMP JUMPDEST DUP4 ADD DUP3 PUSH2 0x953 JUMP JUMPDEST POP POP JUMPDEST POP POP POP JUMP JUMPDEST PUSH0 DUP3 DUP3 SHR SWAP1 POP SWAP3 SWAP2 POP POP JUMP JUMPDEST PUSH0 PUSH2 0x9D6 PUSH0 NOT DUP5 PUSH1 0x8 MUL PUSH2 0x9BB JUMP JUMPDEST NOT DUP1 DUP4 AND SWAP2 POP POP SWAP3 SWAP2 POP POP JUMP JUMPDEST PUSH0 PUSH2 0x9EE DUP4 DUP4 PUSH2 0x9C7 JUMP JUMPDEST SWAP2 POP DUP3 PUSH1 0x2 MUL DUP3 OR SWAP1 POP SWAP3 SWAP2 POP POP JUMP JUMPDEST PUSH2 0xA07 DUP3 PUSH2 0x77B JUMP JUMPDEST PUSH8 0xFFFFFFFFFFFFFFFF DUP2 GT ISZERO PUSH2 0xA20 JUMPI PUSH2 0xA1F PUSH2 0x526 JUMP JUMPDEST JUMPDEST PUSH2 0xA2A DUP3 SLOAD PUSH2 0x828 JUMP JUMPDEST PUSH2 0xA35 DUP3 DUP3 DUP6 PUSH2 0x975 JUMP JUMPDEST PUSH0 PUSH1 0x20 SWAP1 POP PUSH1 0x1F DUP4 GT PUSH1 0x1 DUP2 EQ PUSH2 0xA66 JUMPI PUSH0 DUP5 ISZERO PUSH2 0xA54 JUMPI DUP3 DUP8 ADD MLOAD SWAP1 POP JUMPDEST PUSH2 0xA5E DUP6 DUP3 PUSH2 0x9E3 JUMP JUMPDEST DUP7 SSTORE POP PUSH2 0xAC5 JUMP JUMPDEST PUSH1 0x1F NOT DUP5 AND PUSH2 0xA74 DUP7 PUSH2 0x858 JUMP JUMPDEST PUSH0 JUMPDEST DUP3 DUP2 LT ISZERO PUSH2 0xA9B JUMPI DUP5 DUP10 ADD MLOAD DUP3 SSTORE PUSH1 0x1 DUP3 ADD SWAP2 POP PUSH1 0x20 DUP6 ADD SWAP5 POP PUSH1 0x20 DUP2 ADD SWAP1 POP PUSH2 0xA76 JUMP JUMPDEST DUP7 DUP4 LT ISZERO PUSH2 0xAB8 JUMPI DUP5 DUP10 ADD MLOAD PUSH2 0xAB4 PUSH1 0x1F DUP10 AND DUP3 PUSH2 0x9C7 JUMP JUMPDEST DUP4 SSTORE POP JUMPDEST PUSH1 0x1 PUSH1 0x2 DUP9 MUL ADD DUP9 SSTORE POP POP POP JUMPDEST POP POP POP POP POP POP JUMP INVALID LOG2 PUSH5 0x6970667358 0x22 SLT KECCAK256 MUL 0xD2 PUSH15 0x816FDDA0990A9D1D0DDE6CF8EFC345 0xB2 0xE3 0xEC PUSH24 0x62BDFD9370A2FB4DF69364736F6C634300081A0033000000 "
				},
				"gasEstimates": {
					"creation": {
						"codeDepositCost": "563800",
						"executionCost": "598",
						"totalCost": "564398"
					},
					"external": {
						"DOB()": "infinite",
						"firstName()": "infinite",
						"lastName()": "infinite",
						"nft()": "infinite",
						"passportNumber()": "infinite",
						"placeOfBirth()": "infinite",
						"setUserDetails(string,string,string,string,string,string)": "infinite"
					}
				},
				"methodIdentifiers": {
					"DOB()": "3e277877",
					"firstName()": "4589fe0c",
					"lastName()": "9ab03dcb",
					"nft()": "47ccca02",
					"passportNumber()": "56f18b89",
					"placeOfBirth()": "aeb7c415",
					"setUserDetails(string,string,string,string,string,string)": "0d5dd706"
				}
			},
			"storageLayout": {
				"storage": [
					{
						"astId": 3,
						"contract": "contracts/SubContract.sol:Sub",
						"label": "firstName",
						"offset": 0,
						"slot": "0",
						"type": "t_string_storage"
					},
					{
						"astId": 5,
						"contract": "contracts/SubContract.sol:Sub",
						"label": "lastName",
						"offset": 0,
						"slot": "1",
						"type": "t_string_storage"
					},
					{
						"astId": 7,
						"contract": "contracts/SubContract.sol:Sub",
						"label": "placeOfBirth",
						"offset": 0,
						"slot": "2",
						"type": "t_string_storage"
					},
					{
						"astId": 9,
						"contract": "contracts/SubContract.sol:Sub",
						"label": "DOB",
						"offset": 0,
						"slot": "3",
						"type": "t_string_storage"
					},
					{
						"astId": 11,
						"contract": "contracts/SubContract.sol:Sub",
						"label": "passportNumber",
						"offset": 0,
						"slot": "4",
						"type": "t_string_storage"
					},
					{
						"astId": 13,
						"contract": "contracts/SubContract.sol:Sub",
						"label": "nft",
						"offset": 0,
						"slot": "5",
						"type": "t_string_storage"
					}
				],
				"types": {
					"t_string_storage": {
						"encoding": "bytes",
						"label": "string",
						"numberOfBytes": "32"
					}
				}
			},
			"userdoc": {
				"kind": "user",
				"methods": {},
				"version": 1
			}
		}
	}
}